{
  "_format": "hh-sol-artifact-1",
  "contractName": "MemeCoin",
  "sourceName": "contracts/MemeCoin.sol",
  "abi": [
    {
      "inputs": [
        {
          "internalType": "string",
          "name": "name",
          "type": "string"
        },
        {
          "internalType": "string",
          "name": "symbol",
          "type": "string"
        },
        {
          "internalType": "uint256",
          "name": "initialSupply",
          "type": "uint256"
        },
        {
          "internalType": "address",
          "name": "owner",
          "type": "address"
        },
        {
          "internalType": "bool",
          "name": "_canMint",
          "type": "bool"
        },
        {
          "internalType": "bool",
          "name": "_canBurn",
          "type": "bool"
        },
        {
          "internalType": "bool",
          "name": "_canPause",
          "type": "bool"
        }
      ],
      "stateMutability": "nonpayable",
      "type": "constructor"
    },
    {
      "inputs": [],
      "name": "ECDSAInvalidSignature",
      "type": "error"
    },
    {
      "inputs": [
        {
          "internalType": "uint256",
          "name": "length",
          "type": "uint256"
        }
      ],
      "name": "ECDSAInvalidSignatureLength",
      "type": "error"
    },
    {
      "inputs": [
        {
          "internalType": "bytes32",
          "name": "s",
          "type": "bytes32"
        }
      ],
      "name": "ECDSAInvalidSignatureS",
      "type": "error"
    },
    {
      "inputs": [
        {
          "internalType": "address",
          "name": "spender",
          "type": "address"
        },
        {
          "internalType": "uint256",
          "name": "allowance",
          "type": "uint256"
        },
        {
          "internalType": "uint256",
          "name": "needed",
          "type": "uint256"
        }
      ],
      "name": "ERC20InsufficientAllowance",
      "type": "error"
    },
    {
      "inputs": [
        {
          "internalType": "address",
          "name": "sender",
          "type": "address"
        },
        {
          "internalType": "uint256",
          "name": "balance",
          "type": "uint256"
        },
        {
          "internalType": "uint256",
          "name": "needed",
          "type": "uint256"
        }
      ],
      "name": "ERC20InsufficientBalance",
      "type": "error"
    },
    {
      "inputs": [
        {
          "internalType": "address",
          "name": "approver",
          "type": "address"
        }
      ],
      "name": "ERC20InvalidApprover",
      "type": "error"
    },
    {
      "inputs": [
        {
          "internalType": "address",
          "name": "receiver",
          "type": "address"
        }
      ],
      "name": "ERC20InvalidReceiver",
      "type": "error"
    },
    {
      "inputs": [
        {
          "internalType": "address",
          "name": "sender",
          "type": "address"
        }
      ],
      "name": "ERC20InvalidSender",
      "type": "error"
    },
    {
      "inputs": [
        {
          "internalType": "address",
          "name": "spender",
          "type": "address"
        }
      ],
      "name": "ERC20InvalidSpender",
      "type": "error"
    },
    {
      "inputs": [
        {
          "internalType": "uint256",
          "name": "deadline",
          "type": "uint256"
        }
      ],
      "name": "ERC2612ExpiredSignature",
      "type": "error"
    },
    {
      "inputs": [
        {
          "internalType": "address",
          "name": "signer",
          "type": "address"
        },
        {
          "internalType": "address",
          "name": "owner",
          "type": "address"
        }
      ],
      "name": "ERC2612InvalidSigner",
      "type": "error"
    },
    {
      "inputs": [],
      "name": "EnforcedPause",
      "type": "error"
    },
    {
      "inputs": [],
      "name": "ExpectedPause",
      "type": "error"
    },
    {
      "inputs": [
        {
          "internalType": "address",
          "name": "account",
          "type": "address"
        },
        {
          "internalType": "uint256",
          "name": "currentNonce",
          "type": "uint256"
        }
      ],
      "name": "InvalidAccountNonce",
      "type": "error"
    },
    {
      "inputs": [],
      "name": "InvalidShortString",
      "type": "error"
    },
    {
      "inputs": [
        {
          "internalType": "address",
          "name": "owner",
          "type": "address"
        }
      ],
      "name": "OwnableInvalidOwner",
      "type": "error"
    },
    {
      "inputs": [
        {
          "internalType": "address",
          "name": "account",
          "type": "address"
        }
      ],
      "name": "OwnableUnauthorizedAccount",
      "type": "error"
    },
    {
      "inputs": [
        {
          "internalType": "string",
          "name": "str",
          "type": "string"
        }
      ],
      "name": "StringTooLong",
      "type": "error"
    },
    {
      "anonymous": false,
      "inputs": [
        {
          "indexed": true,
          "internalType": "address",
          "name": "owner",
          "type": "address"
        },
        {
          "indexed": true,
          "internalType": "address",
          "name": "spender",
          "type": "address"
        },
        {
          "indexed": false,
          "internalType": "uint256",
          "name": "value",
          "type": "uint256"
        }
      ],
      "name": "Approval",
      "type": "event"
    },
    {
      "anonymous": false,
      "inputs": [
        {
          "indexed": false,
          "internalType": "bool",
          "name": "enabled",
          "type": "bool"
        }
      ],
      "name": "BurningEnabled",
      "type": "event"
    },
    {
      "anonymous": false,
      "inputs": [],
      "name": "EIP712DomainChanged",
      "type": "event"
    },
    {
      "anonymous": false,
      "inputs": [
        {
          "indexed": false,
          "internalType": "bool",
          "name": "enabled",
          "type": "bool"
        }
      ],
      "name": "MintingEnabled",
      "type": "event"
    },
    {
      "anonymous": false,
      "inputs": [
        {
          "indexed": true,
          "internalType": "address",
          "name": "previousOwner",
          "type": "address"
        },
        {
          "indexed": true,
          "internalType": "address",
          "name": "newOwner",
          "type": "address"
        }
      ],
      "name": "OwnershipTransferred",
      "type": "event"
    },
    {
      "anonymous": false,
      "inputs": [
        {
          "indexed": false,
          "internalType": "address",
          "name": "account",
          "type": "address"
        }
      ],
      "name": "Paused",
      "type": "event"
    },
    {
      "anonymous": false,
      "inputs": [
        {
          "indexed": false,
          "internalType": "bool",
          "name": "enabled",
          "type": "bool"
        }
      ],
      "name": "PausingEnabled",
      "type": "event"
    },
    {
      "anonymous": false,
      "inputs": [
        {
          "indexed": true,
          "internalType": "address",
          "name": "from",
          "type": "address"
        },
        {
          "indexed": true,
          "internalType": "address",
          "name": "to",
          "type": "address"
        },
        {
          "indexed": false,
          "internalType": "uint256",
          "name": "value",
          "type": "uint256"
        }
      ],
      "name": "Transfer",
      "type": "event"
    },
    {
      "anonymous": false,
      "inputs": [
        {
          "indexed": false,
          "internalType": "address",
          "name": "account",
          "type": "address"
        }
      ],
      "name": "Unpaused",
      "type": "event"
    },
    {
      "inputs": [],
      "name": "DOMAIN_SEPARATOR",
      "outputs": [
        {
          "internalType": "bytes32",
          "name": "",
          "type": "bytes32"
        }
      ],
      "stateMutability": "view",
      "type": "function"
    },
    {
      "inputs": [],
      "name": "MAX_SUPPLY",
      "outputs": [
        {
          "internalType": "uint256",
          "name": "",
          "type": "uint256"
        }
      ],
      "stateMutability": "view",
      "type": "function"
    },
    {
      "inputs": [
        {
          "internalType": "address",
          "name": "owner",
          "type": "address"
        },
        {
          "internalType": "address",
          "name": "spender",
          "type": "address"
        }
      ],
      "name": "allowance",
      "outputs": [
        {
          "internalType": "uint256",
          "name": "",
          "type": "uint256"
        }
      ],
      "stateMutability": "view",
      "type": "function"
    },
    {
      "inputs": [
        {
          "internalType": "address",
          "name": "spender",
          "type": "address"
        },
        {
          "internalType": "uint256",
          "name": "value",
          "type": "uint256"
        }
      ],
      "name": "approve",
      "outputs": [
        {
          "internalType": "bool",
          "name": "",
          "type": "bool"
        }
      ],
      "stateMutability": "nonpayable",
      "type": "function"
    },
    {
      "inputs": [
        {
          "internalType": "address",
          "name": "account",
          "type": "address"
        }
      ],
      "name": "balanceOf",
      "outputs": [
        {
          "internalType": "uint256",
          "name": "",
          "type": "uint256"
        }
      ],
      "stateMutability": "view",
      "type": "function"
    },
    {
      "inputs": [
        {
          "internalType": "uint256",
          "name": "amount",
          "type": "uint256"
        }
      ],
      "name": "burn",
      "outputs": [],
      "stateMutability": "nonpayable",
      "type": "function"
    },
    {
      "inputs": [
        {
          "internalType": "address",
          "name": "account",
          "type": "address"
        },
        {
          "internalType": "uint256",
          "name": "amount",
          "type": "uint256"
        }
      ],
      "name": "burnFrom",
      "outputs": [],
      "stateMutability": "nonpayable",
      "type": "function"
    },
    {
      "inputs": [],
      "name": "canBurn",
      "outputs": [
        {
          "internalType": "bool",
          "name": "",
          "type": "bool"
        }
      ],
      "stateMutability": "view",
      "type": "function"
    },
    {
      "inputs": [],
      "name": "canMint",
      "outputs": [
        {
          "internalType": "bool",
          "name": "",
          "type": "bool"
        }
      ],
      "stateMutability": "view",
      "type": "function"
    },
    {
      "inputs": [],
      "name": "canPause",
      "outputs": [
        {
          "internalType": "bool",
          "name": "",
          "type": "bool"
        }
      ],
      "stateMutability": "view",
      "type": "function"
    },
    {
      "inputs": [],
      "name": "decimals",
      "outputs": [
        {
          "internalType": "uint8",
          "name": "",
          "type": "uint8"
        }
      ],
      "stateMutability": "view",
      "type": "function"
    },
    {
      "inputs": [],
      "name": "eip712Domain",
      "outputs": [
        {
          "internalType": "bytes1",
          "name": "fields",
          "type": "bytes1"
        },
        {
          "internalType": "string",
          "name": "name",
          "type": "string"
        },
        {
          "internalType": "string",
          "name": "version",
          "type": "string"
        },
        {
          "internalType": "uint256",
          "name": "chainId",
          "type": "uint256"
        },
        {
          "internalType": "address",
          "name": "verifyingContract",
          "type": "address"
        },
        {
          "internalType": "bytes32",
          "name": "salt",
          "type": "bytes32"
        },
        {
          "internalType": "uint256[]",
          "name": "extensions",
          "type": "uint256[]"
        }
      ],
      "stateMutability": "view",
      "type": "function"
    },
    {
      "inputs": [],
      "name": "getTokenInfo",
      "outputs": [
        {
          "internalType": "string",
          "name": "tokenName",
          "type": "string"
        },
        {
          "internalType": "string",
          "name": "tokenSymbol",
          "type": "string"
        },
        {
          "internalType": "uint8",
          "name": "tokenDecimals",
          "type": "uint8"
        },
        {
          "internalType": "uint256",
          "name": "tokenTotalSupply",
          "type": "uint256"
        },
        {
          "internalType": "bool",
          "name": "mintingEnabled",
          "type": "bool"
        },
        {
          "internalType": "bool",
          "name": "burningEnabled",
          "type": "bool"
        },
        {
          "internalType": "bool",
          "name": "pausingEnabled",
          "type": "bool"
        },
        {
          "internalType": "bool",
          "name": "isPaused",
          "type": "bool"
        },
        {
          "internalType": "address",
          "name": "tokenOwner",
          "type": "address"
        }
      ],
      "stateMutability": "view",
      "type": "function"
    },
    {
      "inputs": [
        {
          "internalType": "address",
          "name": "to",
          "type": "address"
        },
        {
          "internalType": "uint256",
          "name": "amount",
          "type": "uint256"
        }
      ],
      "name": "mint",
      "outputs": [],
      "stateMutability": "nonpayable",
      "type": "function"
    },
    {
      "inputs": [],
      "name": "name",
      "outputs": [
        {
          "internalType": "string",
          "name": "",
          "type": "string"
        }
      ],
      "stateMutability": "view",
      "type": "function"
    },
    {
      "inputs": [
        {
          "internalType": "address",
          "name": "owner",
          "type": "address"
        }
      ],
      "name": "nonces",
      "outputs": [
        {
          "internalType": "uint256",
          "name": "",
          "type": "uint256"
        }
      ],
      "stateMutability": "view",
      "type": "function"
    },
    {
      "inputs": [],
      "name": "owner",
      "outputs": [
        {
          "internalType": "address",
          "name": "",
          "type": "address"
        }
      ],
      "stateMutability": "view",
      "type": "function"
    },
    {
      "inputs": [],
      "name": "pause",
      "outputs": [],
      "stateMutability": "nonpayable",
      "type": "function"
    },
    {
      "inputs": [],
      "name": "paused",
      "outputs": [
        {
          "internalType": "bool",
          "name": "",
          "type": "bool"
        }
      ],
      "stateMutability": "view",
      "type": "function"
    },
    {
      "inputs": [
        {
          "internalType": "address",
          "name": "owner",
          "type": "address"
        },
        {
          "internalType": "address",
          "name": "spender",
          "type": "address"
        },
        {
          "internalType": "uint256",
          "name": "value",
          "type": "uint256"
        },
        {
          "internalType": "uint256",
          "name": "deadline",
          "type": "uint256"
        },
        {
          "internalType": "uint8",
          "name": "v",
          "type": "uint8"
        },
        {
          "internalType": "bytes32",
          "name": "r",
          "type": "bytes32"
        },
        {
          "internalType": "bytes32",
          "name": "s",
          "type": "bytes32"
        }
      ],
      "name": "permit",
      "outputs": [],
      "stateMutability": "nonpayable",
      "type": "function"
    },
    {
      "inputs": [],
      "name": "renounceOwnership",
      "outputs": [],
      "stateMutability": "nonpayable",
      "type": "function"
    },
    {
      "inputs": [],
      "name": "symbol",
      "outputs": [
        {
          "internalType": "string",
          "name": "",
          "type": "string"
        }
      ],
      "stateMutability": "view",
      "type": "function"
    },
    {
      "inputs": [],
      "name": "totalSupply",
      "outputs": [
        {
          "internalType": "uint256",
          "name": "",
          "type": "uint256"
        }
      ],
      "stateMutability": "view",
      "type": "function"
    },
    {
      "inputs": [
        {
          "internalType": "address",
          "name": "to",
          "type": "address"
        },
        {
          "internalType": "uint256",
          "name": "value",
          "type": "uint256"
        }
      ],
      "name": "transfer",
      "outputs": [
        {
          "internalType": "bool",
          "name": "",
          "type": "bool"
        }
      ],
      "stateMutability": "nonpayable",
      "type": "function"
    },
    {
      "inputs": [
        {
          "internalType": "address",
          "name": "from",
          "type": "address"
        },
        {
          "internalType": "address",
          "name": "to",
          "type": "address"
        },
        {
          "internalType": "uint256",
          "name": "value",
          "type": "uint256"
        }
      ],
      "name": "transferFrom",
      "outputs": [
        {
          "internalType": "bool",
          "name": "",
          "type": "bool"
        }
      ],
      "stateMutability": "nonpayable",
      "type": "function"
    },
    {
      "inputs": [
        {
          "internalType": "address",
          "name": "newOwner",
          "type": "address"
        }
      ],
      "name": "transferOwnership",
      "outputs": [],
      "stateMutability": "nonpayable",
      "type": "function"
    },
    {
      "inputs": [],
      "name": "unpause",
      "outputs": [],
      "stateMutability": "nonpayable",
      "type": "function"
    }
  ],
  "bytecode": "0x6101606040523480156200001257600080fd5b5060405162002092380380620020928339810160408190526200003591620006fe565b6040805180820190915260018152603160f81b60208201528790819086828a600362000062838262000859565b50600462000071828262000859565b5050506001600160a01b038116620000a457604051631e4fbdf760e01b8152600060048201526024015b60405180910390fd5b620000af8162000391565b50620000bd826006620003eb565b61012052620000ce816007620003eb565b61014052815160208084019190912060e052815190820120610100524660a0526200015c60e05161010051604080517f8b73c3c69bb8fe3d512ecc4cf759cc79239f7b179b0ffacaa9a75d522b39400f60208201529081019290925260608201524660808201523060a082015260009060c00160405160208183030381529060405280519060200120905090565b60805250503060c0525084620001c35760405162461bcd60e51b815260206004820152602560248201527f496e697469616c20737570706c79206d75737420626520677265617465722074604482015264068616e20360dc1b60648201526084016200009b565b6c0c9f2c9cd04674edea40000000620001e586670de0b6b3a76400006200093b565b1115620002435760405162461bcd60e51b815260206004820152602560248201527f496e697469616c20737570706c792065786365656473206d6178696d756d20736044820152647570706c7960d81b60648201526084016200009b565b6001600160a01b0384166200029b5760405162461bcd60e51b815260206004820152601c60248201527f4f776e65722063616e6e6f74206265207a65726f20616464726573730000000060448201526064016200009b565b6009805461ffff191684151561ff00191617610100841515021762ff000019166201000083151502179055620002e584620002df87670de0b6b3a76400006200093b565b62000424565b60405183151581527fb6c727d83bace6eef762275cc927295dcd906c8041f03f05cf07685323bfb6da9060200160405180910390a160405182151581527f7581a93803503d240632641eb30fc6421367c506ed714f6cdabfb010b020b8719060200160405180910390a160405181151581527fa5847c8d849cfef74d3f451fcb3d1b2461833bea1da149fff7100b7d185805899060200160405180910390a150505050505050620009c5565b600580546001600160a01b03838116610100818102610100600160a81b031985161790945560405193909204169182907f8be0079c531659141344cd1fd0a4f28419497f9722a3daafe3b4186f6b6457e090600090a35050565b60006020835110156200040b57620004038362000462565b90506200041e565b8162000418848262000859565b5060ff90505b92915050565b6001600160a01b038216620004505760405163ec442f0560e01b8152600060048201526024016200009b565b6200045e60008383620004a5565b5050565b600080829050601f8151111562000490578260405163305a27a960e01b81526004016200009b919062000955565b80516200049d826200098a565b179392505050565b620004af620004c1565b620004bc838383620004e8565b505050565b60055460ff1615620004e65760405163d93c066560e01b815260040160405180910390fd5b565b6001600160a01b038316620005175780600260008282546200050b9190620009af565b909155506200058b9050565b6001600160a01b038316600090815260208190526040902054818110156200056c5760405163391434e360e21b81526001600160a01b038516600482015260248101829052604481018390526064016200009b565b6001600160a01b03841660009081526020819052604090209082900390555b6001600160a01b038216620005a957600280548290039055620005c8565b6001600160a01b03821660009081526020819052604090208054820190555b816001600160a01b0316836001600160a01b03167fddf252ad1be2c89b69c2b068fc378daa952ba7f163c4a11628f55a4df523b3ef836040516200060e91815260200190565b60405180910390a3505050565b634e487b7160e01b600052604160045260246000fd5b60005b838110156200064e57818101518382015260200162000634565b50506000910152565b600082601f8301126200066957600080fd5b81516001600160401b03808211156200068657620006866200061b565b604051601f8301601f19908116603f01168101908282118183101715620006b157620006b16200061b565b81604052838152866020858801011115620006cb57600080fd5b620006de84602083016020890162000631565b9695505050505050565b80518015158114620006f957600080fd5b919050565b600080600080600080600060e0888a0312156200071a57600080fd5b87516001600160401b03808211156200073257600080fd5b620007408b838c0162000657565b985060208a01519150808211156200075757600080fd5b50620007668a828b0162000657565b60408a015160608b0151919850965090506001600160a01b03811681146200078d57600080fd5b93506200079d60808901620006e8565b9250620007ad60a08901620006e8565b9150620007bd60c08901620006e8565b905092959891949750929550565b600181811c90821680620007e057607f821691505b6020821081036200080157634e487b7160e01b600052602260045260246000fd5b50919050565b601f821115620004bc57600081815260208120601f850160051c81016020861015620008305750805b601f850160051c820191505b8181101562000851578281556001016200083c565b505050505050565b81516001600160401b038111156200087557620008756200061b565b6200088d81620008868454620007cb565b8462000807565b602080601f831160018114620008c55760008415620008ac5750858301515b600019600386901b1c1916600185901b17855562000851565b600085815260208120601f198616915b82811015620008f657888601518255948401946001909101908401620008d5565b5085821015620009155787850151600019600388901b60f8161c191681555b5050505050600190811b01905550565b634e487b7160e01b600052601160045260246000fd5b80820281158282048414176200041e576200041e62000925565b60208152600082518060208401526200097681604085016020870162000631565b601f01601f19169190910160400192915050565b80516020808301519190811015620008015760001960209190910360031b1b16919050565b808201808211156200041e576200041e62000925565b60805160a05160c05160e05161010051610120516101405161167262000a206000396000610cd401526000610ca701526000610ade01526000610ab601526000610a1101526000610a3b01526000610a6501526116726000f3fe608060405234801561001057600080fd5b50600436106101a95760003560e01c8063715018a6116100f9578063a9059cbb11610097578063c1eb184011610071578063c1eb184014610375578063d505accf14610387578063dd62ed3e1461039a578063f2fde38b146103d357600080fd5b8063a9059cbb14610338578063abb1dc441461034b578063beb9716d1461036857600080fd5b80638456cb59116100d35780638456cb59146102e457806384b0196e146102ec5780638da5cb5b1461030757806395d89b411461033057600080fd5b8063715018a6146102b657806379cc6790146102be5780637ecebe00146102d157600080fd5b806332cb6b0c1161016657806340c10f191161014057806340c10f191461025c57806342966c681461026f5780635c975abb1461028257806370a082311461028d57600080fd5b806332cb6b0c146102365780633644e5151461024a5780633f4ba83a1461025257600080fd5b806306fdde03146101ae578063095ea7b3146101cc57806318160ddd146101ef57806323b872dd14610201578063313ce56714610214578063323be1c514610223575b600080fd5b6101b66103e6565b6040516101c391906112c4565b60405180910390f35b6101df6101da3660046112fa565b610478565b60405190151581526020016101c3565b6002545b6040519081526020016101c3565b6101df61020f366004611324565b610492565b604051601281526020016101c3565b6009546101df9062010000900460ff1681565b6101f36c0c9f2c9cd04674edea4000000081565b6101f36104b6565b61025a6104c5565b005b61025a61026a3660046112fa565b610508565b61025a61027d366004611360565b6105fa565b60055460ff166101df565b6101f361029b366004611379565b6001600160a01b031660009081526020819052604090205490565b61025a61062d565b61025a6102cc3660046112fa565b61063f565b6101f36102df366004611379565b610670565b61025a61068e565b6102f46106c6565b6040516101c39796959493929190611394565b60055461010090046001600160a01b03166040516001600160a01b0390911681526020016101c3565b6101b661070c565b6101df6103463660046112fa565b61071b565b610353610729565b6040516101c39998979695949392919061142a565b6009546101df9060ff1681565b6009546101df90610100900460ff1681565b61025a61039536600461149b565b61079f565b6101f36103a836600461150e565b6001600160a01b03918216600090815260016020908152604080832093909416825291909152205490565b61025a6103e1366004611379565b6108d9565b6060600380546103f590611541565b80601f016020809104026020016040519081016040528092919081815260200182805461042190611541565b801561046e5780601f106104435761010080835404028352916020019161046e565b820191906000526020600020905b81548152906001019060200180831161045157829003601f168201915b5050505050905090565b600033610486818585610914565b60019150505b92915050565b6000336104a0858285610926565b6104ab8585856109a5565b506001949350505050565b60006104c0610a04565b905090565b6104cd610b2f565b60095462010000900460ff166104fe5760405162461bcd60e51b81526004016104f59061157b565b60405180910390fd5b610506610b62565b565b610510610b2f565b60095460ff166105705760405162461bcd60e51b815260206004820152602560248201527f4d696e74696e67206973206e6f7420656e61626c656420666f722074686973206044820152643a37b5b2b760d91b60648201526084016104f5565b6c0c9f2c9cd04674edea400000008161058860025490565b61059291906115c0565b11156105ec5760405162461bcd60e51b815260206004820152602360248201527f4d696e74696e6720776f756c6420657863656564206d6178696d756d20737570604482015262706c7960e81b60648201526084016104f5565b6105f68282610bb4565b5050565b600954610100900460ff166106215760405162461bcd60e51b81526004016104f5906115e1565b61062a81610bea565b50565b610635610b2f565b6105066000610bf4565b600954610100900460ff166106665760405162461bcd60e51b81526004016104f5906115e1565b6105f68282610c4e565b6001600160a01b03811660009081526008602052604081205461048c565b610696610b2f565b60095462010000900460ff166106be5760405162461bcd60e51b81526004016104f59061157b565b610506610c63565b6000606080600080600060606106da610ca0565b6106e2610ccd565b60408051600080825260208201909252600f60f81b9b939a50919850469750309650945092509050565b6060600480546103f590611541565b6000336104868185856109a5565b606080600080600080600080600061073f6103e6565b61074761070c565b601260025460095460ff808216916101008104821691620100009091041661077160055460ff1690565b60055461010090046001600160a01b0316985098509850985098509850985098509850909192939495969798565b834211156107c35760405163313c898160e11b8152600481018590526024016104f5565b60007f6e71edae12b1b97f4d1f60370fef10105fa2faae0126114a169c64845d6126c98888886108108c6001600160a01b0316600090815260086020526040902080546001810190915590565b6040805160208101969096526001600160a01b0394851690860152929091166060840152608083015260a082015260c0810186905260e001604051602081830303815290604052805190602001209050600061086b82610cfa565b9050600061087b82878787610d27565b9050896001600160a01b0316816001600160a01b0316146108c2576040516325c0072360e11b81526001600160a01b0380831660048301528b1660248201526044016104f5565b6108cd8a8a8a610914565b50505050505050505050565b6108e1610b2f565b6001600160a01b03811661090b57604051631e4fbdf760e01b8152600060048201526024016104f5565b61062a81610bf4565b6109218383836001610d55565b505050565b6001600160a01b0383811660009081526001602090815260408083209386168352929052205460001981101561099f578181101561099057604051637dc7a0d960e11b81526001600160a01b038416600482015260248101829052604481018390526064016104f5565b61099f84848484036000610d55565b50505050565b6001600160a01b0383166109cf57604051634b637e8f60e11b8152600060048201526024016104f5565b6001600160a01b0382166109f95760405163ec442f0560e01b8152600060048201526024016104f5565b610921838383610e2a565b6000306001600160a01b037f000000000000000000000000000000000000000000000000000000000000000016148015610a5d57507f000000000000000000000000000000000000000000000000000000000000000046145b15610a8757507f000000000000000000000000000000000000000000000000000000000000000090565b6104c0604080517f8b73c3c69bb8fe3d512ecc4cf759cc79239f7b179b0ffacaa9a75d522b39400f60208201527f0000000000000000000000000000000000000000000000000000000000000000918101919091527f000000000000000000000000000000000000000000000000000000000000000060608201524660808201523060a082015260009060c00160405160208183030381529060405280519060200120905090565b6005546001600160a01b036101009091041633146105065760405163118cdaa760e01b81523360048201526024016104f5565b610b6a610e3d565b6005805460ff191690557f5db9ee0a495bf2e6ff9c91a7834c1ba4fdd244a5e8aa4e537bd38aeae4b073aa335b6040516001600160a01b03909116815260200160405180910390a1565b6001600160a01b038216610bde5760405163ec442f0560e01b8152600060048201526024016104f5565b6105f660008383610e2a565b61062a3382610e60565b600580546001600160a01b03838116610100818102610100600160a81b031985161790945560405193909204169182907f8be0079c531659141344cd1fd0a4f28419497f9722a3daafe3b4186f6b6457e090600090a35050565b610c59823383610926565b6105f68282610e60565b610c6b610e96565b6005805460ff191660011790557f62e78cea01bee320cd4e420270b5ea74000d11b0c9f74754ebdbfc544b05a258610b973390565b60606104c07f00000000000000000000000000000000000000000000000000000000000000006006610eba565b60606104c07f00000000000000000000000000000000000000000000000000000000000000006007610eba565b600061048c610d07610a04565b8360405161190160f01b8152600281019290925260228201526042902090565b600080600080610d3988888888610f65565b925092509250610d498282611034565b50909695505050505050565b6001600160a01b038416610d7f5760405163e602df0560e01b8152600060048201526024016104f5565b6001600160a01b038316610da957604051634a1406b160e11b8152600060048201526024016104f5565b6001600160a01b038085166000908152600160209081526040808320938716835292905220829055801561099f57826001600160a01b0316846001600160a01b03167f8c5be1e5ebec7d5bd14f71427d1e84f3dd0314c0f7b2291e5b200ac8c7c3b92584604051610e1c91815260200190565b60405180910390a350505050565b610e32610e96565b6109218383836110ed565b60055460ff1661050657604051638dfc202b60e01b815260040160405180910390fd5b6001600160a01b038216610e8a57604051634b637e8f60e11b8152600060048201526024016104f5565b6105f682600083610e2a565b60055460ff16156105065760405163d93c066560e01b815260040160405180910390fd5b606060ff8314610ed457610ecd83611217565b905061048c565b818054610ee090611541565b80601f0160208091040260200160405190810160405280929190818152602001828054610f0c90611541565b8015610f595780601f10610f2e57610100808354040283529160200191610f59565b820191906000526020600020905b815481529060010190602001808311610f3c57829003601f168201915b5050505050905061048c565b600080807f7fffffffffffffffffffffffffffffff5d576e7357a4501ddfe92f46681b20a0841115610fa0575060009150600390508261102a565b604080516000808252602082018084528a905260ff891692820192909252606081018790526080810186905260019060a0016020604051602081039080840390855afa158015610ff4573d6000803e3d6000fd5b5050604051601f1901519150506001600160a01b0381166110205750600092506001915082905061102a565b9250600091508190505b9450945094915050565b600082600381111561104857611048611626565b03611051575050565b600182600381111561106557611065611626565b036110835760405163f645eedf60e01b815260040160405180910390fd5b600282600381111561109757611097611626565b036110b85760405163fce698f760e01b8152600481018290526024016104f5565b60038260038111156110cc576110cc611626565b036105f6576040516335e2f38360e21b8152600481018290526024016104f5565b6001600160a01b03831661111857806002600082825461110d91906115c0565b9091555061118a9050565b6001600160a01b0383166000908152602081905260409020548181101561116b5760405163391434e360e21b81526001600160a01b038516600482015260248101829052604481018390526064016104f5565b6001600160a01b03841660009081526020819052604090209082900390555b6001600160a01b0382166111a6576002805482900390556111c5565b6001600160a01b03821660009081526020819052604090208054820190555b816001600160a01b0316836001600160a01b03167fddf252ad1be2c89b69c2b068fc378daa952ba7f163c4a11628f55a4df523b3ef8360405161120a91815260200190565b60405180910390a3505050565b6060600061122483611256565b604080516020808252818301909252919250600091906020820181803683375050509182525060208101929092525090565b600060ff8216601f81111561048c57604051632cd44ac360e21b815260040160405180910390fd5b6000815180845260005b818110156112a457602081850181015186830182015201611288565b506000602082860101526020601f19601f83011685010191505092915050565b6020815260006112d7602083018461127e565b9392505050565b80356001600160a01b03811681146112f557600080fd5b919050565b6000806040838503121561130d57600080fd5b611316836112de565b946020939093013593505050565b60008060006060848603121561133957600080fd5b611342846112de565b9250611350602085016112de565b9150604084013590509250925092565b60006020828403121561137257600080fd5b5035919050565b60006020828403121561138b57600080fd5b6112d7826112de565b60ff60f81b881681526000602060e0818401526113b460e084018a61127e565b83810360408501526113c6818a61127e565b606085018990526001600160a01b038816608086015260a0850187905284810360c0860152855180825283870192509083019060005b81811015611418578351835292840192918401916001016113fc565b50909c9b505050505050505050505050565b600061012080835261143e8184018d61127e565b90508281036020840152611452818c61127e565b60ff9a909a16604084015250506060810196909652931515608086015291151560a0850152151560c0840152151560e08301526001600160a01b03166101009091015292915050565b600080600080600080600060e0888a0312156114b657600080fd5b6114bf886112de565b96506114cd602089016112de565b95506040880135945060608801359350608088013560ff811681146114f157600080fd5b9699959850939692959460a0840135945060c09093013592915050565b6000806040838503121561152157600080fd5b61152a836112de565b9150611538602084016112de565b90509250929050565b600181811c9082168061155557607f821691505b60208210810361157557634e487b7160e01b600052602260045260246000fd5b50919050565b60208082526025908201527f50617573696e67206973206e6f7420656e61626c656420666f722074686973206040820152643a37b5b2b760d91b606082015260800190565b8082018082111561048c57634e487b7160e01b600052601160045260246000fd5b60208082526025908201527f4275726e696e67206973206e6f7420656e61626c656420666f722074686973206040820152643a37b5b2b760d91b606082015260800190565b634e487b7160e01b600052602160045260246000fdfea2646970667358221220ed080ab3c9550e59afac34a0ed3de50eb706b00d072ffd11e91e7fcea3a67ef464736f6c63430008140033",
  "linkReferences": {},
  "deployedLinkReferences": {}
}