{"contracts/MemeCoinWithFees.sol":{"MemeCoinWithFees":{"abi":[{"inputs":[{"internalType":"string","name":"name","type":"string"},{"internalType":"string","name":"symbol","type":"string"},{"internalType":"uint256","name":"initialSupply","type":"uint256"},{"internalType":"address","name":"_owner","type":"address"},{"internalType":"address","name":"_creator","type":"address"},{"internalType":"address","name":"_platformFeeRecipient","type":"address"},{"internalType":"bool","name":"_canMint","type":"bool"},{"internalType":"bool","name":"_canBurn","type":"bool"},{"internalType":"bool","name":"_startWithFeesEnabled","type":"bool"}],"stateMutability":"nonpayable","type":"constructor"},{"inputs":[{"internalType":"address","name":"spender","type":"address"},{"internalType":"uint256","name":"allowance","type":"uint256"},{"internalType":"uint256","name":"needed","type":"uint256"}],"name":"ERC20InsufficientAllowance","type":"error"},{"inputs":[{"internalType":"address","name":"sender","type":"address"},{"internalType":"uint256","name":"balance","type":"uint256"},{"internalType":"uint256","name":"needed","type":"uint256"}],"name":"ERC20InsufficientBalance","type":"error"},{"inputs":[{"internalType":"address","name":"approver","type":"address"}],"name":"ERC20InvalidApprover","type":"error"},{"inputs":[{"internalType":"address","name":"receiver","type":"address"}],"name":"ERC20InvalidReceiver","type":"error"},{"inputs":[{"internalType":"address","name":"sender","type":"address"}],"name":"ERC20InvalidSender","type":"error"},{"inputs":[{"internalType":"address","name":"spender","type":"address"}],"name":"ERC20InvalidSpender","type":"error"},{"inputs":[],"name":"EnforcedPause","type":"error"},{"inputs":[],"name":"ExpectedPause","type":"error"},{"inputs":[{"internalType":"address","name":"owner","type":"address"}],"name":"OwnableInvalidOwner","type":"error"},{"inputs":[{"internalType":"address","name":"account","type":"address"}],"name":"OwnableUnauthorizedAccount","type":"error"},{"inputs":[],"name":"ReentrancyGuardReentrantCall","type":"error"},{"anonymous":false,"inputs":[{"indexed":true,"internalType":"address","name":"owner","type":"address"},{"indexed":true,"internalType":"address","name":"spender","type":"address"},{"indexed":false,"internalType":"uint256","name":"value","type":"uint256"}],"name":"Approval","type":"event"},{"anonymous":false,"inputs":[{"indexed":true,"internalType":"address","name":"creator","type":"address"},{"indexed":false,"internalType":"uint256","name":"amount","type":"uint256"}],"name":"CreatorFeesWithdrawn","type":"event"},{"anonymous":false,"inputs":[{"indexed":true,"internalType":"address","name":"account","type":"address"},{"indexed":false,"internalType":"bool","name":"exempt","type":"bool"}],"name":"FeeExemptionUpdated","type":"event"},{"anonymous":false,"inputs":[{"indexed":true,"internalType":"address","name":"from","type":"address"},{"indexed":true,"internalType":"address","name":"to","type":"address"},{"indexed":false,"internalType":"uint256","name":"amount","type":"uint256"},{"indexed":false,"internalType":"uint256","name":"creatorFee","type":"uint256"},{"indexed":false,"internalType":"uint256","name":"platformFee","type":"uint256"}],"name":"FeesCollected","type":"event"},{"anonymous":false,"inputs":[{"indexed":false,"internalType":"bool","name":"enabled","type":"bool"}],"name":"FeesToggled","type":"event"},{"anonymous":false,"inputs":[{"indexed":true,"internalType":"address","name":"previousOwner","type":"address"},{"indexed":true,"internalType":"address","name":"newOwner","type":"address"}],"name":"OwnershipTransferred","type":"event"},{"anonymous":false,"inputs":[{"indexed":false,"internalType":"address","name":"account","type":"address"}],"name":"Paused","type":"event"},{"anonymous":false,"inputs":[{"indexed":true,"internalType":"address","name":"newRecipient","type":"address"}],"name":"PlatformFeeRecipientUpdated","type":"event"},{"anonymous":false,"inputs":[{"indexed":true,"internalType":"address","name":"recipient","type":"address"},{"indexed":false,"internalType":"uint256","name":"amount","type":"uint256"}],"name":"PlatformFeesWithdrawn","type":"event"},{"anonymous":false,"inputs":[{"indexed":true,"internalType":"address","name":"from","type":"address"},{"indexed":true,"internalType":"address","name":"to","type":"address"},{"indexed":false,"internalType":"uint256","name":"value","type":"uint256"}],"name":"Transfer","type":"event"},{"anonymous":false,"inputs":[{"indexed":false,"internalType":"address","name":"account","type":"address"}],"name":"Unpaused","type":"event"},{"inputs":[],"name":"BPS_DIVISOR","outputs":[{"internalType":"uint256","name":"","type":"uint256"}],"stateMutability":"view","type":"function"},{"inputs":[],"name":"CREATOR_FEE_BPS","outputs":[{"internalType":"uint256","name":"","type":"uint256"}],"stateMutability":"view","type":"function"},{"inputs":[],"name":"PLATFORM_FEE_BPS","outputs":[{"internalType":"uint256","name":"","type":"uint256"}],"stateMutability":"view","type":"function"},{"inputs":[],"name":"TOTAL_FEE_BPS","outputs":[{"internalType":"uint256","name":"","type":"uint256"}],"stateMutability":"view","type":"function"},{"inputs":[{"internalType":"address","name":"owner","type":"address"},{"internalType":"address","name":"spender","type":"address"}],"name":"allowance","outputs":[{"internalType":"uint256","name":"","type":"uint256"}],"stateMutability":"view","type":"function"},{"inputs":[{"internalType":"address","name":"spender","type":"address"},{"internalType":"uint256","name":"value","type":"uint256"}],"name":"approve","outputs":[{"internalType":"bool","name":"","type":"bool"}],"stateMutability":"nonpayable","type":"function"},{"inputs":[{"internalType":"address","name":"account","type":"address"}],"name":"balanceOf","outputs":[{"internalType":"uint256","name":"","type":"uint256"}],"stateMutability":"view","type":"function"},{"inputs":[{"internalType":"uint256","name":"value","type":"uint256"}],"name":"burn","outputs":[],"stateMutability":"nonpayable","type":"function"},{"inputs":[{"internalType":"address","name":"account","type":"address"},{"internalType":"uint256","name":"value","type":"uint256"}],"name":"burnFrom","outputs":[],"stateMutability":"nonpayable","type":"function"},{"inputs":[{"internalType":"uint256","name":"amount","type":"uint256"}],"name":"calculateFees","outputs":[{"internalType":"uint256","name":"creatorFee","type":"uint256"},{"internalType":"uint256","name":"platformFee","type":"uint256"}],"stateMutability":"pure","type":"function"},{"inputs":[],"name":"canBurn","outputs":[{"internalType":"bool","name":"","type":"bool"}],"stateMutability":"view","type":"function"},{"inputs":[],"name":"canMint","outputs":[{"internalType":"bool","name":"","type":"bool"}],"stateMutability":"view","type":"function"},{"inputs":[],"name":"creator","outputs":[{"internalType":"address","name":"","type":"address"}],"stateMutability":"view","type":"function"},{"inputs":[],"name":"decimals","outputs":[{"internalType":"uint8","name":"","type":"uint8"}],"stateMutability":"view","type":"function"},{"inputs":[],"name":"disableMinting","outputs":[],"stateMutability":"nonpayable","type":"function"},{"inputs":[{"internalType":"address","name":"","type":"address"}],"name":"feeExempt","outputs":[{"internalType":"bool","name":"","type":"bool"}],"stateMutability":"view","type":"function"},{"inputs":[],"name":"feesEnabled","outputs":[{"internalType":"bool","name":"","type":"bool"}],"stateMutability":"view","type":"function"},{"inputs":[],"name":"getFeeStats","outputs":[{"internalType":"uint256","name":"creatorPending","type":"uint256"},{"internalType":"uint256","name":"platformPending","type":"uint256"},{"internalType":"uint256","name":"creatorTotal","type":"uint256"},{"internalType":"uint256","name":"platformTotal","type":"uint256"}],"stateMutability":"view","type":"function"},{"inputs":[{"internalType":"address","name":"to","type":"address"},{"internalType":"uint256","name":"amount","type":"uint256"}],"name":"mint","outputs":[],"stateMutability":"nonpayable","type":"function"},{"inputs":[],"name":"name","outputs":[{"internalType":"string","name":"","type":"string"}],"stateMutability":"view","type":"function"},{"inputs":[],"name":"owner","outputs":[{"internalType":"address","name":"","type":"address"}],"stateMutability":"view","type":"function"},{"inputs":[],"name":"pause","outputs":[],"stateMutability":"nonpayable","type":"function"},{"inputs":[],"name":"paused","outputs":[{"internalType":"bool","name":"","type":"bool"}],"stateMutability":"view","type":"function"},{"inputs":[{"internalType":"address","name":"","type":"address"}],"name":"pendingCreatorFees","outputs":[{"internalType":"uint256","name":"","type":"uint256"}],"stateMutability":"view","type":"function"},{"inputs":[{"internalType":"address","name":"","type":"address"}],"name":"pendingPlatformFees","outputs":[{"internalType":"uint256","name":"","type":"uint256"}],"stateMutability":"view","type":"function"},{"inputs":[],"name":"platformFeeRecipient","outputs":[{"internalType":"address","name":"","type":"address"}],"stateMutability":"view","type":"function"},{"inputs":[{"internalType":"address","name":"tokenAddress","type":"address"},{"internalType":"uint256","name":"amount","type":"uint256"}],"name":"recoverToken","outputs":[],"stateMutability":"nonpayable","type":"function"},{"inputs":[],"name":"renounceOwnership","outputs":[],"stateMutability":"nonpayable","type":"function"},{"inputs":[{"internalType":"address","name":"account","type":"address"},{"internalType":"bool","name":"exempt","type":"bool"}],"name":"setFeeExempt","outputs":[],"stateMutability":"nonpayable","type":"function"},{"inputs":[{"internalType":"address","name":"from","type":"address"},{"internalType":"address","name":"to","type":"address"}],"name":"shouldTakeFees","outputs":[{"internalType":"bool","name":"","type":"bool"}],"stateMutability":"view","type":"function"},{"inputs":[],"name":"symbol","outputs":[{"internalType":"string","name":"","type":"string"}],"stateMutability":"view","type":"function"},{"inputs":[],"name":"toggleFees","outputs":[],"stateMutability":"nonpayable","type":"function"},{"inputs":[],"name":"totalCreatorFeesCollected","outputs":[{"internalType":"uint256","name":"","type":"uint256"}],"stateMutability":"view","type":"function"},{"inputs":[],"name":"totalPlatformFeesCollected","outputs":[{"internalType":"uint256","name":"","type":"uint256"}],"stateMutability":"view","type":"function"},{"inputs":[],"name":"totalSupply","outputs":[{"internalType":"uint256","name":"","type":"uint256"}],"stateMutability":"view","type":"function"},{"inputs":[{"internalType":"address","name":"to","type":"address"},{"internalType":"uint256","name":"value","type":"uint256"}],"name":"transfer","outputs":[{"internalType":"bool","name":"","type":"bool"}],"stateMutability":"nonpayable","type":"function"},{"inputs":[{"internalType":"address","name":"from","type":"address"},{"internalType":"address","name":"to","type":"address"},{"internalType":"uint256","name":"value","type":"uint256"}],"name":"transferFrom","outputs":[{"internalType":"bool","name":"","type":"bool"}],"stateMutability":"nonpayable","type":"function"},{"inputs":[{"internalType":"address","name":"newOwner","type":"address"}],"name":"transferOwnership","outputs":[],"stateMutability":"nonpayable","type":"function"},{"inputs":[],"name":"unpause","outputs":[],"stateMutability":"nonpayable","type":"function"},{"inputs":[{"internalType":"address","name":"newRecipient","type":"address"}],"name":"updatePlatformFeeRecipient","outputs":[],"stateMutability":"nonpayable","type":"function"},{"inputs":[],"name":"withdrawCreatorFees","outputs":[],"stateMutability":"nonpayable","type":"function"},{"inputs":[],"name":"withdrawPlatformFees","outputs":[],"stateMutability":"nonpayable","type":"function"}],"evm":{"bytecode":{"linkReferences":{},"object":"60c06040523480156200001157600080fd5b506040516200219538038062002195833981016040819052620000349162000755565b8589896003620000458382620008c7565b506004620000548282620008c7565b5050506001600160a01b0381166200008757604051631e4fbdf760e01b8152600060048201526024015b60405180910390fd5b62000092816200020f565b5060016006556001600160a01b038516620000e25760405162461bcd60e51b815260206004820152600f60248201526e24b73b30b634b21031b932b0ba37b960891b60448201526064016200007e565b6001600160a01b0384166200013a5760405162461bcd60e51b815260206004820152601a60248201527f496e76616c696420706c6174666f726d20726563697069656e7400000000000060448201526064016200007e565b6001600160a01b03858116608052600780546001600160a01b031916918616919091179055600d805483151560a05261ffff191684151561ff00191617610100831515021790556200018d868862000261565b505050506001600160a01b039182166000908152600c60205260408082208054600160ff19918216811790925593909416825280822080548416851790553082528120805483168417905580527f13649b2456f1b42fef0f0040b3aaeabcd21a76a0f3f5defd4f583839455116e8805490911690911790555062000a12915050565b600580546001600160a01b038381166001600160a01b0319831681179093556040519116919082907f8be0079c531659141344cd1fd0a4f28419497f9722a3daafe3b4186f6b6457e090600090a35050565b6001600160a01b0382166200028d5760405163ec442f0560e01b8152600060048201526024016200007e565b6200029b600083836200029f565b5050565b620002a962000414565b620002b5838362000449565b156200040257600080620002c983620004eb565b90925090506000620002dc8284620009a9565b90506000620002ec8286620009bf565b90508115620003ec57620003028730846200052f565b6080516001600160a01b03166000908152600a6020526040812080548692906200032e908490620009a9565b90915550506007546001600160a01b03166000908152600b6020526040812080548592906200035f908490620009a9565b9250508190555083600860008282546200037a9190620009a9565b925050819055508260096000828254620003959190620009a9565b909155505060408051868152602081018690529081018490526001600160a01b0380881691908916907fde5d657c00d557886c53e267ff792a157187bc1c5947bd02cb62159550edb08e9060600160405180910390a35b620003f98787836200052f565b50505050505050565b6200040f8383836200052f565b505050565b62000428600554600160a01b900460ff1690565b15620004475760405163d93c066560e01b815260040160405180910390fd5b565b600d54600090610100900460ff166200046557506000620004e5565b6001600160a01b0383166000908152600c602052604090205460ff1680620004a557506001600160a01b0382166000908152600c602052604090205460ff165b15620004b457506000620004e5565b6001600160a01b0383161580620004d257506001600160a01b038216155b15620004e157506000620004e5565b5060015b92915050565b600080612710620004fe606485620009d5565b6200050a9190620009ef565b91506127106200051c606485620009d5565b620005289190620009ef565b9050915091565b6001600160a01b0383166200055e578060026000828254620005529190620009a9565b90915550620005d29050565b6001600160a01b03831660009081526020819052604090205481811015620005b35760405163391434e360e21b81526001600160a01b038516600482015260248101829052604481018390526064016200007e565b6001600160a01b03841660009081526020819052604090209082900390555b6001600160a01b038216620005f0576002805482900390556200060f565b6001600160a01b03821660009081526020819052604090208054820190555b816001600160a01b0316836001600160a01b03167fddf252ad1be2c89b69c2b068fc378daa952ba7f163c4a11628f55a4df523b3ef836040516200065591815260200190565b60405180910390a3505050565b634e487b7160e01b600052604160045260246000fd5b600082601f8301126200068a57600080fd5b81516001600160401b0380821115620006a757620006a762000662565b604051601f8301601f19908116603f01168101908282118183101715620006d257620006d262000662565b81604052838152602092508683858801011115620006ef57600080fd5b600091505b83821015620007135785820183015181830184015290820190620006f4565b600093810190920192909252949350505050565b80516001600160a01b03811681146200073f57600080fd5b919050565b805180151581146200073f57600080fd5b60008060008060008060008060006101208a8c0312156200077557600080fd5b89516001600160401b03808211156200078d57600080fd5b6200079b8d838e0162000678565b9a5060208c0151915080821115620007b257600080fd5b50620007c18c828d0162000678565b98505060408a01519650620007d960608b0162000727565b9550620007e960808b0162000727565b9450620007f960a08b0162000727565b93506200080960c08b0162000744565b92506200081960e08b0162000744565b91506200082a6101008b0162000744565b90509295985092959850929598565b600181811c908216806200084e57607f821691505b6020821081036200086f57634e487b7160e01b600052602260045260246000fd5b50919050565b601f8211156200040f57600081815260208120601f850160051c810160208610156200089e5750805b601f850160051c820191505b81811015620008bf57828155600101620008aa565b505050505050565b81516001600160401b03811115620008e357620008e362000662565b620008fb81620008f4845462000839565b8462000875565b602080601f8311600181146200093357600084156200091a5750858301515b600019600386901b1c1916600185901b178555620008bf565b600085815260208120601f198616915b82811015620009645788860151825594840194600190910190840162000943565b5085821015620009835787850151600019600388901b60f8161c191681555b5050505050600190811b01905550565b634e487b7160e01b600052601160045260246000fd5b80820180821115620004e557620004e562000993565b81810381811115620004e557620004e562000993565b8082028115828204841417620004e557620004e562000993565b60008262000a0d57634e487b7160e01b600052601260045260246000fd5b500490565b60805160a05161173362000a6260003960006104c80152600081816102680152818161057801528181610bb701528181610c1d01528181610c9101528181610cd7015261121a01526117336000f3fe608060405234801561001057600080fd5b506004361061025e5760003560e01c80637e5cd5c111610146578063c1eb1840116100c3578063ddf5451211610087578063ddf545121461054b578063e1cd04b414610553578063eb13554f1461055b578063f28ab2be1461056e578063f2fde38b146105e1578063f5fe7f71146105f457600080fd5b8063c1eb1840146104c3578063c598b2f9146104ea578063cc3cbd2a146103d3578063d0b7830b1461050a578063dd62ed3e1461051257600080fd5b806395d89b411161010a57806395d89b4114610476578063a64e4f8a1461047e578063a9059cbb14610490578063b29a8140146104a3578063beb9716d146104b657600080fd5b80637e5cd5c11461043957806382c3188c146104415780638456cb591461044a5780638da5cb5b146104525780638ebfc7961461046357600080fd5b80633f4ba83a116101df578063539aa77f116101a3578063539aa77f146103d35780635c975abb146103db5780636f28507c146103ed57806370a08231146103f5578063715018a61461041e57806379cc67901461042657600080fd5b80633f4ba83a1461035b57806340c10f191461036557806342966c68146103785780635146fcd51461038b57806352238fdd146103ab57600080fd5b806323b872dd1161022657806323b872dd146102fa578063313ce5671461030d578063338dd3b11461031c578063398daa851461032f5780633b4b93991461035257600080fd5b806302d05d3f1461026357806306fdde03146102a7578063095ea7b3146102bc57806318160ddd146102df578063191fe1ed146102f1575b600080fd5b61028a7f000000000000000000000000000000000000000000000000000000000000000081565b6040516001600160a01b0390911681526020015b60405180910390f35b6102af610607565b60405161029e91906114ae565b6102cf6102ca366004611518565b610699565b604051901515815260200161029e565b6002545b60405190815260200161029e565b6102e361271081565b6102cf610308366004611542565b6106b3565b6040516012815260200161029e565b6102cf61032a36600461157e565b6106d7565b6102cf61033d3660046115b1565b600c6020526000908152604090205460ff1681565b6102e360085481565b610363610770565b005b610363610373366004611518565b610782565b6103636103863660046115d3565b6107e2565b6102e36103993660046115b1565b600b6020526000908152604090205481565b6103be6103b93660046115d3565b6107ef565b6040805192835260208301919091520161029e565b6102e3606481565b600554600160a01b900460ff166102cf565b6102e361082b565b6102e36104033660046115b1565b6001600160a01b031660009081526020819052604090205490565b610363610839565b610363610434366004611518565b61084b565b610363610860565b6102e360095481565b610363610874565b6005546001600160a01b031661028a565b6103636104713660046115fa565b610884565b6102af6108eb565b600d546102cf90610100900460ff1681565b6102cf61049e366004611518565b6108fa565b6103636104b1366004611518565b610908565b600d546102cf9060ff1681565b6102cf7f000000000000000000000000000000000000000000000000000000000000000081565b6102e36104f83660046115b1565b600a6020526000908152604090205481565b6103636109ff565b6102e361052036600461157e565b6001600160a01b03918216600090815260016020908152604080832093909416825291909152205490565b610363610b3a565b610363610ba4565b60075461028a906001600160a01b031681565b6001600160a01b037f000000000000000000000000000000000000000000000000000000000000000081166000908152600a60209081526040808320546007549094168352600b90915290205460085460095460408051948552602085019390935291830152606082015260800161029e565b6103636105ef3660046115b1565b610d30565b6103636106023660046115b1565b610d6b565b60606003805461061690611631565b80601f016020809104026020016040519081016040528092919081815260200182805461064290611631565b801561068f5780601f106106645761010080835404028352916020019161068f565b820191906000526020600020905b81548152906001019060200180831161067257829003601f168201915b5050505050905090565b6000336106a7818585610e53565b60019150505b92915050565b6000336106c1858285610e60565b6106cc858585610edf565b506001949350505050565b600d54600090610100900460ff166106f1575060006106ad565b6001600160a01b0383166000908152600c602052604090205460ff168061073057506001600160a01b0382166000908152600c602052604090205460ff165b1561073d575060006106ad565b6001600160a01b038316158061075a57506001600160a01b038216155b15610767575060006106ad565b50600192915050565b610778610f3e565b610780610f6b565b565b61078a610f3e565b600d5460ff166107d45760405162461bcd60e51b815260206004820152601060248201526f135a5b9d1a5b99c8191a5cd8589b195960821b60448201526064015b60405180910390fd5b6107de8282610fbb565b5050565b6107ec3382610ff1565b50565b600080612710610800606485611681565b61080a9190611698565b915061271061081a606485611681565b6108249190611698565b9050915091565b6108366064806116ba565b81565b610841610f3e565b6107806000611027565b610856823383610e60565b6107de8282610ff1565b610868610f3e565b600d805460ff19169055565b61087c610f3e565b610780611079565b61088c610f3e565b6001600160a01b0382166000818152600c6020908152604091829020805460ff191685151590811790915591519182527f69e34a174b4a0cce59950c4c852317e9797bdcae125fbf8b5dd8b4311384412f910160405180910390a25050565b60606004805461061690611631565b6000336106a7818585610edf565b610910610f3e565b306001600160a01b038316036109685760405162461bcd60e51b815260206004820152601b60248201527f43616e6e6f74207265636f766572206e617469766520746f6b656e000000000060448201526064016107cb565b816001600160a01b031663a9059cbb6109896005546001600160a01b031690565b6040516001600160e01b031960e084901b1681526001600160a01b039091166004820152602481018490526044016020604051808303816000875af11580156109d6573d6000803e3d6000fd5b505050506040513d601f19601f820116820180604052508101906109fa91906116cd565b505050565b610a076110bc565b6007546001600160a01b03163314610a615760405162461bcd60e51b815260206004820152601760248201527f4f6e6c7920706c6174666f726d20726563697069656e7400000000000000000060448201526064016107cb565b6007546001600160a01b03166000908152600b602052604090205480610abf5760405162461bcd60e51b81526020600482015260136024820152724e6f206665657320746f20776974686472617760681b60448201526064016107cb565b600780546001600160a01b039081166000908152600b60205260408120559054610aec9130911683610edf565b6007546040518281526001600160a01b03909116907ffc7ad544ff6a06d6499925723d25b6fe70457a42939995b1d3d6f560fe336333906020015b60405180910390a2506107806001600655565b610b42610f3e565b600d805460ff610100808304821615810261ff001990931692909217928390556040517fc97260ffb3df6b903cdfd59e3b5b21a896404903a8e8a83bf60ba3fca365fbe593610b9a9390049091161515815260200190565b60405180910390a1565b610bac6110bc565b336001600160a01b037f00000000000000000000000000000000000000000000000000000000000000001614610c135760405162461bcd60e51b815260206004820152600c60248201526b27b7363c9031b932b0ba37b960a11b60448201526064016107cb565b6001600160a01b037f0000000000000000000000000000000000000000000000000000000000000000166000908152600a602052604090205480610c8f5760405162461bcd60e51b81526020600482015260136024820152724e6f206665657320746f20776974686472617760681b60448201526064016107cb565b7f00000000000000000000000000000000000000000000000000000000000000006001600160a01b0381166000908152600a6020526040812055610cd590309083610edf565b7f00000000000000000000000000000000000000000000000000000000000000006001600160a01b03167f7f0b212761a7abe7ec4d2adea5a7fa1fea58234aabf0c01c0e63403fe62013ff82604051610b2791815260200190565b610d38610f3e565b6001600160a01b038116610d6257604051631e4fbdf760e01b8152600060048201526024016107cb565b6107ec81611027565b610d73610f3e565b6001600160a01b038116610dbd5760405162461bcd60e51b8152602060048201526011602482015270125b9d985b1a59081c9958da5c1a595b9d607a1b60448201526064016107cb565b6007546001600160a01b03166000908152600b60205260409020548015610e08576007546001600160a01b039081166000908152600b60205260408082208290559184168152208190555b600780546001600160a01b0319166001600160a01b0384169081179091556040517fba887708e7d4436dd36b62187bdced03e0b9abe66caf392a66dd84386641b20990600090a25050565b6109fa83838360016110e6565b6001600160a01b03838116600090815260016020908152604080832093861683529290522054600019811015610ed95781811015610eca57604051637dc7a0d960e11b81526001600160a01b038416600482015260248101829052604481018390526064016107cb565b610ed9848484840360006110e6565b50505050565b6001600160a01b038316610f0957604051634b637e8f60e11b8152600060048201526024016107cb565b6001600160a01b038216610f335760405163ec442f0560e01b8152600060048201526024016107cb565b6109fa8383836111bb565b6005546001600160a01b031633146107805760405163118cdaa760e01b81523360048201526024016107cb565b610f7361132f565b6005805460ff60a01b191690557f5db9ee0a495bf2e6ff9c91a7834c1ba4fdd244a5e8aa4e537bd38aeae4b073aa335b6040516001600160a01b039091168152602001610b9a565b6001600160a01b038216610fe55760405163ec442f0560e01b8152600060048201526024016107cb565b6107de600083836111bb565b6001600160a01b03821661101b57604051634b637e8f60e11b8152600060048201526024016107cb565b6107de826000836111bb565b600580546001600160a01b038381166001600160a01b0319831681179093556040519116919082907f8be0079c531659141344cd1fd0a4f28419497f9722a3daafe3b4186f6b6457e090600090a35050565b611081611359565b6005805460ff60a01b1916600160a01b1790557f62e78cea01bee320cd4e420270b5ea74000d11b0c9f74754ebdbfc544b05a258610fa33390565b6002600654036110df57604051633ee5aeb560e01b815260040160405180910390fd5b6002600655565b6001600160a01b0384166111105760405163e602df0560e01b8152600060048201526024016107cb565b6001600160a01b03831661113a57604051634a1406b160e11b8152600060048201526024016107cb565b6001600160a01b0380851660009081526001602090815260408083209387168352929052208290558015610ed957826001600160a01b0316846001600160a01b03167f8c5be1e5ebec7d5bd14f71427d1e84f3dd0314c0f7b2291e5b200ac8c7c3b925846040516111ad91815260200190565b60405180910390a350505050565b6111c3611359565b6111cd83836106d7565b15611324576000806111de836107ef565b909250905060006111ef82846116ba565b905060006111fd82866116ea565b9050811561131057611210873084611384565b6001600160a01b037f0000000000000000000000000000000000000000000000000000000000000000166000908152600a6020526040812080548692906112589084906116ba565b90915550506007546001600160a01b03166000908152600b6020526040812080548592906112879084906116ba565b9250508190555083600860008282546112a091906116ba565b9250508190555082600960008282546112b991906116ba565b909155505060408051868152602081018690529081018490526001600160a01b0380881691908916907fde5d657c00d557886c53e267ff792a157187bc1c5947bd02cb62159550edb08e9060600160405180910390a35b61131b878783611384565b50505050505050565b6109fa838383611384565b600554600160a01b900460ff1661078057604051638dfc202b60e01b815260040160405180910390fd5b600554600160a01b900460ff16156107805760405163d93c066560e01b815260040160405180910390fd5b6001600160a01b0383166113af5780600260008282546113a491906116ba565b909155506114219050565b6001600160a01b038316600090815260208190526040902054818110156114025760405163391434e360e21b81526001600160a01b038516600482015260248101829052604481018390526064016107cb565b6001600160a01b03841660009081526020819052604090209082900390555b6001600160a01b03821661143d5760028054829003905561145c565b6001600160a01b03821660009081526020819052604090208054820190555b816001600160a01b0316836001600160a01b03167fddf252ad1be2c89b69c2b068fc378daa952ba7f163c4a11628f55a4df523b3ef836040516114a191815260200190565b60405180910390a3505050565b600060208083528351808285015260005b818110156114db578581018301518582016040015282016114bf565b506000604082860101526040601f19601f8301168501019250505092915050565b80356001600160a01b038116811461151357600080fd5b919050565b6000806040838503121561152b57600080fd5b611534836114fc565b946020939093013593505050565b60008060006060848603121561155757600080fd5b611560846114fc565b925061156e602085016114fc565b9150604084013590509250925092565b6000806040838503121561159157600080fd5b61159a836114fc565b91506115a8602084016114fc565b90509250929050565b6000602082840312156115c357600080fd5b6115cc826114fc565b9392505050565b6000602082840312156115e557600080fd5b5035919050565b80151581146107ec57600080fd5b6000806040838503121561160d57600080fd5b611616836114fc565b91506020830135611626816115ec565b809150509250929050565b600181811c9082168061164557607f821691505b60208210810361166557634e487b7160e01b600052602260045260246000fd5b50919050565b634e487b7160e01b600052601160045260246000fd5b80820281158282048414176106ad576106ad61166b565b6000826116b557634e487b7160e01b600052601260045260246000fd5b500490565b808201808211156106ad576106ad61166b565b6000602082840312156116df57600080fd5b81516115cc816115ec565b818103818111156106ad576106ad61166b56fea2646970667358221220d9f0d3ee8b951a6f4b2bb2dfab36b50b0e51888a74bab1e3ee1f05695895e4e664736f6c63430008140033","opcodes":"PUSH1 0xC0 PUSH1 0x40 MSTORE CALLVALUE DUP1 ISZERO PUSH3 0x11 JUMPI PUSH1 0x0 DUP1 REVERT JUMPDEST POP PUSH1 0x40 MLOAD PUSH3 0x2195 CODESIZE SUB DUP1 PUSH3 0x2195 DUP4 CODECOPY DUP2 ADD PUSH1 0x40 DUP2 SWAP1 MSTORE PUSH3 0x34 SWAP2 PUSH3 0x755 JUMP JUMPDEST DUP6 DUP10 DUP10 PUSH1 0x3 PUSH3 0x45 DUP4 DUP3 PUSH3 0x8C7 JUMP JUMPDEST POP PUSH1 0x4 PUSH3 0x54 DUP3 DUP3 PUSH3 0x8C7 JUMP JUMPDEST POP POP POP PUSH1 0x1 PUSH1 0x1 PUSH1 0xA0 SHL SUB DUP2 AND PUSH3 0x87 JUMPI PUSH1 0x40 MLOAD PUSH4 0x1E4FBDF7 PUSH1 0xE0 SHL DUP2 MSTORE PUSH1 0x0 PUSH1 0x4 DUP3 ADD MSTORE PUSH1 0x24 ADD JUMPDEST PUSH1 0x40 MLOAD DUP1 SWAP2 SUB SWAP1 REVERT JUMPDEST PUSH3 0x92 DUP2 PUSH3 0x20F JUMP JUMPDEST POP PUSH1 0x1 PUSH1 0x6 SSTORE PUSH1 0x1 PUSH1 0x1 PUSH1 0xA0 SHL SUB DUP6 AND PUSH3 0xE2 JUMPI PUSH1 0x40 MLOAD PUSH3 0x461BCD PUSH1 0xE5 SHL DUP2 MSTORE PUSH1 0x20 PUSH1 0x4 DUP3 ADD MSTORE PUSH1 0xF PUSH1 0x24 DUP3 ADD MSTORE PUSH15 0x24B73B30B634B21031B932B0BA37B9 PUSH1 0x89 SHL PUSH1 0x44 DUP3 ADD MSTORE PUSH1 0x64 ADD PUSH3 0x7E JUMP JUMPDEST PUSH1 0x1 PUSH1 0x1 PUSH1 0xA0 SHL SUB DUP5 AND PUSH3 0x13A JUMPI PUSH1 0x40 MLOAD PUSH3 0x461BCD PUSH1 0xE5 SHL DUP2 MSTORE PUSH1 0x20 PUSH1 0x4 DUP3 ADD MSTORE PUSH1 0x1A PUSH1 0x24 DUP3 ADD MSTORE PUSH32 0x496E76616C696420706C6174666F726D20726563697069656E74000000000000 PUSH1 0x44 DUP3 ADD MSTORE PUSH1 0x64 ADD PUSH3 0x7E JUMP JUMPDEST PUSH1 0x1 PUSH1 0x1 PUSH1 0xA0 SHL SUB DUP6 DUP2 AND PUSH1 0x80 MSTORE PUSH1 0x7 DUP1 SLOAD PUSH1 0x1 PUSH1 0x1 PUSH1 0xA0 SHL SUB NOT AND SWAP2 DUP7 AND SWAP2 SWAP1 SWAP2 OR SWAP1 SSTORE PUSH1 0xD DUP1 SLOAD DUP4 ISZERO ISZERO PUSH1 0xA0 MSTORE PUSH2 0xFFFF NOT AND DUP5 ISZERO ISZERO PUSH2 0xFF00 NOT AND OR PUSH2 0x100 DUP4 ISZERO ISZERO MUL OR SWAP1 SSTORE PUSH3 0x18D DUP7 DUP9 PUSH3 0x261 JUMP JUMPDEST POP POP POP POP PUSH1 0x1 PUSH1 0x1 PUSH1 0xA0 SHL SUB SWAP2 DUP3 AND PUSH1 0x0 SWAP1 DUP2 MSTORE PUSH1 0xC PUSH1 0x20 MSTORE PUSH1 0x40 DUP1 DUP3 KECCAK256 DUP1 SLOAD PUSH1 0x1 PUSH1 0xFF NOT SWAP2 DUP3 AND DUP2 OR SWAP1 SWAP3 SSTORE SWAP4 SWAP1 SWAP5 AND DUP3 MSTORE DUP1 DUP3 KECCAK256 DUP1 SLOAD DUP5 AND DUP6 OR SWAP1 SSTORE ADDRESS DUP3 MSTORE DUP2 KECCAK256 DUP1 SLOAD DUP4 AND DUP5 OR SWAP1 SSTORE DUP1 MSTORE PUSH32 0x13649B2456F1B42FEF0F0040B3AAEABCD21A76A0F3F5DEFD4F583839455116E8 DUP1 SLOAD SWAP1 SWAP2 AND SWAP1 SWAP2 OR SWAP1 SSTORE POP PUSH3 0xA12 SWAP2 POP POP JUMP JUMPDEST PUSH1 0x5 DUP1 SLOAD PUSH1 0x1 PUSH1 0x1 PUSH1 0xA0 SHL SUB DUP4 DUP2 AND PUSH1 0x1 PUSH1 0x1 PUSH1 0xA0 SHL SUB NOT DUP4 AND DUP2 OR SWAP1 SWAP4 SSTORE PUSH1 0x40 MLOAD SWAP2 AND SWAP2 SWAP1 DUP3 SWAP1 PUSH32 0x8BE0079C531659141344CD1FD0A4F28419497F9722A3DAAFE3B4186F6B6457E0 SWAP1 PUSH1 0x0 SWAP1 LOG3 POP POP JUMP JUMPDEST PUSH1 0x1 PUSH1 0x1 PUSH1 0xA0 SHL SUB DUP3 AND PUSH3 0x28D JUMPI PUSH1 0x40 MLOAD PUSH4 0xEC442F05 PUSH1 0xE0 SHL DUP2 MSTORE PUSH1 0x0 PUSH1 0x4 DUP3 ADD MSTORE PUSH1 0x24 ADD PUSH3 0x7E JUMP JUMPDEST PUSH3 0x29B PUSH1 0x0 DUP4 DUP4 PUSH3 0x29F JUMP JUMPDEST POP POP JUMP JUMPDEST PUSH3 0x2A9 PUSH3 0x414 JUMP JUMPDEST PUSH3 0x2B5 DUP4 DUP4 PUSH3 0x449 JUMP JUMPDEST ISZERO PUSH3 0x402 JUMPI PUSH1 0x0 DUP1 PUSH3 0x2C9 DUP4 PUSH3 0x4EB JUMP JUMPDEST SWAP1 SWAP3 POP SWAP1 POP PUSH1 0x0 PUSH3 0x2DC DUP3 DUP5 PUSH3 0x9A9 JUMP JUMPDEST SWAP1 POP PUSH1 0x0 PUSH3 0x2EC DUP3 DUP7 PUSH3 0x9BF JUMP JUMPDEST SWAP1 POP DUP2 ISZERO PUSH3 0x3EC JUMPI PUSH3 0x302 DUP8 ADDRESS DUP5 PUSH3 0x52F JUMP JUMPDEST PUSH1 0x80 MLOAD PUSH1 0x1 PUSH1 0x1 PUSH1 0xA0 SHL SUB AND PUSH1 0x0 SWAP1 DUP2 MSTORE PUSH1 0xA PUSH1 0x20 MSTORE PUSH1 0x40 DUP2 KECCAK256 DUP1 SLOAD DUP7 SWAP3 SWAP1 PUSH3 0x32E SWAP1 DUP5 SWAP1 PUSH3 0x9A9 JUMP JUMPDEST SWAP1 SWAP2 SSTORE POP POP PUSH1 0x7 SLOAD PUSH1 0x1 PUSH1 0x1 PUSH1 0xA0 SHL SUB AND PUSH1 0x0 SWAP1 DUP2 MSTORE PUSH1 0xB PUSH1 0x20 MSTORE PUSH1 0x40 DUP2 KECCAK256 DUP1 SLOAD DUP6 SWAP3 SWAP1 PUSH3 0x35F SWAP1 DUP5 SWAP1 PUSH3 0x9A9 JUMP JUMPDEST SWAP3 POP POP DUP2 SWAP1 SSTORE POP DUP4 PUSH1 0x8 PUSH1 0x0 DUP3 DUP3 SLOAD PUSH3 0x37A SWAP2 SWAP1 PUSH3 0x9A9 JUMP JUMPDEST SWAP3 POP POP DUP2 SWAP1 SSTORE POP DUP3 PUSH1 0x9 PUSH1 0x0 DUP3 DUP3 SLOAD PUSH3 0x395 SWAP2 SWAP1 PUSH3 0x9A9 JUMP JUMPDEST SWAP1 SWAP2 SSTORE POP POP PUSH1 0x40 DUP1 MLOAD DUP7 DUP2 MSTORE PUSH1 0x20 DUP2 ADD DUP7 SWAP1 MSTORE SWAP1 DUP2 ADD DUP5 SWAP1 MSTORE PUSH1 0x1 PUSH1 0x1 PUSH1 0xA0 SHL SUB DUP1 DUP9 AND SWAP2 SWAP1 DUP10 AND SWAP1 PUSH32 0xDE5D657C00D557886C53E267FF792A157187BC1C5947BD02CB62159550EDB08E SWAP1 PUSH1 0x60 ADD PUSH1 0x40 MLOAD DUP1 SWAP2 SUB SWAP1 LOG3 JUMPDEST PUSH3 0x3F9 DUP8 DUP8 DUP4 PUSH3 0x52F JUMP JUMPDEST POP POP POP POP POP POP POP JUMP JUMPDEST PUSH3 0x40F DUP4 DUP4 DUP4 PUSH3 0x52F JUMP JUMPDEST POP POP POP JUMP JUMPDEST PUSH3 0x428 PUSH1 0x5 SLOAD PUSH1 0x1 PUSH1 0xA0 SHL SWAP1 DIV PUSH1 0xFF AND SWAP1 JUMP JUMPDEST ISZERO PUSH3 0x447 JUMPI PUSH1 0x40 MLOAD PUSH4 0xD93C0665 PUSH1 0xE0 SHL DUP2 MSTORE PUSH1 0x4 ADD PUSH1 0x40 MLOAD DUP1 SWAP2 SUB SWAP1 REVERT JUMPDEST JUMP JUMPDEST PUSH1 0xD SLOAD PUSH1 0x0 SWAP1 PUSH2 0x100 SWAP1 DIV PUSH1 0xFF AND PUSH3 0x465 JUMPI POP PUSH1 0x0 PUSH3 0x4E5 JUMP JUMPDEST PUSH1 0x1 PUSH1 0x1 PUSH1 0xA0 SHL SUB DUP4 AND PUSH1 0x0 SWAP1 DUP2 MSTORE PUSH1 0xC PUSH1 0x20 MSTORE PUSH1 0x40 SWAP1 KECCAK256 SLOAD PUSH1 0xFF AND DUP1 PUSH3 0x4A5 JUMPI POP PUSH1 0x1 PUSH1 0x1 PUSH1 0xA0 SHL SUB DUP3 AND PUSH1 0x0 SWAP1 DUP2 MSTORE PUSH1 0xC PUSH1 0x20 MSTORE PUSH1 0x40 SWAP1 KECCAK256 SLOAD PUSH1 0xFF AND JUMPDEST ISZERO PUSH3 0x4B4 JUMPI POP PUSH1 0x0 PUSH3 0x4E5 JUMP JUMPDEST PUSH1 0x1 PUSH1 0x1 PUSH1 0xA0 SHL SUB DUP4 AND ISZERO DUP1 PUSH3 0x4D2 JUMPI POP PUSH1 0x1 PUSH1 0x1 PUSH1 0xA0 SHL SUB DUP3 AND ISZERO JUMPDEST ISZERO PUSH3 0x4E1 JUMPI POP PUSH1 0x0 PUSH3 0x4E5 JUMP JUMPDEST POP PUSH1 0x1 JUMPDEST SWAP3 SWAP2 POP POP JUMP JUMPDEST PUSH1 0x0 DUP1 PUSH2 0x2710 PUSH3 0x4FE PUSH1 0x64 DUP6 PUSH3 0x9D5 JUMP JUMPDEST PUSH3 0x50A SWAP2 SWAP1 PUSH3 0x9EF JUMP JUMPDEST SWAP2 POP PUSH2 0x2710 PUSH3 0x51C PUSH1 0x64 DUP6 PUSH3 0x9D5 JUMP JUMPDEST PUSH3 0x528 SWAP2 SWAP1 PUSH3 0x9EF JUMP JUMPDEST SWAP1 POP SWAP2 POP SWAP2 JUMP JUMPDEST PUSH1 0x1 PUSH1 0x1 PUSH1 0xA0 SHL SUB DUP4 AND PUSH3 0x55E JUMPI DUP1 PUSH1 0x2 PUSH1 0x0 DUP3 DUP3 SLOAD PUSH3 0x552 SWAP2 SWAP1 PUSH3 0x9A9 JUMP JUMPDEST SWAP1 SWAP2 SSTORE POP PUSH3 0x5D2 SWAP1 POP JUMP JUMPDEST PUSH1 0x1 PUSH1 0x1 PUSH1 0xA0 SHL SUB DUP4 AND PUSH1 0x0 SWAP1 DUP2 MSTORE PUSH1 0x20 DUP2 SWAP1 MSTORE PUSH1 0x40 SWAP1 KECCAK256 SLOAD DUP2 DUP2 LT ISZERO PUSH3 0x5B3 JUMPI PUSH1 0x40 MLOAD PUSH4 0x391434E3 PUSH1 0xE2 SHL DUP2 MSTORE PUSH1 0x1 PUSH1 0x1 PUSH1 0xA0 SHL SUB DUP6 AND PUSH1 0x4 DUP3 ADD MSTORE PUSH1 0x24 DUP2 ADD DUP3 SWAP1 MSTORE PUSH1 0x44 DUP2 ADD DUP4 SWAP1 MSTORE PUSH1 0x64 ADD PUSH3 0x7E JUMP JUMPDEST PUSH1 0x1 PUSH1 0x1 PUSH1 0xA0 SHL SUB DUP5 AND PUSH1 0x0 SWAP1 DUP2 MSTORE PUSH1 0x20 DUP2 SWAP1 MSTORE PUSH1 0x40 SWAP1 KECCAK256 SWAP1 DUP3 SWAP1 SUB SWAP1 SSTORE JUMPDEST PUSH1 0x1 PUSH1 0x1 PUSH1 0xA0 SHL SUB DUP3 AND PUSH3 0x5F0 JUMPI PUSH1 0x2 DUP1 SLOAD DUP3 SWAP1 SUB SWAP1 SSTORE PUSH3 0x60F JUMP JUMPDEST PUSH1 0x1 PUSH1 0x1 PUSH1 0xA0 SHL SUB DUP3 AND PUSH1 0x0 SWAP1 DUP2 MSTORE PUSH1 0x20 DUP2 SWAP1 MSTORE PUSH1 0x40 SWAP1 KECCAK256 DUP1 SLOAD DUP3 ADD SWAP1 SSTORE JUMPDEST DUP2 PUSH1 0x1 PUSH1 0x1 PUSH1 0xA0 SHL SUB AND DUP4 PUSH1 0x1 PUSH1 0x1 PUSH1 0xA0 SHL SUB AND PUSH32 0xDDF252AD1BE2C89B69C2B068FC378DAA952BA7F163C4A11628F55A4DF523B3EF DUP4 PUSH1 0x40 MLOAD PUSH3 0x655 SWAP2 DUP2 MSTORE PUSH1 0x20 ADD SWAP1 JUMP JUMPDEST PUSH1 0x40 MLOAD DUP1 SWAP2 SUB SWAP1 LOG3 POP POP POP JUMP JUMPDEST PUSH4 0x4E487B71 PUSH1 0xE0 SHL PUSH1 0x0 MSTORE PUSH1 0x41 PUSH1 0x4 MSTORE PUSH1 0x24 PUSH1 0x0 REVERT JUMPDEST PUSH1 0x0 DUP3 PUSH1 0x1F DUP4 ADD SLT PUSH3 0x68A JUMPI PUSH1 0x0 DUP1 REVERT JUMPDEST DUP2 MLOAD PUSH1 0x1 PUSH1 0x1 PUSH1 0x40 SHL SUB DUP1 DUP3 GT ISZERO PUSH3 0x6A7 JUMPI PUSH3 0x6A7 PUSH3 0x662 JUMP JUMPDEST PUSH1 0x40 MLOAD PUSH1 0x1F DUP4 ADD PUSH1 0x1F NOT SWAP1 DUP2 AND PUSH1 0x3F ADD AND DUP2 ADD SWAP1 DUP3 DUP3 GT DUP2 DUP4 LT OR ISZERO PUSH3 0x6D2 JUMPI PUSH3 0x6D2 PUSH3 0x662 JUMP JUMPDEST DUP2 PUSH1 0x40 MSTORE DUP4 DUP2 MSTORE PUSH1 0x20 SWAP3 POP DUP7 DUP4 DUP6 DUP9 ADD ADD GT ISZERO PUSH3 0x6EF JUMPI PUSH1 0x0 DUP1 REVERT JUMPDEST PUSH1 0x0 SWAP2 POP JUMPDEST DUP4 DUP3 LT ISZERO PUSH3 0x713 JUMPI DUP6 DUP3 ADD DUP4 ADD MLOAD DUP2 DUP4 ADD DUP5 ADD MSTORE SWAP1 DUP3 ADD SWAP1 PUSH3 0x6F4 JUMP JUMPDEST PUSH1 0x0 SWAP4 DUP2 ADD SWAP1 SWAP3 ADD SWAP3 SWAP1 SWAP3 MSTORE SWAP5 SWAP4 POP POP POP POP JUMP JUMPDEST DUP1 MLOAD PUSH1 0x1 PUSH1 0x1 PUSH1 0xA0 SHL SUB DUP2 AND DUP2 EQ PUSH3 0x73F JUMPI PUSH1 0x0 DUP1 REVERT JUMPDEST SWAP2 SWAP1 POP JUMP JUMPDEST DUP1 MLOAD DUP1 ISZERO ISZERO DUP2 EQ PUSH3 0x73F JUMPI PUSH1 0x0 DUP1 REVERT JUMPDEST PUSH1 0x0 DUP1 PUSH1 0x0 DUP1 PUSH1 0x0 DUP1 PUSH1 0x0 DUP1 PUSH1 0x0 PUSH2 0x120 DUP11 DUP13 SUB SLT ISZERO PUSH3 0x775 JUMPI PUSH1 0x0 DUP1 REVERT JUMPDEST DUP10 MLOAD PUSH1 0x1 PUSH1 0x1 PUSH1 0x40 SHL SUB DUP1 DUP3 GT ISZERO PUSH3 0x78D JUMPI PUSH1 0x0 DUP1 REVERT JUMPDEST PUSH3 0x79B DUP14 DUP4 DUP15 ADD PUSH3 0x678 JUMP JUMPDEST SWAP11 POP PUSH1 0x20 DUP13 ADD MLOAD SWAP2 POP DUP1 DUP3 GT ISZERO PUSH3 0x7B2 JUMPI PUSH1 0x0 DUP1 REVERT JUMPDEST POP PUSH3 0x7C1 DUP13 DUP3 DUP14 ADD PUSH3 0x678 JUMP JUMPDEST SWAP9 POP POP PUSH1 0x40 DUP11 ADD MLOAD SWAP7 POP PUSH3 0x7D9 PUSH1 0x60 DUP12 ADD PUSH3 0x727 JUMP JUMPDEST SWAP6 POP PUSH3 0x7E9 PUSH1 0x80 DUP12 ADD PUSH3 0x727 JUMP JUMPDEST SWAP5 POP PUSH3 0x7F9 PUSH1 0xA0 DUP12 ADD PUSH3 0x727 JUMP JUMPDEST SWAP4 POP PUSH3 0x809 PUSH1 0xC0 DUP12 ADD PUSH3 0x744 JUMP JUMPDEST SWAP3 POP PUSH3 0x819 PUSH1 0xE0 DUP12 ADD PUSH3 0x744 JUMP JUMPDEST SWAP2 POP PUSH3 0x82A PUSH2 0x100 DUP12 ADD PUSH3 0x744 JUMP JUMPDEST SWAP1 POP SWAP3 SWAP6 SWAP9 POP SWAP3 SWAP6 SWAP9 POP SWAP3 SWAP6 SWAP9 JUMP JUMPDEST PUSH1 0x1 DUP2 DUP2 SHR SWAP1 DUP3 AND DUP1 PUSH3 0x84E JUMPI PUSH1 0x7F DUP3 AND SWAP2 POP JUMPDEST PUSH1 0x20 DUP3 LT DUP2 SUB PUSH3 0x86F JUMPI PUSH4 0x4E487B71 PUSH1 0xE0 SHL PUSH1 0x0 MSTORE PUSH1 0x22 PUSH1 0x4 MSTORE PUSH1 0x24 PUSH1 0x0 REVERT JUMPDEST POP SWAP2 SWAP1 POP JUMP JUMPDEST PUSH1 0x1F DUP3 GT ISZERO PUSH3 0x40F JUMPI PUSH1 0x0 DUP2 DUP2 MSTORE PUSH1 0x20 DUP2 KECCAK256 PUSH1 0x1F DUP6 ADD PUSH1 0x5 SHR DUP2 ADD PUSH1 0x20 DUP7 LT ISZERO PUSH3 0x89E JUMPI POP DUP1 JUMPDEST PUSH1 0x1F DUP6 ADD PUSH1 0x5 SHR DUP3 ADD SWAP2 POP JUMPDEST DUP2 DUP2 LT ISZERO PUSH3 0x8BF JUMPI DUP3 DUP2 SSTORE PUSH1 0x1 ADD PUSH3 0x8AA JUMP JUMPDEST POP POP POP POP POP POP JUMP JUMPDEST DUP2 MLOAD PUSH1 0x1 PUSH1 0x1 PUSH1 0x40 SHL SUB DUP2 GT ISZERO PUSH3 0x8E3 JUMPI PUSH3 0x8E3 PUSH3 0x662 JUMP JUMPDEST PUSH3 0x8FB DUP2 PUSH3 0x8F4 DUP5 SLOAD PUSH3 0x839 JUMP JUMPDEST DUP5 PUSH3 0x875 JUMP JUMPDEST PUSH1 0x20 DUP1 PUSH1 0x1F DUP4 GT PUSH1 0x1 DUP2 EQ PUSH3 0x933 JUMPI PUSH1 0x0 DUP5 ISZERO PUSH3 0x91A JUMPI POP DUP6 DUP4 ADD MLOAD JUMPDEST PUSH1 0x0 NOT PUSH1 0x3 DUP7 SWAP1 SHL SHR NOT AND PUSH1 0x1 DUP6 SWAP1 SHL OR DUP6 SSTORE PUSH3 0x8BF JUMP JUMPDEST PUSH1 0x0 DUP6 DUP2 MSTORE PUSH1 0x20 DUP2 KECCAK256 PUSH1 0x1F NOT DUP7 AND SWAP2 JUMPDEST DUP3 DUP2 LT ISZERO PUSH3 0x964 JUMPI DUP9 DUP7 ADD MLOAD DUP3 SSTORE SWAP5 DUP5 ADD SWAP5 PUSH1 0x1 SWAP1 SWAP2 ADD SWAP1 DUP5 ADD PUSH3 0x943 JUMP JUMPDEST POP DUP6 DUP3 LT ISZERO PUSH3 0x983 JUMPI DUP8 DUP6 ADD MLOAD PUSH1 0x0 NOT PUSH1 0x3 DUP9 SWAP1 SHL PUSH1 0xF8 AND SHR NOT AND DUP2 SSTORE JUMPDEST POP POP POP POP POP PUSH1 0x1 SWAP1 DUP2 SHL ADD SWAP1 SSTORE POP JUMP JUMPDEST PUSH4 0x4E487B71 PUSH1 0xE0 SHL PUSH1 0x0 MSTORE PUSH1 0x11 PUSH1 0x4 MSTORE PUSH1 0x24 PUSH1 0x0 REVERT JUMPDEST DUP1 DUP3 ADD DUP1 DUP3 GT ISZERO PUSH3 0x4E5 JUMPI PUSH3 0x4E5 PUSH3 0x993 JUMP JUMPDEST DUP2 DUP2 SUB DUP2 DUP2 GT ISZERO PUSH3 0x4E5 JUMPI PUSH3 0x4E5 PUSH3 0x993 JUMP JUMPDEST DUP1 DUP3 MUL DUP2 ISZERO DUP3 DUP3 DIV DUP5 EQ OR PUSH3 0x4E5 JUMPI PUSH3 0x4E5 PUSH3 0x993 JUMP JUMPDEST PUSH1 0x0 DUP3 PUSH3 0xA0D JUMPI PUSH4 0x4E487B71 PUSH1 0xE0 SHL PUSH1 0x0 MSTORE PUSH1 0x12 PUSH1 0x4 MSTORE PUSH1 0x24 PUSH1 0x0 REVERT JUMPDEST POP DIV SWAP1 JUMP JUMPDEST PUSH1 0x80 MLOAD PUSH1 0xA0 MLOAD PUSH2 0x1733 PUSH3 0xA62 PUSH1 0x0 CODECOPY PUSH1 0x0 PUSH2 0x4C8 ADD MSTORE PUSH1 0x0 DUP2 DUP2 PUSH2 0x268 ADD MSTORE DUP2 DUP2 PUSH2 0x578 ADD MSTORE DUP2 DUP2 PUSH2 0xBB7 ADD MSTORE DUP2 DUP2 PUSH2 0xC1D ADD MSTORE DUP2 DUP2 PUSH2 0xC91 ADD MSTORE DUP2 DUP2 PUSH2 0xCD7 ADD MSTORE PUSH2 0x121A ADD MSTORE PUSH2 0x1733 PUSH1 0x0 RETURN INVALID PUSH1 0x80 PUSH1 0x40 MSTORE CALLVALUE DUP1 ISZERO PUSH2 0x10 JUMPI PUSH1 0x0 DUP1 REVERT JUMPDEST POP PUSH1 0x4 CALLDATASIZE LT PUSH2 0x25E JUMPI PUSH1 0x0 CALLDATALOAD PUSH1 0xE0 SHR DUP1 PUSH4 0x7E5CD5C1 GT PUSH2 0x146 JUMPI DUP1 PUSH4 0xC1EB1840 GT PUSH2 0xC3 JUMPI DUP1 PUSH4 0xDDF54512 GT PUSH2 0x87 JUMPI DUP1 PUSH4 0xDDF54512 EQ PUSH2 0x54B JUMPI DUP1 PUSH4 0xE1CD04B4 EQ PUSH2 0x553 JUMPI DUP1 PUSH4 0xEB13554F EQ PUSH2 0x55B JUMPI DUP1 PUSH4 0xF28AB2BE EQ PUSH2 0x56E JUMPI DUP1 PUSH4 0xF2FDE38B EQ PUSH2 0x5E1 JUMPI DUP1 PUSH4 0xF5FE7F71 EQ PUSH2 0x5F4 JUMPI PUSH1 0x0 DUP1 REVERT JUMPDEST DUP1 PUSH4 0xC1EB1840 EQ PUSH2 0x4C3 JUMPI DUP1 PUSH4 0xC598B2F9 EQ PUSH2 0x4EA JUMPI DUP1 PUSH4 0xCC3CBD2A EQ PUSH2 0x3D3 JUMPI DUP1 PUSH4 0xD0B7830B EQ PUSH2 0x50A JUMPI DUP1 PUSH4 0xDD62ED3E EQ PUSH2 0x512 JUMPI PUSH1 0x0 DUP1 REVERT JUMPDEST DUP1 PUSH4 0x95D89B41 GT PUSH2 0x10A JUMPI DUP1 PUSH4 0x95D89B41 EQ PUSH2 0x476 JUMPI DUP1 PUSH4 0xA64E4F8A EQ PUSH2 0x47E JUMPI DUP1 PUSH4 0xA9059CBB EQ PUSH2 0x490 JUMPI DUP1 PUSH4 0xB29A8140 EQ PUSH2 0x4A3 JUMPI DUP1 PUSH4 0xBEB9716D EQ PUSH2 0x4B6 JUMPI PUSH1 0x0 DUP1 REVERT JUMPDEST DUP1 PUSH4 0x7E5CD5C1 EQ PUSH2 0x439 JUMPI DUP1 PUSH4 0x82C3188C EQ PUSH2 0x441 JUMPI DUP1 PUSH4 0x8456CB59 EQ PUSH2 0x44A JUMPI DUP1 PUSH4 0x8DA5CB5B EQ PUSH2 0x452 JUMPI DUP1 PUSH4 0x8EBFC796 EQ PUSH2 0x463 JUMPI PUSH1 0x0 DUP1 REVERT JUMPDEST DUP1 PUSH4 0x3F4BA83A GT PUSH2 0x1DF JUMPI DUP1 PUSH4 0x539AA77F GT PUSH2 0x1A3 JUMPI DUP1 PUSH4 0x539AA77F EQ PUSH2 0x3D3 JUMPI DUP1 PUSH4 0x5C975ABB EQ PUSH2 0x3DB JUMPI DUP1 PUSH4 0x6F28507C EQ PUSH2 0x3ED JUMPI DUP1 PUSH4 0x70A08231 EQ PUSH2 0x3F5 JUMPI DUP1 PUSH4 0x715018A6 EQ PUSH2 0x41E JUMPI DUP1 PUSH4 0x79CC6790 EQ PUSH2 0x426 JUMPI PUSH1 0x0 DUP1 REVERT JUMPDEST DUP1 PUSH4 0x3F4BA83A EQ PUSH2 0x35B JUMPI DUP1 PUSH4 0x40C10F19 EQ PUSH2 0x365 JUMPI DUP1 PUSH4 0x42966C68 EQ PUSH2 0x378 JUMPI DUP1 PUSH4 0x5146FCD5 EQ PUSH2 0x38B JUMPI DUP1 PUSH4 0x52238FDD EQ PUSH2 0x3AB JUMPI PUSH1 0x0 DUP1 REVERT JUMPDEST DUP1 PUSH4 0x23B872DD GT PUSH2 0x226 JUMPI DUP1 PUSH4 0x23B872DD EQ PUSH2 0x2FA JUMPI DUP1 PUSH4 0x313CE567 EQ PUSH2 0x30D JUMPI DUP1 PUSH4 0x338DD3B1 EQ PUSH2 0x31C JUMPI DUP1 PUSH4 0x398DAA85 EQ PUSH2 0x32F JUMPI DUP1 PUSH4 0x3B4B9399 EQ PUSH2 0x352 JUMPI PUSH1 0x0 DUP1 REVERT JUMPDEST DUP1 PUSH4 0x2D05D3F EQ PUSH2 0x263 JUMPI DUP1 PUSH4 0x6FDDE03 EQ PUSH2 0x2A7 JUMPI DUP1 PUSH4 0x95EA7B3 EQ PUSH2 0x2BC JUMPI DUP1 PUSH4 0x18160DDD EQ PUSH2 0x2DF JUMPI DUP1 PUSH4 0x191FE1ED EQ PUSH2 0x2F1 JUMPI JUMPDEST PUSH1 0x0 DUP1 REVERT JUMPDEST PUSH2 0x28A PUSH32 0x0 DUP2 JUMP JUMPDEST PUSH1 0x40 MLOAD PUSH1 0x1 PUSH1 0x1 PUSH1 0xA0 SHL SUB SWAP1 SWAP2 AND DUP2 MSTORE PUSH1 0x20 ADD JUMPDEST PUSH1 0x40 MLOAD DUP1 SWAP2 SUB SWAP1 RETURN JUMPDEST PUSH2 0x2AF PUSH2 0x607 JUMP JUMPDEST PUSH1 0x40 MLOAD PUSH2 0x29E SWAP2 SWAP1 PUSH2 0x14AE JUMP JUMPDEST PUSH2 0x2CF PUSH2 0x2CA CALLDATASIZE PUSH1 0x4 PUSH2 0x1518 JUMP JUMPDEST PUSH2 0x699 JUMP JUMPDEST PUSH1 0x40 MLOAD SWAP1 ISZERO ISZERO DUP2 MSTORE PUSH1 0x20 ADD PUSH2 0x29E JUMP JUMPDEST PUSH1 0x2 SLOAD JUMPDEST PUSH1 0x40 MLOAD SWAP1 DUP2 MSTORE PUSH1 0x20 ADD PUSH2 0x29E JUMP JUMPDEST PUSH2 0x2E3 PUSH2 0x2710 DUP2 JUMP JUMPDEST PUSH2 0x2CF PUSH2 0x308 CALLDATASIZE PUSH1 0x4 PUSH2 0x1542 JUMP JUMPDEST PUSH2 0x6B3 JUMP JUMPDEST PUSH1 0x40 MLOAD PUSH1 0x12 DUP2 MSTORE PUSH1 0x20 ADD PUSH2 0x29E JUMP JUMPDEST PUSH2 0x2CF PUSH2 0x32A CALLDATASIZE PUSH1 0x4 PUSH2 0x157E JUMP JUMPDEST PUSH2 0x6D7 JUMP JUMPDEST PUSH2 0x2CF PUSH2 0x33D CALLDATASIZE PUSH1 0x4 PUSH2 0x15B1 JUMP JUMPDEST PUSH1 0xC PUSH1 0x20 MSTORE PUSH1 0x0 SWAP1 DUP2 MSTORE PUSH1 0x40 SWAP1 KECCAK256 SLOAD PUSH1 0xFF AND DUP2 JUMP JUMPDEST PUSH2 0x2E3 PUSH1 0x8 SLOAD DUP2 JUMP JUMPDEST PUSH2 0x363 PUSH2 0x770 JUMP JUMPDEST STOP JUMPDEST PUSH2 0x363 PUSH2 0x373 CALLDATASIZE PUSH1 0x4 PUSH2 0x1518 JUMP JUMPDEST PUSH2 0x782 JUMP JUMPDEST PUSH2 0x363 PUSH2 0x386 CALLDATASIZE PUSH1 0x4 PUSH2 0x15D3 JUMP JUMPDEST PUSH2 0x7E2 JUMP JUMPDEST PUSH2 0x2E3 PUSH2 0x399 CALLDATASIZE PUSH1 0x4 PUSH2 0x15B1 JUMP JUMPDEST PUSH1 0xB PUSH1 0x20 MSTORE PUSH1 0x0 SWAP1 DUP2 MSTORE PUSH1 0x40 SWAP1 KECCAK256 SLOAD DUP2 JUMP JUMPDEST PUSH2 0x3BE PUSH2 0x3B9 CALLDATASIZE PUSH1 0x4 PUSH2 0x15D3 JUMP JUMPDEST PUSH2 0x7EF JUMP JUMPDEST PUSH1 0x40 DUP1 MLOAD SWAP3 DUP4 MSTORE PUSH1 0x20 DUP4 ADD SWAP2 SWAP1 SWAP2 MSTORE ADD PUSH2 0x29E JUMP JUMPDEST PUSH2 0x2E3 PUSH1 0x64 DUP2 JUMP JUMPDEST PUSH1 0x5 SLOAD PUSH1 0x1 PUSH1 0xA0 SHL SWAP1 DIV PUSH1 0xFF AND PUSH2 0x2CF JUMP JUMPDEST PUSH2 0x2E3 PUSH2 0x82B JUMP JUMPDEST PUSH2 0x2E3 PUSH2 0x403 CALLDATASIZE PUSH1 0x4 PUSH2 0x15B1 JUMP JUMPDEST PUSH1 0x1 PUSH1 0x1 PUSH1 0xA0 SHL SUB AND PUSH1 0x0 SWAP1 DUP2 MSTORE PUSH1 0x20 DUP2 SWAP1 MSTORE PUSH1 0x40 SWAP1 KECCAK256 SLOAD SWAP1 JUMP JUMPDEST PUSH2 0x363 PUSH2 0x839 JUMP JUMPDEST PUSH2 0x363 PUSH2 0x434 CALLDATASIZE PUSH1 0x4 PUSH2 0x1518 JUMP JUMPDEST PUSH2 0x84B JUMP JUMPDEST PUSH2 0x363 PUSH2 0x860 JUMP JUMPDEST PUSH2 0x2E3 PUSH1 0x9 SLOAD DUP2 JUMP JUMPDEST PUSH2 0x363 PUSH2 0x874 JUMP JUMPDEST PUSH1 0x5 SLOAD PUSH1 0x1 PUSH1 0x1 PUSH1 0xA0 SHL SUB AND PUSH2 0x28A JUMP JUMPDEST PUSH2 0x363 PUSH2 0x471 CALLDATASIZE PUSH1 0x4 PUSH2 0x15FA JUMP JUMPDEST PUSH2 0x884 JUMP JUMPDEST PUSH2 0x2AF PUSH2 0x8EB JUMP JUMPDEST PUSH1 0xD SLOAD PUSH2 0x2CF SWAP1 PUSH2 0x100 SWAP1 DIV PUSH1 0xFF AND DUP2 JUMP JUMPDEST PUSH2 0x2CF PUSH2 0x49E CALLDATASIZE PUSH1 0x4 PUSH2 0x1518 JUMP JUMPDEST PUSH2 0x8FA JUMP JUMPDEST PUSH2 0x363 PUSH2 0x4B1 CALLDATASIZE PUSH1 0x4 PUSH2 0x1518 JUMP JUMPDEST PUSH2 0x908 JUMP JUMPDEST PUSH1 0xD SLOAD PUSH2 0x2CF SWAP1 PUSH1 0xFF AND DUP2 JUMP JUMPDEST PUSH2 0x2CF PUSH32 0x0 DUP2 JUMP JUMPDEST PUSH2 0x2E3 PUSH2 0x4F8 CALLDATASIZE PUSH1 0x4 PUSH2 0x15B1 JUMP JUMPDEST PUSH1 0xA PUSH1 0x20 MSTORE PUSH1 0x0 SWAP1 DUP2 MSTORE PUSH1 0x40 SWAP1 KECCAK256 SLOAD DUP2 JUMP JUMPDEST PUSH2 0x363 PUSH2 0x9FF JUMP JUMPDEST PUSH2 0x2E3 PUSH2 0x520 CALLDATASIZE PUSH1 0x4 PUSH2 0x157E JUMP JUMPDEST PUSH1 0x1 PUSH1 0x1 PUSH1 0xA0 SHL SUB SWAP2 DUP3 AND PUSH1 0x0 SWAP1 DUP2 MSTORE PUSH1 0x1 PUSH1 0x20 SWAP1 DUP2 MSTORE PUSH1 0x40 DUP1 DUP4 KECCAK256 SWAP4 SWAP1 SWAP5 AND DUP3 MSTORE SWAP2 SWAP1 SWAP2 MSTORE KECCAK256 SLOAD SWAP1 JUMP JUMPDEST PUSH2 0x363 PUSH2 0xB3A JUMP JUMPDEST PUSH2 0x363 PUSH2 0xBA4 JUMP JUMPDEST PUSH1 0x7 SLOAD PUSH2 0x28A SWAP1 PUSH1 0x1 PUSH1 0x1 PUSH1 0xA0 SHL SUB AND DUP2 JUMP JUMPDEST PUSH1 0x1 PUSH1 0x1 PUSH1 0xA0 SHL SUB PUSH32 0x0 DUP2 AND PUSH1 0x0 SWAP1 DUP2 MSTORE PUSH1 0xA PUSH1 0x20 SWAP1 DUP2 MSTORE PUSH1 0x40 DUP1 DUP4 KECCAK256 SLOAD PUSH1 0x7 SLOAD SWAP1 SWAP5 AND DUP4 MSTORE PUSH1 0xB SWAP1 SWAP2 MSTORE SWAP1 KECCAK256 SLOAD PUSH1 0x8 SLOAD PUSH1 0x9 SLOAD PUSH1 0x40 DUP1 MLOAD SWAP5 DUP6 MSTORE PUSH1 0x20 DUP6 ADD SWAP4 SWAP1 SWAP4 MSTORE SWAP2 DUP4 ADD MSTORE PUSH1 0x60 DUP3 ADD MSTORE PUSH1 0x80 ADD PUSH2 0x29E JUMP JUMPDEST PUSH2 0x363 PUSH2 0x5EF CALLDATASIZE PUSH1 0x4 PUSH2 0x15B1 JUMP JUMPDEST PUSH2 0xD30 JUMP JUMPDEST PUSH2 0x363 PUSH2 0x602 CALLDATASIZE PUSH1 0x4 PUSH2 0x15B1 JUMP JUMPDEST PUSH2 0xD6B JUMP JUMPDEST PUSH1 0x60 PUSH1 0x3 DUP1 SLOAD PUSH2 0x616 SWAP1 PUSH2 0x1631 JUMP JUMPDEST DUP1 PUSH1 0x1F ADD PUSH1 0x20 DUP1 SWAP2 DIV MUL PUSH1 0x20 ADD PUSH1 0x40 MLOAD SWAP1 DUP2 ADD PUSH1 0x40 MSTORE DUP1 SWAP3 SWAP2 SWAP1 DUP2 DUP2 MSTORE PUSH1 0x20 ADD DUP3 DUP1 SLOAD PUSH2 0x642 SWAP1 PUSH2 0x1631 JUMP JUMPDEST DUP1 ISZERO PUSH2 0x68F JUMPI DUP1 PUSH1 0x1F LT PUSH2 0x664 JUMPI PUSH2 0x100 DUP1 DUP4 SLOAD DIV MUL DUP4 MSTORE SWAP2 PUSH1 0x20 ADD SWAP2 PUSH2 0x68F JUMP JUMPDEST DUP3 ADD SWAP2 SWAP1 PUSH1 0x0 MSTORE PUSH1 0x20 PUSH1 0x0 KECCAK256 SWAP1 JUMPDEST DUP2 SLOAD DUP2 MSTORE SWAP1 PUSH1 0x1 ADD SWAP1 PUSH1 0x20 ADD DUP1 DUP4 GT PUSH2 0x672 JUMPI DUP3 SWAP1 SUB PUSH1 0x1F AND DUP3 ADD SWAP2 JUMPDEST POP POP POP POP POP SWAP1 POP SWAP1 JUMP JUMPDEST PUSH1 0x0 CALLER PUSH2 0x6A7 DUP2 DUP6 DUP6 PUSH2 0xE53 JUMP JUMPDEST PUSH1 0x1 SWAP2 POP POP JUMPDEST SWAP3 SWAP2 POP POP JUMP JUMPDEST PUSH1 0x0 CALLER PUSH2 0x6C1 DUP6 DUP3 DUP6 PUSH2 0xE60 JUMP JUMPDEST PUSH2 0x6CC DUP6 DUP6 DUP6 PUSH2 0xEDF JUMP JUMPDEST POP PUSH1 0x1 SWAP5 SWAP4 POP POP POP POP JUMP JUMPDEST PUSH1 0xD SLOAD PUSH1 0x0 SWAP1 PUSH2 0x100 SWAP1 DIV PUSH1 0xFF AND PUSH2 0x6F1 JUMPI POP PUSH1 0x0 PUSH2 0x6AD JUMP JUMPDEST PUSH1 0x1 PUSH1 0x1 PUSH1 0xA0 SHL SUB DUP4 AND PUSH1 0x0 SWAP1 DUP2 MSTORE PUSH1 0xC PUSH1 0x20 MSTORE PUSH1 0x40 SWAP1 KECCAK256 SLOAD PUSH1 0xFF AND DUP1 PUSH2 0x730 JUMPI POP PUSH1 0x1 PUSH1 0x1 PUSH1 0xA0 SHL SUB DUP3 AND PUSH1 0x0 SWAP1 DUP2 MSTORE PUSH1 0xC PUSH1 0x20 MSTORE PUSH1 0x40 SWAP1 KECCAK256 SLOAD PUSH1 0xFF AND JUMPDEST ISZERO PUSH2 0x73D JUMPI POP PUSH1 0x0 PUSH2 0x6AD JUMP JUMPDEST PUSH1 0x1 PUSH1 0x1 PUSH1 0xA0 SHL SUB DUP4 AND ISZERO DUP1 PUSH2 0x75A JUMPI POP PUSH1 0x1 PUSH1 0x1 PUSH1 0xA0 SHL SUB DUP3 AND ISZERO JUMPDEST ISZERO PUSH2 0x767 JUMPI POP PUSH1 0x0 PUSH2 0x6AD JUMP JUMPDEST POP PUSH1 0x1 SWAP3 SWAP2 POP POP JUMP JUMPDEST PUSH2 0x778 PUSH2 0xF3E JUMP JUMPDEST PUSH2 0x780 PUSH2 0xF6B JUMP JUMPDEST JUMP JUMPDEST PUSH2 0x78A PUSH2 0xF3E JUMP JUMPDEST PUSH1 0xD SLOAD PUSH1 0xFF AND PUSH2 0x7D4 JUMPI PUSH1 0x40 MLOAD PUSH3 0x461BCD PUSH1 0xE5 SHL DUP2 MSTORE PUSH1 0x20 PUSH1 0x4 DUP3 ADD MSTORE PUSH1 0x10 PUSH1 0x24 DUP3 ADD MSTORE PUSH16 0x135A5B9D1A5B99C8191A5CD8589B1959 PUSH1 0x82 SHL PUSH1 0x44 DUP3 ADD MSTORE PUSH1 0x64 ADD JUMPDEST PUSH1 0x40 MLOAD DUP1 SWAP2 SUB SWAP1 REVERT JUMPDEST PUSH2 0x7DE DUP3 DUP3 PUSH2 0xFBB JUMP JUMPDEST POP POP JUMP JUMPDEST PUSH2 0x7EC CALLER DUP3 PUSH2 0xFF1 JUMP JUMPDEST POP JUMP JUMPDEST PUSH1 0x0 DUP1 PUSH2 0x2710 PUSH2 0x800 PUSH1 0x64 DUP6 PUSH2 0x1681 JUMP JUMPDEST PUSH2 0x80A SWAP2 SWAP1 PUSH2 0x1698 JUMP JUMPDEST SWAP2 POP PUSH2 0x2710 PUSH2 0x81A PUSH1 0x64 DUP6 PUSH2 0x1681 JUMP JUMPDEST PUSH2 0x824 SWAP2 SWAP1 PUSH2 0x1698 JUMP JUMPDEST SWAP1 POP SWAP2 POP SWAP2 JUMP JUMPDEST PUSH2 0x836 PUSH1 0x64 DUP1 PUSH2 0x16BA JUMP JUMPDEST DUP2 JUMP JUMPDEST PUSH2 0x841 PUSH2 0xF3E JUMP JUMPDEST PUSH2 0x780 PUSH1 0x0 PUSH2 0x1027 JUMP JUMPDEST PUSH2 0x856 DUP3 CALLER DUP4 PUSH2 0xE60 JUMP JUMPDEST PUSH2 0x7DE DUP3 DUP3 PUSH2 0xFF1 JUMP JUMPDEST PUSH2 0x868 PUSH2 0xF3E JUMP JUMPDEST PUSH1 0xD DUP1 SLOAD PUSH1 0xFF NOT AND SWAP1 SSTORE JUMP JUMPDEST PUSH2 0x87C PUSH2 0xF3E JUMP JUMPDEST PUSH2 0x780 PUSH2 0x1079 JUMP JUMPDEST PUSH2 0x88C PUSH2 0xF3E JUMP JUMPDEST PUSH1 0x1 PUSH1 0x1 PUSH1 0xA0 SHL SUB DUP3 AND PUSH1 0x0 DUP2 DUP2 MSTORE PUSH1 0xC PUSH1 0x20 SWAP1 DUP2 MSTORE PUSH1 0x40 SWAP2 DUP3 SWAP1 KECCAK256 DUP1 SLOAD PUSH1 0xFF NOT AND DUP6 ISZERO ISZERO SWAP1 DUP2 OR SWAP1 SWAP2 SSTORE SWAP2 MLOAD SWAP2 DUP3 MSTORE PUSH32 0x69E34A174B4A0CCE59950C4C852317E9797BDCAE125FBF8B5DD8B4311384412F SWAP2 ADD PUSH1 0x40 MLOAD DUP1 SWAP2 SUB SWAP1 LOG2 POP POP JUMP JUMPDEST PUSH1 0x60 PUSH1 0x4 DUP1 SLOAD PUSH2 0x616 SWAP1 PUSH2 0x1631 JUMP JUMPDEST PUSH1 0x0 CALLER PUSH2 0x6A7 DUP2 DUP6 DUP6 PUSH2 0xEDF JUMP JUMPDEST PUSH2 0x910 PUSH2 0xF3E JUMP JUMPDEST ADDRESS PUSH1 0x1 PUSH1 0x1 PUSH1 0xA0 SHL SUB DUP4 AND SUB PUSH2 0x968 JUMPI PUSH1 0x40 MLOAD PUSH3 0x461BCD PUSH1 0xE5 SHL DUP2 MSTORE PUSH1 0x20 PUSH1 0x4 DUP3 ADD MSTORE PUSH1 0x1B PUSH1 0x24 DUP3 ADD MSTORE PUSH32 0x43616E6E6F74207265636F766572206E617469766520746F6B656E0000000000 PUSH1 0x44 DUP3 ADD MSTORE PUSH1 0x64 ADD PUSH2 0x7CB JUMP JUMPDEST DUP2 PUSH1 0x1 PUSH1 0x1 PUSH1 0xA0 SHL SUB AND PUSH4 0xA9059CBB PUSH2 0x989 PUSH1 0x5 SLOAD PUSH1 0x1 PUSH1 0x1 PUSH1 0xA0 SHL SUB AND SWAP1 JUMP JUMPDEST PUSH1 0x40 MLOAD PUSH1 0x1 PUSH1 0x1 PUSH1 0xE0 SHL SUB NOT PUSH1 0xE0 DUP5 SWAP1 SHL AND DUP2 MSTORE PUSH1 0x1 PUSH1 0x1 PUSH1 0xA0 SHL SUB SWAP1 SWAP2 AND PUSH1 0x4 DUP3 ADD MSTORE PUSH1 0x24 DUP2 ADD DUP5 SWAP1 MSTORE PUSH1 0x44 ADD PUSH1 0x20 PUSH1 0x40 MLOAD DUP1 DUP4 SUB DUP2 PUSH1 0x0 DUP8 GAS CALL ISZERO DUP1 ISZERO PUSH2 0x9D6 JUMPI RETURNDATASIZE PUSH1 0x0 DUP1 RETURNDATACOPY RETURNDATASIZE PUSH1 0x0 REVERT JUMPDEST POP POP POP POP PUSH1 0x40 MLOAD RETURNDATASIZE PUSH1 0x1F NOT PUSH1 0x1F DUP3 ADD AND DUP3 ADD DUP1 PUSH1 0x40 MSTORE POP DUP2 ADD SWAP1 PUSH2 0x9FA SWAP2 SWAP1 PUSH2 0x16CD JUMP JUMPDEST POP POP POP JUMP JUMPDEST PUSH2 0xA07 PUSH2 0x10BC JUMP JUMPDEST PUSH1 0x7 SLOAD PUSH1 0x1 PUSH1 0x1 PUSH1 0xA0 SHL SUB AND CALLER EQ PUSH2 0xA61 JUMPI PUSH1 0x40 MLOAD PUSH3 0x461BCD PUSH1 0xE5 SHL DUP2 MSTORE PUSH1 0x20 PUSH1 0x4 DUP3 ADD MSTORE PUSH1 0x17 PUSH1 0x24 DUP3 ADD MSTORE PUSH32 0x4F6E6C7920706C6174666F726D20726563697069656E74000000000000000000 PUSH1 0x44 DUP3 ADD MSTORE PUSH1 0x64 ADD PUSH2 0x7CB JUMP JUMPDEST PUSH1 0x7 SLOAD PUSH1 0x1 PUSH1 0x1 PUSH1 0xA0 SHL SUB AND PUSH1 0x0 SWAP1 DUP2 MSTORE PUSH1 0xB PUSH1 0x20 MSTORE PUSH1 0x40 SWAP1 KECCAK256 SLOAD DUP1 PUSH2 0xABF JUMPI PUSH1 0x40 MLOAD PUSH3 0x461BCD PUSH1 0xE5 SHL DUP2 MSTORE PUSH1 0x20 PUSH1 0x4 DUP3 ADD MSTORE PUSH1 0x13 PUSH1 0x24 DUP3 ADD MSTORE PUSH19 0x4E6F206665657320746F207769746864726177 PUSH1 0x68 SHL PUSH1 0x44 DUP3 ADD MSTORE PUSH1 0x64 ADD PUSH2 0x7CB JUMP JUMPDEST PUSH1 0x7 DUP1 SLOAD PUSH1 0x1 PUSH1 0x1 PUSH1 0xA0 SHL SUB SWAP1 DUP2 AND PUSH1 0x0 SWAP1 DUP2 MSTORE PUSH1 0xB PUSH1 0x20 MSTORE PUSH1 0x40 DUP2 KECCAK256 SSTORE SWAP1 SLOAD PUSH2 0xAEC SWAP2 ADDRESS SWAP2 AND DUP4 PUSH2 0xEDF JUMP JUMPDEST PUSH1 0x7 SLOAD PUSH1 0x40 MLOAD DUP3 DUP2 MSTORE PUSH1 0x1 PUSH1 0x1 PUSH1 0xA0 SHL SUB SWAP1 SWAP2 AND SWAP1 PUSH32 0xFC7AD544FF6A06D6499925723D25B6FE70457A42939995B1D3D6F560FE336333 SWAP1 PUSH1 0x20 ADD JUMPDEST PUSH1 0x40 MLOAD DUP1 SWAP2 SUB SWAP1 LOG2 POP PUSH2 0x780 PUSH1 0x1 PUSH1 0x6 SSTORE JUMP JUMPDEST PUSH2 0xB42 PUSH2 0xF3E JUMP JUMPDEST PUSH1 0xD DUP1 SLOAD PUSH1 0xFF PUSH2 0x100 DUP1 DUP4 DIV DUP3 AND ISZERO DUP2 MUL PUSH2 0xFF00 NOT SWAP1 SWAP4 AND SWAP3 SWAP1 SWAP3 OR SWAP3 DUP4 SWAP1 SSTORE PUSH1 0x40 MLOAD PUSH32 0xC97260FFB3DF6B903CDFD59E3B5B21A896404903A8E8A83BF60BA3FCA365FBE5 SWAP4 PUSH2 0xB9A SWAP4 SWAP1 DIV SWAP1 SWAP2 AND ISZERO ISZERO DUP2 MSTORE PUSH1 0x20 ADD SWAP1 JUMP JUMPDEST PUSH1 0x40 MLOAD DUP1 SWAP2 SUB SWAP1 LOG1 JUMP JUMPDEST PUSH2 0xBAC PUSH2 0x10BC JUMP JUMPDEST CALLER PUSH1 0x1 PUSH1 0x1 PUSH1 0xA0 SHL SUB PUSH32 0x0 AND EQ PUSH2 0xC13 JUMPI PUSH1 0x40 MLOAD PUSH3 0x461BCD PUSH1 0xE5 SHL DUP2 MSTORE PUSH1 0x20 PUSH1 0x4 DUP3 ADD MSTORE PUSH1 0xC PUSH1 0x24 DUP3 ADD MSTORE PUSH12 0x27B7363C9031B932B0BA37B9 PUSH1 0xA1 SHL PUSH1 0x44 DUP3 ADD MSTORE PUSH1 0x64 ADD PUSH2 0x7CB JUMP JUMPDEST PUSH1 0x1 PUSH1 0x1 PUSH1 0xA0 SHL SUB PUSH32 0x0 AND PUSH1 0x0 SWAP1 DUP2 MSTORE PUSH1 0xA PUSH1 0x20 MSTORE PUSH1 0x40 SWAP1 KECCAK256 SLOAD DUP1 PUSH2 0xC8F JUMPI PUSH1 0x40 MLOAD PUSH3 0x461BCD PUSH1 0xE5 SHL DUP2 MSTORE PUSH1 0x20 PUSH1 0x4 DUP3 ADD MSTORE PUSH1 0x13 PUSH1 0x24 DUP3 ADD MSTORE PUSH19 0x4E6F206665657320746F207769746864726177 PUSH1 0x68 SHL PUSH1 0x44 DUP3 ADD MSTORE PUSH1 0x64 ADD PUSH2 0x7CB JUMP JUMPDEST PUSH32 0x0 PUSH1 0x1 PUSH1 0x1 PUSH1 0xA0 SHL SUB DUP2 AND PUSH1 0x0 SWAP1 DUP2 MSTORE PUSH1 0xA PUSH1 0x20 MSTORE PUSH1 0x40 DUP2 KECCAK256 SSTORE PUSH2 0xCD5 SWAP1 ADDRESS SWAP1 DUP4 PUSH2 0xEDF JUMP JUMPDEST PUSH32 0x0 PUSH1 0x1 PUSH1 0x1 PUSH1 0xA0 SHL SUB AND PUSH32 0x7F0B212761A7ABE7EC4D2ADEA5A7FA1FEA58234AABF0C01C0E63403FE62013FF DUP3 PUSH1 0x40 MLOAD PUSH2 0xB27 SWAP2 DUP2 MSTORE PUSH1 0x20 ADD SWAP1 JUMP JUMPDEST PUSH2 0xD38 PUSH2 0xF3E JUMP JUMPDEST PUSH1 0x1 PUSH1 0x1 PUSH1 0xA0 SHL SUB DUP2 AND PUSH2 0xD62 JUMPI PUSH1 0x40 MLOAD PUSH4 0x1E4FBDF7 PUSH1 0xE0 SHL DUP2 MSTORE PUSH1 0x0 PUSH1 0x4 DUP3 ADD MSTORE PUSH1 0x24 ADD PUSH2 0x7CB JUMP JUMPDEST PUSH2 0x7EC DUP2 PUSH2 0x1027 JUMP JUMPDEST PUSH2 0xD73 PUSH2 0xF3E JUMP JUMPDEST PUSH1 0x1 PUSH1 0x1 PUSH1 0xA0 SHL SUB DUP2 AND PUSH2 0xDBD JUMPI PUSH1 0x40 MLOAD PUSH3 0x461BCD PUSH1 0xE5 SHL DUP2 MSTORE PUSH1 0x20 PUSH1 0x4 DUP3 ADD MSTORE PUSH1 0x11 PUSH1 0x24 DUP3 ADD MSTORE PUSH17 0x125B9D985B1A59081C9958DA5C1A595B9D PUSH1 0x7A SHL PUSH1 0x44 DUP3 ADD MSTORE PUSH1 0x64 ADD PUSH2 0x7CB JUMP JUMPDEST PUSH1 0x7 SLOAD PUSH1 0x1 PUSH1 0x1 PUSH1 0xA0 SHL SUB AND PUSH1 0x0 SWAP1 DUP2 MSTORE PUSH1 0xB PUSH1 0x20 MSTORE PUSH1 0x40 SWAP1 KECCAK256 SLOAD DUP1 ISZERO PUSH2 0xE08 JUMPI PUSH1 0x7 SLOAD PUSH1 0x1 PUSH1 0x1 PUSH1 0xA0 SHL SUB SWAP1 DUP2 AND PUSH1 0x0 SWAP1 DUP2 MSTORE PUSH1 0xB PUSH1 0x20 MSTORE PUSH1 0x40 DUP1 DUP3 KECCAK256 DUP3 SWAP1 SSTORE SWAP2 DUP5 AND DUP2 MSTORE KECCAK256 DUP2 SWAP1 SSTORE JUMPDEST PUSH1 0x7 DUP1 SLOAD PUSH1 0x1 PUSH1 0x1 PUSH1 0xA0 SHL SUB NOT AND PUSH1 0x1 PUSH1 0x1 PUSH1 0xA0 SHL SUB DUP5 AND SWAP1 DUP2 OR SWAP1 SWAP2 SSTORE PUSH1 0x40 MLOAD PUSH32 0xBA887708E7D4436DD36B62187BDCED03E0B9ABE66CAF392A66DD84386641B209 SWAP1 PUSH1 0x0 SWAP1 LOG2 POP POP JUMP JUMPDEST PUSH2 0x9FA DUP4 DUP4 DUP4 PUSH1 0x1 PUSH2 0x10E6 JUMP JUMPDEST PUSH1 0x1 PUSH1 0x1 PUSH1 0xA0 SHL SUB DUP4 DUP2 AND PUSH1 0x0 SWAP1 DUP2 MSTORE PUSH1 0x1 PUSH1 0x20 SWAP1 DUP2 MSTORE PUSH1 0x40 DUP1 DUP4 KECCAK256 SWAP4 DUP7 AND DUP4 MSTORE SWAP3 SWAP1 MSTORE KECCAK256 SLOAD PUSH1 0x0 NOT DUP2 LT ISZERO PUSH2 0xED9 JUMPI DUP2 DUP2 LT ISZERO PUSH2 0xECA JUMPI PUSH1 0x40 MLOAD PUSH4 0x7DC7A0D9 PUSH1 0xE1 SHL DUP2 MSTORE PUSH1 0x1 PUSH1 0x1 PUSH1 0xA0 SHL SUB DUP5 AND PUSH1 0x4 DUP3 ADD MSTORE PUSH1 0x24 DUP2 ADD DUP3 SWAP1 MSTORE PUSH1 0x44 DUP2 ADD DUP4 SWAP1 MSTORE PUSH1 0x64 ADD PUSH2 0x7CB JUMP JUMPDEST PUSH2 0xED9 DUP5 DUP5 DUP5 DUP5 SUB PUSH1 0x0 PUSH2 0x10E6 JUMP JUMPDEST POP POP POP POP JUMP JUMPDEST PUSH1 0x1 PUSH1 0x1 PUSH1 0xA0 SHL SUB DUP4 AND PUSH2 0xF09 JUMPI PUSH1 0x40 MLOAD PUSH4 0x4B637E8F PUSH1 0xE1 SHL DUP2 MSTORE PUSH1 0x0 PUSH1 0x4 DUP3 ADD MSTORE PUSH1 0x24 ADD PUSH2 0x7CB JUMP JUMPDEST PUSH1 0x1 PUSH1 0x1 PUSH1 0xA0 SHL SUB DUP3 AND PUSH2 0xF33 JUMPI PUSH1 0x40 MLOAD PUSH4 0xEC442F05 PUSH1 0xE0 SHL DUP2 MSTORE PUSH1 0x0 PUSH1 0x4 DUP3 ADD MSTORE PUSH1 0x24 ADD PUSH2 0x7CB JUMP JUMPDEST PUSH2 0x9FA DUP4 DUP4 DUP4 PUSH2 0x11BB JUMP JUMPDEST PUSH1 0x5 SLOAD PUSH1 0x1 PUSH1 0x1 PUSH1 0xA0 SHL SUB AND CALLER EQ PUSH2 0x780 JUMPI PUSH1 0x40 MLOAD PUSH4 0x118CDAA7 PUSH1 0xE0 SHL DUP2 MSTORE CALLER PUSH1 0x4 DUP3 ADD MSTORE PUSH1 0x24 ADD PUSH2 0x7CB JUMP JUMPDEST PUSH2 0xF73 PUSH2 0x132F JUMP JUMPDEST PUSH1 0x5 DUP1 SLOAD PUSH1 0xFF PUSH1 0xA0 SHL NOT AND SWAP1 SSTORE PUSH32 0x5DB9EE0A495BF2E6FF9C91A7834C1BA4FDD244A5E8AA4E537BD38AEAE4B073AA CALLER JUMPDEST PUSH1 0x40 MLOAD PUSH1 0x1 PUSH1 0x1 PUSH1 0xA0 SHL SUB SWAP1 SWAP2 AND DUP2 MSTORE PUSH1 0x20 ADD PUSH2 0xB9A JUMP JUMPDEST PUSH1 0x1 PUSH1 0x1 PUSH1 0xA0 SHL SUB DUP3 AND PUSH2 0xFE5 JUMPI PUSH1 0x40 MLOAD PUSH4 0xEC442F05 PUSH1 0xE0 SHL DUP2 MSTORE PUSH1 0x0 PUSH1 0x4 DUP3 ADD MSTORE PUSH1 0x24 ADD PUSH2 0x7CB JUMP JUMPDEST PUSH2 0x7DE PUSH1 0x0 DUP4 DUP4 PUSH2 0x11BB JUMP JUMPDEST PUSH1 0x1 PUSH1 0x1 PUSH1 0xA0 SHL SUB DUP3 AND PUSH2 0x101B JUMPI PUSH1 0x40 MLOAD PUSH4 0x4B637E8F PUSH1 0xE1 SHL DUP2 MSTORE PUSH1 0x0 PUSH1 0x4 DUP3 ADD MSTORE PUSH1 0x24 ADD PUSH2 0x7CB JUMP JUMPDEST PUSH2 0x7DE DUP3 PUSH1 0x0 DUP4 PUSH2 0x11BB JUMP JUMPDEST PUSH1 0x5 DUP1 SLOAD PUSH1 0x1 PUSH1 0x1 PUSH1 0xA0 SHL SUB DUP4 DUP2 AND PUSH1 0x1 PUSH1 0x1 PUSH1 0xA0 SHL SUB NOT DUP4 AND DUP2 OR SWAP1 SWAP4 SSTORE PUSH1 0x40 MLOAD SWAP2 AND SWAP2 SWAP1 DUP3 SWAP1 PUSH32 0x8BE0079C531659141344CD1FD0A4F28419497F9722A3DAAFE3B4186F6B6457E0 SWAP1 PUSH1 0x0 SWAP1 LOG3 POP POP JUMP JUMPDEST PUSH2 0x1081 PUSH2 0x1359 JUMP JUMPDEST PUSH1 0x5 DUP1 SLOAD PUSH1 0xFF PUSH1 0xA0 SHL NOT AND PUSH1 0x1 PUSH1 0xA0 SHL OR SWAP1 SSTORE PUSH32 0x62E78CEA01BEE320CD4E420270B5EA74000D11B0C9F74754EBDBFC544B05A258 PUSH2 0xFA3 CALLER SWAP1 JUMP JUMPDEST PUSH1 0x2 PUSH1 0x6 SLOAD SUB PUSH2 0x10DF JUMPI PUSH1 0x40 MLOAD PUSH4 0x3EE5AEB5 PUSH1 0xE0 SHL DUP2 MSTORE PUSH1 0x4 ADD PUSH1 0x40 MLOAD DUP1 SWAP2 SUB SWAP1 REVERT JUMPDEST PUSH1 0x2 PUSH1 0x6 SSTORE JUMP JUMPDEST PUSH1 0x1 PUSH1 0x1 PUSH1 0xA0 SHL SUB DUP5 AND PUSH2 0x1110 JUMPI PUSH1 0x40 MLOAD PUSH4 0xE602DF05 PUSH1 0xE0 SHL DUP2 MSTORE PUSH1 0x0 PUSH1 0x4 DUP3 ADD MSTORE PUSH1 0x24 ADD PUSH2 0x7CB JUMP JUMPDEST PUSH1 0x1 PUSH1 0x1 PUSH1 0xA0 SHL SUB DUP4 AND PUSH2 0x113A JUMPI PUSH1 0x40 MLOAD PUSH4 0x4A1406B1 PUSH1 0xE1 SHL DUP2 MSTORE PUSH1 0x0 PUSH1 0x4 DUP3 ADD MSTORE PUSH1 0x24 ADD PUSH2 0x7CB JUMP JUMPDEST PUSH1 0x1 PUSH1 0x1 PUSH1 0xA0 SHL SUB DUP1 DUP6 AND PUSH1 0x0 SWAP1 DUP2 MSTORE PUSH1 0x1 PUSH1 0x20 SWAP1 DUP2 MSTORE PUSH1 0x40 DUP1 DUP4 KECCAK256 SWAP4 DUP8 AND DUP4 MSTORE SWAP3 SWAP1 MSTORE KECCAK256 DUP3 SWAP1 SSTORE DUP1 ISZERO PUSH2 0xED9 JUMPI DUP3 PUSH1 0x1 PUSH1 0x1 PUSH1 0xA0 SHL SUB AND DUP5 PUSH1 0x1 PUSH1 0x1 PUSH1 0xA0 SHL SUB AND PUSH32 0x8C5BE1E5EBEC7D5BD14F71427D1E84F3DD0314C0F7B2291E5B200AC8C7C3B925 DUP5 PUSH1 0x40 MLOAD PUSH2 0x11AD SWAP2 DUP2 MSTORE PUSH1 0x20 ADD SWAP1 JUMP JUMPDEST PUSH1 0x40 MLOAD DUP1 SWAP2 SUB SWAP1 LOG3 POP POP POP POP JUMP JUMPDEST PUSH2 0x11C3 PUSH2 0x1359 JUMP JUMPDEST PUSH2 0x11CD DUP4 DUP4 PUSH2 0x6D7 JUMP JUMPDEST ISZERO PUSH2 0x1324 JUMPI PUSH1 0x0 DUP1 PUSH2 0x11DE DUP4 PUSH2 0x7EF JUMP JUMPDEST SWAP1 SWAP3 POP SWAP1 POP PUSH1 0x0 PUSH2 0x11EF DUP3 DUP5 PUSH2 0x16BA JUMP JUMPDEST SWAP1 POP PUSH1 0x0 PUSH2 0x11FD DUP3 DUP7 PUSH2 0x16EA JUMP JUMPDEST SWAP1 POP DUP2 ISZERO PUSH2 0x1310 JUMPI PUSH2 0x1210 DUP8 ADDRESS DUP5 PUSH2 0x1384 JUMP JUMPDEST PUSH1 0x1 PUSH1 0x1 PUSH1 0xA0 SHL SUB PUSH32 0x0 AND PUSH1 0x0 SWAP1 DUP2 MSTORE PUSH1 0xA PUSH1 0x20 MSTORE PUSH1 0x40 DUP2 KECCAK256 DUP1 SLOAD DUP7 SWAP3 SWAP1 PUSH2 0x1258 SWAP1 DUP5 SWAP1 PUSH2 0x16BA JUMP JUMPDEST SWAP1 SWAP2 SSTORE POP POP PUSH1 0x7 SLOAD PUSH1 0x1 PUSH1 0x1 PUSH1 0xA0 SHL SUB AND PUSH1 0x0 SWAP1 DUP2 MSTORE PUSH1 0xB PUSH1 0x20 MSTORE PUSH1 0x40 DUP2 KECCAK256 DUP1 SLOAD DUP6 SWAP3 SWAP1 PUSH2 0x1287 SWAP1 DUP5 SWAP1 PUSH2 0x16BA JUMP JUMPDEST SWAP3 POP POP DUP2 SWAP1 SSTORE POP DUP4 PUSH1 0x8 PUSH1 0x0 DUP3 DUP3 SLOAD PUSH2 0x12A0 SWAP2 SWAP1 PUSH2 0x16BA JUMP JUMPDEST SWAP3 POP POP DUP2 SWAP1 SSTORE POP DUP3 PUSH1 0x9 PUSH1 0x0 DUP3 DUP3 SLOAD PUSH2 0x12B9 SWAP2 SWAP1 PUSH2 0x16BA JUMP JUMPDEST SWAP1 SWAP2 SSTORE POP POP PUSH1 0x40 DUP1 MLOAD DUP7 DUP2 MSTORE PUSH1 0x20 DUP2 ADD DUP7 SWAP1 MSTORE SWAP1 DUP2 ADD DUP5 SWAP1 MSTORE PUSH1 0x1 PUSH1 0x1 PUSH1 0xA0 SHL SUB DUP1 DUP9 AND SWAP2 SWAP1 DUP10 AND SWAP1 PUSH32 0xDE5D657C00D557886C53E267FF792A157187BC1C5947BD02CB62159550EDB08E SWAP1 PUSH1 0x60 ADD PUSH1 0x40 MLOAD DUP1 SWAP2 SUB SWAP1 LOG3 JUMPDEST PUSH2 0x131B DUP8 DUP8 DUP4 PUSH2 0x1384 JUMP JUMPDEST POP POP POP POP POP POP POP JUMP JUMPDEST PUSH2 0x9FA DUP4 DUP4 DUP4 PUSH2 0x1384 JUMP JUMPDEST PUSH1 0x5 SLOAD PUSH1 0x1 PUSH1 0xA0 SHL SWAP1 DIV PUSH1 0xFF AND PUSH2 0x780 JUMPI PUSH1 0x40 MLOAD PUSH4 0x8DFC202B PUSH1 0xE0 SHL DUP2 MSTORE PUSH1 0x4 ADD PUSH1 0x40 MLOAD DUP1 SWAP2 SUB SWAP1 REVERT JUMPDEST PUSH1 0x5 SLOAD PUSH1 0x1 PUSH1 0xA0 SHL SWAP1 DIV PUSH1 0xFF AND ISZERO PUSH2 0x780 JUMPI PUSH1 0x40 MLOAD PUSH4 0xD93C0665 PUSH1 0xE0 SHL DUP2 MSTORE PUSH1 0x4 ADD PUSH1 0x40 MLOAD DUP1 SWAP2 SUB SWAP1 REVERT JUMPDEST PUSH1 0x1 PUSH1 0x1 PUSH1 0xA0 SHL SUB DUP4 AND PUSH2 0x13AF JUMPI DUP1 PUSH1 0x2 PUSH1 0x0 DUP3 DUP3 SLOAD PUSH2 0x13A4 SWAP2 SWAP1 PUSH2 0x16BA JUMP JUMPDEST SWAP1 SWAP2 SSTORE POP PUSH2 0x1421 SWAP1 POP JUMP JUMPDEST PUSH1 0x1 PUSH1 0x1 PUSH1 0xA0 SHL SUB DUP4 AND PUSH1 0x0 SWAP1 DUP2 MSTORE PUSH1 0x20 DUP2 SWAP1 MSTORE PUSH1 0x40 SWAP1 KECCAK256 SLOAD DUP2 DUP2 LT ISZERO PUSH2 0x1402 JUMPI PUSH1 0x40 MLOAD PUSH4 0x391434E3 PUSH1 0xE2 SHL DUP2 MSTORE PUSH1 0x1 PUSH1 0x1 PUSH1 0xA0 SHL SUB DUP6 AND PUSH1 0x4 DUP3 ADD MSTORE PUSH1 0x24 DUP2 ADD DUP3 SWAP1 MSTORE PUSH1 0x44 DUP2 ADD DUP4 SWAP1 MSTORE PUSH1 0x64 ADD PUSH2 0x7CB JUMP JUMPDEST PUSH1 0x1 PUSH1 0x1 PUSH1 0xA0 SHL SUB DUP5 AND PUSH1 0x0 SWAP1 DUP2 MSTORE PUSH1 0x20 DUP2 SWAP1 MSTORE PUSH1 0x40 SWAP1 KECCAK256 SWAP1 DUP3 SWAP1 SUB SWAP1 SSTORE JUMPDEST PUSH1 0x1 PUSH1 0x1 PUSH1 0xA0 SHL SUB DUP3 AND PUSH2 0x143D JUMPI PUSH1 0x2 DUP1 SLOAD DUP3 SWAP1 SUB SWAP1 SSTORE PUSH2 0x145C JUMP JUMPDEST PUSH1 0x1 PUSH1 0x1 PUSH1 0xA0 SHL SUB DUP3 AND PUSH1 0x0 SWAP1 DUP2 MSTORE PUSH1 0x20 DUP2 SWAP1 MSTORE PUSH1 0x40 SWAP1 KECCAK256 DUP1 SLOAD DUP3 ADD SWAP1 SSTORE JUMPDEST DUP2 PUSH1 0x1 PUSH1 0x1 PUSH1 0xA0 SHL SUB AND DUP4 PUSH1 0x1 PUSH1 0x1 PUSH1 0xA0 SHL SUB AND PUSH32 0xDDF252AD1BE2C89B69C2B068FC378DAA952BA7F163C4A11628F55A4DF523B3EF DUP4 PUSH1 0x40 MLOAD PUSH2 0x14A1 SWAP2 DUP2 MSTORE PUSH1 0x20 ADD SWAP1 JUMP JUMPDEST PUSH1 0x40 MLOAD DUP1 SWAP2 SUB SWAP1 LOG3 POP POP POP JUMP JUMPDEST PUSH1 0x0 PUSH1 0x20 DUP1 DUP4 MSTORE DUP4 MLOAD DUP1 DUP3 DUP6 ADD MSTORE PUSH1 0x0 JUMPDEST DUP2 DUP2 LT ISZERO PUSH2 0x14DB JUMPI DUP6 DUP2 ADD DUP4 ADD MLOAD DUP6 DUP3 ADD PUSH1 0x40 ADD MSTORE DUP3 ADD PUSH2 0x14BF JUMP JUMPDEST POP PUSH1 0x0 PUSH1 0x40 DUP3 DUP7 ADD ADD MSTORE PUSH1 0x40 PUSH1 0x1F NOT PUSH1 0x1F DUP4 ADD AND DUP6 ADD ADD SWAP3 POP POP POP SWAP3 SWAP2 POP POP JUMP JUMPDEST DUP1 CALLDATALOAD PUSH1 0x1 PUSH1 0x1 PUSH1 0xA0 SHL SUB DUP2 AND DUP2 EQ PUSH2 0x1513 JUMPI PUSH1 0x0 DUP1 REVERT JUMPDEST SWAP2 SWAP1 POP JUMP JUMPDEST PUSH1 0x0 DUP1 PUSH1 0x40 DUP4 DUP6 SUB SLT ISZERO PUSH2 0x152B JUMPI PUSH1 0x0 DUP1 REVERT JUMPDEST PUSH2 0x1534 DUP4 PUSH2 0x14FC JUMP JUMPDEST SWAP5 PUSH1 0x20 SWAP4 SWAP1 SWAP4 ADD CALLDATALOAD SWAP4 POP POP POP JUMP JUMPDEST PUSH1 0x0 DUP1 PUSH1 0x0 PUSH1 0x60 DUP5 DUP7 SUB SLT ISZERO PUSH2 0x1557 JUMPI PUSH1 0x0 DUP1 REVERT JUMPDEST PUSH2 0x1560 DUP5 PUSH2 0x14FC JUMP JUMPDEST SWAP3 POP PUSH2 0x156E PUSH1 0x20 DUP6 ADD PUSH2 0x14FC JUMP JUMPDEST SWAP2 POP PUSH1 0x40 DUP5 ADD CALLDATALOAD SWAP1 POP SWAP3 POP SWAP3 POP SWAP3 JUMP JUMPDEST PUSH1 0x0 DUP1 PUSH1 0x40 DUP4 DUP6 SUB SLT ISZERO PUSH2 0x1591 JUMPI PUSH1 0x0 DUP1 REVERT JUMPDEST PUSH2 0x159A DUP4 PUSH2 0x14FC JUMP JUMPDEST SWAP2 POP PUSH2 0x15A8 PUSH1 0x20 DUP5 ADD PUSH2 0x14FC JUMP JUMPDEST SWAP1 POP SWAP3 POP SWAP3 SWAP1 POP JUMP JUMPDEST PUSH1 0x0 PUSH1 0x20 DUP3 DUP5 SUB SLT ISZERO PUSH2 0x15C3 JUMPI PUSH1 0x0 DUP1 REVERT JUMPDEST PUSH2 0x15CC DUP3 PUSH2 0x14FC JUMP JUMPDEST SWAP4 SWAP3 POP POP POP JUMP JUMPDEST PUSH1 0x0 PUSH1 0x20 DUP3 DUP5 SUB SLT ISZERO PUSH2 0x15E5 JUMPI PUSH1 0x0 DUP1 REVERT JUMPDEST POP CALLDATALOAD SWAP2 SWAP1 POP JUMP JUMPDEST DUP1 ISZERO ISZERO DUP2 EQ PUSH2 0x7EC JUMPI PUSH1 0x0 DUP1 REVERT JUMPDEST PUSH1 0x0 DUP1 PUSH1 0x40 DUP4 DUP6 SUB SLT ISZERO PUSH2 0x160D JUMPI PUSH1 0x0 DUP1 REVERT JUMPDEST PUSH2 0x1616 DUP4 PUSH2 0x14FC JUMP JUMPDEST SWAP2 POP PUSH1 0x20 DUP4 ADD CALLDATALOAD PUSH2 0x1626 DUP2 PUSH2 0x15EC JUMP JUMPDEST DUP1 SWAP2 POP POP SWAP3 POP SWAP3 SWAP1 POP JUMP JUMPDEST PUSH1 0x1 DUP2 DUP2 SHR SWAP1 DUP3 AND DUP1 PUSH2 0x1645 JUMPI PUSH1 0x7F DUP3 AND SWAP2 POP JUMPDEST PUSH1 0x20 DUP3 LT DUP2 SUB PUSH2 0x1665 JUMPI PUSH4 0x4E487B71 PUSH1 0xE0 SHL PUSH1 0x0 MSTORE PUSH1 0x22 PUSH1 0x4 MSTORE PUSH1 0x24 PUSH1 0x0 REVERT JUMPDEST POP SWAP2 SWAP1 POP JUMP JUMPDEST PUSH4 0x4E487B71 PUSH1 0xE0 SHL PUSH1 0x0 MSTORE PUSH1 0x11 PUSH1 0x4 MSTORE PUSH1 0x24 PUSH1 0x0 REVERT JUMPDEST DUP1 DUP3 MUL DUP2 ISZERO DUP3 DUP3 DIV DUP5 EQ OR PUSH2 0x6AD JUMPI PUSH2 0x6AD PUSH2 0x166B JUMP JUMPDEST PUSH1 0x0 DUP3 PUSH2 0x16B5 JUMPI PUSH4 0x4E487B71 PUSH1 0xE0 SHL PUSH1 0x0 MSTORE PUSH1 0x12 PUSH1 0x4 MSTORE PUSH1 0x24 PUSH1 0x0 REVERT JUMPDEST POP DIV SWAP1 JUMP JUMPDEST DUP1 DUP3 ADD DUP1 DUP3 GT ISZERO PUSH2 0x6AD JUMPI PUSH2 0x6AD PUSH2 0x166B JUMP JUMPDEST PUSH1 0x0 PUSH1 0x20 DUP3 DUP5 SUB SLT ISZERO PUSH2 0x16DF JUMPI PUSH1 0x0 DUP1 REVERT JUMPDEST DUP2 MLOAD PUSH2 0x15CC DUP2 PUSH2 0x15EC JUMP JUMPDEST DUP2 DUP2 SUB DUP2 DUP2 GT ISZERO PUSH2 0x6AD JUMPI PUSH2 0x6AD PUSH2 0x166B JUMP INVALID LOG2 PUSH5 0x6970667358 0x22 SLT KECCAK256 0xD9 CREATE 0xD3 0xEE DUP12 SWAP6 BYTE PUSH16 0x4B2BB2DFAB36B50B0E51888A74BAB1E3 0xEE 0x1F SDIV PUSH10 0x5895E4E664736F6C6343 STOP ADDMOD EQ STOP CALLER "},"methodIdentifiers":{"BPS_DIVISOR()":"191fe1ed","CREATOR_FEE_BPS()":"cc3cbd2a","PLATFORM_FEE_BPS()":"539aa77f","TOTAL_FEE_BPS()":"6f28507c","allowance(address,address)":"dd62ed3e","approve(address,uint256)":"095ea7b3","balanceOf(address)":"70a08231","burn(uint256)":"42966c68","burnFrom(address,uint256)":"79cc6790","calculateFees(uint256)":"52238fdd","canBurn()":"c1eb1840","canMint()":"beb9716d","creator()":"02d05d3f","decimals()":"313ce567","disableMinting()":"7e5cd5c1","feeExempt(address)":"398daa85","feesEnabled()":"a64e4f8a","getFeeStats()":"f28ab2be","mint(address,uint256)":"40c10f19","name()":"06fdde03","owner()":"8da5cb5b","pause()":"8456cb59","paused()":"5c975abb","pendingCreatorFees(address)":"c598b2f9","pendingPlatformFees(address)":"5146fcd5","platformFeeRecipient()":"eb13554f","recoverToken(address,uint256)":"b29a8140","renounceOwnership()":"715018a6","setFeeExempt(address,bool)":"8ebfc796","shouldTakeFees(address,address)":"338dd3b1","symbol()":"95d89b41","toggleFees()":"ddf54512","totalCreatorFeesCollected()":"3b4b9399","totalPlatformFeesCollected()":"82c3188c","totalSupply()":"18160ddd","transfer(address,uint256)":"a9059cbb","transferFrom(address,address,uint256)":"23b872dd","transferOwnership(address)":"f2fde38b","unpause()":"3f4ba83a","updatePlatformFeeRecipient(address)":"f5fe7f71","withdrawCreatorFees()":"e1cd04b4","withdrawPlatformFees()":"d0b7830b"}}}}}