{"contracts/FairLaunchToken.sol":{"FairLaunchToken":{"abi":[{"inputs":[{"internalType":"string","name":"name","type":"string"},{"internalType":"string","name":"symbol","type":"string"},{"internalType":"uint256","name":"initialSupply","type":"uint256"},{"internalType":"address","name":"initialOwner","type":"address"}],"stateMutability":"nonpayable","type":"constructor"},{"inputs":[],"name":"ECDSAInvalidSignature","type":"error"},{"inputs":[{"internalType":"uint256","name":"length","type":"uint256"}],"name":"ECDSAInvalidSignatureLength","type":"error"},{"inputs":[{"internalType":"bytes32","name":"s","type":"bytes32"}],"name":"ECDSAInvalidSignatureS","type":"error"},{"inputs":[{"internalType":"address","name":"spender","type":"address"},{"internalType":"uint256","name":"allowance","type":"uint256"},{"internalType":"uint256","name":"needed","type":"uint256"}],"name":"ERC20InsufficientAllowance","type":"error"},{"inputs":[{"internalType":"address","name":"sender","type":"address"},{"internalType":"uint256","name":"balance","type":"uint256"},{"internalType":"uint256","name":"needed","type":"uint256"}],"name":"ERC20InsufficientBalance","type":"error"},{"inputs":[{"internalType":"address","name":"approver","type":"address"}],"name":"ERC20InvalidApprover","type":"error"},{"inputs":[{"internalType":"address","name":"receiver","type":"address"}],"name":"ERC20InvalidReceiver","type":"error"},{"inputs":[{"internalType":"address","name":"sender","type":"address"}],"name":"ERC20InvalidSender","type":"error"},{"inputs":[{"internalType":"address","name":"spender","type":"address"}],"name":"ERC20InvalidSpender","type":"error"},{"inputs":[{"internalType":"uint256","name":"deadline","type":"uint256"}],"name":"ERC2612ExpiredSignature","type":"error"},{"inputs":[{"internalType":"address","name":"signer","type":"address"},{"internalType":"address","name":"owner","type":"address"}],"name":"ERC2612InvalidSigner","type":"error"},{"inputs":[{"internalType":"address","name":"account","type":"address"},{"internalType":"uint256","name":"currentNonce","type":"uint256"}],"name":"InvalidAccountNonce","type":"error"},{"inputs":[],"name":"InvalidShortString","type":"error"},{"inputs":[{"internalType":"address","name":"owner","type":"address"}],"name":"OwnableInvalidOwner","type":"error"},{"inputs":[{"internalType":"address","name":"account","type":"address"}],"name":"OwnableUnauthorizedAccount","type":"error"},{"inputs":[],"name":"ReentrancyGuardReentrantCall","type":"error"},{"inputs":[{"internalType":"string","name":"str","type":"string"}],"name":"StringTooLong","type":"error"},{"anonymous":false,"inputs":[{"indexed":true,"internalType":"address","name":"owner","type":"address"},{"indexed":true,"internalType":"address","name":"spender","type":"address"},{"indexed":false,"internalType":"uint256","name":"value","type":"uint256"}],"name":"Approval","type":"event"},{"anonymous":false,"inputs":[{"indexed":false,"internalType":"uint256","name":"tokensSwapped","type":"uint256"},{"indexed":false,"internalType":"uint256","name":"ethReceived","type":"uint256"}],"name":"AutoLiquidityAdded","type":"event"},{"anonymous":false,"inputs":[{"indexed":true,"internalType":"address","name":"account","type":"address"},{"indexed":false,"internalType":"bool","name":"isBlacklisted","type":"bool"}],"name":"Blacklisted","type":"event"},{"anonymous":false,"inputs":[],"name":"EIP712DomainChanged","type":"event"},{"anonymous":false,"inputs":[{"indexed":false,"internalType":"uint256","name":"maxBuyPerWallet","type":"uint256"},{"indexed":false,"internalType":"uint256","name":"maxBuyPerTx","type":"uint256"},{"indexed":false,"internalType":"uint256","name":"cooldownPeriod","type":"uint256"},{"indexed":false,"internalType":"uint256","name":"antiSnipeBlocks","type":"uint256"}],"name":"FairLaunchConfigured","type":"event"},{"anonymous":false,"inputs":[{"indexed":true,"internalType":"address","name":"previousOwner","type":"address"},{"indexed":true,"internalType":"address","name":"newOwner","type":"address"}],"name":"OwnershipTransferred","type":"event"},{"anonymous":false,"inputs":[{"indexed":false,"internalType":"uint256","name":"amount","type":"uint256"}],"name":"ReflectionsDistributed","type":"event"},{"anonymous":false,"inputs":[{"indexed":false,"internalType":"uint256","name":"blockNumber","type":"uint256"}],"name":"TradingEnabled","type":"event"},{"anonymous":false,"inputs":[{"indexed":true,"internalType":"address","name":"from","type":"address"},{"indexed":true,"internalType":"address","name":"to","type":"address"},{"indexed":false,"internalType":"uint256","name":"value","type":"uint256"}],"name":"Transfer","type":"event"},{"inputs":[],"name":"DOMAIN_SEPARATOR","outputs":[{"internalType":"bytes32","name":"","type":"bytes32"}],"stateMutability":"view","type":"function"},{"inputs":[{"internalType":"address","name":"owner","type":"address"},{"internalType":"address","name":"spender","type":"address"}],"name":"allowance","outputs":[{"internalType":"uint256","name":"","type":"uint256"}],"stateMutability":"view","type":"function"},{"inputs":[{"internalType":"address","name":"spender","type":"address"},{"internalType":"uint256","name":"value","type":"uint256"}],"name":"approve","outputs":[{"internalType":"bool","name":"","type":"bool"}],"stateMutability":"nonpayable","type":"function"},{"inputs":[],"name":"autoLiquidityConfig","outputs":[{"internalType":"uint256","name":"liquidityFeePercent","type":"uint256"},{"internalType":"uint256","name":"minTokensBeforeSwap","type":"uint256"},{"internalType":"address","name":"liquidityPair","type":"address"},{"internalType":"bool","name":"enabled","type":"bool"}],"stateMutability":"view","type":"function"},{"inputs":[{"internalType":"address","name":"account","type":"address"}],"name":"balanceOf","outputs":[{"internalType":"uint256","name":"","type":"uint256"}],"stateMutability":"view","type":"function"},{"inputs":[{"internalType":"uint256","name":"value","type":"uint256"}],"name":"burn","outputs":[],"stateMutability":"nonpayable","type":"function"},{"inputs":[],"name":"burnFeePercent","outputs":[{"internalType":"uint256","name":"","type":"uint256"}],"stateMutability":"view","type":"function"},{"inputs":[{"internalType":"address","name":"account","type":"address"},{"internalType":"uint256","name":"value","type":"uint256"}],"name":"burnFrom","outputs":[],"stateMutability":"nonpayable","type":"function"},{"inputs":[{"internalType":"uint256","name":"_liquidityFeePercent","type":"uint256"},{"internalType":"uint256","name":"_minTokensBeforeSwap","type":"uint256"},{"internalType":"address","name":"_liquidityPair","type":"address"}],"name":"configureAutoLiquidity","outputs":[],"stateMutability":"nonpayable","type":"function"},{"inputs":[{"internalType":"uint256","name":"_maxBuyPerWallet","type":"uint256"},{"internalType":"uint256","name":"_maxBuyPerTx","type":"uint256"},{"internalType":"uint256","name":"_cooldownPeriod","type":"uint256"},{"internalType":"uint256","name":"_antiSnipeBlocks","type":"uint256"}],"name":"configureFairLaunch","outputs":[],"stateMutability":"nonpayable","type":"function"},{"inputs":[],"name":"decimals","outputs":[{"internalType":"uint8","name":"","type":"uint8"}],"stateMutability":"view","type":"function"},{"inputs":[{"internalType":"address","name":"delegatee","type":"address"}],"name":"delegate","outputs":[],"stateMutability":"nonpayable","type":"function"},{"inputs":[],"name":"disableFairLaunch","outputs":[],"stateMutability":"nonpayable","type":"function"},{"inputs":[],"name":"eip712Domain","outputs":[{"internalType":"bytes1","name":"fields","type":"bytes1"},{"internalType":"string","name":"name","type":"string"},{"internalType":"string","name":"version","type":"string"},{"internalType":"uint256","name":"chainId","type":"uint256"},{"internalType":"address","name":"verifyingContract","type":"address"},{"internalType":"bytes32","name":"salt","type":"bytes32"},{"internalType":"uint256[]","name":"extensions","type":"uint256[]"}],"stateMutability":"view","type":"function"},{"inputs":[],"name":"emergencyWithdraw","outputs":[],"stateMutability":"nonpayable","type":"function"},{"inputs":[{"internalType":"address","name":"token","type":"address"}],"name":"emergencyWithdrawTokens","outputs":[],"stateMutability":"nonpayable","type":"function"},{"inputs":[{"internalType":"uint256","name":"_reflectionFeePercent","type":"uint256"}],"name":"enableReflections","outputs":[],"stateMutability":"nonpayable","type":"function"},{"inputs":[],"name":"enableTrading","outputs":[],"stateMutability":"nonpayable","type":"function"},{"inputs":[{"internalType":"address","name":"account","type":"address"},{"internalType":"bool","name":"excluded","type":"bool"}],"name":"excludeFromFees","outputs":[],"stateMutability":"nonpayable","type":"function"},{"inputs":[{"internalType":"address","name":"account","type":"address"}],"name":"excludeFromReflections","outputs":[],"stateMutability":"nonpayable","type":"function"},{"inputs":[],"name":"fairLaunchConfig","outputs":[{"internalType":"uint256","name":"maxBuyPerWallet","type":"uint256"},{"internalType":"uint256","name":"maxBuyPerTx","type":"uint256"},{"internalType":"uint256","name":"cooldownPeriod","type":"uint256"},{"internalType":"uint256","name":"antiSnipeBlocks","type":"uint256"},{"internalType":"bool","name":"enabled","type":"bool"}],"stateMutability":"view","type":"function"},{"inputs":[{"internalType":"address","name":"account","type":"address"}],"name":"getReflectionBalance","outputs":[{"internalType":"uint256","name":"","type":"uint256"}],"stateMutability":"view","type":"function"},{"inputs":[],"name":"getTotalReflections","outputs":[{"internalType":"uint256","name":"","type":"uint256"}],"stateMutability":"view","type":"function"},{"inputs":[{"internalType":"uint256","name":"","type":"uint256"},{"internalType":"address","name":"","type":"address"}],"name":"hasVoted","outputs":[{"internalType":"bool","name":"","type":"bool"}],"stateMutability":"view","type":"function"},{"inputs":[{"internalType":"address","name":"","type":"address"}],"name":"isBlacklisted","outputs":[{"internalType":"bool","name":"","type":"bool"}],"stateMutability":"view","type":"function"},{"inputs":[{"internalType":"address","name":"","type":"address"}],"name":"isExcludedFromFees","outputs":[{"internalType":"bool","name":"","type":"bool"}],"stateMutability":"view","type":"function"},{"inputs":[{"internalType":"address","name":"account","type":"address"}],"name":"isExcludedFromReflections","outputs":[{"internalType":"bool","name":"","type":"bool"}],"stateMutability":"view","type":"function"},{"inputs":[{"internalType":"address","name":"","type":"address"}],"name":"lastBuyTime","outputs":[{"internalType":"uint256","name":"","type":"uint256"}],"stateMutability":"view","type":"function"},{"inputs":[],"name":"launchBlock","outputs":[{"internalType":"uint256","name":"","type":"uint256"}],"stateMutability":"view","type":"function"},{"inputs":[],"name":"name","outputs":[{"internalType":"string","name":"","type":"string"}],"stateMutability":"view","type":"function"},{"inputs":[{"internalType":"address","name":"owner","type":"address"}],"name":"nonces","outputs":[{"internalType":"uint256","name":"","type":"uint256"}],"stateMutability":"view","type":"function"},{"inputs":[],"name":"owner","outputs":[{"internalType":"address","name":"","type":"address"}],"stateMutability":"view","type":"function"},{"inputs":[{"internalType":"address","name":"owner","type":"address"},{"internalType":"address","name":"spender","type":"address"},{"internalType":"uint256","name":"value","type":"uint256"},{"internalType":"uint256","name":"deadline","type":"uint256"},{"internalType":"uint8","name":"v","type":"uint8"},{"internalType":"bytes32","name":"r","type":"bytes32"},{"internalType":"bytes32","name":"s","type":"bytes32"}],"name":"permit","outputs":[],"stateMutability":"nonpayable","type":"function"},{"inputs":[],"name":"reflectionConfig","outputs":[{"internalType":"uint256","name":"reflectionFeePercent","type":"uint256"},{"internalType":"bool","name":"enabled","type":"bool"}],"stateMutability":"view","type":"function"},{"inputs":[],"name":"renounceOwnership","outputs":[],"stateMutability":"nonpayable","type":"function"},{"inputs":[{"internalType":"address","name":"account","type":"address"},{"internalType":"bool","name":"blacklisted","type":"bool"}],"name":"setBlacklist","outputs":[],"stateMutability":"nonpayable","type":"function"},{"inputs":[{"internalType":"uint256","name":"_burnFeePercent","type":"uint256"}],"name":"setBurnFee","outputs":[],"stateMutability":"nonpayable","type":"function"},{"inputs":[],"name":"symbol","outputs":[{"internalType":"string","name":"","type":"string"}],"stateMutability":"view","type":"function"},{"inputs":[{"internalType":"address","name":"","type":"address"}],"name":"totalBought","outputs":[{"internalType":"uint256","name":"","type":"uint256"}],"stateMutability":"view","type":"function"},{"inputs":[],"name":"totalSupply","outputs":[{"internalType":"uint256","name":"","type":"uint256"}],"stateMutability":"view","type":"function"},{"inputs":[],"name":"tradingEnabled","outputs":[{"internalType":"bool","name":"","type":"bool"}],"stateMutability":"view","type":"function"},{"inputs":[{"internalType":"address","name":"to","type":"address"},{"internalType":"uint256","name":"value","type":"uint256"}],"name":"transfer","outputs":[{"internalType":"bool","name":"","type":"bool"}],"stateMutability":"nonpayable","type":"function"},{"inputs":[{"internalType":"address","name":"from","type":"address"},{"internalType":"address","name":"to","type":"address"},{"internalType":"uint256","name":"value","type":"uint256"}],"name":"transferFrom","outputs":[{"internalType":"bool","name":"","type":"bool"}],"stateMutability":"nonpayable","type":"function"},{"inputs":[{"internalType":"address","name":"newOwner","type":"address"}],"name":"transferOwnership","outputs":[],"stateMutability":"nonpayable","type":"function"},{"inputs":[{"internalType":"address","name":"","type":"address"}],"name":"votingPower","outputs":[{"internalType":"uint256","name":"","type":"uint256"}],"stateMutability":"view","type":"function"}],"evm":{"bytecode":{"linkReferences":{},"object":"61016060405260646015556016805460ff191690553480156200002157600080fd5b5060405162002f8638038062002f86833981016040819052620000449162000ac8565b808480604051806040016040528060018152602001603160f81b8152508787816003908162000074919062000bec565b50600462000083828262000bec565b50620000959150839050600562000263565b61012052620000a681600662000263565b61014052815160208084019190912060e052815190820120610100524660a0526200013460e05161010051604080517f8b73c3c69bb8fe3d512ecc4cf759cc79239f7b179b0ffacaa9a75d522b39400f60208201529081019290925260608201524660808201523060a082015260009060c00160405160208183030381529060405280519060200120905090565b60805250503060c052506001600160a01b0381166200016e57604051631e4fbdf760e01b8152600060048201526024015b60405180910390fd5b62000179816200029c565b5060016009556200018b8183620002ee565b6001600160a01b0381166000908152601960205260408082208054600160ff19918216811790925530845292829020805490931617909155805160a0810190915280612710620001dd85606462000cce565b620001e9919062000ce8565b8152602001612710620001fe85603262000cce565b6200020a919062000ce8565b815261012c602080830191909152600360408084019190915260016060938401528351600a5590830151600b55820151600c55810151600d5560800151600e805460ff19169115159190911790555062000d9192505050565b600060208351101562000283576200027b836200032c565b905062000296565b8162000290848262000bec565b5060ff90505b92915050565b600880546001600160a01b038381166001600160a01b0319831681179093556040519116919082907f8be0079c531659141344cd1fd0a4f28419497f9722a3daafe3b4186f6b6457e090600090a35050565b6001600160a01b0382166200031a5760405163ec442f0560e01b81526000600482015260240162000165565b62000328600083836200036f565b5050565b600080829050601f815111156200035a578260405163305a27a960e01b815260040162000165919062000d0b565b8051620003678262000d40565b179392505050565b60165460ff16806200038b57506008546001600160a01b031633145b620003d95760405162461bcd60e51b815260206004820152601360248201527f54726164696e67206e6f7420656e61626c656400000000000000000000000000604482015260640162000165565b6001600160a01b0383166000908152601a602052604090205460ff161580156200041c57506001600160a01b0382166000908152601a602052604090205460ff16155b620004585760405162461bcd60e51b815260206004820152600b60248201526a109b1858dadb1a5cdd195960aa1b604482015260640162000165565b600e5460ff1680156200047957506008546001600160a01b03848116911614155b80156200049457506008546001600160a01b03838116911614155b15620006fa576000601454118015620004be5750600d54601454620004ba919062000d65565b4311155b156200053c576008546001600160a01b0383811691161480620004ee57506008546001600160a01b038481169116145b6200053c5760405162461bcd60e51b815260206004820152601560248201527f416e74692d736e6970652070726f74656374696f6e0000000000000000000000604482015260640162000165565b6011546001600160a01b0384811691161480156200056357506001600160a01b0382163014155b15620006fa57600b54811115620005bd5760405162461bcd60e51b815260206004820152601660248201527f45786365656473206d6178206275792070657220747800000000000000000000604482015260640162000165565b600a546001600160a01b038316600090815260186020526040902054620005e690839062000d65565b1115620006365760405162461bcd60e51b815260206004820152601a60248201527f45786365656473206d617820627579207065722077616c6c6574000000000000604482015260640162000165565b600c546001600160a01b0383166000908152601760205260409020546200065e919062000d65565b421015620006af5760405162461bcd60e51b815260206004820152601660248201527f436f6f6c646f776e20706572696f642061637469766500000000000000000000604482015260640162000165565b6001600160a01b03821660009081526018602052604081208054839290620006d990849062000d65565b90915550506001600160a01b03821660009081526017602052604090204290555b6001600160a01b0383166000908152601960205260408120548190819060ff161580156200074157506001600160a01b03851660009081526019602052604090205460ff16155b15620007f1576015541562000772576127106015548562000763919062000cce565b6200076f919062000ce8565b92505b601154600160a01b900460ff1680156200078d5750600f5415155b15620007b557600f5461271090620007a6908662000cce565b620007b2919062000ce8565b91505b60135460ff168015620007c9575060125415155b15620007f15760125461271090620007e2908662000cce565b620007ee919062000ce8565b90505b6000818362000801868862000d7b565b6200080d919062000d7b565b62000819919062000d7b565b905083156200083057620008308760008662000879565b821562000844576200084487308562000879565b811562000863576200085682620009ac565b6200086387308462000879565b6200087087878362000879565b50505050505050565b6001600160a01b038316620008a85780600260008282546200089c919062000d65565b909155506200091c9050565b6001600160a01b03831660009081526020819052604090205481811015620008fd5760405163391434e360e21b81526001600160a01b0385166004820152602481018290526044810183905260640162000165565b6001600160a01b03841660009081526020819052604090209082900390555b6001600160a01b0382166200093a5760028054829003905562000959565b6001600160a01b03821660009081526020819052604090208054820190555b816001600160a01b0316836001600160a01b03167fddf252ad1be2c89b69c2b068fc378daa952ba7f163c4a11628f55a4df523b3ef836040516200099f91815260200190565b60405180910390a3505050565b80601b6000828254620009c0919062000d65565b90915550506040518181527f3eeb9763473a030c467b8f096a99e1825a88c6a821c131e1fbb007246a80359c9060200160405180910390a150565b634e487b7160e01b600052604160045260246000fd5b60005b8381101562000a2e57818101518382015260200162000a14565b50506000910152565b600082601f83011262000a4957600080fd5b81516001600160401b038082111562000a665762000a66620009fb565b604051601f8301601f19908116603f0116810190828211818310171562000a915762000a91620009fb565b8160405283815286602085880101111562000aab57600080fd5b62000abe84602083016020890162000a11565b9695505050505050565b6000806000806080858703121562000adf57600080fd5b84516001600160401b038082111562000af757600080fd5b62000b058883890162000a37565b9550602087015191508082111562000b1c57600080fd5b5062000b2b8782880162000a37565b60408701516060880151919550935090506001600160a01b038116811462000b5257600080fd5b939692955090935050565b600181811c9082168062000b7257607f821691505b60208210810362000b9357634e487b7160e01b600052602260045260246000fd5b50919050565b601f82111562000be757600081815260208120601f850160051c8101602086101562000bc25750805b601f850160051c820191505b8181101562000be35782815560010162000bce565b5050505b505050565b81516001600160401b0381111562000c085762000c08620009fb565b62000c208162000c19845462000b5d565b8462000b99565b602080601f83116001811462000c58576000841562000c3f5750858301515b600019600386901b1c1916600185901b17855562000be3565b600085815260208120601f198616915b8281101562000c895788860151825594840194600190910190840162000c68565b508582101562000ca85787850151600019600388901b60f8161c191681555b5050505050600190811b01905550565b634e487b7160e01b600052601160045260246000fd5b808202811582820484141762000296576200029662000cb8565b60008262000d0657634e487b7160e01b600052601260045260246000fd5b500490565b602081526000825180602084015262000d2c81604085016020870162000a11565b601f01601f19169190910160400192915050565b8051602080830151919081101562000b935760001960209190910360031b1b16919050565b8082018082111562000296576200029662000cb8565b8181038181111562000296576200029662000cb8565b60805160a05160c05160e05161010051610120516101405161219a62000dec6000396000611315015260006112e801526000611208015260006111e00152600061113b015260006111650152600061118f015261219a6000f3fe608060405234801561001057600080fd5b506004361061027f5760003560e01c80636d1d21591161015c578063a9277c0a116100ce578063d505accf11610087578063d505accf1461062b578063db2e21bc1461063e578063dd62ed3e14610646578063e6375d3e1461067f578063f2fde38b146106ab578063fe575a87146106be57600080fd5b8063a9277c0a146105cc578063ae267735146105d4578063b2af127c146105dc578063c0246668146105ef578063c07473f614610602578063d00efb2f1461062257600080fd5b806384b0196e1161012057806384b0196e1461051b5780638a8c523c146105365780638da5cb5b1461053e57806395d89b41146105595780639e7e42cd14610561578063a9059cbb146105b957600080fd5b80636d1d2159146104b157806370a08231146104c4578063715018a6146104ed57806379cc6790146104f55780637ecebe001461050857600080fd5b80633fecc2e2116101f55780634ada218b116101b95780634ada218b1461043f5780634bf2c7c91461044c5780634e0856a71461045f5780634fbee193146104685780635c19a95c1461048b5780636010ba341461049e57600080fd5b80633fecc2e21461037957806342966c681461039957806343859632146103ac5780634663b1b2146103d857806349a64d93146103f857600080fd5b8063180aa7c711610247578063180aa7c71461030e57806318160ddd1461033457806323b872dd1461033c57806325f25f4d1461034f578063313ce567146103625780633644e5151461037157600080fd5b806306fdde0314610284578063095ea7b3146102a25780630eda5f32146102c5578063153b0d1e146102da5780631682aa49146102ed575b600080fd5b61028c6106e1565b6040516102999190611d68565b60405180910390f35b6102b56102b0366004611d9e565b610773565b6040519015158152602001610299565b6102d86102d3366004611dc8565b61078d565b005b6102d86102e8366004611e0b565b6107f0565b6103006102fb366004611e42565b610857565b604051908152602001610299565b60125460135461031f919060ff1682565b60408051928352901515602083015201610299565b600254610300565b6102b561034a366004611e5d565b6108b2565b6102d861035d366004611e42565b6108d6565b60405160128152602001610299565b6103006109a0565b610300610387366004611e42565b60176020526000908152604090205481565b6102d86103a7366004611e99565b6109af565b6102b56103ba366004611eb2565b60208080526000928352604080842090915290825290205460ff1681565b6103006103e6366004611e42565b60186020526000908152604090205481565b600a54600b54600c54600d54600e54610415949392919060ff1685565b6040805195865260208601949094529284019190915260608301521515608082015260a001610299565b6016546102b59060ff1681565b6102d861045a366004611e99565b6109bc565b61030060155481565b6102b5610476366004611e42565b60196020526000908152604090205460ff1681565b6102d8610499366004611e42565b6109eb565b6102d86104ac366004611e99565b610a2b565b6102d86104bf366004611ede565b610a67565b6103006104d2366004611e42565b6001600160a01b031660009081526020819052604090205490565b6102d8610ad1565b6102d8610503366004611d9e565b610ae5565b610300610516366004611e42565b610afe565b610523610b1c565b6040516102999796959493929190611f10565b6102d8610b62565b6008546040516001600160a01b039091168152602001610299565b61028c610c0c565b600f546010546011546105889291906001600160a01b03811690600160a01b900460ff1684565b604051610299949392919093845260208401929092526001600160a01b031660408301521515606082015260800190565b6102b56105c7366004611d9e565b610c1b565b6102d8610c29565b601b54610300565b6102d86105ea366004611e42565b610c3d565b6102d86105fd366004611e0b565b610de9565b610300610610366004611e42565b601f6020526000908152604090205481565b61030060145481565b6102d8610639366004611fa6565b610e1c565b6102d8610f56565b610300610654366004612019565b6001600160a01b03918216600090815260016020908152604080832093909416825291909152205490565b6102b561068d366004611e42565b6001600160a01b03166000908152601d602052604090205460ff1690565b6102d86106b9366004611e42565b610fdb565b6102b56106cc366004611e42565b601a6020526000908152604090205460ff1681565b6060600380546106f090612043565b80601f016020809104026020016040519081016040528092919081815260200182805461071c90612043565b80156107695780601f1061073e57610100808354040283529160200191610769565b820191906000526020600020905b81548152906001019060200180831161074c57829003601f168201915b5050505050905090565b600033610781818585611016565b60019150505b92915050565b610795611023565b6101f48311156107c05760405162461bcd60e51b81526004016107b79061207d565b60405180910390fd5b600f92909255601055601180546001600160a81b0319166001600160a01b0390921691909117600160a01b179055565b6107f8611023565b6001600160a01b0382166000818152601a6020908152604091829020805460ff191685151590811790915591519182527fcf3473b85df1594d47b6958f29a32bea0abff9dd68296f7bf33443646793cfd8910160405180910390a25050565b6001600160a01b0381166000908152601d602052604081205460ff1615610896576001600160a01b038216600090815260208190526040902054610787565b506001600160a01b03166000908152601c602052604090205490565b6000336108c0858285611050565b6108cb8585856110cf565b506001949350505050565b6108de611023565b6001600160a01b0381166000908152601d602052604090205460ff161561093a5760405162461bcd60e51b815260206004820152601060248201526f105b1c9958591e48195e18db1d59195960821b60448201526064016107b7565b6001600160a01b03166000818152601d60205260408120805460ff19166001908117909155601e805491820181559091527f50bb669a95c7b50b7e8a6f09454034b2b14cf2b85c730dca9a539ca82cb6e3500180546001600160a01b0319169091179055565b60006109aa61112e565b905090565b6109b93382611259565b50565b6109c4611023565b6101f48111156109e65760405162461bcd60e51b81526004016107b79061207d565b601555565b336000908152602081905260409020546001600160a01b0382166000908152601f602052604081208054909190610a239084906120b9565b909155505050565b610a33611023565b6101f4811115610a555760405162461bcd60e51b81526004016107b79061207d565b6012556013805460ff19166001179055565b610a6f611023565b600a849055600b839055600c829055600d8190556040805185815260208101859052908101839052606081018290527f028a38ff37ea5c05388a99b81090ae2d9a9230d695258ae73bf5765411cb80b89060800160405180910390a150505050565b610ad9611023565b610ae3600061128f565b565b610af0823383611050565b610afa8282611259565b5050565b6001600160a01b038116600090815260076020526040812054610787565b600060608060008060006060610b306112e1565b610b3861130e565b60408051600080825260208201909252600f60f81b9b939a50919850469750309650945092509050565b610b6a611023565b60165460ff1615610bbd5760405162461bcd60e51b815260206004820152601760248201527f54726164696e6720616c726561647920656e61626c656400000000000000000060448201526064016107b7565b6016805460ff191660011790554360148190556040517fb3da2db3dfc3778f99852546c6e9ab39ec253f9de7b0847afec61bd27878e92391610c029190815260200190565b60405180910390a1565b6060600480546106f090612043565b6000336107818185856110cf565b610c31611023565b600e805460ff19169055565b610c45611023565b306001600160a01b03821603610c9d5760405162461bcd60e51b815260206004820152601a60248201527f43616e6e6f74207769746864726177206f776e20746f6b656e7300000000000060448201526064016107b7565b6040516370a0823160e01b81523060048201526000906001600160a01b038316906370a0823190602401602060405180830381865afa158015610ce4573d6000803e3d6000fd5b505050506040513d601f19601f82011682018060405250810190610d0891906120cc565b905060008111610d525760405162461bcd60e51b81526020600482015260156024820152744e6f20746f6b656e7320746f20776974686472617760581b60448201526064016107b7565b816001600160a01b031663a9059cbb610d736008546001600160a01b031690565b6040516001600160e01b031960e084901b1681526001600160a01b039091166004820152602481018490526044016020604051808303816000875af1158015610dc0573d6000803e3d6000fd5b505050506040513d601f19601f82011682018060405250810190610de491906120e5565b505050565b610df1611023565b6001600160a01b03919091166000908152601960205260409020805460ff1916911515919091179055565b83421115610e405760405163313c898160e11b8152600481018590526024016107b7565b60007f6e71edae12b1b97f4d1f60370fef10105fa2faae0126114a169c64845d6126c9888888610e8d8c6001600160a01b0316600090815260076020526040902080546001810190915590565b6040805160208101969096526001600160a01b0394851690860152929091166060840152608083015260a082015260c0810186905260e0016040516020818303038152906040528051906020012090506000610ee88261133b565b90506000610ef882878787611368565b9050896001600160a01b0316816001600160a01b031614610f3f576040516325c0072360e11b81526001600160a01b0380831660048301528b1660248201526044016107b7565b610f4a8a8a8a611016565b50505050505050505050565b610f5e611023565b4780610fa15760405162461bcd60e51b81526020600482015260126024820152714e6f2045544820746f20776974686472617760701b60448201526064016107b7565b6008546040516001600160a01b039091169082156108fc029083906000818181858888f19350505050158015610afa573d6000803e3d6000fd5b610fe3611023565b6001600160a01b03811661100d57604051631e4fbdf760e01b8152600060048201526024016107b7565b6109b98161128f565b610de48383836001611396565b6008546001600160a01b03163314610ae35760405163118cdaa760e01b81523360048201526024016107b7565b6001600160a01b038381166000908152600160209081526040808320938616835292905220546000198110156110c957818110156110ba57604051637dc7a0d960e11b81526001600160a01b038416600482015260248101829052604481018390526064016107b7565b6110c984848484036000611396565b50505050565b6001600160a01b0383166110f957604051634b637e8f60e11b8152600060048201526024016107b7565b6001600160a01b0382166111235760405163ec442f0560e01b8152600060048201526024016107b7565b610de483838361146b565b6000306001600160a01b037f00000000000000000000000000000000000000000000000000000000000000001614801561118757507f000000000000000000000000000000000000000000000000000000000000000046145b156111b157507f000000000000000000000000000000000000000000000000000000000000000090565b6109aa604080517f8b73c3c69bb8fe3d512ecc4cf759cc79239f7b179b0ffacaa9a75d522b39400f60208201527f0000000000000000000000000000000000000000000000000000000000000000918101919091527f000000000000000000000000000000000000000000000000000000000000000060608201524660808201523060a082015260009060c00160405160208183030381529060405280519060200120905090565b6001600160a01b03821661128357604051634b637e8f60e11b8152600060048201526024016107b7565b610afa8260008361146b565b600880546001600160a01b038381166001600160a01b0319831681179093556040519116919082907f8be0079c531659141344cd1fd0a4f28419497f9722a3daafe3b4186f6b6457e090600090a35050565b60606109aa7f00000000000000000000000000000000000000000000000000000000000000006005611911565b60606109aa7f00000000000000000000000000000000000000000000000000000000000000006006611911565b600061078761134861112e565b8360405161190160f01b8152600281019290925260228201526042902090565b60008060008061137a888888886119bc565b92509250925061138a8282611a8b565b50909695505050505050565b6001600160a01b0384166113c05760405163e602df0560e01b8152600060048201526024016107b7565b6001600160a01b0383166113ea57604051634a1406b160e11b8152600060048201526024016107b7565b6001600160a01b03808516600090815260016020908152604080832093871683529290522082905580156110c957826001600160a01b0316846001600160a01b03167f8c5be1e5ebec7d5bd14f71427d1e84f3dd0314c0f7b2291e5b200ac8c7c3b9258460405161145d91815260200190565b60405180910390a350505050565b60165460ff168061148657506008546001600160a01b031633145b6114c85760405162461bcd60e51b8152602060048201526013602482015272151c98591a5b99c81b9bdd08195b98589b1959606a1b60448201526064016107b7565b6001600160a01b0383166000908152601a602052604090205460ff1615801561150a57506001600160a01b0382166000908152601a602052604090205460ff16155b6115445760405162461bcd60e51b815260206004820152600b60248201526a109b1858dadb1a5cdd195960aa1b60448201526064016107b7565b600e5460ff16801561156457506008546001600160a01b03848116911614155b801561157e57506008546001600160a01b03838116911614155b156117b85760006014541180156115a45750600d546014546115a091906120b9565b4311155b15611616576008546001600160a01b03838116911614806115d257506008546001600160a01b038481169116145b6116165760405162461bcd60e51b815260206004820152601560248201527420b73a3496b9b734b83290383937ba32b1ba34b7b760591b60448201526064016107b7565b6011546001600160a01b03848116911614801561163c57506001600160a01b0382163014155b156117b857600b5481111561168c5760405162461bcd60e51b815260206004820152601660248201527508af0c6cacac8e640dac2f040c4eaf240e0cae440e8f60531b60448201526064016107b7565b600a546001600160a01b0383166000908152601860205260409020546116b39083906120b9565b11156117015760405162461bcd60e51b815260206004820152601a60248201527f45786365656473206d617820627579207065722077616c6c657400000000000060448201526064016107b7565b600c546001600160a01b03831660009081526017602052604090205461172791906120b9565b42101561176f5760405162461bcd60e51b8152602060048201526016602482015275436f6f6c646f776e20706572696f642061637469766560501b60448201526064016107b7565b6001600160a01b038216600090815260186020526040812080548392906117979084906120b9565b90915550506001600160a01b03821660009081526017602052604090204290555b6001600160a01b0383166000908152601960205260408120548190819060ff161580156117fe57506001600160a01b03851660009081526019602052604090205460ff16155b1561189c5760155415611829576127106015548561181c9190612102565b6118269190612119565b92505b601154600160a01b900460ff1680156118435750600f5415155b1561186657600f54612710906118599086612102565b6118639190612119565b91505b60135460ff168015611879575060125415155b1561189c576012546127109061188f9086612102565b6118999190612119565b90505b600081836118aa868861213b565b6118b4919061213b565b6118be919061213b565b905083156118d2576118d287600086611b44565b82156118e3576118e3873085611b44565b81156118fd576118f282611c6e565b6118fd873084611b44565b611908878783611b44565b50505050505050565b606060ff831461192b5761192483611cbb565b9050610787565b81805461193790612043565b80601f016020809104026020016040519081016040528092919081815260200182805461196390612043565b80156119b05780601f10611985576101008083540402835291602001916119b0565b820191906000526020600020905b81548152906001019060200180831161199357829003601f168201915b50505050509050610787565b600080807f7fffffffffffffffffffffffffffffff5d576e7357a4501ddfe92f46681b20a08411156119f75750600091506003905082611a81565b604080516000808252602082018084528a905260ff891692820192909252606081018790526080810186905260019060a0016020604051602081039080840390855afa158015611a4b573d6000803e3d6000fd5b5050604051601f1901519150506001600160a01b038116611a7757506000925060019150829050611a81565b9250600091508190505b9450945094915050565b6000826003811115611a9f57611a9f61214e565b03611aa8575050565b6001826003811115611abc57611abc61214e565b03611ada5760405163f645eedf60e01b815260040160405180910390fd5b6002826003811115611aee57611aee61214e565b03611b0f5760405163fce698f760e01b8152600481018290526024016107b7565b6003826003811115611b2357611b2361214e565b03610afa576040516335e2f38360e21b8152600481018290526024016107b7565b6001600160a01b038316611b6f578060026000828254611b6491906120b9565b90915550611be19050565b6001600160a01b03831660009081526020819052604090205481811015611bc25760405163391434e360e21b81526001600160a01b038516600482015260248101829052604481018390526064016107b7565b6001600160a01b03841660009081526020819052604090209082900390555b6001600160a01b038216611bfd57600280548290039055611c1c565b6001600160a01b03821660009081526020819052604090208054820190555b816001600160a01b0316836001600160a01b03167fddf252ad1be2c89b69c2b068fc378daa952ba7f163c4a11628f55a4df523b3ef83604051611c6191815260200190565b60405180910390a3505050565b80601b6000828254611c8091906120b9565b90915550506040518181527f3eeb9763473a030c467b8f096a99e1825a88c6a821c131e1fbb007246a80359c9060200160405180910390a150565b60606000611cc883611cfa565b604080516020808252818301909252919250600091906020820181803683375050509182525060208101929092525090565b600060ff8216601f81111561078757604051632cd44ac360e21b815260040160405180910390fd5b6000815180845260005b81811015611d4857602081850181015186830182015201611d2c565b506000602082860101526020601f19601f83011685010191505092915050565b602081526000611d7b6020830184611d22565b9392505050565b80356001600160a01b0381168114611d9957600080fd5b919050565b60008060408385031215611db157600080fd5b611dba83611d82565b946020939093013593505050565b600080600060608486031215611ddd57600080fd5b8335925060208401359150611df460408501611d82565b90509250925092565b80151581146109b957600080fd5b60008060408385031215611e1e57600080fd5b611e2783611d82565b91506020830135611e3781611dfd565b809150509250929050565b600060208284031215611e5457600080fd5b611d7b82611d82565b600080600060608486031215611e7257600080fd5b611e7b84611d82565b9250611e8960208501611d82565b9150604084013590509250925092565b600060208284031215611eab57600080fd5b5035919050565b60008060408385031215611ec557600080fd5b82359150611ed560208401611d82565b90509250929050565b60008060008060808587031215611ef457600080fd5b5050823594602084013594506040840135936060013592509050565b60ff60f81b881681526000602060e081840152611f3060e084018a611d22565b8381036040850152611f42818a611d22565b606085018990526001600160a01b038816608086015260a0850187905284810360c0860152855180825283870192509083019060005b81811015611f9457835183529284019291840191600101611f78565b50909c9b505050505050505050505050565b600080600080600080600060e0888a031215611fc157600080fd5b611fca88611d82565b9650611fd860208901611d82565b95506040880135945060608801359350608088013560ff81168114611ffc57600080fd5b9699959850939692959460a0840135945060c09093013592915050565b6000806040838503121561202c57600080fd5b61203583611d82565b9150611ed560208401611d82565b600181811c9082168061205757607f821691505b60208210810361207757634e487b7160e01b600052602260045260246000fd5b50919050565b6020808252600c908201526b08ccaca40e8dede40d0d2ced60a31b604082015260600190565b634e487b7160e01b600052601160045260246000fd5b80820180821115610787576107876120a3565b6000602082840312156120de57600080fd5b5051919050565b6000602082840312156120f757600080fd5b8151611d7b81611dfd565b8082028115828204841417610787576107876120a3565b60008261213657634e487b7160e01b600052601260045260246000fd5b500490565b81810381811115610787576107876120a3565b634e487b7160e01b600052602160045260246000fdfea2646970667358221220d342b553810e3093bbd250946e6d015330e6400f4be3ca3443af6ace45fb563e64736f6c63430008140033","opcodes":"PUSH2 0x160 PUSH1 0x40 MSTORE PUSH1 0x64 PUSH1 0x15 SSTORE PUSH1 0x16 DUP1 SLOAD PUSH1 0xFF NOT AND SWAP1 SSTORE CALLVALUE DUP1 ISZERO PUSH3 0x21 JUMPI PUSH1 0x0 DUP1 REVERT JUMPDEST POP PUSH1 0x40 MLOAD PUSH3 0x2F86 CODESIZE SUB DUP1 PUSH3 0x2F86 DUP4 CODECOPY DUP2 ADD PUSH1 0x40 DUP2 SWAP1 MSTORE PUSH3 0x44 SWAP2 PUSH3 0xAC8 JUMP JUMPDEST DUP1 DUP5 DUP1 PUSH1 0x40 MLOAD DUP1 PUSH1 0x40 ADD PUSH1 0x40 MSTORE DUP1 PUSH1 0x1 DUP2 MSTORE PUSH1 0x20 ADD PUSH1 0x31 PUSH1 0xF8 SHL DUP2 MSTORE POP DUP8 DUP8 DUP2 PUSH1 0x3 SWAP1 DUP2 PUSH3 0x74 SWAP2 SWAP1 PUSH3 0xBEC JUMP JUMPDEST POP PUSH1 0x4 PUSH3 0x83 DUP3 DUP3 PUSH3 0xBEC JUMP JUMPDEST POP PUSH3 0x95 SWAP2 POP DUP4 SWAP1 POP PUSH1 0x5 PUSH3 0x263 JUMP JUMPDEST PUSH2 0x120 MSTORE PUSH3 0xA6 DUP2 PUSH1 0x6 PUSH3 0x263 JUMP JUMPDEST PUSH2 0x140 MSTORE DUP2 MLOAD PUSH1 0x20 DUP1 DUP5 ADD SWAP2 SWAP1 SWAP2 KECCAK256 PUSH1 0xE0 MSTORE DUP2 MLOAD SWAP1 DUP3 ADD KECCAK256 PUSH2 0x100 MSTORE CHAINID PUSH1 0xA0 MSTORE PUSH3 0x134 PUSH1 0xE0 MLOAD PUSH2 0x100 MLOAD PUSH1 0x40 DUP1 MLOAD PUSH32 0x8B73C3C69BB8FE3D512ECC4CF759CC79239F7B179B0FFACAA9A75D522B39400F PUSH1 0x20 DUP3 ADD MSTORE SWAP1 DUP2 ADD SWAP3 SWAP1 SWAP3 MSTORE PUSH1 0x60 DUP3 ADD MSTORE CHAINID PUSH1 0x80 DUP3 ADD MSTORE ADDRESS PUSH1 0xA0 DUP3 ADD MSTORE PUSH1 0x0 SWAP1 PUSH1 0xC0 ADD PUSH1 0x40 MLOAD PUSH1 0x20 DUP2 DUP4 SUB SUB DUP2 MSTORE SWAP1 PUSH1 0x40 MSTORE DUP1 MLOAD SWAP1 PUSH1 0x20 ADD KECCAK256 SWAP1 POP SWAP1 JUMP JUMPDEST PUSH1 0x80 MSTORE POP POP ADDRESS PUSH1 0xC0 MSTORE POP PUSH1 0x1 PUSH1 0x1 PUSH1 0xA0 SHL SUB DUP2 AND PUSH3 0x16E JUMPI PUSH1 0x40 MLOAD PUSH4 0x1E4FBDF7 PUSH1 0xE0 SHL DUP2 MSTORE PUSH1 0x0 PUSH1 0x4 DUP3 ADD MSTORE PUSH1 0x24 ADD JUMPDEST PUSH1 0x40 MLOAD DUP1 SWAP2 SUB SWAP1 REVERT JUMPDEST PUSH3 0x179 DUP2 PUSH3 0x29C JUMP JUMPDEST POP PUSH1 0x1 PUSH1 0x9 SSTORE PUSH3 0x18B DUP2 DUP4 PUSH3 0x2EE JUMP JUMPDEST PUSH1 0x1 PUSH1 0x1 PUSH1 0xA0 SHL SUB DUP2 AND PUSH1 0x0 SWAP1 DUP2 MSTORE PUSH1 0x19 PUSH1 0x20 MSTORE PUSH1 0x40 DUP1 DUP3 KECCAK256 DUP1 SLOAD PUSH1 0x1 PUSH1 0xFF NOT SWAP2 DUP3 AND DUP2 OR SWAP1 SWAP3 SSTORE ADDRESS DUP5 MSTORE SWAP3 DUP3 SWAP1 KECCAK256 DUP1 SLOAD SWAP1 SWAP4 AND OR SWAP1 SWAP2 SSTORE DUP1 MLOAD PUSH1 0xA0 DUP2 ADD SWAP1 SWAP2 MSTORE DUP1 PUSH2 0x2710 PUSH3 0x1DD DUP6 PUSH1 0x64 PUSH3 0xCCE JUMP JUMPDEST PUSH3 0x1E9 SWAP2 SWAP1 PUSH3 0xCE8 JUMP JUMPDEST DUP2 MSTORE PUSH1 0x20 ADD PUSH2 0x2710 PUSH3 0x1FE DUP6 PUSH1 0x32 PUSH3 0xCCE JUMP JUMPDEST PUSH3 0x20A SWAP2 SWAP1 PUSH3 0xCE8 JUMP JUMPDEST DUP2 MSTORE PUSH2 0x12C PUSH1 0x20 DUP1 DUP4 ADD SWAP2 SWAP1 SWAP2 MSTORE PUSH1 0x3 PUSH1 0x40 DUP1 DUP5 ADD SWAP2 SWAP1 SWAP2 MSTORE PUSH1 0x1 PUSH1 0x60 SWAP4 DUP5 ADD MSTORE DUP4 MLOAD PUSH1 0xA SSTORE SWAP1 DUP4 ADD MLOAD PUSH1 0xB SSTORE DUP3 ADD MLOAD PUSH1 0xC SSTORE DUP2 ADD MLOAD PUSH1 0xD SSTORE PUSH1 0x80 ADD MLOAD PUSH1 0xE DUP1 SLOAD PUSH1 0xFF NOT AND SWAP2 ISZERO ISZERO SWAP2 SWAP1 SWAP2 OR SWAP1 SSTORE POP PUSH3 0xD91 SWAP3 POP POP POP JUMP JUMPDEST PUSH1 0x0 PUSH1 0x20 DUP4 MLOAD LT ISZERO PUSH3 0x283 JUMPI PUSH3 0x27B DUP4 PUSH3 0x32C JUMP JUMPDEST SWAP1 POP PUSH3 0x296 JUMP JUMPDEST DUP2 PUSH3 0x290 DUP5 DUP3 PUSH3 0xBEC JUMP JUMPDEST POP PUSH1 0xFF SWAP1 POP JUMPDEST SWAP3 SWAP2 POP POP JUMP JUMPDEST PUSH1 0x8 DUP1 SLOAD PUSH1 0x1 PUSH1 0x1 PUSH1 0xA0 SHL SUB DUP4 DUP2 AND PUSH1 0x1 PUSH1 0x1 PUSH1 0xA0 SHL SUB NOT DUP4 AND DUP2 OR SWAP1 SWAP4 SSTORE PUSH1 0x40 MLOAD SWAP2 AND SWAP2 SWAP1 DUP3 SWAP1 PUSH32 0x8BE0079C531659141344CD1FD0A4F28419497F9722A3DAAFE3B4186F6B6457E0 SWAP1 PUSH1 0x0 SWAP1 LOG3 POP POP JUMP JUMPDEST PUSH1 0x1 PUSH1 0x1 PUSH1 0xA0 SHL SUB DUP3 AND PUSH3 0x31A JUMPI PUSH1 0x40 MLOAD PUSH4 0xEC442F05 PUSH1 0xE0 SHL DUP2 MSTORE PUSH1 0x0 PUSH1 0x4 DUP3 ADD MSTORE PUSH1 0x24 ADD PUSH3 0x165 JUMP JUMPDEST PUSH3 0x328 PUSH1 0x0 DUP4 DUP4 PUSH3 0x36F JUMP JUMPDEST POP POP JUMP JUMPDEST PUSH1 0x0 DUP1 DUP3 SWAP1 POP PUSH1 0x1F DUP2 MLOAD GT ISZERO PUSH3 0x35A JUMPI DUP3 PUSH1 0x40 MLOAD PUSH4 0x305A27A9 PUSH1 0xE0 SHL DUP2 MSTORE PUSH1 0x4 ADD PUSH3 0x165 SWAP2 SWAP1 PUSH3 0xD0B JUMP JUMPDEST DUP1 MLOAD PUSH3 0x367 DUP3 PUSH3 0xD40 JUMP JUMPDEST OR SWAP4 SWAP3 POP POP POP JUMP JUMPDEST PUSH1 0x16 SLOAD PUSH1 0xFF AND DUP1 PUSH3 0x38B JUMPI POP PUSH1 0x8 SLOAD PUSH1 0x1 PUSH1 0x1 PUSH1 0xA0 SHL SUB AND CALLER EQ JUMPDEST PUSH3 0x3D9 JUMPI PUSH1 0x40 MLOAD PUSH3 0x461BCD PUSH1 0xE5 SHL DUP2 MSTORE PUSH1 0x20 PUSH1 0x4 DUP3 ADD MSTORE PUSH1 0x13 PUSH1 0x24 DUP3 ADD MSTORE PUSH32 0x54726164696E67206E6F7420656E61626C656400000000000000000000000000 PUSH1 0x44 DUP3 ADD MSTORE PUSH1 0x64 ADD PUSH3 0x165 JUMP JUMPDEST PUSH1 0x1 PUSH1 0x1 PUSH1 0xA0 SHL SUB DUP4 AND PUSH1 0x0 SWAP1 DUP2 MSTORE PUSH1 0x1A PUSH1 0x20 MSTORE PUSH1 0x40 SWAP1 KECCAK256 SLOAD PUSH1 0xFF AND ISZERO DUP1 ISZERO PUSH3 0x41C JUMPI POP PUSH1 0x1 PUSH1 0x1 PUSH1 0xA0 SHL SUB DUP3 AND PUSH1 0x0 SWAP1 DUP2 MSTORE PUSH1 0x1A PUSH1 0x20 MSTORE PUSH1 0x40 SWAP1 KECCAK256 SLOAD PUSH1 0xFF AND ISZERO JUMPDEST PUSH3 0x458 JUMPI PUSH1 0x40 MLOAD PUSH3 0x461BCD PUSH1 0xE5 SHL DUP2 MSTORE PUSH1 0x20 PUSH1 0x4 DUP3 ADD MSTORE PUSH1 0xB PUSH1 0x24 DUP3 ADD MSTORE PUSH11 0x109B1858DADB1A5CDD1959 PUSH1 0xAA SHL PUSH1 0x44 DUP3 ADD MSTORE PUSH1 0x64 ADD PUSH3 0x165 JUMP JUMPDEST PUSH1 0xE SLOAD PUSH1 0xFF AND DUP1 ISZERO PUSH3 0x479 JUMPI POP PUSH1 0x8 SLOAD PUSH1 0x1 PUSH1 0x1 PUSH1 0xA0 SHL SUB DUP5 DUP2 AND SWAP2 AND EQ ISZERO JUMPDEST DUP1 ISZERO PUSH3 0x494 JUMPI POP PUSH1 0x8 SLOAD PUSH1 0x1 PUSH1 0x1 PUSH1 0xA0 SHL SUB DUP4 DUP2 AND SWAP2 AND EQ ISZERO JUMPDEST ISZERO PUSH3 0x6FA JUMPI PUSH1 0x0 PUSH1 0x14 SLOAD GT DUP1 ISZERO PUSH3 0x4BE JUMPI POP PUSH1 0xD SLOAD PUSH1 0x14 SLOAD PUSH3 0x4BA SWAP2 SWAP1 PUSH3 0xD65 JUMP JUMPDEST NUMBER GT ISZERO JUMPDEST ISZERO PUSH3 0x53C JUMPI PUSH1 0x8 SLOAD PUSH1 0x1 PUSH1 0x1 PUSH1 0xA0 SHL SUB DUP4 DUP2 AND SWAP2 AND EQ DUP1 PUSH3 0x4EE JUMPI POP PUSH1 0x8 SLOAD PUSH1 0x1 PUSH1 0x1 PUSH1 0xA0 SHL SUB DUP5 DUP2 AND SWAP2 AND EQ JUMPDEST PUSH3 0x53C JUMPI PUSH1 0x40 MLOAD PUSH3 0x461BCD PUSH1 0xE5 SHL DUP2 MSTORE PUSH1 0x20 PUSH1 0x4 DUP3 ADD MSTORE PUSH1 0x15 PUSH1 0x24 DUP3 ADD MSTORE PUSH32 0x416E74692D736E6970652070726F74656374696F6E0000000000000000000000 PUSH1 0x44 DUP3 ADD MSTORE PUSH1 0x64 ADD PUSH3 0x165 JUMP JUMPDEST PUSH1 0x11 SLOAD PUSH1 0x1 PUSH1 0x1 PUSH1 0xA0 SHL SUB DUP5 DUP2 AND SWAP2 AND EQ DUP1 ISZERO PUSH3 0x563 JUMPI POP PUSH1 0x1 PUSH1 0x1 PUSH1 0xA0 SHL SUB DUP3 AND ADDRESS EQ ISZERO JUMPDEST ISZERO PUSH3 0x6FA JUMPI PUSH1 0xB SLOAD DUP2 GT ISZERO PUSH3 0x5BD JUMPI PUSH1 0x40 MLOAD PUSH3 0x461BCD PUSH1 0xE5 SHL DUP2 MSTORE PUSH1 0x20 PUSH1 0x4 DUP3 ADD MSTORE PUSH1 0x16 PUSH1 0x24 DUP3 ADD MSTORE PUSH32 0x45786365656473206D6178206275792070657220747800000000000000000000 PUSH1 0x44 DUP3 ADD MSTORE PUSH1 0x64 ADD PUSH3 0x165 JUMP JUMPDEST PUSH1 0xA SLOAD PUSH1 0x1 PUSH1 0x1 PUSH1 0xA0 SHL SUB DUP4 AND PUSH1 0x0 SWAP1 DUP2 MSTORE PUSH1 0x18 PUSH1 0x20 MSTORE PUSH1 0x40 SWAP1 KECCAK256 SLOAD PUSH3 0x5E6 SWAP1 DUP4 SWAP1 PUSH3 0xD65 JUMP JUMPDEST GT ISZERO PUSH3 0x636 JUMPI PUSH1 0x40 MLOAD PUSH3 0x461BCD PUSH1 0xE5 SHL DUP2 MSTORE PUSH1 0x20 PUSH1 0x4 DUP3 ADD MSTORE PUSH1 0x1A PUSH1 0x24 DUP3 ADD MSTORE PUSH32 0x45786365656473206D617820627579207065722077616C6C6574000000000000 PUSH1 0x44 DUP3 ADD MSTORE PUSH1 0x64 ADD PUSH3 0x165 JUMP JUMPDEST PUSH1 0xC SLOAD PUSH1 0x1 PUSH1 0x1 PUSH1 0xA0 SHL SUB DUP4 AND PUSH1 0x0 SWAP1 DUP2 MSTORE PUSH1 0x17 PUSH1 0x20 MSTORE PUSH1 0x40 SWAP1 KECCAK256 SLOAD PUSH3 0x65E SWAP2 SWAP1 PUSH3 0xD65 JUMP JUMPDEST TIMESTAMP LT ISZERO PUSH3 0x6AF JUMPI PUSH1 0x40 MLOAD PUSH3 0x461BCD PUSH1 0xE5 SHL DUP2 MSTORE PUSH1 0x20 PUSH1 0x4 DUP3 ADD MSTORE PUSH1 0x16 PUSH1 0x24 DUP3 ADD MSTORE PUSH32 0x436F6F6C646F776E20706572696F642061637469766500000000000000000000 PUSH1 0x44 DUP3 ADD MSTORE PUSH1 0x64 ADD PUSH3 0x165 JUMP JUMPDEST PUSH1 0x1 PUSH1 0x1 PUSH1 0xA0 SHL SUB DUP3 AND PUSH1 0x0 SWAP1 DUP2 MSTORE PUSH1 0x18 PUSH1 0x20 MSTORE PUSH1 0x40 DUP2 KECCAK256 DUP1 SLOAD DUP4 SWAP3 SWAP1 PUSH3 0x6D9 SWAP1 DUP5 SWAP1 PUSH3 0xD65 JUMP JUMPDEST SWAP1 SWAP2 SSTORE POP POP PUSH1 0x1 PUSH1 0x1 PUSH1 0xA0 SHL SUB DUP3 AND PUSH1 0x0 SWAP1 DUP2 MSTORE PUSH1 0x17 PUSH1 0x20 MSTORE PUSH1 0x40 SWAP1 KECCAK256 TIMESTAMP SWAP1 SSTORE JUMPDEST PUSH1 0x1 PUSH1 0x1 PUSH1 0xA0 SHL SUB DUP4 AND PUSH1 0x0 SWAP1 DUP2 MSTORE PUSH1 0x19 PUSH1 0x20 MSTORE PUSH1 0x40 DUP2 KECCAK256 SLOAD DUP2 SWAP1 DUP2 SWAP1 PUSH1 0xFF AND ISZERO DUP1 ISZERO PUSH3 0x741 JUMPI POP PUSH1 0x1 PUSH1 0x1 PUSH1 0xA0 SHL SUB DUP6 AND PUSH1 0x0 SWAP1 DUP2 MSTORE PUSH1 0x19 PUSH1 0x20 MSTORE PUSH1 0x40 SWAP1 KECCAK256 SLOAD PUSH1 0xFF AND ISZERO JUMPDEST ISZERO PUSH3 0x7F1 JUMPI PUSH1 0x15 SLOAD ISZERO PUSH3 0x772 JUMPI PUSH2 0x2710 PUSH1 0x15 SLOAD DUP6 PUSH3 0x763 SWAP2 SWAP1 PUSH3 0xCCE JUMP JUMPDEST PUSH3 0x76F SWAP2 SWAP1 PUSH3 0xCE8 JUMP JUMPDEST SWAP3 POP JUMPDEST PUSH1 0x11 SLOAD PUSH1 0x1 PUSH1 0xA0 SHL SWAP1 DIV PUSH1 0xFF AND DUP1 ISZERO PUSH3 0x78D JUMPI POP PUSH1 0xF SLOAD ISZERO ISZERO JUMPDEST ISZERO PUSH3 0x7B5 JUMPI PUSH1 0xF SLOAD PUSH2 0x2710 SWAP1 PUSH3 0x7A6 SWAP1 DUP7 PUSH3 0xCCE JUMP JUMPDEST PUSH3 0x7B2 SWAP2 SWAP1 PUSH3 0xCE8 JUMP JUMPDEST SWAP2 POP JUMPDEST PUSH1 0x13 SLOAD PUSH1 0xFF AND DUP1 ISZERO PUSH3 0x7C9 JUMPI POP PUSH1 0x12 SLOAD ISZERO ISZERO JUMPDEST ISZERO PUSH3 0x7F1 JUMPI PUSH1 0x12 SLOAD PUSH2 0x2710 SWAP1 PUSH3 0x7E2 SWAP1 DUP7 PUSH3 0xCCE JUMP JUMPDEST PUSH3 0x7EE SWAP2 SWAP1 PUSH3 0xCE8 JUMP JUMPDEST SWAP1 POP JUMPDEST PUSH1 0x0 DUP2 DUP4 PUSH3 0x801 DUP7 DUP9 PUSH3 0xD7B JUMP JUMPDEST PUSH3 0x80D SWAP2 SWAP1 PUSH3 0xD7B JUMP JUMPDEST PUSH3 0x819 SWAP2 SWAP1 PUSH3 0xD7B JUMP JUMPDEST SWAP1 POP DUP4 ISZERO PUSH3 0x830 JUMPI PUSH3 0x830 DUP8 PUSH1 0x0 DUP7 PUSH3 0x879 JUMP JUMPDEST DUP3 ISZERO PUSH3 0x844 JUMPI PUSH3 0x844 DUP8 ADDRESS DUP6 PUSH3 0x879 JUMP JUMPDEST DUP2 ISZERO PUSH3 0x863 JUMPI PUSH3 0x856 DUP3 PUSH3 0x9AC JUMP JUMPDEST PUSH3 0x863 DUP8 ADDRESS DUP5 PUSH3 0x879 JUMP JUMPDEST PUSH3 0x870 DUP8 DUP8 DUP4 PUSH3 0x879 JUMP JUMPDEST POP POP POP POP POP POP POP JUMP JUMPDEST PUSH1 0x1 PUSH1 0x1 PUSH1 0xA0 SHL SUB DUP4 AND PUSH3 0x8A8 JUMPI DUP1 PUSH1 0x2 PUSH1 0x0 DUP3 DUP3 SLOAD PUSH3 0x89C SWAP2 SWAP1 PUSH3 0xD65 JUMP JUMPDEST SWAP1 SWAP2 SSTORE POP PUSH3 0x91C SWAP1 POP JUMP JUMPDEST PUSH1 0x1 PUSH1 0x1 PUSH1 0xA0 SHL SUB DUP4 AND PUSH1 0x0 SWAP1 DUP2 MSTORE PUSH1 0x20 DUP2 SWAP1 MSTORE PUSH1 0x40 SWAP1 KECCAK256 SLOAD DUP2 DUP2 LT ISZERO PUSH3 0x8FD JUMPI PUSH1 0x40 MLOAD PUSH4 0x391434E3 PUSH1 0xE2 SHL DUP2 MSTORE PUSH1 0x1 PUSH1 0x1 PUSH1 0xA0 SHL SUB DUP6 AND PUSH1 0x4 DUP3 ADD MSTORE PUSH1 0x24 DUP2 ADD DUP3 SWAP1 MSTORE PUSH1 0x44 DUP2 ADD DUP4 SWAP1 MSTORE PUSH1 0x64 ADD PUSH3 0x165 JUMP JUMPDEST PUSH1 0x1 PUSH1 0x1 PUSH1 0xA0 SHL SUB DUP5 AND PUSH1 0x0 SWAP1 DUP2 MSTORE PUSH1 0x20 DUP2 SWAP1 MSTORE PUSH1 0x40 SWAP1 KECCAK256 SWAP1 DUP3 SWAP1 SUB SWAP1 SSTORE JUMPDEST PUSH1 0x1 PUSH1 0x1 PUSH1 0xA0 SHL SUB DUP3 AND PUSH3 0x93A JUMPI PUSH1 0x2 DUP1 SLOAD DUP3 SWAP1 SUB SWAP1 SSTORE PUSH3 0x959 JUMP JUMPDEST PUSH1 0x1 PUSH1 0x1 PUSH1 0xA0 SHL SUB DUP3 AND PUSH1 0x0 SWAP1 DUP2 MSTORE PUSH1 0x20 DUP2 SWAP1 MSTORE PUSH1 0x40 SWAP1 KECCAK256 DUP1 SLOAD DUP3 ADD SWAP1 SSTORE JUMPDEST DUP2 PUSH1 0x1 PUSH1 0x1 PUSH1 0xA0 SHL SUB AND DUP4 PUSH1 0x1 PUSH1 0x1 PUSH1 0xA0 SHL SUB AND PUSH32 0xDDF252AD1BE2C89B69C2B068FC378DAA952BA7F163C4A11628F55A4DF523B3EF DUP4 PUSH1 0x40 MLOAD PUSH3 0x99F SWAP2 DUP2 MSTORE PUSH1 0x20 ADD SWAP1 JUMP JUMPDEST PUSH1 0x40 MLOAD DUP1 SWAP2 SUB SWAP1 LOG3 POP POP POP JUMP JUMPDEST DUP1 PUSH1 0x1B PUSH1 0x0 DUP3 DUP3 SLOAD PUSH3 0x9C0 SWAP2 SWAP1 PUSH3 0xD65 JUMP JUMPDEST SWAP1 SWAP2 SSTORE POP POP PUSH1 0x40 MLOAD DUP2 DUP2 MSTORE PUSH32 0x3EEB9763473A030C467B8F096A99E1825A88C6A821C131E1FBB007246A80359C SWAP1 PUSH1 0x20 ADD PUSH1 0x40 MLOAD DUP1 SWAP2 SUB SWAP1 LOG1 POP JUMP JUMPDEST PUSH4 0x4E487B71 PUSH1 0xE0 SHL PUSH1 0x0 MSTORE PUSH1 0x41 PUSH1 0x4 MSTORE PUSH1 0x24 PUSH1 0x0 REVERT JUMPDEST PUSH1 0x0 JUMPDEST DUP4 DUP2 LT ISZERO PUSH3 0xA2E JUMPI DUP2 DUP2 ADD MLOAD DUP4 DUP3 ADD MSTORE PUSH1 0x20 ADD PUSH3 0xA14 JUMP JUMPDEST POP POP PUSH1 0x0 SWAP2 ADD MSTORE JUMP JUMPDEST PUSH1 0x0 DUP3 PUSH1 0x1F DUP4 ADD SLT PUSH3 0xA49 JUMPI PUSH1 0x0 DUP1 REVERT JUMPDEST DUP2 MLOAD PUSH1 0x1 PUSH1 0x1 PUSH1 0x40 SHL SUB DUP1 DUP3 GT ISZERO PUSH3 0xA66 JUMPI PUSH3 0xA66 PUSH3 0x9FB JUMP JUMPDEST PUSH1 0x40 MLOAD PUSH1 0x1F DUP4 ADD PUSH1 0x1F NOT SWAP1 DUP2 AND PUSH1 0x3F ADD AND DUP2 ADD SWAP1 DUP3 DUP3 GT DUP2 DUP4 LT OR ISZERO PUSH3 0xA91 JUMPI PUSH3 0xA91 PUSH3 0x9FB JUMP JUMPDEST DUP2 PUSH1 0x40 MSTORE DUP4 DUP2 MSTORE DUP7 PUSH1 0x20 DUP6 DUP9 ADD ADD GT ISZERO PUSH3 0xAAB JUMPI PUSH1 0x0 DUP1 REVERT JUMPDEST PUSH3 0xABE DUP5 PUSH1 0x20 DUP4 ADD PUSH1 0x20 DUP10 ADD PUSH3 0xA11 JUMP JUMPDEST SWAP7 SWAP6 POP POP POP POP POP POP JUMP JUMPDEST PUSH1 0x0 DUP1 PUSH1 0x0 DUP1 PUSH1 0x80 DUP6 DUP8 SUB SLT ISZERO PUSH3 0xADF JUMPI PUSH1 0x0 DUP1 REVERT JUMPDEST DUP5 MLOAD PUSH1 0x1 PUSH1 0x1 PUSH1 0x40 SHL SUB DUP1 DUP3 GT ISZERO PUSH3 0xAF7 JUMPI PUSH1 0x0 DUP1 REVERT JUMPDEST PUSH3 0xB05 DUP9 DUP4 DUP10 ADD PUSH3 0xA37 JUMP JUMPDEST SWAP6 POP PUSH1 0x20 DUP8 ADD MLOAD SWAP2 POP DUP1 DUP3 GT ISZERO PUSH3 0xB1C JUMPI PUSH1 0x0 DUP1 REVERT JUMPDEST POP PUSH3 0xB2B DUP8 DUP3 DUP9 ADD PUSH3 0xA37 JUMP JUMPDEST PUSH1 0x40 DUP8 ADD MLOAD PUSH1 0x60 DUP9 ADD MLOAD SWAP2 SWAP6 POP SWAP4 POP SWAP1 POP PUSH1 0x1 PUSH1 0x1 PUSH1 0xA0 SHL SUB DUP2 AND DUP2 EQ PUSH3 0xB52 JUMPI PUSH1 0x0 DUP1 REVERT JUMPDEST SWAP4 SWAP7 SWAP3 SWAP6 POP SWAP1 SWAP4 POP POP JUMP JUMPDEST PUSH1 0x1 DUP2 DUP2 SHR SWAP1 DUP3 AND DUP1 PUSH3 0xB72 JUMPI PUSH1 0x7F DUP3 AND SWAP2 POP JUMPDEST PUSH1 0x20 DUP3 LT DUP2 SUB PUSH3 0xB93 JUMPI PUSH4 0x4E487B71 PUSH1 0xE0 SHL PUSH1 0x0 MSTORE PUSH1 0x22 PUSH1 0x4 MSTORE PUSH1 0x24 PUSH1 0x0 REVERT JUMPDEST POP SWAP2 SWAP1 POP JUMP JUMPDEST PUSH1 0x1F DUP3 GT ISZERO PUSH3 0xBE7 JUMPI PUSH1 0x0 DUP2 DUP2 MSTORE PUSH1 0x20 DUP2 KECCAK256 PUSH1 0x1F DUP6 ADD PUSH1 0x5 SHR DUP2 ADD PUSH1 0x20 DUP7 LT ISZERO PUSH3 0xBC2 JUMPI POP DUP1 JUMPDEST PUSH1 0x1F DUP6 ADD PUSH1 0x5 SHR DUP3 ADD SWAP2 POP JUMPDEST DUP2 DUP2 LT ISZERO PUSH3 0xBE3 JUMPI DUP3 DUP2 SSTORE PUSH1 0x1 ADD PUSH3 0xBCE JUMP JUMPDEST POP POP POP JUMPDEST POP POP POP JUMP JUMPDEST DUP2 MLOAD PUSH1 0x1 PUSH1 0x1 PUSH1 0x40 SHL SUB DUP2 GT ISZERO PUSH3 0xC08 JUMPI PUSH3 0xC08 PUSH3 0x9FB JUMP JUMPDEST PUSH3 0xC20 DUP2 PUSH3 0xC19 DUP5 SLOAD PUSH3 0xB5D JUMP JUMPDEST DUP5 PUSH3 0xB99 JUMP JUMPDEST PUSH1 0x20 DUP1 PUSH1 0x1F DUP4 GT PUSH1 0x1 DUP2 EQ PUSH3 0xC58 JUMPI PUSH1 0x0 DUP5 ISZERO PUSH3 0xC3F JUMPI POP DUP6 DUP4 ADD MLOAD JUMPDEST PUSH1 0x0 NOT PUSH1 0x3 DUP7 SWAP1 SHL SHR NOT AND PUSH1 0x1 DUP6 SWAP1 SHL OR DUP6 SSTORE PUSH3 0xBE3 JUMP JUMPDEST PUSH1 0x0 DUP6 DUP2 MSTORE PUSH1 0x20 DUP2 KECCAK256 PUSH1 0x1F NOT DUP7 AND SWAP2 JUMPDEST DUP3 DUP2 LT ISZERO PUSH3 0xC89 JUMPI DUP9 DUP7 ADD MLOAD DUP3 SSTORE SWAP5 DUP5 ADD SWAP5 PUSH1 0x1 SWAP1 SWAP2 ADD SWAP1 DUP5 ADD PUSH3 0xC68 JUMP JUMPDEST POP DUP6 DUP3 LT ISZERO PUSH3 0xCA8 JUMPI DUP8 DUP6 ADD MLOAD PUSH1 0x0 NOT PUSH1 0x3 DUP9 SWAP1 SHL PUSH1 0xF8 AND SHR NOT AND DUP2 SSTORE JUMPDEST POP POP POP POP POP PUSH1 0x1 SWAP1 DUP2 SHL ADD SWAP1 SSTORE POP JUMP JUMPDEST PUSH4 0x4E487B71 PUSH1 0xE0 SHL PUSH1 0x0 MSTORE PUSH1 0x11 PUSH1 0x4 MSTORE PUSH1 0x24 PUSH1 0x0 REVERT JUMPDEST DUP1 DUP3 MUL DUP2 ISZERO DUP3 DUP3 DIV DUP5 EQ OR PUSH3 0x296 JUMPI PUSH3 0x296 PUSH3 0xCB8 JUMP JUMPDEST PUSH1 0x0 DUP3 PUSH3 0xD06 JUMPI PUSH4 0x4E487B71 PUSH1 0xE0 SHL PUSH1 0x0 MSTORE PUSH1 0x12 PUSH1 0x4 MSTORE PUSH1 0x24 PUSH1 0x0 REVERT JUMPDEST POP DIV SWAP1 JUMP JUMPDEST PUSH1 0x20 DUP2 MSTORE PUSH1 0x0 DUP3 MLOAD DUP1 PUSH1 0x20 DUP5 ADD MSTORE PUSH3 0xD2C DUP2 PUSH1 0x40 DUP6 ADD PUSH1 0x20 DUP8 ADD PUSH3 0xA11 JUMP JUMPDEST PUSH1 0x1F ADD PUSH1 0x1F NOT AND SWAP2 SWAP1 SWAP2 ADD PUSH1 0x40 ADD SWAP3 SWAP2 POP POP JUMP JUMPDEST DUP1 MLOAD PUSH1 0x20 DUP1 DUP4 ADD MLOAD SWAP2 SWAP1 DUP2 LT ISZERO PUSH3 0xB93 JUMPI PUSH1 0x0 NOT PUSH1 0x20 SWAP2 SWAP1 SWAP2 SUB PUSH1 0x3 SHL SHL AND SWAP2 SWAP1 POP JUMP JUMPDEST DUP1 DUP3 ADD DUP1 DUP3 GT ISZERO PUSH3 0x296 JUMPI PUSH3 0x296 PUSH3 0xCB8 JUMP JUMPDEST DUP2 DUP2 SUB DUP2 DUP2 GT ISZERO PUSH3 0x296 JUMPI PUSH3 0x296 PUSH3 0xCB8 JUMP JUMPDEST PUSH1 0x80 MLOAD PUSH1 0xA0 MLOAD PUSH1 0xC0 MLOAD PUSH1 0xE0 MLOAD PUSH2 0x100 MLOAD PUSH2 0x120 MLOAD PUSH2 0x140 MLOAD PUSH2 0x219A PUSH3 0xDEC PUSH1 0x0 CODECOPY PUSH1 0x0 PUSH2 0x1315 ADD MSTORE PUSH1 0x0 PUSH2 0x12E8 ADD MSTORE PUSH1 0x0 PUSH2 0x1208 ADD MSTORE PUSH1 0x0 PUSH2 0x11E0 ADD MSTORE PUSH1 0x0 PUSH2 0x113B ADD MSTORE PUSH1 0x0 PUSH2 0x1165 ADD MSTORE PUSH1 0x0 PUSH2 0x118F ADD MSTORE PUSH2 0x219A PUSH1 0x0 RETURN INVALID PUSH1 0x80 PUSH1 0x40 MSTORE CALLVALUE DUP1 ISZERO PUSH2 0x10 JUMPI PUSH1 0x0 DUP1 REVERT JUMPDEST POP PUSH1 0x4 CALLDATASIZE LT PUSH2 0x27F JUMPI PUSH1 0x0 CALLDATALOAD PUSH1 0xE0 SHR DUP1 PUSH4 0x6D1D2159 GT PUSH2 0x15C JUMPI DUP1 PUSH4 0xA9277C0A GT PUSH2 0xCE JUMPI DUP1 PUSH4 0xD505ACCF GT PUSH2 0x87 JUMPI DUP1 PUSH4 0xD505ACCF EQ PUSH2 0x62B JUMPI DUP1 PUSH4 0xDB2E21BC EQ PUSH2 0x63E JUMPI DUP1 PUSH4 0xDD62ED3E EQ PUSH2 0x646 JUMPI DUP1 PUSH4 0xE6375D3E EQ PUSH2 0x67F JUMPI DUP1 PUSH4 0xF2FDE38B EQ PUSH2 0x6AB JUMPI DUP1 PUSH4 0xFE575A87 EQ PUSH2 0x6BE JUMPI PUSH1 0x0 DUP1 REVERT JUMPDEST DUP1 PUSH4 0xA9277C0A EQ PUSH2 0x5CC JUMPI DUP1 PUSH4 0xAE267735 EQ PUSH2 0x5D4 JUMPI DUP1 PUSH4 0xB2AF127C EQ PUSH2 0x5DC JUMPI DUP1 PUSH4 0xC0246668 EQ PUSH2 0x5EF JUMPI DUP1 PUSH4 0xC07473F6 EQ PUSH2 0x602 JUMPI DUP1 PUSH4 0xD00EFB2F EQ PUSH2 0x622 JUMPI PUSH1 0x0 DUP1 REVERT JUMPDEST DUP1 PUSH4 0x84B0196E GT PUSH2 0x120 JUMPI DUP1 PUSH4 0x84B0196E EQ PUSH2 0x51B JUMPI DUP1 PUSH4 0x8A8C523C EQ PUSH2 0x536 JUMPI DUP1 PUSH4 0x8DA5CB5B EQ PUSH2 0x53E JUMPI DUP1 PUSH4 0x95D89B41 EQ PUSH2 0x559 JUMPI DUP1 PUSH4 0x9E7E42CD EQ PUSH2 0x561 JUMPI DUP1 PUSH4 0xA9059CBB EQ PUSH2 0x5B9 JUMPI PUSH1 0x0 DUP1 REVERT JUMPDEST DUP1 PUSH4 0x6D1D2159 EQ PUSH2 0x4B1 JUMPI DUP1 PUSH4 0x70A08231 EQ PUSH2 0x4C4 JUMPI DUP1 PUSH4 0x715018A6 EQ PUSH2 0x4ED JUMPI DUP1 PUSH4 0x79CC6790 EQ PUSH2 0x4F5 JUMPI DUP1 PUSH4 0x7ECEBE00 EQ PUSH2 0x508 JUMPI PUSH1 0x0 DUP1 REVERT JUMPDEST DUP1 PUSH4 0x3FECC2E2 GT PUSH2 0x1F5 JUMPI DUP1 PUSH4 0x4ADA218B GT PUSH2 0x1B9 JUMPI DUP1 PUSH4 0x4ADA218B EQ PUSH2 0x43F JUMPI DUP1 PUSH4 0x4BF2C7C9 EQ PUSH2 0x44C JUMPI DUP1 PUSH4 0x4E0856A7 EQ PUSH2 0x45F JUMPI DUP1 PUSH4 0x4FBEE193 EQ PUSH2 0x468 JUMPI DUP1 PUSH4 0x5C19A95C EQ PUSH2 0x48B JUMPI DUP1 PUSH4 0x6010BA34 EQ PUSH2 0x49E JUMPI PUSH1 0x0 DUP1 REVERT JUMPDEST DUP1 PUSH4 0x3FECC2E2 EQ PUSH2 0x379 JUMPI DUP1 PUSH4 0x42966C68 EQ PUSH2 0x399 JUMPI DUP1 PUSH4 0x43859632 EQ PUSH2 0x3AC JUMPI DUP1 PUSH4 0x4663B1B2 EQ PUSH2 0x3D8 JUMPI DUP1 PUSH4 0x49A64D93 EQ PUSH2 0x3F8 JUMPI PUSH1 0x0 DUP1 REVERT JUMPDEST DUP1 PUSH4 0x180AA7C7 GT PUSH2 0x247 JUMPI DUP1 PUSH4 0x180AA7C7 EQ PUSH2 0x30E JUMPI DUP1 PUSH4 0x18160DDD EQ PUSH2 0x334 JUMPI DUP1 PUSH4 0x23B872DD EQ PUSH2 0x33C JUMPI DUP1 PUSH4 0x25F25F4D EQ PUSH2 0x34F JUMPI DUP1 PUSH4 0x313CE567 EQ PUSH2 0x362 JUMPI DUP1 PUSH4 0x3644E515 EQ PUSH2 0x371 JUMPI PUSH1 0x0 DUP1 REVERT JUMPDEST DUP1 PUSH4 0x6FDDE03 EQ PUSH2 0x284 JUMPI DUP1 PUSH4 0x95EA7B3 EQ PUSH2 0x2A2 JUMPI DUP1 PUSH4 0xEDA5F32 EQ PUSH2 0x2C5 JUMPI DUP1 PUSH4 0x153B0D1E EQ PUSH2 0x2DA JUMPI DUP1 PUSH4 0x1682AA49 EQ PUSH2 0x2ED JUMPI JUMPDEST PUSH1 0x0 DUP1 REVERT JUMPDEST PUSH2 0x28C PUSH2 0x6E1 JUMP JUMPDEST PUSH1 0x40 MLOAD PUSH2 0x299 SWAP2 SWAP1 PUSH2 0x1D68 JUMP JUMPDEST PUSH1 0x40 MLOAD DUP1 SWAP2 SUB SWAP1 RETURN JUMPDEST PUSH2 0x2B5 PUSH2 0x2B0 CALLDATASIZE PUSH1 0x4 PUSH2 0x1D9E JUMP JUMPDEST PUSH2 0x773 JUMP JUMPDEST PUSH1 0x40 MLOAD SWAP1 ISZERO ISZERO DUP2 MSTORE PUSH1 0x20 ADD PUSH2 0x299 JUMP JUMPDEST PUSH2 0x2D8 PUSH2 0x2D3 CALLDATASIZE PUSH1 0x4 PUSH2 0x1DC8 JUMP JUMPDEST PUSH2 0x78D JUMP JUMPDEST STOP JUMPDEST PUSH2 0x2D8 PUSH2 0x2E8 CALLDATASIZE PUSH1 0x4 PUSH2 0x1E0B JUMP JUMPDEST PUSH2 0x7F0 JUMP JUMPDEST PUSH2 0x300 PUSH2 0x2FB CALLDATASIZE PUSH1 0x4 PUSH2 0x1E42 JUMP JUMPDEST PUSH2 0x857 JUMP JUMPDEST PUSH1 0x40 MLOAD SWAP1 DUP2 MSTORE PUSH1 0x20 ADD PUSH2 0x299 JUMP JUMPDEST PUSH1 0x12 SLOAD PUSH1 0x13 SLOAD PUSH2 0x31F SWAP2 SWAP1 PUSH1 0xFF AND DUP3 JUMP JUMPDEST PUSH1 0x40 DUP1 MLOAD SWAP3 DUP4 MSTORE SWAP1 ISZERO ISZERO PUSH1 0x20 DUP4 ADD MSTORE ADD PUSH2 0x299 JUMP JUMPDEST PUSH1 0x2 SLOAD PUSH2 0x300 JUMP JUMPDEST PUSH2 0x2B5 PUSH2 0x34A CALLDATASIZE PUSH1 0x4 PUSH2 0x1E5D JUMP JUMPDEST PUSH2 0x8B2 JUMP JUMPDEST PUSH2 0x2D8 PUSH2 0x35D CALLDATASIZE PUSH1 0x4 PUSH2 0x1E42 JUMP JUMPDEST PUSH2 0x8D6 JUMP JUMPDEST PUSH1 0x40 MLOAD PUSH1 0x12 DUP2 MSTORE PUSH1 0x20 ADD PUSH2 0x299 JUMP JUMPDEST PUSH2 0x300 PUSH2 0x9A0 JUMP JUMPDEST PUSH2 0x300 PUSH2 0x387 CALLDATASIZE PUSH1 0x4 PUSH2 0x1E42 JUMP JUMPDEST PUSH1 0x17 PUSH1 0x20 MSTORE PUSH1 0x0 SWAP1 DUP2 MSTORE PUSH1 0x40 SWAP1 KECCAK256 SLOAD DUP2 JUMP JUMPDEST PUSH2 0x2D8 PUSH2 0x3A7 CALLDATASIZE PUSH1 0x4 PUSH2 0x1E99 JUMP JUMPDEST PUSH2 0x9AF JUMP JUMPDEST PUSH2 0x2B5 PUSH2 0x3BA CALLDATASIZE PUSH1 0x4 PUSH2 0x1EB2 JUMP JUMPDEST PUSH1 0x20 DUP1 DUP1 MSTORE PUSH1 0x0 SWAP3 DUP4 MSTORE PUSH1 0x40 DUP1 DUP5 KECCAK256 SWAP1 SWAP2 MSTORE SWAP1 DUP3 MSTORE SWAP1 KECCAK256 SLOAD PUSH1 0xFF AND DUP2 JUMP JUMPDEST PUSH2 0x300 PUSH2 0x3E6 CALLDATASIZE PUSH1 0x4 PUSH2 0x1E42 JUMP JUMPDEST PUSH1 0x18 PUSH1 0x20 MSTORE PUSH1 0x0 SWAP1 DUP2 MSTORE PUSH1 0x40 SWAP1 KECCAK256 SLOAD DUP2 JUMP JUMPDEST PUSH1 0xA SLOAD PUSH1 0xB SLOAD PUSH1 0xC SLOAD PUSH1 0xD SLOAD PUSH1 0xE SLOAD PUSH2 0x415 SWAP5 SWAP4 SWAP3 SWAP2 SWAP1 PUSH1 0xFF AND DUP6 JUMP JUMPDEST PUSH1 0x40 DUP1 MLOAD SWAP6 DUP7 MSTORE PUSH1 0x20 DUP7 ADD SWAP5 SWAP1 SWAP5 MSTORE SWAP3 DUP5 ADD SWAP2 SWAP1 SWAP2 MSTORE PUSH1 0x60 DUP4 ADD MSTORE ISZERO ISZERO PUSH1 0x80 DUP3 ADD MSTORE PUSH1 0xA0 ADD PUSH2 0x299 JUMP JUMPDEST PUSH1 0x16 SLOAD PUSH2 0x2B5 SWAP1 PUSH1 0xFF AND DUP2 JUMP JUMPDEST PUSH2 0x2D8 PUSH2 0x45A CALLDATASIZE PUSH1 0x4 PUSH2 0x1E99 JUMP JUMPDEST PUSH2 0x9BC JUMP JUMPDEST PUSH2 0x300 PUSH1 0x15 SLOAD DUP2 JUMP JUMPDEST PUSH2 0x2B5 PUSH2 0x476 CALLDATASIZE PUSH1 0x4 PUSH2 0x1E42 JUMP JUMPDEST PUSH1 0x19 PUSH1 0x20 MSTORE PUSH1 0x0 SWAP1 DUP2 MSTORE PUSH1 0x40 SWAP1 KECCAK256 SLOAD PUSH1 0xFF AND DUP2 JUMP JUMPDEST PUSH2 0x2D8 PUSH2 0x499 CALLDATASIZE PUSH1 0x4 PUSH2 0x1E42 JUMP JUMPDEST PUSH2 0x9EB JUMP JUMPDEST PUSH2 0x2D8 PUSH2 0x4AC CALLDATASIZE PUSH1 0x4 PUSH2 0x1E99 JUMP JUMPDEST PUSH2 0xA2B JUMP JUMPDEST PUSH2 0x2D8 PUSH2 0x4BF CALLDATASIZE PUSH1 0x4 PUSH2 0x1EDE JUMP JUMPDEST PUSH2 0xA67 JUMP JUMPDEST PUSH2 0x300 PUSH2 0x4D2 CALLDATASIZE PUSH1 0x4 PUSH2 0x1E42 JUMP JUMPDEST PUSH1 0x1 PUSH1 0x1 PUSH1 0xA0 SHL SUB AND PUSH1 0x0 SWAP1 DUP2 MSTORE PUSH1 0x20 DUP2 SWAP1 MSTORE PUSH1 0x40 SWAP1 KECCAK256 SLOAD SWAP1 JUMP JUMPDEST PUSH2 0x2D8 PUSH2 0xAD1 JUMP JUMPDEST PUSH2 0x2D8 PUSH2 0x503 CALLDATASIZE PUSH1 0x4 PUSH2 0x1D9E JUMP JUMPDEST PUSH2 0xAE5 JUMP JUMPDEST PUSH2 0x300 PUSH2 0x516 CALLDATASIZE PUSH1 0x4 PUSH2 0x1E42 JUMP JUMPDEST PUSH2 0xAFE JUMP JUMPDEST PUSH2 0x523 PUSH2 0xB1C JUMP JUMPDEST PUSH1 0x40 MLOAD PUSH2 0x299 SWAP8 SWAP7 SWAP6 SWAP5 SWAP4 SWAP3 SWAP2 SWAP1 PUSH2 0x1F10 JUMP JUMPDEST PUSH2 0x2D8 PUSH2 0xB62 JUMP JUMPDEST PUSH1 0x8 SLOAD PUSH1 0x40 MLOAD PUSH1 0x1 PUSH1 0x1 PUSH1 0xA0 SHL SUB SWAP1 SWAP2 AND DUP2 MSTORE PUSH1 0x20 ADD PUSH2 0x299 JUMP JUMPDEST PUSH2 0x28C PUSH2 0xC0C JUMP JUMPDEST PUSH1 0xF SLOAD PUSH1 0x10 SLOAD PUSH1 0x11 SLOAD PUSH2 0x588 SWAP3 SWAP2 SWAP1 PUSH1 0x1 PUSH1 0x1 PUSH1 0xA0 SHL SUB DUP2 AND SWAP1 PUSH1 0x1 PUSH1 0xA0 SHL SWAP1 DIV PUSH1 0xFF AND DUP5 JUMP JUMPDEST PUSH1 0x40 MLOAD PUSH2 0x299 SWAP5 SWAP4 SWAP3 SWAP2 SWAP1 SWAP4 DUP5 MSTORE PUSH1 0x20 DUP5 ADD SWAP3 SWAP1 SWAP3 MSTORE PUSH1 0x1 PUSH1 0x1 PUSH1 0xA0 SHL SUB AND PUSH1 0x40 DUP4 ADD MSTORE ISZERO ISZERO PUSH1 0x60 DUP3 ADD MSTORE PUSH1 0x80 ADD SWAP1 JUMP JUMPDEST PUSH2 0x2B5 PUSH2 0x5C7 CALLDATASIZE PUSH1 0x4 PUSH2 0x1D9E JUMP JUMPDEST PUSH2 0xC1B JUMP JUMPDEST PUSH2 0x2D8 PUSH2 0xC29 JUMP JUMPDEST PUSH1 0x1B SLOAD PUSH2 0x300 JUMP JUMPDEST PUSH2 0x2D8 PUSH2 0x5EA CALLDATASIZE PUSH1 0x4 PUSH2 0x1E42 JUMP JUMPDEST PUSH2 0xC3D JUMP JUMPDEST PUSH2 0x2D8 PUSH2 0x5FD CALLDATASIZE PUSH1 0x4 PUSH2 0x1E0B JUMP JUMPDEST PUSH2 0xDE9 JUMP JUMPDEST PUSH2 0x300 PUSH2 0x610 CALLDATASIZE PUSH1 0x4 PUSH2 0x1E42 JUMP JUMPDEST PUSH1 0x1F PUSH1 0x20 MSTORE PUSH1 0x0 SWAP1 DUP2 MSTORE PUSH1 0x40 SWAP1 KECCAK256 SLOAD DUP2 JUMP JUMPDEST PUSH2 0x300 PUSH1 0x14 SLOAD DUP2 JUMP JUMPDEST PUSH2 0x2D8 PUSH2 0x639 CALLDATASIZE PUSH1 0x4 PUSH2 0x1FA6 JUMP JUMPDEST PUSH2 0xE1C JUMP JUMPDEST PUSH2 0x2D8 PUSH2 0xF56 JUMP JUMPDEST PUSH2 0x300 PUSH2 0x654 CALLDATASIZE PUSH1 0x4 PUSH2 0x2019 JUMP JUMPDEST PUSH1 0x1 PUSH1 0x1 PUSH1 0xA0 SHL SUB SWAP2 DUP3 AND PUSH1 0x0 SWAP1 DUP2 MSTORE PUSH1 0x1 PUSH1 0x20 SWAP1 DUP2 MSTORE PUSH1 0x40 DUP1 DUP4 KECCAK256 SWAP4 SWAP1 SWAP5 AND DUP3 MSTORE SWAP2 SWAP1 SWAP2 MSTORE KECCAK256 SLOAD SWAP1 JUMP JUMPDEST PUSH2 0x2B5 PUSH2 0x68D CALLDATASIZE PUSH1 0x4 PUSH2 0x1E42 JUMP JUMPDEST PUSH1 0x1 PUSH1 0x1 PUSH1 0xA0 SHL SUB AND PUSH1 0x0 SWAP1 DUP2 MSTORE PUSH1 0x1D PUSH1 0x20 MSTORE PUSH1 0x40 SWAP1 KECCAK256 SLOAD PUSH1 0xFF AND SWAP1 JUMP JUMPDEST PUSH2 0x2D8 PUSH2 0x6B9 CALLDATASIZE PUSH1 0x4 PUSH2 0x1E42 JUMP JUMPDEST PUSH2 0xFDB JUMP JUMPDEST PUSH2 0x2B5 PUSH2 0x6CC CALLDATASIZE PUSH1 0x4 PUSH2 0x1E42 JUMP JUMPDEST PUSH1 0x1A PUSH1 0x20 MSTORE PUSH1 0x0 SWAP1 DUP2 MSTORE PUSH1 0x40 SWAP1 KECCAK256 SLOAD PUSH1 0xFF AND DUP2 JUMP JUMPDEST PUSH1 0x60 PUSH1 0x3 DUP1 SLOAD PUSH2 0x6F0 SWAP1 PUSH2 0x2043 JUMP JUMPDEST DUP1 PUSH1 0x1F ADD PUSH1 0x20 DUP1 SWAP2 DIV MUL PUSH1 0x20 ADD PUSH1 0x40 MLOAD SWAP1 DUP2 ADD PUSH1 0x40 MSTORE DUP1 SWAP3 SWAP2 SWAP1 DUP2 DUP2 MSTORE PUSH1 0x20 ADD DUP3 DUP1 SLOAD PUSH2 0x71C SWAP1 PUSH2 0x2043 JUMP JUMPDEST DUP1 ISZERO PUSH2 0x769 JUMPI DUP1 PUSH1 0x1F LT PUSH2 0x73E JUMPI PUSH2 0x100 DUP1 DUP4 SLOAD DIV MUL DUP4 MSTORE SWAP2 PUSH1 0x20 ADD SWAP2 PUSH2 0x769 JUMP JUMPDEST DUP3 ADD SWAP2 SWAP1 PUSH1 0x0 MSTORE PUSH1 0x20 PUSH1 0x0 KECCAK256 SWAP1 JUMPDEST DUP2 SLOAD DUP2 MSTORE SWAP1 PUSH1 0x1 ADD SWAP1 PUSH1 0x20 ADD DUP1 DUP4 GT PUSH2 0x74C JUMPI DUP3 SWAP1 SUB PUSH1 0x1F AND DUP3 ADD SWAP2 JUMPDEST POP POP POP POP POP SWAP1 POP SWAP1 JUMP JUMPDEST PUSH1 0x0 CALLER PUSH2 0x781 DUP2 DUP6 DUP6 PUSH2 0x1016 JUMP JUMPDEST PUSH1 0x1 SWAP2 POP POP JUMPDEST SWAP3 SWAP2 POP POP JUMP JUMPDEST PUSH2 0x795 PUSH2 0x1023 JUMP JUMPDEST PUSH2 0x1F4 DUP4 GT ISZERO PUSH2 0x7C0 JUMPI PUSH1 0x40 MLOAD PUSH3 0x461BCD PUSH1 0xE5 SHL DUP2 MSTORE PUSH1 0x4 ADD PUSH2 0x7B7 SWAP1 PUSH2 0x207D JUMP JUMPDEST PUSH1 0x40 MLOAD DUP1 SWAP2 SUB SWAP1 REVERT JUMPDEST PUSH1 0xF SWAP3 SWAP1 SWAP3 SSTORE PUSH1 0x10 SSTORE PUSH1 0x11 DUP1 SLOAD PUSH1 0x1 PUSH1 0x1 PUSH1 0xA8 SHL SUB NOT AND PUSH1 0x1 PUSH1 0x1 PUSH1 0xA0 SHL SUB SWAP1 SWAP3 AND SWAP2 SWAP1 SWAP2 OR PUSH1 0x1 PUSH1 0xA0 SHL OR SWAP1 SSTORE JUMP JUMPDEST PUSH2 0x7F8 PUSH2 0x1023 JUMP JUMPDEST PUSH1 0x1 PUSH1 0x1 PUSH1 0xA0 SHL SUB DUP3 AND PUSH1 0x0 DUP2 DUP2 MSTORE PUSH1 0x1A PUSH1 0x20 SWAP1 DUP2 MSTORE PUSH1 0x40 SWAP2 DUP3 SWAP1 KECCAK256 DUP1 SLOAD PUSH1 0xFF NOT AND DUP6 ISZERO ISZERO SWAP1 DUP2 OR SWAP1 SWAP2 SSTORE SWAP2 MLOAD SWAP2 DUP3 MSTORE PUSH32 0xCF3473B85DF1594D47B6958F29A32BEA0ABFF9DD68296F7BF33443646793CFD8 SWAP2 ADD PUSH1 0x40 MLOAD DUP1 SWAP2 SUB SWAP1 LOG2 POP POP JUMP JUMPDEST PUSH1 0x1 PUSH1 0x1 PUSH1 0xA0 SHL SUB DUP2 AND PUSH1 0x0 SWAP1 DUP2 MSTORE PUSH1 0x1D PUSH1 0x20 MSTORE PUSH1 0x40 DUP2 KECCAK256 SLOAD PUSH1 0xFF AND ISZERO PUSH2 0x896 JUMPI PUSH1 0x1 PUSH1 0x1 PUSH1 0xA0 SHL SUB DUP3 AND PUSH1 0x0 SWAP1 DUP2 MSTORE PUSH1 0x20 DUP2 SWAP1 MSTORE PUSH1 0x40 SWAP1 KECCAK256 SLOAD PUSH2 0x787 JUMP JUMPDEST POP PUSH1 0x1 PUSH1 0x1 PUSH1 0xA0 SHL SUB AND PUSH1 0x0 SWAP1 DUP2 MSTORE PUSH1 0x1C PUSH1 0x20 MSTORE PUSH1 0x40 SWAP1 KECCAK256 SLOAD SWAP1 JUMP JUMPDEST PUSH1 0x0 CALLER PUSH2 0x8C0 DUP6 DUP3 DUP6 PUSH2 0x1050 JUMP JUMPDEST PUSH2 0x8CB DUP6 DUP6 DUP6 PUSH2 0x10CF JUMP JUMPDEST POP PUSH1 0x1 SWAP5 SWAP4 POP POP POP POP JUMP JUMPDEST PUSH2 0x8DE PUSH2 0x1023 JUMP JUMPDEST PUSH1 0x1 PUSH1 0x1 PUSH1 0xA0 SHL SUB DUP2 AND PUSH1 0x0 SWAP1 DUP2 MSTORE PUSH1 0x1D PUSH1 0x20 MSTORE PUSH1 0x40 SWAP1 KECCAK256 SLOAD PUSH1 0xFF AND ISZERO PUSH2 0x93A JUMPI PUSH1 0x40 MLOAD PUSH3 0x461BCD PUSH1 0xE5 SHL DUP2 MSTORE PUSH1 0x20 PUSH1 0x4 DUP3 ADD MSTORE PUSH1 0x10 PUSH1 0x24 DUP3 ADD MSTORE PUSH16 0x105B1C9958591E48195E18DB1D591959 PUSH1 0x82 SHL PUSH1 0x44 DUP3 ADD MSTORE PUSH1 0x64 ADD PUSH2 0x7B7 JUMP JUMPDEST PUSH1 0x1 PUSH1 0x1 PUSH1 0xA0 SHL SUB AND PUSH1 0x0 DUP2 DUP2 MSTORE PUSH1 0x1D PUSH1 0x20 MSTORE PUSH1 0x40 DUP2 KECCAK256 DUP1 SLOAD PUSH1 0xFF NOT AND PUSH1 0x1 SWAP1 DUP2 OR SWAP1 SWAP2 SSTORE PUSH1 0x1E DUP1 SLOAD SWAP2 DUP3 ADD DUP2 SSTORE SWAP1 SWAP2 MSTORE PUSH32 0x50BB669A95C7B50B7E8A6F09454034B2B14CF2B85C730DCA9A539CA82CB6E350 ADD DUP1 SLOAD PUSH1 0x1 PUSH1 0x1 PUSH1 0xA0 SHL SUB NOT AND SWAP1 SWAP2 OR SWAP1 SSTORE JUMP JUMPDEST PUSH1 0x0 PUSH2 0x9AA PUSH2 0x112E JUMP JUMPDEST SWAP1 POP SWAP1 JUMP JUMPDEST PUSH2 0x9B9 CALLER DUP3 PUSH2 0x1259 JUMP JUMPDEST POP JUMP JUMPDEST PUSH2 0x9C4 PUSH2 0x1023 JUMP JUMPDEST PUSH2 0x1F4 DUP2 GT ISZERO PUSH2 0x9E6 JUMPI PUSH1 0x40 MLOAD PUSH3 0x461BCD PUSH1 0xE5 SHL DUP2 MSTORE PUSH1 0x4 ADD PUSH2 0x7B7 SWAP1 PUSH2 0x207D JUMP JUMPDEST PUSH1 0x15 SSTORE JUMP JUMPDEST CALLER PUSH1 0x0 SWAP1 DUP2 MSTORE PUSH1 0x20 DUP2 SWAP1 MSTORE PUSH1 0x40 SWAP1 KECCAK256 SLOAD PUSH1 0x1 PUSH1 0x1 PUSH1 0xA0 SHL SUB DUP3 AND PUSH1 0x0 SWAP1 DUP2 MSTORE PUSH1 0x1F PUSH1 0x20 MSTORE PUSH1 0x40 DUP2 KECCAK256 DUP1 SLOAD SWAP1 SWAP2 SWAP1 PUSH2 0xA23 SWAP1 DUP5 SWAP1 PUSH2 0x20B9 JUMP JUMPDEST SWAP1 SWAP2 SSTORE POP POP POP JUMP JUMPDEST PUSH2 0xA33 PUSH2 0x1023 JUMP JUMPDEST PUSH2 0x1F4 DUP2 GT ISZERO PUSH2 0xA55 JUMPI PUSH1 0x40 MLOAD PUSH3 0x461BCD PUSH1 0xE5 SHL DUP2 MSTORE PUSH1 0x4 ADD PUSH2 0x7B7 SWAP1 PUSH2 0x207D JUMP JUMPDEST PUSH1 0x12 SSTORE PUSH1 0x13 DUP1 SLOAD PUSH1 0xFF NOT AND PUSH1 0x1 OR SWAP1 SSTORE JUMP JUMPDEST PUSH2 0xA6F PUSH2 0x1023 JUMP JUMPDEST PUSH1 0xA DUP5 SWAP1 SSTORE PUSH1 0xB DUP4 SWAP1 SSTORE PUSH1 0xC DUP3 SWAP1 SSTORE PUSH1 0xD DUP2 SWAP1 SSTORE PUSH1 0x40 DUP1 MLOAD DUP6 DUP2 MSTORE PUSH1 0x20 DUP2 ADD DUP6 SWAP1 MSTORE SWAP1 DUP2 ADD DUP4 SWAP1 MSTORE PUSH1 0x60 DUP2 ADD DUP3 SWAP1 MSTORE PUSH32 0x28A38FF37EA5C05388A99B81090AE2D9A9230D695258AE73BF5765411CB80B8 SWAP1 PUSH1 0x80 ADD PUSH1 0x40 MLOAD DUP1 SWAP2 SUB SWAP1 LOG1 POP POP POP POP JUMP JUMPDEST PUSH2 0xAD9 PUSH2 0x1023 JUMP JUMPDEST PUSH2 0xAE3 PUSH1 0x0 PUSH2 0x128F JUMP JUMPDEST JUMP JUMPDEST PUSH2 0xAF0 DUP3 CALLER DUP4 PUSH2 0x1050 JUMP JUMPDEST PUSH2 0xAFA DUP3 DUP3 PUSH2 0x1259 JUMP JUMPDEST POP POP JUMP JUMPDEST PUSH1 0x1 PUSH1 0x1 PUSH1 0xA0 SHL SUB DUP2 AND PUSH1 0x0 SWAP1 DUP2 MSTORE PUSH1 0x7 PUSH1 0x20 MSTORE PUSH1 0x40 DUP2 KECCAK256 SLOAD PUSH2 0x787 JUMP JUMPDEST PUSH1 0x0 PUSH1 0x60 DUP1 PUSH1 0x0 DUP1 PUSH1 0x0 PUSH1 0x60 PUSH2 0xB30 PUSH2 0x12E1 JUMP JUMPDEST PUSH2 0xB38 PUSH2 0x130E JUMP JUMPDEST PUSH1 0x40 DUP1 MLOAD PUSH1 0x0 DUP1 DUP3 MSTORE PUSH1 0x20 DUP3 ADD SWAP1 SWAP3 MSTORE PUSH1 0xF PUSH1 0xF8 SHL SWAP12 SWAP4 SWAP11 POP SWAP2 SWAP9 POP CHAINID SWAP8 POP ADDRESS SWAP7 POP SWAP5 POP SWAP3 POP SWAP1 POP JUMP JUMPDEST PUSH2 0xB6A PUSH2 0x1023 JUMP JUMPDEST PUSH1 0x16 SLOAD PUSH1 0xFF AND ISZERO PUSH2 0xBBD JUMPI PUSH1 0x40 MLOAD PUSH3 0x461BCD PUSH1 0xE5 SHL DUP2 MSTORE PUSH1 0x20 PUSH1 0x4 DUP3 ADD MSTORE PUSH1 0x17 PUSH1 0x24 DUP3 ADD MSTORE PUSH32 0x54726164696E6720616C726561647920656E61626C6564000000000000000000 PUSH1 0x44 DUP3 ADD MSTORE PUSH1 0x64 ADD PUSH2 0x7B7 JUMP JUMPDEST PUSH1 0x16 DUP1 SLOAD PUSH1 0xFF NOT AND PUSH1 0x1 OR SWAP1 SSTORE NUMBER PUSH1 0x14 DUP2 SWAP1 SSTORE PUSH1 0x40 MLOAD PUSH32 0xB3DA2DB3DFC3778F99852546C6E9AB39EC253F9DE7B0847AFEC61BD27878E923 SWAP2 PUSH2 0xC02 SWAP2 SWAP1 DUP2 MSTORE PUSH1 0x20 ADD SWAP1 JUMP JUMPDEST PUSH1 0x40 MLOAD DUP1 SWAP2 SUB SWAP1 LOG1 JUMP JUMPDEST PUSH1 0x60 PUSH1 0x4 DUP1 SLOAD PUSH2 0x6F0 SWAP1 PUSH2 0x2043 JUMP JUMPDEST PUSH1 0x0 CALLER PUSH2 0x781 DUP2 DUP6 DUP6 PUSH2 0x10CF JUMP JUMPDEST PUSH2 0xC31 PUSH2 0x1023 JUMP JUMPDEST PUSH1 0xE DUP1 SLOAD PUSH1 0xFF NOT AND SWAP1 SSTORE JUMP JUMPDEST PUSH2 0xC45 PUSH2 0x1023 JUMP JUMPDEST ADDRESS PUSH1 0x1 PUSH1 0x1 PUSH1 0xA0 SHL SUB DUP3 AND SUB PUSH2 0xC9D JUMPI PUSH1 0x40 MLOAD PUSH3 0x461BCD PUSH1 0xE5 SHL DUP2 MSTORE PUSH1 0x20 PUSH1 0x4 DUP3 ADD MSTORE PUSH1 0x1A PUSH1 0x24 DUP3 ADD MSTORE PUSH32 0x43616E6E6F74207769746864726177206F776E20746F6B656E73000000000000 PUSH1 0x44 DUP3 ADD MSTORE PUSH1 0x64 ADD PUSH2 0x7B7 JUMP JUMPDEST PUSH1 0x40 MLOAD PUSH4 0x70A08231 PUSH1 0xE0 SHL DUP2 MSTORE ADDRESS PUSH1 0x4 DUP3 ADD MSTORE PUSH1 0x0 SWAP1 PUSH1 0x1 PUSH1 0x1 PUSH1 0xA0 SHL SUB DUP4 AND SWAP1 PUSH4 0x70A08231 SWAP1 PUSH1 0x24 ADD PUSH1 0x20 PUSH1 0x40 MLOAD DUP1 DUP4 SUB DUP2 DUP7 GAS STATICCALL ISZERO DUP1 ISZERO PUSH2 0xCE4 JUMPI RETURNDATASIZE PUSH1 0x0 DUP1 RETURNDATACOPY RETURNDATASIZE PUSH1 0x0 REVERT JUMPDEST POP POP POP POP PUSH1 0x40 MLOAD RETURNDATASIZE PUSH1 0x1F NOT PUSH1 0x1F DUP3 ADD AND DUP3 ADD DUP1 PUSH1 0x40 MSTORE POP DUP2 ADD SWAP1 PUSH2 0xD08 SWAP2 SWAP1 PUSH2 0x20CC JUMP JUMPDEST SWAP1 POP PUSH1 0x0 DUP2 GT PUSH2 0xD52 JUMPI PUSH1 0x40 MLOAD PUSH3 0x461BCD PUSH1 0xE5 SHL DUP2 MSTORE PUSH1 0x20 PUSH1 0x4 DUP3 ADD MSTORE PUSH1 0x15 PUSH1 0x24 DUP3 ADD MSTORE PUSH21 0x4E6F20746F6B656E7320746F207769746864726177 PUSH1 0x58 SHL PUSH1 0x44 DUP3 ADD MSTORE PUSH1 0x64 ADD PUSH2 0x7B7 JUMP JUMPDEST DUP2 PUSH1 0x1 PUSH1 0x1 PUSH1 0xA0 SHL SUB AND PUSH4 0xA9059CBB PUSH2 0xD73 PUSH1 0x8 SLOAD PUSH1 0x1 PUSH1 0x1 PUSH1 0xA0 SHL SUB AND SWAP1 JUMP JUMPDEST PUSH1 0x40 MLOAD PUSH1 0x1 PUSH1 0x1 PUSH1 0xE0 SHL SUB NOT PUSH1 0xE0 DUP5 SWAP1 SHL AND DUP2 MSTORE PUSH1 0x1 PUSH1 0x1 PUSH1 0xA0 SHL SUB SWAP1 SWAP2 AND PUSH1 0x4 DUP3 ADD MSTORE PUSH1 0x24 DUP2 ADD DUP5 SWAP1 MSTORE PUSH1 0x44 ADD PUSH1 0x20 PUSH1 0x40 MLOAD DUP1 DUP4 SUB DUP2 PUSH1 0x0 DUP8 GAS CALL ISZERO DUP1 ISZERO PUSH2 0xDC0 JUMPI RETURNDATASIZE PUSH1 0x0 DUP1 RETURNDATACOPY RETURNDATASIZE PUSH1 0x0 REVERT JUMPDEST POP POP POP POP PUSH1 0x40 MLOAD RETURNDATASIZE PUSH1 0x1F NOT PUSH1 0x1F DUP3 ADD AND DUP3 ADD DUP1 PUSH1 0x40 MSTORE POP DUP2 ADD SWAP1 PUSH2 0xDE4 SWAP2 SWAP1 PUSH2 0x20E5 JUMP JUMPDEST POP POP POP JUMP JUMPDEST PUSH2 0xDF1 PUSH2 0x1023 JUMP JUMPDEST PUSH1 0x1 PUSH1 0x1 PUSH1 0xA0 SHL SUB SWAP2 SWAP1 SWAP2 AND PUSH1 0x0 SWAP1 DUP2 MSTORE PUSH1 0x19 PUSH1 0x20 MSTORE PUSH1 0x40 SWAP1 KECCAK256 DUP1 SLOAD PUSH1 0xFF NOT AND SWAP2 ISZERO ISZERO SWAP2 SWAP1 SWAP2 OR SWAP1 SSTORE JUMP JUMPDEST DUP4 TIMESTAMP GT ISZERO PUSH2 0xE40 JUMPI PUSH1 0x40 MLOAD PUSH4 0x313C8981 PUSH1 0xE1 SHL DUP2 MSTORE PUSH1 0x4 DUP2 ADD DUP6 SWAP1 MSTORE PUSH1 0x24 ADD PUSH2 0x7B7 JUMP JUMPDEST PUSH1 0x0 PUSH32 0x6E71EDAE12B1B97F4D1F60370FEF10105FA2FAAE0126114A169C64845D6126C9 DUP9 DUP9 DUP9 PUSH2 0xE8D DUP13 PUSH1 0x1 PUSH1 0x1 PUSH1 0xA0 SHL SUB AND PUSH1 0x0 SWAP1 DUP2 MSTORE PUSH1 0x7 PUSH1 0x20 MSTORE PUSH1 0x40 SWAP1 KECCAK256 DUP1 SLOAD PUSH1 0x1 DUP2 ADD SWAP1 SWAP2 SSTORE SWAP1 JUMP JUMPDEST PUSH1 0x40 DUP1 MLOAD PUSH1 0x20 DUP2 ADD SWAP7 SWAP1 SWAP7 MSTORE PUSH1 0x1 PUSH1 0x1 PUSH1 0xA0 SHL SUB SWAP5 DUP6 AND SWAP1 DUP7 ADD MSTORE SWAP3 SWAP1 SWAP2 AND PUSH1 0x60 DUP5 ADD MSTORE PUSH1 0x80 DUP4 ADD MSTORE PUSH1 0xA0 DUP3 ADD MSTORE PUSH1 0xC0 DUP2 ADD DUP7 SWAP1 MSTORE PUSH1 0xE0 ADD PUSH1 0x40 MLOAD PUSH1 0x20 DUP2 DUP4 SUB SUB DUP2 MSTORE SWAP1 PUSH1 0x40 MSTORE DUP1 MLOAD SWAP1 PUSH1 0x20 ADD KECCAK256 SWAP1 POP PUSH1 0x0 PUSH2 0xEE8 DUP3 PUSH2 0x133B JUMP JUMPDEST SWAP1 POP PUSH1 0x0 PUSH2 0xEF8 DUP3 DUP8 DUP8 DUP8 PUSH2 0x1368 JUMP JUMPDEST SWAP1 POP DUP10 PUSH1 0x1 PUSH1 0x1 PUSH1 0xA0 SHL SUB AND DUP2 PUSH1 0x1 PUSH1 0x1 PUSH1 0xA0 SHL SUB AND EQ PUSH2 0xF3F JUMPI PUSH1 0x40 MLOAD PUSH4 0x25C00723 PUSH1 0xE1 SHL DUP2 MSTORE PUSH1 0x1 PUSH1 0x1 PUSH1 0xA0 SHL SUB DUP1 DUP4 AND PUSH1 0x4 DUP4 ADD MSTORE DUP12 AND PUSH1 0x24 DUP3 ADD MSTORE PUSH1 0x44 ADD PUSH2 0x7B7 JUMP JUMPDEST PUSH2 0xF4A DUP11 DUP11 DUP11 PUSH2 0x1016 JUMP JUMPDEST POP POP POP POP POP POP POP POP POP POP JUMP JUMPDEST PUSH2 0xF5E PUSH2 0x1023 JUMP JUMPDEST SELFBALANCE DUP1 PUSH2 0xFA1 JUMPI PUSH1 0x40 MLOAD PUSH3 0x461BCD PUSH1 0xE5 SHL DUP2 MSTORE PUSH1 0x20 PUSH1 0x4 DUP3 ADD MSTORE PUSH1 0x12 PUSH1 0x24 DUP3 ADD MSTORE PUSH18 0x4E6F2045544820746F207769746864726177 PUSH1 0x70 SHL PUSH1 0x44 DUP3 ADD MSTORE PUSH1 0x64 ADD PUSH2 0x7B7 JUMP JUMPDEST PUSH1 0x8 SLOAD PUSH1 0x40 MLOAD PUSH1 0x1 PUSH1 0x1 PUSH1 0xA0 SHL SUB SWAP1 SWAP2 AND SWAP1 DUP3 ISZERO PUSH2 0x8FC MUL SWAP1 DUP4 SWAP1 PUSH1 0x0 DUP2 DUP2 DUP2 DUP6 DUP9 DUP9 CALL SWAP4 POP POP POP POP ISZERO DUP1 ISZERO PUSH2 0xAFA JUMPI RETURNDATASIZE PUSH1 0x0 DUP1 RETURNDATACOPY RETURNDATASIZE PUSH1 0x0 REVERT JUMPDEST PUSH2 0xFE3 PUSH2 0x1023 JUMP JUMPDEST PUSH1 0x1 PUSH1 0x1 PUSH1 0xA0 SHL SUB DUP2 AND PUSH2 0x100D JUMPI PUSH1 0x40 MLOAD PUSH4 0x1E4FBDF7 PUSH1 0xE0 SHL DUP2 MSTORE PUSH1 0x0 PUSH1 0x4 DUP3 ADD MSTORE PUSH1 0x24 ADD PUSH2 0x7B7 JUMP JUMPDEST PUSH2 0x9B9 DUP2 PUSH2 0x128F JUMP JUMPDEST PUSH2 0xDE4 DUP4 DUP4 DUP4 PUSH1 0x1 PUSH2 0x1396 JUMP JUMPDEST PUSH1 0x8 SLOAD PUSH1 0x1 PUSH1 0x1 PUSH1 0xA0 SHL SUB AND CALLER EQ PUSH2 0xAE3 JUMPI PUSH1 0x40 MLOAD PUSH4 0x118CDAA7 PUSH1 0xE0 SHL DUP2 MSTORE CALLER PUSH1 0x4 DUP3 ADD MSTORE PUSH1 0x24 ADD PUSH2 0x7B7 JUMP JUMPDEST PUSH1 0x1 PUSH1 0x1 PUSH1 0xA0 SHL SUB DUP4 DUP2 AND PUSH1 0x0 SWAP1 DUP2 MSTORE PUSH1 0x1 PUSH1 0x20 SWAP1 DUP2 MSTORE PUSH1 0x40 DUP1 DUP4 KECCAK256 SWAP4 DUP7 AND DUP4 MSTORE SWAP3 SWAP1 MSTORE KECCAK256 SLOAD PUSH1 0x0 NOT DUP2 LT ISZERO PUSH2 0x10C9 JUMPI DUP2 DUP2 LT ISZERO PUSH2 0x10BA JUMPI PUSH1 0x40 MLOAD PUSH4 0x7DC7A0D9 PUSH1 0xE1 SHL DUP2 MSTORE PUSH1 0x1 PUSH1 0x1 PUSH1 0xA0 SHL SUB DUP5 AND PUSH1 0x4 DUP3 ADD MSTORE PUSH1 0x24 DUP2 ADD DUP3 SWAP1 MSTORE PUSH1 0x44 DUP2 ADD DUP4 SWAP1 MSTORE PUSH1 0x64 ADD PUSH2 0x7B7 JUMP JUMPDEST PUSH2 0x10C9 DUP5 DUP5 DUP5 DUP5 SUB PUSH1 0x0 PUSH2 0x1396 JUMP JUMPDEST POP POP POP POP JUMP JUMPDEST PUSH1 0x1 PUSH1 0x1 PUSH1 0xA0 SHL SUB DUP4 AND PUSH2 0x10F9 JUMPI PUSH1 0x40 MLOAD PUSH4 0x4B637E8F PUSH1 0xE1 SHL DUP2 MSTORE PUSH1 0x0 PUSH1 0x4 DUP3 ADD MSTORE PUSH1 0x24 ADD PUSH2 0x7B7 JUMP JUMPDEST PUSH1 0x1 PUSH1 0x1 PUSH1 0xA0 SHL SUB DUP3 AND PUSH2 0x1123 JUMPI PUSH1 0x40 MLOAD PUSH4 0xEC442F05 PUSH1 0xE0 SHL DUP2 MSTORE PUSH1 0x0 PUSH1 0x4 DUP3 ADD MSTORE PUSH1 0x24 ADD PUSH2 0x7B7 JUMP JUMPDEST PUSH2 0xDE4 DUP4 DUP4 DUP4 PUSH2 0x146B JUMP JUMPDEST PUSH1 0x0 ADDRESS PUSH1 0x1 PUSH1 0x1 PUSH1 0xA0 SHL SUB PUSH32 0x0 AND EQ DUP1 ISZERO PUSH2 0x1187 JUMPI POP PUSH32 0x0 CHAINID EQ JUMPDEST ISZERO PUSH2 0x11B1 JUMPI POP PUSH32 0x0 SWAP1 JUMP JUMPDEST PUSH2 0x9AA PUSH1 0x40 DUP1 MLOAD PUSH32 0x8B73C3C69BB8FE3D512ECC4CF759CC79239F7B179B0FFACAA9A75D522B39400F PUSH1 0x20 DUP3 ADD MSTORE PUSH32 0x0 SWAP2 DUP2 ADD SWAP2 SWAP1 SWAP2 MSTORE PUSH32 0x0 PUSH1 0x60 DUP3 ADD MSTORE CHAINID PUSH1 0x80 DUP3 ADD MSTORE ADDRESS PUSH1 0xA0 DUP3 ADD MSTORE PUSH1 0x0 SWAP1 PUSH1 0xC0 ADD PUSH1 0x40 MLOAD PUSH1 0x20 DUP2 DUP4 SUB SUB DUP2 MSTORE SWAP1 PUSH1 0x40 MSTORE DUP1 MLOAD SWAP1 PUSH1 0x20 ADD KECCAK256 SWAP1 POP SWAP1 JUMP JUMPDEST PUSH1 0x1 PUSH1 0x1 PUSH1 0xA0 SHL SUB DUP3 AND PUSH2 0x1283 JUMPI PUSH1 0x40 MLOAD PUSH4 0x4B637E8F PUSH1 0xE1 SHL DUP2 MSTORE PUSH1 0x0 PUSH1 0x4 DUP3 ADD MSTORE PUSH1 0x24 ADD PUSH2 0x7B7 JUMP JUMPDEST PUSH2 0xAFA DUP3 PUSH1 0x0 DUP4 PUSH2 0x146B JUMP JUMPDEST PUSH1 0x8 DUP1 SLOAD PUSH1 0x1 PUSH1 0x1 PUSH1 0xA0 SHL SUB DUP4 DUP2 AND PUSH1 0x1 PUSH1 0x1 PUSH1 0xA0 SHL SUB NOT DUP4 AND DUP2 OR SWAP1 SWAP4 SSTORE PUSH1 0x40 MLOAD SWAP2 AND SWAP2 SWAP1 DUP3 SWAP1 PUSH32 0x8BE0079C531659141344CD1FD0A4F28419497F9722A3DAAFE3B4186F6B6457E0 SWAP1 PUSH1 0x0 SWAP1 LOG3 POP POP JUMP JUMPDEST PUSH1 0x60 PUSH2 0x9AA PUSH32 0x0 PUSH1 0x5 PUSH2 0x1911 JUMP JUMPDEST PUSH1 0x60 PUSH2 0x9AA PUSH32 0x0 PUSH1 0x6 PUSH2 0x1911 JUMP JUMPDEST PUSH1 0x0 PUSH2 0x787 PUSH2 0x1348 PUSH2 0x112E JUMP JUMPDEST DUP4 PUSH1 0x40 MLOAD PUSH2 0x1901 PUSH1 0xF0 SHL DUP2 MSTORE PUSH1 0x2 DUP2 ADD SWAP3 SWAP1 SWAP3 MSTORE PUSH1 0x22 DUP3 ADD MSTORE PUSH1 0x42 SWAP1 KECCAK256 SWAP1 JUMP JUMPDEST PUSH1 0x0 DUP1 PUSH1 0x0 DUP1 PUSH2 0x137A DUP9 DUP9 DUP9 DUP9 PUSH2 0x19BC JUMP JUMPDEST SWAP3 POP SWAP3 POP SWAP3 POP PUSH2 0x138A DUP3 DUP3 PUSH2 0x1A8B JUMP JUMPDEST POP SWAP1 SWAP7 SWAP6 POP POP POP POP POP POP JUMP JUMPDEST PUSH1 0x1 PUSH1 0x1 PUSH1 0xA0 SHL SUB DUP5 AND PUSH2 0x13C0 JUMPI PUSH1 0x40 MLOAD PUSH4 0xE602DF05 PUSH1 0xE0 SHL DUP2 MSTORE PUSH1 0x0 PUSH1 0x4 DUP3 ADD MSTORE PUSH1 0x24 ADD PUSH2 0x7B7 JUMP JUMPDEST PUSH1 0x1 PUSH1 0x1 PUSH1 0xA0 SHL SUB DUP4 AND PUSH2 0x13EA JUMPI PUSH1 0x40 MLOAD PUSH4 0x4A1406B1 PUSH1 0xE1 SHL DUP2 MSTORE PUSH1 0x0 PUSH1 0x4 DUP3 ADD MSTORE PUSH1 0x24 ADD PUSH2 0x7B7 JUMP JUMPDEST PUSH1 0x1 PUSH1 0x1 PUSH1 0xA0 SHL SUB DUP1 DUP6 AND PUSH1 0x0 SWAP1 DUP2 MSTORE PUSH1 0x1 PUSH1 0x20 SWAP1 DUP2 MSTORE PUSH1 0x40 DUP1 DUP4 KECCAK256 SWAP4 DUP8 AND DUP4 MSTORE SWAP3 SWAP1 MSTORE KECCAK256 DUP3 SWAP1 SSTORE DUP1 ISZERO PUSH2 0x10C9 JUMPI DUP3 PUSH1 0x1 PUSH1 0x1 PUSH1 0xA0 SHL SUB AND DUP5 PUSH1 0x1 PUSH1 0x1 PUSH1 0xA0 SHL SUB AND PUSH32 0x8C5BE1E5EBEC7D5BD14F71427D1E84F3DD0314C0F7B2291E5B200AC8C7C3B925 DUP5 PUSH1 0x40 MLOAD PUSH2 0x145D SWAP2 DUP2 MSTORE PUSH1 0x20 ADD SWAP1 JUMP JUMPDEST PUSH1 0x40 MLOAD DUP1 SWAP2 SUB SWAP1 LOG3 POP POP POP POP JUMP JUMPDEST PUSH1 0x16 SLOAD PUSH1 0xFF AND DUP1 PUSH2 0x1486 JUMPI POP PUSH1 0x8 SLOAD PUSH1 0x1 PUSH1 0x1 PUSH1 0xA0 SHL SUB AND CALLER EQ JUMPDEST PUSH2 0x14C8 JUMPI PUSH1 0x40 MLOAD PUSH3 0x461BCD PUSH1 0xE5 SHL DUP2 MSTORE PUSH1 0x20 PUSH1 0x4 DUP3 ADD MSTORE PUSH1 0x13 PUSH1 0x24 DUP3 ADD MSTORE PUSH19 0x151C98591A5B99C81B9BDD08195B98589B1959 PUSH1 0x6A SHL PUSH1 0x44 DUP3 ADD MSTORE PUSH1 0x64 ADD PUSH2 0x7B7 JUMP JUMPDEST PUSH1 0x1 PUSH1 0x1 PUSH1 0xA0 SHL SUB DUP4 AND PUSH1 0x0 SWAP1 DUP2 MSTORE PUSH1 0x1A PUSH1 0x20 MSTORE PUSH1 0x40 SWAP1 KECCAK256 SLOAD PUSH1 0xFF AND ISZERO DUP1 ISZERO PUSH2 0x150A JUMPI POP PUSH1 0x1 PUSH1 0x1 PUSH1 0xA0 SHL SUB DUP3 AND PUSH1 0x0 SWAP1 DUP2 MSTORE PUSH1 0x1A PUSH1 0x20 MSTORE PUSH1 0x40 SWAP1 KECCAK256 SLOAD PUSH1 0xFF AND ISZERO JUMPDEST PUSH2 0x1544 JUMPI PUSH1 0x40 MLOAD PUSH3 0x461BCD PUSH1 0xE5 SHL DUP2 MSTORE PUSH1 0x20 PUSH1 0x4 DUP3 ADD MSTORE PUSH1 0xB PUSH1 0x24 DUP3 ADD MSTORE PUSH11 0x109B1858DADB1A5CDD1959 PUSH1 0xAA SHL PUSH1 0x44 DUP3 ADD MSTORE PUSH1 0x64 ADD PUSH2 0x7B7 JUMP JUMPDEST PUSH1 0xE SLOAD PUSH1 0xFF AND DUP1 ISZERO PUSH2 0x1564 JUMPI POP PUSH1 0x8 SLOAD PUSH1 0x1 PUSH1 0x1 PUSH1 0xA0 SHL SUB DUP5 DUP2 AND SWAP2 AND EQ ISZERO JUMPDEST DUP1 ISZERO PUSH2 0x157E JUMPI POP PUSH1 0x8 SLOAD PUSH1 0x1 PUSH1 0x1 PUSH1 0xA0 SHL SUB DUP4 DUP2 AND SWAP2 AND EQ ISZERO JUMPDEST ISZERO PUSH2 0x17B8 JUMPI PUSH1 0x0 PUSH1 0x14 SLOAD GT DUP1 ISZERO PUSH2 0x15A4 JUMPI POP PUSH1 0xD SLOAD PUSH1 0x14 SLOAD PUSH2 0x15A0 SWAP2 SWAP1 PUSH2 0x20B9 JUMP JUMPDEST NUMBER GT ISZERO JUMPDEST ISZERO PUSH2 0x1616 JUMPI PUSH1 0x8 SLOAD PUSH1 0x1 PUSH1 0x1 PUSH1 0xA0 SHL SUB DUP4 DUP2 AND SWAP2 AND EQ DUP1 PUSH2 0x15D2 JUMPI POP PUSH1 0x8 SLOAD PUSH1 0x1 PUSH1 0x1 PUSH1 0xA0 SHL SUB DUP5 DUP2 AND SWAP2 AND EQ JUMPDEST PUSH2 0x1616 JUMPI PUSH1 0x40 MLOAD PUSH3 0x461BCD PUSH1 0xE5 SHL DUP2 MSTORE PUSH1 0x20 PUSH1 0x4 DUP3 ADD MSTORE PUSH1 0x15 PUSH1 0x24 DUP3 ADD MSTORE PUSH21 0x20B73A3496B9B734B83290383937BA32B1BA34B7B7 PUSH1 0x59 SHL PUSH1 0x44 DUP3 ADD MSTORE PUSH1 0x64 ADD PUSH2 0x7B7 JUMP JUMPDEST PUSH1 0x11 SLOAD PUSH1 0x1 PUSH1 0x1 PUSH1 0xA0 SHL SUB DUP5 DUP2 AND SWAP2 AND EQ DUP1 ISZERO PUSH2 0x163C JUMPI POP PUSH1 0x1 PUSH1 0x1 PUSH1 0xA0 SHL SUB DUP3 AND ADDRESS EQ ISZERO JUMPDEST ISZERO PUSH2 0x17B8 JUMPI PUSH1 0xB SLOAD DUP2 GT ISZERO PUSH2 0x168C JUMPI PUSH1 0x40 MLOAD PUSH3 0x461BCD PUSH1 0xE5 SHL DUP2 MSTORE PUSH1 0x20 PUSH1 0x4 DUP3 ADD MSTORE PUSH1 0x16 PUSH1 0x24 DUP3 ADD MSTORE PUSH22 0x8AF0C6CACAC8E640DAC2F040C4EAF240E0CAE440E8F PUSH1 0x53 SHL PUSH1 0x44 DUP3 ADD MSTORE PUSH1 0x64 ADD PUSH2 0x7B7 JUMP JUMPDEST PUSH1 0xA SLOAD PUSH1 0x1 PUSH1 0x1 PUSH1 0xA0 SHL SUB DUP4 AND PUSH1 0x0 SWAP1 DUP2 MSTORE PUSH1 0x18 PUSH1 0x20 MSTORE PUSH1 0x40 SWAP1 KECCAK256 SLOAD PUSH2 0x16B3 SWAP1 DUP4 SWAP1 PUSH2 0x20B9 JUMP JUMPDEST GT ISZERO PUSH2 0x1701 JUMPI PUSH1 0x40 MLOAD PUSH3 0x461BCD PUSH1 0xE5 SHL DUP2 MSTORE PUSH1 0x20 PUSH1 0x4 DUP3 ADD MSTORE PUSH1 0x1A PUSH1 0x24 DUP3 ADD MSTORE PUSH32 0x45786365656473206D617820627579207065722077616C6C6574000000000000 PUSH1 0x44 DUP3 ADD MSTORE PUSH1 0x64 ADD PUSH2 0x7B7 JUMP JUMPDEST PUSH1 0xC SLOAD PUSH1 0x1 PUSH1 0x1 PUSH1 0xA0 SHL SUB DUP4 AND PUSH1 0x0 SWAP1 DUP2 MSTORE PUSH1 0x17 PUSH1 0x20 MSTORE PUSH1 0x40 SWAP1 KECCAK256 SLOAD PUSH2 0x1727 SWAP2 SWAP1 PUSH2 0x20B9 JUMP JUMPDEST TIMESTAMP LT ISZERO PUSH2 0x176F JUMPI PUSH1 0x40 MLOAD PUSH3 0x461BCD PUSH1 0xE5 SHL DUP2 MSTORE PUSH1 0x20 PUSH1 0x4 DUP3 ADD MSTORE PUSH1 0x16 PUSH1 0x24 DUP3 ADD MSTORE PUSH22 0x436F6F6C646F776E20706572696F6420616374697665 PUSH1 0x50 SHL PUSH1 0x44 DUP3 ADD MSTORE PUSH1 0x64 ADD PUSH2 0x7B7 JUMP JUMPDEST PUSH1 0x1 PUSH1 0x1 PUSH1 0xA0 SHL SUB DUP3 AND PUSH1 0x0 SWAP1 DUP2 MSTORE PUSH1 0x18 PUSH1 0x20 MSTORE PUSH1 0x40 DUP2 KECCAK256 DUP1 SLOAD DUP4 SWAP3 SWAP1 PUSH2 0x1797 SWAP1 DUP5 SWAP1 PUSH2 0x20B9 JUMP JUMPDEST SWAP1 SWAP2 SSTORE POP POP PUSH1 0x1 PUSH1 0x1 PUSH1 0xA0 SHL SUB DUP3 AND PUSH1 0x0 SWAP1 DUP2 MSTORE PUSH1 0x17 PUSH1 0x20 MSTORE PUSH1 0x40 SWAP1 KECCAK256 TIMESTAMP SWAP1 SSTORE JUMPDEST PUSH1 0x1 PUSH1 0x1 PUSH1 0xA0 SHL SUB DUP4 AND PUSH1 0x0 SWAP1 DUP2 MSTORE PUSH1 0x19 PUSH1 0x20 MSTORE PUSH1 0x40 DUP2 KECCAK256 SLOAD DUP2 SWAP1 DUP2 SWAP1 PUSH1 0xFF AND ISZERO DUP1 ISZERO PUSH2 0x17FE JUMPI POP PUSH1 0x1 PUSH1 0x1 PUSH1 0xA0 SHL SUB DUP6 AND PUSH1 0x0 SWAP1 DUP2 MSTORE PUSH1 0x19 PUSH1 0x20 MSTORE PUSH1 0x40 SWAP1 KECCAK256 SLOAD PUSH1 0xFF AND ISZERO JUMPDEST ISZERO PUSH2 0x189C JUMPI PUSH1 0x15 SLOAD ISZERO PUSH2 0x1829 JUMPI PUSH2 0x2710 PUSH1 0x15 SLOAD DUP6 PUSH2 0x181C SWAP2 SWAP1 PUSH2 0x2102 JUMP JUMPDEST PUSH2 0x1826 SWAP2 SWAP1 PUSH2 0x2119 JUMP JUMPDEST SWAP3 POP JUMPDEST PUSH1 0x11 SLOAD PUSH1 0x1 PUSH1 0xA0 SHL SWAP1 DIV PUSH1 0xFF AND DUP1 ISZERO PUSH2 0x1843 JUMPI POP PUSH1 0xF SLOAD ISZERO ISZERO JUMPDEST ISZERO PUSH2 0x1866 JUMPI PUSH1 0xF SLOAD PUSH2 0x2710 SWAP1 PUSH2 0x1859 SWAP1 DUP7 PUSH2 0x2102 JUMP JUMPDEST PUSH2 0x1863 SWAP2 SWAP1 PUSH2 0x2119 JUMP JUMPDEST SWAP2 POP JUMPDEST PUSH1 0x13 SLOAD PUSH1 0xFF AND DUP1 ISZERO PUSH2 0x1879 JUMPI POP PUSH1 0x12 SLOAD ISZERO ISZERO JUMPDEST ISZERO PUSH2 0x189C JUMPI PUSH1 0x12 SLOAD PUSH2 0x2710 SWAP1 PUSH2 0x188F SWAP1 DUP7 PUSH2 0x2102 JUMP JUMPDEST PUSH2 0x1899 SWAP2 SWAP1 PUSH2 0x2119 JUMP JUMPDEST SWAP1 POP JUMPDEST PUSH1 0x0 DUP2 DUP4 PUSH2 0x18AA DUP7 DUP9 PUSH2 0x213B JUMP JUMPDEST PUSH2 0x18B4 SWAP2 SWAP1 PUSH2 0x213B JUMP JUMPDEST PUSH2 0x18BE SWAP2 SWAP1 PUSH2 0x213B JUMP JUMPDEST SWAP1 POP DUP4 ISZERO PUSH2 0x18D2 JUMPI PUSH2 0x18D2 DUP8 PUSH1 0x0 DUP7 PUSH2 0x1B44 JUMP JUMPDEST DUP3 ISZERO PUSH2 0x18E3 JUMPI PUSH2 0x18E3 DUP8 ADDRESS DUP6 PUSH2 0x1B44 JUMP JUMPDEST DUP2 ISZERO PUSH2 0x18FD JUMPI PUSH2 0x18F2 DUP3 PUSH2 0x1C6E JUMP JUMPDEST PUSH2 0x18FD DUP8 ADDRESS DUP5 PUSH2 0x1B44 JUMP JUMPDEST PUSH2 0x1908 DUP8 DUP8 DUP4 PUSH2 0x1B44 JUMP JUMPDEST POP POP POP POP POP POP POP JUMP JUMPDEST PUSH1 0x60 PUSH1 0xFF DUP4 EQ PUSH2 0x192B JUMPI PUSH2 0x1924 DUP4 PUSH2 0x1CBB JUMP JUMPDEST SWAP1 POP PUSH2 0x787 JUMP JUMPDEST DUP2 DUP1 SLOAD PUSH2 0x1937 SWAP1 PUSH2 0x2043 JUMP JUMPDEST DUP1 PUSH1 0x1F ADD PUSH1 0x20 DUP1 SWAP2 DIV MUL PUSH1 0x20 ADD PUSH1 0x40 MLOAD SWAP1 DUP2 ADD PUSH1 0x40 MSTORE DUP1 SWAP3 SWAP2 SWAP1 DUP2 DUP2 MSTORE PUSH1 0x20 ADD DUP3 DUP1 SLOAD PUSH2 0x1963 SWAP1 PUSH2 0x2043 JUMP JUMPDEST DUP1 ISZERO PUSH2 0x19B0 JUMPI DUP1 PUSH1 0x1F LT PUSH2 0x1985 JUMPI PUSH2 0x100 DUP1 DUP4 SLOAD DIV MUL DUP4 MSTORE SWAP2 PUSH1 0x20 ADD SWAP2 PUSH2 0x19B0 JUMP JUMPDEST DUP3 ADD SWAP2 SWAP1 PUSH1 0x0 MSTORE PUSH1 0x20 PUSH1 0x0 KECCAK256 SWAP1 JUMPDEST DUP2 SLOAD DUP2 MSTORE SWAP1 PUSH1 0x1 ADD SWAP1 PUSH1 0x20 ADD DUP1 DUP4 GT PUSH2 0x1993 JUMPI DUP3 SWAP1 SUB PUSH1 0x1F AND DUP3 ADD SWAP2 JUMPDEST POP POP POP POP POP SWAP1 POP PUSH2 0x787 JUMP JUMPDEST PUSH1 0x0 DUP1 DUP1 PUSH32 0x7FFFFFFFFFFFFFFFFFFFFFFFFFFFFFFF5D576E7357A4501DDFE92F46681B20A0 DUP5 GT ISZERO PUSH2 0x19F7 JUMPI POP PUSH1 0x0 SWAP2 POP PUSH1 0x3 SWAP1 POP DUP3 PUSH2 0x1A81 JUMP JUMPDEST PUSH1 0x40 DUP1 MLOAD PUSH1 0x0 DUP1 DUP3 MSTORE PUSH1 0x20 DUP3 ADD DUP1 DUP5 MSTORE DUP11 SWAP1 MSTORE PUSH1 0xFF DUP10 AND SWAP3 DUP3 ADD SWAP3 SWAP1 SWAP3 MSTORE PUSH1 0x60 DUP2 ADD DUP8 SWAP1 MSTORE PUSH1 0x80 DUP2 ADD DUP7 SWAP1 MSTORE PUSH1 0x1 SWAP1 PUSH1 0xA0 ADD PUSH1 0x20 PUSH1 0x40 MLOAD PUSH1 0x20 DUP2 SUB SWAP1 DUP1 DUP5 SUB SWAP1 DUP6 GAS STATICCALL ISZERO DUP1 ISZERO PUSH2 0x1A4B JUMPI RETURNDATASIZE PUSH1 0x0 DUP1 RETURNDATACOPY RETURNDATASIZE PUSH1 0x0 REVERT JUMPDEST POP POP PUSH1 0x40 MLOAD PUSH1 0x1F NOT ADD MLOAD SWAP2 POP POP PUSH1 0x1 PUSH1 0x1 PUSH1 0xA0 SHL SUB DUP2 AND PUSH2 0x1A77 JUMPI POP PUSH1 0x0 SWAP3 POP PUSH1 0x1 SWAP2 POP DUP3 SWAP1 POP PUSH2 0x1A81 JUMP JUMPDEST SWAP3 POP PUSH1 0x0 SWAP2 POP DUP2 SWAP1 POP JUMPDEST SWAP5 POP SWAP5 POP SWAP5 SWAP2 POP POP JUMP JUMPDEST PUSH1 0x0 DUP3 PUSH1 0x3 DUP2 GT ISZERO PUSH2 0x1A9F JUMPI PUSH2 0x1A9F PUSH2 0x214E JUMP JUMPDEST SUB PUSH2 0x1AA8 JUMPI POP POP JUMP JUMPDEST PUSH1 0x1 DUP3 PUSH1 0x3 DUP2 GT ISZERO PUSH2 0x1ABC JUMPI PUSH2 0x1ABC PUSH2 0x214E JUMP JUMPDEST SUB PUSH2 0x1ADA JUMPI PUSH1 0x40 MLOAD PUSH4 0xF645EEDF PUSH1 0xE0 SHL DUP2 MSTORE PUSH1 0x4 ADD PUSH1 0x40 MLOAD DUP1 SWAP2 SUB SWAP1 REVERT JUMPDEST PUSH1 0x2 DUP3 PUSH1 0x3 DUP2 GT ISZERO PUSH2 0x1AEE JUMPI PUSH2 0x1AEE PUSH2 0x214E JUMP JUMPDEST SUB PUSH2 0x1B0F JUMPI PUSH1 0x40 MLOAD PUSH4 0xFCE698F7 PUSH1 0xE0 SHL DUP2 MSTORE PUSH1 0x4 DUP2 ADD DUP3 SWAP1 MSTORE PUSH1 0x24 ADD PUSH2 0x7B7 JUMP JUMPDEST PUSH1 0x3 DUP3 PUSH1 0x3 DUP2 GT ISZERO PUSH2 0x1B23 JUMPI PUSH2 0x1B23 PUSH2 0x214E JUMP JUMPDEST SUB PUSH2 0xAFA JUMPI PUSH1 0x40 MLOAD PUSH4 0x35E2F383 PUSH1 0xE2 SHL DUP2 MSTORE PUSH1 0x4 DUP2 ADD DUP3 SWAP1 MSTORE PUSH1 0x24 ADD PUSH2 0x7B7 JUMP JUMPDEST PUSH1 0x1 PUSH1 0x1 PUSH1 0xA0 SHL SUB DUP4 AND PUSH2 0x1B6F JUMPI DUP1 PUSH1 0x2 PUSH1 0x0 DUP3 DUP3 SLOAD PUSH2 0x1B64 SWAP2 SWAP1 PUSH2 0x20B9 JUMP JUMPDEST SWAP1 SWAP2 SSTORE POP PUSH2 0x1BE1 SWAP1 POP JUMP JUMPDEST PUSH1 0x1 PUSH1 0x1 PUSH1 0xA0 SHL SUB DUP4 AND PUSH1 0x0 SWAP1 DUP2 MSTORE PUSH1 0x20 DUP2 SWAP1 MSTORE PUSH1 0x40 SWAP1 KECCAK256 SLOAD DUP2 DUP2 LT ISZERO PUSH2 0x1BC2 JUMPI PUSH1 0x40 MLOAD PUSH4 0x391434E3 PUSH1 0xE2 SHL DUP2 MSTORE PUSH1 0x1 PUSH1 0x1 PUSH1 0xA0 SHL SUB DUP6 AND PUSH1 0x4 DUP3 ADD MSTORE PUSH1 0x24 DUP2 ADD DUP3 SWAP1 MSTORE PUSH1 0x44 DUP2 ADD DUP4 SWAP1 MSTORE PUSH1 0x64 ADD PUSH2 0x7B7 JUMP JUMPDEST PUSH1 0x1 PUSH1 0x1 PUSH1 0xA0 SHL SUB DUP5 AND PUSH1 0x0 SWAP1 DUP2 MSTORE PUSH1 0x20 DUP2 SWAP1 MSTORE PUSH1 0x40 SWAP1 KECCAK256 SWAP1 DUP3 SWAP1 SUB SWAP1 SSTORE JUMPDEST PUSH1 0x1 PUSH1 0x1 PUSH1 0xA0 SHL SUB DUP3 AND PUSH2 0x1BFD JUMPI PUSH1 0x2 DUP1 SLOAD DUP3 SWAP1 SUB SWAP1 SSTORE PUSH2 0x1C1C JUMP JUMPDEST PUSH1 0x1 PUSH1 0x1 PUSH1 0xA0 SHL SUB DUP3 AND PUSH1 0x0 SWAP1 DUP2 MSTORE PUSH1 0x20 DUP2 SWAP1 MSTORE PUSH1 0x40 SWAP1 KECCAK256 DUP1 SLOAD DUP3 ADD SWAP1 SSTORE JUMPDEST DUP2 PUSH1 0x1 PUSH1 0x1 PUSH1 0xA0 SHL SUB AND DUP4 PUSH1 0x1 PUSH1 0x1 PUSH1 0xA0 SHL SUB AND PUSH32 0xDDF252AD1BE2C89B69C2B068FC378DAA952BA7F163C4A11628F55A4DF523B3EF DUP4 PUSH1 0x40 MLOAD PUSH2 0x1C61 SWAP2 DUP2 MSTORE PUSH1 0x20 ADD SWAP1 JUMP JUMPDEST PUSH1 0x40 MLOAD DUP1 SWAP2 SUB SWAP1 LOG3 POP POP POP JUMP JUMPDEST DUP1 PUSH1 0x1B PUSH1 0x0 DUP3 DUP3 SLOAD PUSH2 0x1C80 SWAP2 SWAP1 PUSH2 0x20B9 JUMP JUMPDEST SWAP1 SWAP2 SSTORE POP POP PUSH1 0x40 MLOAD DUP2 DUP2 MSTORE PUSH32 0x3EEB9763473A030C467B8F096A99E1825A88C6A821C131E1FBB007246A80359C SWAP1 PUSH1 0x20 ADD PUSH1 0x40 MLOAD DUP1 SWAP2 SUB SWAP1 LOG1 POP JUMP JUMPDEST PUSH1 0x60 PUSH1 0x0 PUSH2 0x1CC8 DUP4 PUSH2 0x1CFA JUMP JUMPDEST PUSH1 0x40 DUP1 MLOAD PUSH1 0x20 DUP1 DUP3 MSTORE DUP2 DUP4 ADD SWAP1 SWAP3 MSTORE SWAP2 SWAP3 POP PUSH1 0x0 SWAP2 SWAP1 PUSH1 0x20 DUP3 ADD DUP2 DUP1 CALLDATASIZE DUP4 CALLDATACOPY POP POP POP SWAP2 DUP3 MSTORE POP PUSH1 0x20 DUP2 ADD SWAP3 SWAP1 SWAP3 MSTORE POP SWAP1 JUMP JUMPDEST PUSH1 0x0 PUSH1 0xFF DUP3 AND PUSH1 0x1F DUP2 GT ISZERO PUSH2 0x787 JUMPI PUSH1 0x40 MLOAD PUSH4 0x2CD44AC3 PUSH1 0xE2 SHL DUP2 MSTORE PUSH1 0x4 ADD PUSH1 0x40 MLOAD DUP1 SWAP2 SUB SWAP1 REVERT JUMPDEST PUSH1 0x0 DUP2 MLOAD DUP1 DUP5 MSTORE PUSH1 0x0 JUMPDEST DUP2 DUP2 LT ISZERO PUSH2 0x1D48 JUMPI PUSH1 0x20 DUP2 DUP6 ADD DUP2 ADD MLOAD DUP7 DUP4 ADD DUP3 ADD MSTORE ADD PUSH2 0x1D2C JUMP JUMPDEST POP PUSH1 0x0 PUSH1 0x20 DUP3 DUP7 ADD ADD MSTORE PUSH1 0x20 PUSH1 0x1F NOT PUSH1 0x1F DUP4 ADD AND DUP6 ADD ADD SWAP2 POP POP SWAP3 SWAP2 POP POP JUMP JUMPDEST PUSH1 0x20 DUP2 MSTORE PUSH1 0x0 PUSH2 0x1D7B PUSH1 0x20 DUP4 ADD DUP5 PUSH2 0x1D22 JUMP JUMPDEST SWAP4 SWAP3 POP POP POP JUMP JUMPDEST DUP1 CALLDATALOAD PUSH1 0x1 PUSH1 0x1 PUSH1 0xA0 SHL SUB DUP2 AND DUP2 EQ PUSH2 0x1D99 JUMPI PUSH1 0x0 DUP1 REVERT JUMPDEST SWAP2 SWAP1 POP JUMP JUMPDEST PUSH1 0x0 DUP1 PUSH1 0x40 DUP4 DUP6 SUB SLT ISZERO PUSH2 0x1DB1 JUMPI PUSH1 0x0 DUP1 REVERT JUMPDEST PUSH2 0x1DBA DUP4 PUSH2 0x1D82 JUMP JUMPDEST SWAP5 PUSH1 0x20 SWAP4 SWAP1 SWAP4 ADD CALLDATALOAD SWAP4 POP POP POP JUMP JUMPDEST PUSH1 0x0 DUP1 PUSH1 0x0 PUSH1 0x60 DUP5 DUP7 SUB SLT ISZERO PUSH2 0x1DDD JUMPI PUSH1 0x0 DUP1 REVERT JUMPDEST DUP4 CALLDATALOAD SWAP3 POP PUSH1 0x20 DUP5 ADD CALLDATALOAD SWAP2 POP PUSH2 0x1DF4 PUSH1 0x40 DUP6 ADD PUSH2 0x1D82 JUMP JUMPDEST SWAP1 POP SWAP3 POP SWAP3 POP SWAP3 JUMP JUMPDEST DUP1 ISZERO ISZERO DUP2 EQ PUSH2 0x9B9 JUMPI PUSH1 0x0 DUP1 REVERT JUMPDEST PUSH1 0x0 DUP1 PUSH1 0x40 DUP4 DUP6 SUB SLT ISZERO PUSH2 0x1E1E JUMPI PUSH1 0x0 DUP1 REVERT JUMPDEST PUSH2 0x1E27 DUP4 PUSH2 0x1D82 JUMP JUMPDEST SWAP2 POP PUSH1 0x20 DUP4 ADD CALLDATALOAD PUSH2 0x1E37 DUP2 PUSH2 0x1DFD JUMP JUMPDEST DUP1 SWAP2 POP POP SWAP3 POP SWAP3 SWAP1 POP JUMP JUMPDEST PUSH1 0x0 PUSH1 0x20 DUP3 DUP5 SUB SLT ISZERO PUSH2 0x1E54 JUMPI PUSH1 0x0 DUP1 REVERT JUMPDEST PUSH2 0x1D7B DUP3 PUSH2 0x1D82 JUMP JUMPDEST PUSH1 0x0 DUP1 PUSH1 0x0 PUSH1 0x60 DUP5 DUP7 SUB SLT ISZERO PUSH2 0x1E72 JUMPI PUSH1 0x0 DUP1 REVERT JUMPDEST PUSH2 0x1E7B DUP5 PUSH2 0x1D82 JUMP JUMPDEST SWAP3 POP PUSH2 0x1E89 PUSH1 0x20 DUP6 ADD PUSH2 0x1D82 JUMP JUMPDEST SWAP2 POP PUSH1 0x40 DUP5 ADD CALLDATALOAD SWAP1 POP SWAP3 POP SWAP3 POP SWAP3 JUMP JUMPDEST PUSH1 0x0 PUSH1 0x20 DUP3 DUP5 SUB SLT ISZERO PUSH2 0x1EAB JUMPI PUSH1 0x0 DUP1 REVERT JUMPDEST POP CALLDATALOAD SWAP2 SWAP1 POP JUMP JUMPDEST PUSH1 0x0 DUP1 PUSH1 0x40 DUP4 DUP6 SUB SLT ISZERO PUSH2 0x1EC5 JUMPI PUSH1 0x0 DUP1 REVERT JUMPDEST DUP3 CALLDATALOAD SWAP2 POP PUSH2 0x1ED5 PUSH1 0x20 DUP5 ADD PUSH2 0x1D82 JUMP JUMPDEST SWAP1 POP SWAP3 POP SWAP3 SWAP1 POP JUMP JUMPDEST PUSH1 0x0 DUP1 PUSH1 0x0 DUP1 PUSH1 0x80 DUP6 DUP8 SUB SLT ISZERO PUSH2 0x1EF4 JUMPI PUSH1 0x0 DUP1 REVERT JUMPDEST POP POP DUP3 CALLDATALOAD SWAP5 PUSH1 0x20 DUP5 ADD CALLDATALOAD SWAP5 POP PUSH1 0x40 DUP5 ADD CALLDATALOAD SWAP4 PUSH1 0x60 ADD CALLDATALOAD SWAP3 POP SWAP1 POP JUMP JUMPDEST PUSH1 0xFF PUSH1 0xF8 SHL DUP9 AND DUP2 MSTORE PUSH1 0x0 PUSH1 0x20 PUSH1 0xE0 DUP2 DUP5 ADD MSTORE PUSH2 0x1F30 PUSH1 0xE0 DUP5 ADD DUP11 PUSH2 0x1D22 JUMP JUMPDEST DUP4 DUP2 SUB PUSH1 0x40 DUP6 ADD MSTORE PUSH2 0x1F42 DUP2 DUP11 PUSH2 0x1D22 JUMP JUMPDEST PUSH1 0x60 DUP6 ADD DUP10 SWAP1 MSTORE PUSH1 0x1 PUSH1 0x1 PUSH1 0xA0 SHL SUB DUP9 AND PUSH1 0x80 DUP7 ADD MSTORE PUSH1 0xA0 DUP6 ADD DUP8 SWAP1 MSTORE DUP5 DUP2 SUB PUSH1 0xC0 DUP7 ADD MSTORE DUP6 MLOAD DUP1 DUP3 MSTORE DUP4 DUP8 ADD SWAP3 POP SWAP1 DUP4 ADD SWAP1 PUSH1 0x0 JUMPDEST DUP2 DUP2 LT ISZERO PUSH2 0x1F94 JUMPI DUP4 MLOAD DUP4 MSTORE SWAP3 DUP5 ADD SWAP3 SWAP2 DUP5 ADD SWAP2 PUSH1 0x1 ADD PUSH2 0x1F78 JUMP JUMPDEST POP SWAP1 SWAP13 SWAP12 POP POP POP POP POP POP POP POP POP POP POP POP JUMP JUMPDEST PUSH1 0x0 DUP1 PUSH1 0x0 DUP1 PUSH1 0x0 DUP1 PUSH1 0x0 PUSH1 0xE0 DUP9 DUP11 SUB SLT ISZERO PUSH2 0x1FC1 JUMPI PUSH1 0x0 DUP1 REVERT JUMPDEST PUSH2 0x1FCA DUP9 PUSH2 0x1D82 JUMP JUMPDEST SWAP7 POP PUSH2 0x1FD8 PUSH1 0x20 DUP10 ADD PUSH2 0x1D82 JUMP JUMPDEST SWAP6 POP PUSH1 0x40 DUP9 ADD CALLDATALOAD SWAP5 POP PUSH1 0x60 DUP9 ADD CALLDATALOAD SWAP4 POP PUSH1 0x80 DUP9 ADD CALLDATALOAD PUSH1 0xFF DUP2 AND DUP2 EQ PUSH2 0x1FFC JUMPI PUSH1 0x0 DUP1 REVERT JUMPDEST SWAP7 SWAP10 SWAP6 SWAP9 POP SWAP4 SWAP7 SWAP3 SWAP6 SWAP5 PUSH1 0xA0 DUP5 ADD CALLDATALOAD SWAP5 POP PUSH1 0xC0 SWAP1 SWAP4 ADD CALLDATALOAD SWAP3 SWAP2 POP POP JUMP JUMPDEST PUSH1 0x0 DUP1 PUSH1 0x40 DUP4 DUP6 SUB SLT ISZERO PUSH2 0x202C JUMPI PUSH1 0x0 DUP1 REVERT JUMPDEST PUSH2 0x2035 DUP4 PUSH2 0x1D82 JUMP JUMPDEST SWAP2 POP PUSH2 0x1ED5 PUSH1 0x20 DUP5 ADD PUSH2 0x1D82 JUMP JUMPDEST PUSH1 0x1 DUP2 DUP2 SHR SWAP1 DUP3 AND DUP1 PUSH2 0x2057 JUMPI PUSH1 0x7F DUP3 AND SWAP2 POP JUMPDEST PUSH1 0x20 DUP3 LT DUP2 SUB PUSH2 0x2077 JUMPI PUSH4 0x4E487B71 PUSH1 0xE0 SHL PUSH1 0x0 MSTORE PUSH1 0x22 PUSH1 0x4 MSTORE PUSH1 0x24 PUSH1 0x0 REVERT JUMPDEST POP SWAP2 SWAP1 POP JUMP JUMPDEST PUSH1 0x20 DUP1 DUP3 MSTORE PUSH1 0xC SWAP1 DUP3 ADD MSTORE PUSH12 0x8CCACA40E8DEDE40D0D2CED PUSH1 0xA3 SHL PUSH1 0x40 DUP3 ADD MSTORE PUSH1 0x60 ADD SWAP1 JUMP JUMPDEST PUSH4 0x4E487B71 PUSH1 0xE0 SHL PUSH1 0x0 MSTORE PUSH1 0x11 PUSH1 0x4 MSTORE PUSH1 0x24 PUSH1 0x0 REVERT JUMPDEST DUP1 DUP3 ADD DUP1 DUP3 GT ISZERO PUSH2 0x787 JUMPI PUSH2 0x787 PUSH2 0x20A3 JUMP JUMPDEST PUSH1 0x0 PUSH1 0x20 DUP3 DUP5 SUB SLT ISZERO PUSH2 0x20DE JUMPI PUSH1 0x0 DUP1 REVERT JUMPDEST POP MLOAD SWAP2 SWAP1 POP JUMP JUMPDEST PUSH1 0x0 PUSH1 0x20 DUP3 DUP5 SUB SLT ISZERO PUSH2 0x20F7 JUMPI PUSH1 0x0 DUP1 REVERT JUMPDEST DUP2 MLOAD PUSH2 0x1D7B DUP2 PUSH2 0x1DFD JUMP JUMPDEST DUP1 DUP3 MUL DUP2 ISZERO DUP3 DUP3 DIV DUP5 EQ OR PUSH2 0x787 JUMPI PUSH2 0x787 PUSH2 0x20A3 JUMP JUMPDEST PUSH1 0x0 DUP3 PUSH2 0x2136 JUMPI PUSH4 0x4E487B71 PUSH1 0xE0 SHL PUSH1 0x0 MSTORE PUSH1 0x12 PUSH1 0x4 MSTORE PUSH1 0x24 PUSH1 0x0 REVERT JUMPDEST POP DIV SWAP1 JUMP JUMPDEST DUP2 DUP2 SUB DUP2 DUP2 GT ISZERO PUSH2 0x787 JUMPI PUSH2 0x787 PUSH2 0x20A3 JUMP JUMPDEST PUSH4 0x4E487B71 PUSH1 0xE0 SHL PUSH1 0x0 MSTORE PUSH1 0x21 PUSH1 0x4 MSTORE PUSH1 0x24 PUSH1 0x0 REVERT INVALID LOG2 PUSH5 0x6970667358 0x22 SLT KECCAK256 0xD3 TIMESTAMP 0xB5 MSTORE8 DUP2 0xE ADDRESS SWAP4 0xBB 0xD2 POP SWAP5 PUSH15 0x6D015330E6400F4BE3CA3443AF6ACE GASLIMIT 0xFB JUMP RETURNDATACOPY PUSH5 0x736F6C6343 STOP ADDMOD EQ STOP CALLER "},"methodIdentifiers":{"DOMAIN_SEPARATOR()":"3644e515","allowance(address,address)":"dd62ed3e","approve(address,uint256)":"095ea7b3","autoLiquidityConfig()":"9e7e42cd","balanceOf(address)":"70a08231","burn(uint256)":"42966c68","burnFeePercent()":"4e0856a7","burnFrom(address,uint256)":"79cc6790","configureAutoLiquidity(uint256,uint256,address)":"0eda5f32","configureFairLaunch(uint256,uint256,uint256,uint256)":"6d1d2159","decimals()":"313ce567","delegate(address)":"5c19a95c","disableFairLaunch()":"a9277c0a","eip712Domain()":"84b0196e","emergencyWithdraw()":"db2e21bc","emergencyWithdrawTokens(address)":"b2af127c","enableReflections(uint256)":"6010ba34","enableTrading()":"8a8c523c","excludeFromFees(address,bool)":"c0246668","excludeFromReflections(address)":"25f25f4d","fairLaunchConfig()":"49a64d93","getReflectionBalance(address)":"1682aa49","getTotalReflections()":"ae267735","hasVoted(uint256,address)":"43859632","isBlacklisted(address)":"fe575a87","isExcludedFromFees(address)":"4fbee193","isExcludedFromReflections(address)":"e6375d3e","lastBuyTime(address)":"3fecc2e2","launchBlock()":"d00efb2f","name()":"06fdde03","nonces(address)":"7ecebe00","owner()":"8da5cb5b","permit(address,address,uint256,uint256,uint8,bytes32,bytes32)":"d505accf","reflectionConfig()":"180aa7c7","renounceOwnership()":"715018a6","setBlacklist(address,bool)":"153b0d1e","setBurnFee(uint256)":"4bf2c7c9","symbol()":"95d89b41","totalBought(address)":"4663b1b2","totalSupply()":"18160ddd","tradingEnabled()":"4ada218b","transfer(address,uint256)":"a9059cbb","transferFrom(address,address,uint256)":"23b872dd","transferOwnership(address)":"f2fde38b","votingPower(address)":"c07473f6"}}}}}