{"contracts/BondingCurve.sol":{"BondingCurve":{"abi":[{"inputs":[{"internalType":"address","name":"_token","type":"address"},{"internalType":"address","name":"_feeRecipient","type":"address"}],"stateMutability":"nonpayable","type":"constructor"},{"inputs":[{"internalType":"address","name":"owner","type":"address"}],"name":"OwnableInvalidOwner","type":"error"},{"inputs":[{"internalType":"address","name":"account","type":"address"}],"name":"OwnableUnauthorizedAccount","type":"error"},{"inputs":[],"name":"ReentrancyGuardReentrantCall","type":"error"},{"inputs":[{"internalType":"address","name":"token","type":"address"}],"name":"SafeERC20FailedOperation","type":"error"},{"anonymous":false,"inputs":[{"indexed":true,"internalType":"address","name":"recipient","type":"address"},{"indexed":false,"internalType":"uint256","name":"amount","type":"uint256"}],"name":"FeesCollected","type":"event"},{"anonymous":false,"inputs":[{"indexed":true,"internalType":"address","name":"dexPool","type":"address"},{"indexed":false,"internalType":"uint256","name":"liquidityETH","type":"uint256"},{"indexed":false,"internalType":"uint256","name":"liquidityTokens","type":"uint256"}],"name":"Graduated","type":"event"},{"anonymous":false,"inputs":[{"indexed":true,"internalType":"address","name":"previousOwner","type":"address"},{"indexed":true,"internalType":"address","name":"newOwner","type":"address"}],"name":"OwnershipTransferred","type":"event"},{"anonymous":false,"inputs":[{"indexed":true,"internalType":"address","name":"buyer","type":"address"},{"indexed":false,"internalType":"uint256","name":"ethAmount","type":"uint256"},{"indexed":false,"internalType":"uint256","name":"tokenAmount","type":"uint256"},{"indexed":false,"internalType":"uint256","name":"newPrice","type":"uint256"}],"name":"TokensPurchased","type":"event"},{"anonymous":false,"inputs":[{"indexed":true,"internalType":"address","name":"seller","type":"address"},{"indexed":false,"internalType":"uint256","name":"tokenAmount","type":"uint256"},{"indexed":false,"internalType":"uint256","name":"ethAmount","type":"uint256"},{"indexed":false,"internalType":"uint256","name":"newPrice","type":"uint256"}],"name":"TokensSold","type":"event"},{"inputs":[],"name":"BUY_FEE","outputs":[{"internalType":"uint256","name":"","type":"uint256"}],"stateMutability":"view","type":"function"},{"inputs":[],"name":"DECIMALS","outputs":[{"internalType":"uint256","name":"","type":"uint256"}],"stateMutability":"view","type":"function"},{"inputs":[],"name":"GRADUATION_FEE","outputs":[{"internalType":"uint256","name":"","type":"uint256"}],"stateMutability":"view","type":"function"},{"inputs":[],"name":"GRADUATION_HOLDERS","outputs":[{"internalType":"uint256","name":"","type":"uint256"}],"stateMutability":"view","type":"function"},{"inputs":[],"name":"GRADUATION_LIQUIDITY","outputs":[{"internalType":"uint256","name":"","type":"uint256"}],"stateMutability":"view","type":"function"},{"inputs":[],"name":"GRADUATION_MARKET_CAP","outputs":[{"internalType":"uint256","name":"","type":"uint256"}],"stateMutability":"view","type":"function"},{"inputs":[],"name":"GRADUATION_VOLUME","outputs":[{"internalType":"uint256","name":"","type":"uint256"}],"stateMutability":"view","type":"function"},{"inputs":[],"name":"K","outputs":[{"internalType":"uint256","name":"","type":"uint256"}],"stateMutability":"view","type":"function"},{"inputs":[],"name":"N","outputs":[{"internalType":"uint256","name":"","type":"uint256"}],"stateMutability":"view","type":"function"},{"inputs":[],"name":"PRICE_DECIMALS","outputs":[{"internalType":"uint256","name":"","type":"uint256"}],"stateMutability":"view","type":"function"},{"inputs":[],"name":"SELL_FEE","outputs":[{"internalType":"uint256","name":"","type":"uint256"}],"stateMutability":"view","type":"function"},{"inputs":[{"internalType":"address","name":"","type":"address"}],"name":"balances","outputs":[{"internalType":"uint256","name":"","type":"uint256"}],"stateMutability":"view","type":"function"},{"inputs":[],"name":"buy","outputs":[],"stateMutability":"payable","type":"function"},{"inputs":[{"internalType":"uint256","name":"ethAmount","type":"uint256"}],"name":"calculateBuyAmount","outputs":[{"internalType":"uint256","name":"","type":"uint256"}],"stateMutability":"view","type":"function"},{"inputs":[{"internalType":"uint256","name":"supply","type":"uint256"}],"name":"calculatePrice","outputs":[{"internalType":"uint256","name":"","type":"uint256"}],"stateMutability":"pure","type":"function"},{"inputs":[{"internalType":"uint256","name":"tokenAmount","type":"uint256"}],"name":"calculatePurchaseCost","outputs":[{"internalType":"uint256","name":"","type":"uint256"}],"stateMutability":"view","type":"function"},{"inputs":[{"internalType":"uint256","name":"tokenAmount","type":"uint256"}],"name":"calculateSellReturn","outputs":[{"internalType":"uint256","name":"","type":"uint256"}],"stateMutability":"view","type":"function"},{"inputs":[],"name":"dailyVolume","outputs":[{"internalType":"uint256","name":"","type":"uint256"}],"stateMutability":"view","type":"function"},{"inputs":[],"name":"dexPool","outputs":[{"internalType":"address","name":"","type":"address"}],"stateMutability":"view","type":"function"},{"inputs":[],"name":"emergencyWithdraw","outputs":[],"stateMutability":"nonpayable","type":"function"},{"inputs":[],"name":"feeRecipient","outputs":[{"internalType":"address","name":"","type":"address"}],"stateMutability":"view","type":"function"},{"inputs":[],"name":"getGraduationProgress","outputs":[{"internalType":"uint256","name":"marketCapProgress","type":"uint256"},{"internalType":"uint256","name":"liquidityProgress","type":"uint256"},{"internalType":"uint256","name":"holdersProgress","type":"uint256"},{"internalType":"uint256","name":"volumeProgress","type":"uint256"}],"stateMutability":"view","type":"function"},{"inputs":[{"internalType":"address","name":"_dexPool","type":"address"},{"internalType":"uint256","name":"liquidityPercentage","type":"uint256"}],"name":"graduate","outputs":[],"stateMutability":"nonpayable","type":"function"},{"inputs":[],"name":"graduated","outputs":[{"internalType":"bool","name":"","type":"bool"}],"stateMutability":"view","type":"function"},{"inputs":[{"internalType":"address","name":"","type":"address"}],"name":"hasTraded","outputs":[{"internalType":"bool","name":"","type":"bool"}],"stateMutability":"view","type":"function"},{"inputs":[],"name":"isEligibleForGraduation","outputs":[{"internalType":"bool","name":"","type":"bool"}],"stateMutability":"view","type":"function"},{"inputs":[],"name":"lastVolumeReset","outputs":[{"internalType":"uint256","name":"","type":"uint256"}],"stateMutability":"view","type":"function"},{"inputs":[],"name":"owner","outputs":[{"internalType":"address","name":"","type":"address"}],"stateMutability":"view","type":"function"},{"inputs":[],"name":"renounceOwnership","outputs":[],"stateMutability":"nonpayable","type":"function"},{"inputs":[],"name":"reserveBalance","outputs":[{"internalType":"uint256","name":"","type":"uint256"}],"stateMutability":"view","type":"function"},{"inputs":[{"internalType":"uint256","name":"tokenAmount","type":"uint256"}],"name":"sell","outputs":[],"stateMutability":"nonpayable","type":"function"},{"inputs":[{"internalType":"address","name":"_feeRecipient","type":"address"}],"name":"setFeeRecipient","outputs":[],"stateMutability":"nonpayable","type":"function"},{"inputs":[],"name":"token","outputs":[{"internalType":"contract IERC20","name":"","type":"address"}],"stateMutability":"view","type":"function"},{"inputs":[],"name":"tokenSupply","outputs":[{"internalType":"uint256","name":"","type":"uint256"}],"stateMutability":"view","type":"function"},{"inputs":[],"name":"totalVolume","outputs":[{"internalType":"uint256","name":"","type":"uint256"}],"stateMutability":"view","type":"function"},{"inputs":[{"internalType":"address","name":"newOwner","type":"address"}],"name":"transferOwnership","outputs":[],"stateMutability":"nonpayable","type":"function"},{"inputs":[],"name":"uniqueHolders","outputs":[{"internalType":"uint256","name":"","type":"uint256"}],"stateMutability":"view","type":"function"}],"evm":{"bytecode":{"linkReferences":{},"object":"60a06040523480156200001157600080fd5b5060405162001ec638038062001ec68339810160408190526200003491620001b9565b600160005533806200006157604051631e4fbdf760e01b8152600060048201526024015b60405180910390fd5b6200006c816200014a565b506001600160a01b038216620000c55760405162461bcd60e51b815260206004820152601560248201527f496e76616c696420746f6b656e20616464726573730000000000000000000000604482015260640162000058565b6001600160a01b0381166200011d5760405162461bcd60e51b815260206004820152601560248201527f496e76616c69642066656520726563697069656e740000000000000000000000604482015260640162000058565b6001600160a01b03918216608052600b80546001600160a01b0319169190921617905542600655620001f1565b600180546001600160a01b038381166001600160a01b0319831681179093556040519116919082907f8be0079c531659141344cd1fd0a4f28419497f9722a3daafe3b4186f6b6457e090600090a35050565b80516001600160a01b0381168114620001b457600080fd5b919050565b60008060408385031215620001cd57600080fd5b620001d8836200019c565b9150620001e8602084016200019c565b90509250929050565b608051611c9662000230600039600081816106110152818161077501528181610a4901528181610f2901528181610fc301526111f70152611c966000f3fe60806040526004361061021a5760003560e01c8063a6f2ae3a11610123578063db2e21bc116100ab578063e973c5571161006f578063e973c55714610592578063ec8dc754146105a7578063f1a640f8146105c7578063f2fde38b146105df578063fc0c546a146105ff57600080fd5b8063db2e21bc1461050d578063e4849b3214610522578063e5bd9fa114610542578063e74b981b14610558578063e7c2b7721461057857600080fd5b8063bc3c39cb116100f2578063bc3c39cb14610477578063c764263a14610497578063c9c5cacb146104cc578063c9e525df146104e2578063caa9334f146104f757600080fd5b8063a6f2ae3a14610419578063a932492f14610421578063acd27ef714610437578063ae1042651461045757600080fd5b80636777a1eb116101a657806380ec4cc31161017557806380ec4cc31461039a57806382639852146103af5780638da5cb5b146103cf57806398c8877e146103ed578063a10954fe1461040357600080fd5b80636777a1eb1461021f578063715018a61461033d578063716fe304146103545780637824407f1461038457600080fd5b806346904840116101ed57806346904840146102cd5780634773a6a91461021f57806353de6ddb146102ed5780635f81a57c1461030257806366d0c7b31461031857600080fd5b806327b9bb9c1461021f57806327e235e3146102475780632e0f2625146102745780633d2fa2d214610290575b600080fd5b34801561022b57600080fd5b50610234606481565b6040519081526020015b60405180910390f35b34801561025357600080fd5b50610234610262366004611ad9565b60076020526000908152604090205481565b34801561028057600080fd5b50610234670de0b6b3a764000081565b34801561029c57600080fd5b50600a546102b59061010090046001600160a01b031681565b6040516001600160a01b03909116815260200161023e565b3480156102d957600080fd5b50600b546102b5906001600160a01b031681565b3480156102f957600080fd5b50610234610633565b34801561030e57600080fd5b5061023460045481565b34801561032457600080fd5b5061032d61064a565b604051901515815260200161023e565b34801561034957600080fd5b506103526106ef565b005b34801561036057600080fd5b5061032d61036f366004611ad9565b60086020526000908152604090205460ff1681565b34801561039057600080fd5b5061023460035481565b3480156103a657600080fd5b50610234610703565b3480156103bb57600080fd5b506102346103ca366004611afb565b610717565b3480156103db57600080fd5b506001546001600160a01b03166102b5565b3480156103f957600080fd5b5061023460055481565b34801561040f57600080fd5b5061023460025481565b610352610876565b34801561042d57600080fd5b5061023461271081565b34801561044357600080fd5b50610234610452366004611afb565b610b90565b34801561046357600080fd5b50610234610472366004611afb565b610c05565b34801561048357600080fd5b50610234610492366004611afb565b610c74565b3480156104a357600080fd5b506104ac610d2f565b60408051948552602085019390935291830152606082015260800161023e565b3480156104d857600080fd5b506102346101f481565b3480156104ee57600080fd5b50610234600f81565b34801561050357600080fd5b5061023460095481565b34801561051957600080fd5b50610352610e16565b34801561052e57600080fd5b5061035261053d366004611afb565b610fee565b34801561054e57600080fd5b5061023460065481565b34801561056457600080fd5b50610352610573366004611ad9565b611406565b34801561058457600080fd5b50600a5461032d9060ff1681565b34801561059e57600080fd5b5061023461147e565b3480156105b357600080fd5b506103526105c2366004611b14565b611493565b3480156105d357600080fd5b50610234633b9aca0081565b3480156105eb57600080fd5b506103526105fa366004611ad9565b611759565b34801561060b57600080fd5b506102b57f000000000000000000000000000000000000000000000000000000000000000081565b610647670de0b6b3a764000061c350611b54565b81565b600080610658600354610c05565b90506000670de0b6b3a7640000826003546106739190611b54565b61067d9190611b6b565b9050610694670de0b6b3a7640000620186a0611b54565b81101580156106b857506106b2670de0b6b3a764000061c350611b54565b60025410155b80156106c75750606460095410155b80156106e857506106e2670de0b6b3a76400006161a8611b54565b60055410155b9250505090565b6106f7611794565b61070160006117c1565b565b610647670de0b6b3a76400006161a8611b54565b600a5460009060ff16156107465760405162461bcd60e51b815260040161073d90611b8d565b60405180910390fd5b6000612710610756606485611b54565b6107609190611b6b565b9050600061076e8285611bc4565b90506000807f00000000000000000000000000000000000000000000000000000000000000006001600160a01b03166318160ddd6040518163ffffffff1660e01b8152600401602060405180830381865afa1580156107d1573d6000803e3d6000fd5b505050506040513d601f19601f820116820180604052508101906107f59190611bd7565b905060005b81831161086c576000600261080f8486611bf0565b6108199190611b6b565b9050600061082682610b90565b90508581116108465781925081600161083f9190611bf0565b9450610865565b811561085e57610857600183611bc4565b9350610865565b505061086c565b50506107fa565b9695505050505050565b61087e611813565b600a5460ff16156108a15760405162461bcd60e51b815260040161073d90611b8d565b600034116108df5760405162461bcd60e51b815260206004820152600b60248201526a139bc8115512081cd95b9d60aa1b604482015260640161073d565b60006108ea34610717565b90506000811161094a5760405162461bcd60e51b815260206004820152602560248201527f496e73756666696369656e742045544820666f72206d696e696d756d20707572604482015264636861736560d81b606482015260840161073d565b600061271061095a606434611b54565b6109649190611b6b565b905060006109728234611bc4565b905082600360008282546109869190611bf0565b92505081905550806002600082825461099f9190611bf0565b9250508190555034600460008282546109b89190611bf0565b909155506109c790503461183d565b336000908152600760205260409020541580156109e45750600083115b15610a1757336000908152600860205260408120805460ff191660011790556009805491610a1183611c03565b91905055505b3360009081526007602052604081208054859290610a36908490611bf0565b90915550610a7090506001600160a01b037f0000000000000000000000000000000000000000000000000000000000000000163385611876565b8115610b2d57600b546040516000916001600160a01b03169084908381818185875af1925050503d8060008114610ac3576040519150601f19603f3d011682016040523d82523d6000602084013e610ac8565b606091505b5050905080610ae95760405162461bcd60e51b815260040161073d90611c1c565b600b546040518481526001600160a01b03909116907f9dc46f23cfb5ddcad0ae7ea2be38d47fec07bb9382ec7e564efc69e036dd66ce9060200160405180910390a2505b336001600160a01b03167f0d1a0d5e3d583a0e92588799dd06e50fd78c07daf05f0cc06d7b848b1ca445f13485610b65600354610c05565b6040805193845260208401929092529082015260600160405180910390a25050506107016001600055565b600a5460009060ff1615610bb65760405162461bcd60e51b815260040161073d90611b8d565b6003546000610bc58483611bf0565b90506000610bd383836118da565b90506000610be46064612710611bc4565b610bef606484611b54565b610bf99190611b6b565b905061086c8183611bf0565b600081600003610c185750612710919050565b6000610c28633b9aca0084611b6b565b9050600081610c378180611b54565b610c419190611b54565b90506000610c4e826119a3565b9050633b9aca00610c6182612710611b54565b610c6b9190611b6b565b95945050505050565b600a5460009060ff1615610c9a5760405162461bcd60e51b815260040161073d90611b8d565b600354821115610ce55760405162461bcd60e51b8152602060048201526016602482015275496e73756666696369656e74206c697175696469747960501b604482015260640161073d565b600082600354610cf59190611bc4565b6003549091506000610d0783836118da565b90506000612710610d19606484611b54565b610d239190611b6b565b905061086c8183611bc4565b6000806000806000610d42600354610c05565b90506000670de0b6b3a764000082600354610d5d9190611b54565b610d679190611b6b565b9050610d7e670de0b6b3a7640000620186a0611b54565b610d89826064611b54565b610d939190611b6b565b9550610da9670de0b6b3a764000061c350611b54565b600254610db7906064611b54565b610dc19190611b6b565b945060646009546064610dd49190611b54565b610dde9190611b6b565b9350610df4670de0b6b3a76400006161a8611b54565b600554610e02906064611b54565b610e0c9190611b6b565b9250505090919293565b610e1e611794565b600a5460ff16610e605760405162461bcd60e51b815260206004820152600d60248201526c139bdd0819dc98591d585d1959609a1b604482015260640161073d565b478015610f11576000610e7b6001546001600160a01b031690565b6001600160a01b03168260405160006040518083038185875af1925050503d8060008114610ec5576040519150601f19603f3d011682016040523d82523d6000602084013e610eca565b606091505b5050905080610f0f5760405162461bcd60e51b815260206004820152601160248201527015da5d1a191c985dd85b0819985a5b1959607a1b604482015260640161073d565b505b6040516370a0823160e01b81523060048201526000907f00000000000000000000000000000000000000000000000000000000000000006001600160a01b0316906370a0823190602401602060405180830381865afa158015610f78573d6000803e3d6000fd5b505050506040513d601f19601f82011682018060405250810190610f9c9190611bd7565b90508015610fea57610fea610fb96001546001600160a01b031690565b6001600160a01b037f0000000000000000000000000000000000000000000000000000000000000000169083611876565b5050565b610ff6611813565b600a5460ff16156110195760405162461bcd60e51b815260040161073d90611b8d565b6000811161105a5760405162461bcd60e51b815260206004820152600e60248201526d125b9d985b1a5908185b5bdd5b9d60921b604482015260640161073d565b336000908152600760205260409020548111156110b05760405162461bcd60e51b8152602060048201526014602482015273496e73756666696369656e742062616c616e636560601b604482015260640161073d565b60006110bb82610c74565b9050600081116110fd5760405162461bcd60e51b815260206004820152600d60248201526c27379022aa24103932ba3ab93760991b604482015260640161073d565b8060025410156111475760405162461bcd60e51b8152602060048201526015602482015274496e73756666696369656e7420726573657276657360581b604482015260640161073d565b81600360008282546111599190611bc4565b9250508190555080600260008282546111729190611bc4565b92505081905550806004600082825461118b9190611bf0565b9091555061119a90508161183d565b33600090815260076020526040812080548492906111b9908490611bc4565b90915550503360009081526007602052604081205490036111ea57600980549060006111e483611c49565b91905055505b61121f6001600160a01b037f000000000000000000000000000000000000000000000000000000000000000016333085611a0d565b600061122e6064612710611bc4565b611239606484611b54565b6112439190611b6b565b905060006112518284611bc4565b604051909150600090339083908381818185875af1925050503d8060008114611296576040519150601f19603f3d011682016040523d82523d6000602084013e61129b565b606091505b50509050806112e25760405162461bcd60e51b8152602060048201526013602482015272115512081d1c985b9cd9995c8819985a5b1959606a1b604482015260640161073d565b821561139f57600b546040516000916001600160a01b03169085908381818185875af1925050503d8060008114611335576040519150601f19603f3d011682016040523d82523d6000602084013e61133a565b606091505b505090508061135b5760405162461bcd60e51b815260040161073d90611c1c565b600b546040518581526001600160a01b03909116907f9dc46f23cfb5ddcad0ae7ea2be38d47fec07bb9382ec7e564efc69e036dd66ce9060200160405180910390a2505b336001600160a01b03167f6db63bebf1e6540277744df32846ebdb98385b1a73f2d5de49b28348add63f5086846113d7600354610c05565b6040805193845260208401929092529082015260600160405180910390a2505050506114036001600055565b50565b61140e611794565b6001600160a01b03811661145c5760405162461bcd60e51b8152602060048201526015602482015274125b9d985b1a5908199959481c9958da5c1a595b9d605a1b604482015260640161073d565b600b80546001600160a01b0319166001600160a01b0392909216919091179055565b610647670de0b6b3a7640000620186a0611b54565b61149b611794565b600a5460ff16156114e25760405162461bcd60e51b8152602060048201526011602482015270105b1c9958591e4819dc98591d585d1959607a1b604482015260640161073d565b6001600160a01b03821661152b5760405162461bcd60e51b815260206004820152601060248201526f125b9d985b1a5908111156081c1bdbdb60821b604482015260640161073d565b60648111156115715760405162461bcd60e51b8152602060048201526012602482015271496e76616c69642070657263656e7461676560701b604482015260640161073d565b61157961064a565b6115c55760405162461bcd60e51b815260206004820152601b60248201527f4e6f7420656c696769626c6520666f722067726164756174696f6e0000000000604482015260640161073d565b600a80546001600160a01b038416610100026001600160a81b03199091161760011790556002546000906064906115fd908490611b54565b6116079190611b6b565b905060006064600354601e61161c9190611b54565b6116269190611b6b565b905060006127106116396101f485611b54565b6116439190611b6b565b905061164f8184611bc4565b9250801561170e57600b546040516000916001600160a01b03169083908381818185875af1925050503d80600081146116a4576040519150601f19603f3d011682016040523d82523d6000602084013e6116a9565b606091505b50509050806116ca5760405162461bcd60e51b815260040161073d90611c1c565b600b546040518381526001600160a01b03909116907f9dc46f23cfb5ddcad0ae7ea2be38d47fec07bb9382ec7e564efc69e036dd66ce9060200160405180910390a2505b60408051848152602081018490526001600160a01b038716917f1c858049e704460ab9455025be4078f9e746e3fd426a56040d06389edb8197db910160405180910390a25050505050565b611761611794565b6001600160a01b03811661178b57604051631e4fbdf760e01b81526000600482015260240161073d565b611403816117c1565b6001546001600160a01b031633146107015760405163118cdaa760e01b815233600482015260240161073d565b600180546001600160a01b038381166001600160a01b0319831681179093556040519116919082907f8be0079c531659141344cd1fd0a4f28419497f9722a3daafe3b4186f6b6457e090600090a35050565b60026000540361183657604051633ee5aeb560e01b815260040160405180910390fd5b6002600055565b60065461184d9062015180611bf0565b421061185c5760055542600655565b806005600082825461186e9190611bf0565b909155505050565b6040516001600160a01b038381166024830152604482018390526118d591859182169063a9059cbb906064015b604051602081830303815290604052915060e01b6020820180516001600160e01b038381831617835250505050611a4c565b505050565b6000606481816118ea8686611bc4565b6118f49190611b6b565b90506000805b8381101561199757600061190e8483611b54565b6119189089611bf0565b905060006119268583611bf0565b9050600061193383610c05565b9050600061194083610c05565b9050611955670de0b6b3a76400006002611b54565b876119608385611bf0565b61196a9190611b54565b6119749190611b6b565b61197e9087611bf0565b955050505050808061198f90611c03565b9150506118fa565b50925050505b92915050565b6000816000036119b557506000919050565b600060026119c4846001611bf0565b6119ce9190611b6b565b90508291505b81811015611a07579050806002816119ec8186611b6b565b6119f69190611bf0565b611a009190611b6b565b90506119d4565b50919050565b6040516001600160a01b038481166024830152838116604483015260648201839052611a469186918216906323b872dd906084016118a3565b50505050565b600080602060008451602086016000885af180611a6f576040513d6000823e3d81fd5b50506000513d91508115611a87578060011415611a94565b6001600160a01b0384163b155b15611a4657604051635274afe760e01b81526001600160a01b038516600482015260240161073d565b80356001600160a01b0381168114611ad457600080fd5b919050565b600060208284031215611aeb57600080fd5b611af482611abd565b9392505050565b600060208284031215611b0d57600080fd5b5035919050565b60008060408385031215611b2757600080fd5b611b3083611abd565b946020939093013593505050565b634e487b7160e01b600052601160045260246000fd5b808202811582820484141761199d5761199d611b3e565b600082611b8857634e487b7160e01b600052601260045260246000fd5b500490565b60208082526017908201527f426f6e64696e6720637572766520677261647561746564000000000000000000604082015260600190565b8181038181111561199d5761199d611b3e565b600060208284031215611be957600080fd5b5051919050565b8082018082111561199d5761199d611b3e565b600060018201611c1557611c15611b3e565b5060010190565b602080825260139082015272119959481d1c985b9cd9995c8819985a5b1959606a1b604082015260600190565b600081611c5857611c58611b3e565b50600019019056fea264697066735822122088a074147a717365b8fa845f6b5fc2e83d5b5bc1860eafdfc90dc3396b1648e264736f6c63430008140033","opcodes":"PUSH1 0xA0 PUSH1 0x40 MSTORE CALLVALUE DUP1 ISZERO PUSH3 0x11 JUMPI PUSH1 0x0 DUP1 REVERT JUMPDEST POP PUSH1 0x40 MLOAD PUSH3 0x1EC6 CODESIZE SUB DUP1 PUSH3 0x1EC6 DUP4 CODECOPY DUP2 ADD PUSH1 0x40 DUP2 SWAP1 MSTORE PUSH3 0x34 SWAP2 PUSH3 0x1B9 JUMP JUMPDEST PUSH1 0x1 PUSH1 0x0 SSTORE CALLER DUP1 PUSH3 0x61 JUMPI PUSH1 0x40 MLOAD PUSH4 0x1E4FBDF7 PUSH1 0xE0 SHL DUP2 MSTORE PUSH1 0x0 PUSH1 0x4 DUP3 ADD MSTORE PUSH1 0x24 ADD JUMPDEST PUSH1 0x40 MLOAD DUP1 SWAP2 SUB SWAP1 REVERT JUMPDEST PUSH3 0x6C DUP2 PUSH3 0x14A JUMP JUMPDEST POP PUSH1 0x1 PUSH1 0x1 PUSH1 0xA0 SHL SUB DUP3 AND PUSH3 0xC5 JUMPI PUSH1 0x40 MLOAD PUSH3 0x461BCD PUSH1 0xE5 SHL DUP2 MSTORE PUSH1 0x20 PUSH1 0x4 DUP3 ADD MSTORE PUSH1 0x15 PUSH1 0x24 DUP3 ADD MSTORE PUSH32 0x496E76616C696420746F6B656E20616464726573730000000000000000000000 PUSH1 0x44 DUP3 ADD MSTORE PUSH1 0x64 ADD PUSH3 0x58 JUMP JUMPDEST PUSH1 0x1 PUSH1 0x1 PUSH1 0xA0 SHL SUB DUP2 AND PUSH3 0x11D JUMPI PUSH1 0x40 MLOAD PUSH3 0x461BCD PUSH1 0xE5 SHL DUP2 MSTORE PUSH1 0x20 PUSH1 0x4 DUP3 ADD MSTORE PUSH1 0x15 PUSH1 0x24 DUP3 ADD MSTORE PUSH32 0x496E76616C69642066656520726563697069656E740000000000000000000000 PUSH1 0x44 DUP3 ADD MSTORE PUSH1 0x64 ADD PUSH3 0x58 JUMP JUMPDEST PUSH1 0x1 PUSH1 0x1 PUSH1 0xA0 SHL SUB SWAP2 DUP3 AND PUSH1 0x80 MSTORE PUSH1 0xB DUP1 SLOAD PUSH1 0x1 PUSH1 0x1 PUSH1 0xA0 SHL SUB NOT AND SWAP2 SWAP1 SWAP3 AND OR SWAP1 SSTORE TIMESTAMP PUSH1 0x6 SSTORE PUSH3 0x1F1 JUMP JUMPDEST PUSH1 0x1 DUP1 SLOAD PUSH1 0x1 PUSH1 0x1 PUSH1 0xA0 SHL SUB DUP4 DUP2 AND PUSH1 0x1 PUSH1 0x1 PUSH1 0xA0 SHL SUB NOT DUP4 AND DUP2 OR SWAP1 SWAP4 SSTORE PUSH1 0x40 MLOAD SWAP2 AND SWAP2 SWAP1 DUP3 SWAP1 PUSH32 0x8BE0079C531659141344CD1FD0A4F28419497F9722A3DAAFE3B4186F6B6457E0 SWAP1 PUSH1 0x0 SWAP1 LOG3 POP POP JUMP JUMPDEST DUP1 MLOAD PUSH1 0x1 PUSH1 0x1 PUSH1 0xA0 SHL SUB DUP2 AND DUP2 EQ PUSH3 0x1B4 JUMPI PUSH1 0x0 DUP1 REVERT JUMPDEST SWAP2 SWAP1 POP JUMP JUMPDEST PUSH1 0x0 DUP1 PUSH1 0x40 DUP4 DUP6 SUB SLT ISZERO PUSH3 0x1CD JUMPI PUSH1 0x0 DUP1 REVERT JUMPDEST PUSH3 0x1D8 DUP4 PUSH3 0x19C JUMP JUMPDEST SWAP2 POP PUSH3 0x1E8 PUSH1 0x20 DUP5 ADD PUSH3 0x19C JUMP JUMPDEST SWAP1 POP SWAP3 POP SWAP3 SWAP1 POP JUMP JUMPDEST PUSH1 0x80 MLOAD PUSH2 0x1C96 PUSH3 0x230 PUSH1 0x0 CODECOPY PUSH1 0x0 DUP2 DUP2 PUSH2 0x611 ADD MSTORE DUP2 DUP2 PUSH2 0x775 ADD MSTORE DUP2 DUP2 PUSH2 0xA49 ADD MSTORE DUP2 DUP2 PUSH2 0xF29 ADD MSTORE DUP2 DUP2 PUSH2 0xFC3 ADD MSTORE PUSH2 0x11F7 ADD MSTORE PUSH2 0x1C96 PUSH1 0x0 RETURN INVALID PUSH1 0x80 PUSH1 0x40 MSTORE PUSH1 0x4 CALLDATASIZE LT PUSH2 0x21A JUMPI PUSH1 0x0 CALLDATALOAD PUSH1 0xE0 SHR DUP1 PUSH4 0xA6F2AE3A GT PUSH2 0x123 JUMPI DUP1 PUSH4 0xDB2E21BC GT PUSH2 0xAB JUMPI DUP1 PUSH4 0xE973C557 GT PUSH2 0x6F JUMPI DUP1 PUSH4 0xE973C557 EQ PUSH2 0x592 JUMPI DUP1 PUSH4 0xEC8DC754 EQ PUSH2 0x5A7 JUMPI DUP1 PUSH4 0xF1A640F8 EQ PUSH2 0x5C7 JUMPI DUP1 PUSH4 0xF2FDE38B EQ PUSH2 0x5DF JUMPI DUP1 PUSH4 0xFC0C546A EQ PUSH2 0x5FF JUMPI PUSH1 0x0 DUP1 REVERT JUMPDEST DUP1 PUSH4 0xDB2E21BC EQ PUSH2 0x50D JUMPI DUP1 PUSH4 0xE4849B32 EQ PUSH2 0x522 JUMPI DUP1 PUSH4 0xE5BD9FA1 EQ PUSH2 0x542 JUMPI DUP1 PUSH4 0xE74B981B EQ PUSH2 0x558 JUMPI DUP1 PUSH4 0xE7C2B772 EQ PUSH2 0x578 JUMPI PUSH1 0x0 DUP1 REVERT JUMPDEST DUP1 PUSH4 0xBC3C39CB GT PUSH2 0xF2 JUMPI DUP1 PUSH4 0xBC3C39CB EQ PUSH2 0x477 JUMPI DUP1 PUSH4 0xC764263A EQ PUSH2 0x497 JUMPI DUP1 PUSH4 0xC9C5CACB EQ PUSH2 0x4CC JUMPI DUP1 PUSH4 0xC9E525DF EQ PUSH2 0x4E2 JUMPI DUP1 PUSH4 0xCAA9334F EQ PUSH2 0x4F7 JUMPI PUSH1 0x0 DUP1 REVERT JUMPDEST DUP1 PUSH4 0xA6F2AE3A EQ PUSH2 0x419 JUMPI DUP1 PUSH4 0xA932492F EQ PUSH2 0x421 JUMPI DUP1 PUSH4 0xACD27EF7 EQ PUSH2 0x437 JUMPI DUP1 PUSH4 0xAE104265 EQ PUSH2 0x457 JUMPI PUSH1 0x0 DUP1 REVERT JUMPDEST DUP1 PUSH4 0x6777A1EB GT PUSH2 0x1A6 JUMPI DUP1 PUSH4 0x80EC4CC3 GT PUSH2 0x175 JUMPI DUP1 PUSH4 0x80EC4CC3 EQ PUSH2 0x39A JUMPI DUP1 PUSH4 0x82639852 EQ PUSH2 0x3AF JUMPI DUP1 PUSH4 0x8DA5CB5B EQ PUSH2 0x3CF JUMPI DUP1 PUSH4 0x98C8877E EQ PUSH2 0x3ED JUMPI DUP1 PUSH4 0xA10954FE EQ PUSH2 0x403 JUMPI PUSH1 0x0 DUP1 REVERT JUMPDEST DUP1 PUSH4 0x6777A1EB EQ PUSH2 0x21F JUMPI DUP1 PUSH4 0x715018A6 EQ PUSH2 0x33D JUMPI DUP1 PUSH4 0x716FE304 EQ PUSH2 0x354 JUMPI DUP1 PUSH4 0x7824407F EQ PUSH2 0x384 JUMPI PUSH1 0x0 DUP1 REVERT JUMPDEST DUP1 PUSH4 0x46904840 GT PUSH2 0x1ED JUMPI DUP1 PUSH4 0x46904840 EQ PUSH2 0x2CD JUMPI DUP1 PUSH4 0x4773A6A9 EQ PUSH2 0x21F JUMPI DUP1 PUSH4 0x53DE6DDB EQ PUSH2 0x2ED JUMPI DUP1 PUSH4 0x5F81A57C EQ PUSH2 0x302 JUMPI DUP1 PUSH4 0x66D0C7B3 EQ PUSH2 0x318 JUMPI PUSH1 0x0 DUP1 REVERT JUMPDEST DUP1 PUSH4 0x27B9BB9C EQ PUSH2 0x21F JUMPI DUP1 PUSH4 0x27E235E3 EQ PUSH2 0x247 JUMPI DUP1 PUSH4 0x2E0F2625 EQ PUSH2 0x274 JUMPI DUP1 PUSH4 0x3D2FA2D2 EQ PUSH2 0x290 JUMPI JUMPDEST PUSH1 0x0 DUP1 REVERT JUMPDEST CALLVALUE DUP1 ISZERO PUSH2 0x22B JUMPI PUSH1 0x0 DUP1 REVERT JUMPDEST POP PUSH2 0x234 PUSH1 0x64 DUP2 JUMP JUMPDEST PUSH1 0x40 MLOAD SWAP1 DUP2 MSTORE PUSH1 0x20 ADD JUMPDEST PUSH1 0x40 MLOAD DUP1 SWAP2 SUB SWAP1 RETURN JUMPDEST CALLVALUE DUP1 ISZERO PUSH2 0x253 JUMPI PUSH1 0x0 DUP1 REVERT JUMPDEST POP PUSH2 0x234 PUSH2 0x262 CALLDATASIZE PUSH1 0x4 PUSH2 0x1AD9 JUMP JUMPDEST PUSH1 0x7 PUSH1 0x20 MSTORE PUSH1 0x0 SWAP1 DUP2 MSTORE PUSH1 0x40 SWAP1 KECCAK256 SLOAD DUP2 JUMP JUMPDEST CALLVALUE DUP1 ISZERO PUSH2 0x280 JUMPI PUSH1 0x0 DUP1 REVERT JUMPDEST POP PUSH2 0x234 PUSH8 0xDE0B6B3A7640000 DUP2 JUMP JUMPDEST CALLVALUE DUP1 ISZERO PUSH2 0x29C JUMPI PUSH1 0x0 DUP1 REVERT JUMPDEST POP PUSH1 0xA SLOAD PUSH2 0x2B5 SWAP1 PUSH2 0x100 SWAP1 DIV PUSH1 0x1 PUSH1 0x1 PUSH1 0xA0 SHL SUB AND DUP2 JUMP JUMPDEST PUSH1 0x40 MLOAD PUSH1 0x1 PUSH1 0x1 PUSH1 0xA0 SHL SUB SWAP1 SWAP2 AND DUP2 MSTORE PUSH1 0x20 ADD PUSH2 0x23E JUMP JUMPDEST CALLVALUE DUP1 ISZERO PUSH2 0x2D9 JUMPI PUSH1 0x0 DUP1 REVERT JUMPDEST POP PUSH1 0xB SLOAD PUSH2 0x2B5 SWAP1 PUSH1 0x1 PUSH1 0x1 PUSH1 0xA0 SHL SUB AND DUP2 JUMP JUMPDEST CALLVALUE DUP1 ISZERO PUSH2 0x2F9 JUMPI PUSH1 0x0 DUP1 REVERT JUMPDEST POP PUSH2 0x234 PUSH2 0x633 JUMP JUMPDEST CALLVALUE DUP1 ISZERO PUSH2 0x30E JUMPI PUSH1 0x0 DUP1 REVERT JUMPDEST POP PUSH2 0x234 PUSH1 0x4 SLOAD DUP2 JUMP JUMPDEST CALLVALUE DUP1 ISZERO PUSH2 0x324 JUMPI PUSH1 0x0 DUP1 REVERT JUMPDEST POP PUSH2 0x32D PUSH2 0x64A JUMP JUMPDEST PUSH1 0x40 MLOAD SWAP1 ISZERO ISZERO DUP2 MSTORE PUSH1 0x20 ADD PUSH2 0x23E JUMP JUMPDEST CALLVALUE DUP1 ISZERO PUSH2 0x349 JUMPI PUSH1 0x0 DUP1 REVERT JUMPDEST POP PUSH2 0x352 PUSH2 0x6EF JUMP JUMPDEST STOP JUMPDEST CALLVALUE DUP1 ISZERO PUSH2 0x360 JUMPI PUSH1 0x0 DUP1 REVERT JUMPDEST POP PUSH2 0x32D PUSH2 0x36F CALLDATASIZE PUSH1 0x4 PUSH2 0x1AD9 JUMP JUMPDEST PUSH1 0x8 PUSH1 0x20 MSTORE PUSH1 0x0 SWAP1 DUP2 MSTORE PUSH1 0x40 SWAP1 KECCAK256 SLOAD PUSH1 0xFF AND DUP2 JUMP JUMPDEST CALLVALUE DUP1 ISZERO PUSH2 0x390 JUMPI PUSH1 0x0 DUP1 REVERT JUMPDEST POP PUSH2 0x234 PUSH1 0x3 SLOAD DUP2 JUMP JUMPDEST CALLVALUE DUP1 ISZERO PUSH2 0x3A6 JUMPI PUSH1 0x0 DUP1 REVERT JUMPDEST POP PUSH2 0x234 PUSH2 0x703 JUMP JUMPDEST CALLVALUE DUP1 ISZERO PUSH2 0x3BB JUMPI PUSH1 0x0 DUP1 REVERT JUMPDEST POP PUSH2 0x234 PUSH2 0x3CA CALLDATASIZE PUSH1 0x4 PUSH2 0x1AFB JUMP JUMPDEST PUSH2 0x717 JUMP JUMPDEST CALLVALUE DUP1 ISZERO PUSH2 0x3DB JUMPI PUSH1 0x0 DUP1 REVERT JUMPDEST POP PUSH1 0x1 SLOAD PUSH1 0x1 PUSH1 0x1 PUSH1 0xA0 SHL SUB AND PUSH2 0x2B5 JUMP JUMPDEST CALLVALUE DUP1 ISZERO PUSH2 0x3F9 JUMPI PUSH1 0x0 DUP1 REVERT JUMPDEST POP PUSH2 0x234 PUSH1 0x5 SLOAD DUP2 JUMP JUMPDEST CALLVALUE DUP1 ISZERO PUSH2 0x40F JUMPI PUSH1 0x0 DUP1 REVERT JUMPDEST POP PUSH2 0x234 PUSH1 0x2 SLOAD DUP2 JUMP JUMPDEST PUSH2 0x352 PUSH2 0x876 JUMP JUMPDEST CALLVALUE DUP1 ISZERO PUSH2 0x42D JUMPI PUSH1 0x0 DUP1 REVERT JUMPDEST POP PUSH2 0x234 PUSH2 0x2710 DUP2 JUMP JUMPDEST CALLVALUE DUP1 ISZERO PUSH2 0x443 JUMPI PUSH1 0x0 DUP1 REVERT JUMPDEST POP PUSH2 0x234 PUSH2 0x452 CALLDATASIZE PUSH1 0x4 PUSH2 0x1AFB JUMP JUMPDEST PUSH2 0xB90 JUMP JUMPDEST CALLVALUE DUP1 ISZERO PUSH2 0x463 JUMPI PUSH1 0x0 DUP1 REVERT JUMPDEST POP PUSH2 0x234 PUSH2 0x472 CALLDATASIZE PUSH1 0x4 PUSH2 0x1AFB JUMP JUMPDEST PUSH2 0xC05 JUMP JUMPDEST CALLVALUE DUP1 ISZERO PUSH2 0x483 JUMPI PUSH1 0x0 DUP1 REVERT JUMPDEST POP PUSH2 0x234 PUSH2 0x492 CALLDATASIZE PUSH1 0x4 PUSH2 0x1AFB JUMP JUMPDEST PUSH2 0xC74 JUMP JUMPDEST CALLVALUE DUP1 ISZERO PUSH2 0x4A3 JUMPI PUSH1 0x0 DUP1 REVERT JUMPDEST POP PUSH2 0x4AC PUSH2 0xD2F JUMP JUMPDEST PUSH1 0x40 DUP1 MLOAD SWAP5 DUP6 MSTORE PUSH1 0x20 DUP6 ADD SWAP4 SWAP1 SWAP4 MSTORE SWAP2 DUP4 ADD MSTORE PUSH1 0x60 DUP3 ADD MSTORE PUSH1 0x80 ADD PUSH2 0x23E JUMP JUMPDEST CALLVALUE DUP1 ISZERO PUSH2 0x4D8 JUMPI PUSH1 0x0 DUP1 REVERT JUMPDEST POP PUSH2 0x234 PUSH2 0x1F4 DUP2 JUMP JUMPDEST CALLVALUE DUP1 ISZERO PUSH2 0x4EE JUMPI PUSH1 0x0 DUP1 REVERT JUMPDEST POP PUSH2 0x234 PUSH1 0xF DUP2 JUMP JUMPDEST CALLVALUE DUP1 ISZERO PUSH2 0x503 JUMPI PUSH1 0x0 DUP1 REVERT JUMPDEST POP PUSH2 0x234 PUSH1 0x9 SLOAD DUP2 JUMP JUMPDEST CALLVALUE DUP1 ISZERO PUSH2 0x519 JUMPI PUSH1 0x0 DUP1 REVERT JUMPDEST POP PUSH2 0x352 PUSH2 0xE16 JUMP JUMPDEST CALLVALUE DUP1 ISZERO PUSH2 0x52E JUMPI PUSH1 0x0 DUP1 REVERT JUMPDEST POP PUSH2 0x352 PUSH2 0x53D CALLDATASIZE PUSH1 0x4 PUSH2 0x1AFB JUMP JUMPDEST PUSH2 0xFEE JUMP JUMPDEST CALLVALUE DUP1 ISZERO PUSH2 0x54E JUMPI PUSH1 0x0 DUP1 REVERT JUMPDEST POP PUSH2 0x234 PUSH1 0x6 SLOAD DUP2 JUMP JUMPDEST CALLVALUE DUP1 ISZERO PUSH2 0x564 JUMPI PUSH1 0x0 DUP1 REVERT JUMPDEST POP PUSH2 0x352 PUSH2 0x573 CALLDATASIZE PUSH1 0x4 PUSH2 0x1AD9 JUMP JUMPDEST PUSH2 0x1406 JUMP JUMPDEST CALLVALUE DUP1 ISZERO PUSH2 0x584 JUMPI PUSH1 0x0 DUP1 REVERT JUMPDEST POP PUSH1 0xA SLOAD PUSH2 0x32D SWAP1 PUSH1 0xFF AND DUP2 JUMP JUMPDEST CALLVALUE DUP1 ISZERO PUSH2 0x59E JUMPI PUSH1 0x0 DUP1 REVERT JUMPDEST POP PUSH2 0x234 PUSH2 0x147E JUMP JUMPDEST CALLVALUE DUP1 ISZERO PUSH2 0x5B3 JUMPI PUSH1 0x0 DUP1 REVERT JUMPDEST POP PUSH2 0x352 PUSH2 0x5C2 CALLDATASIZE PUSH1 0x4 PUSH2 0x1B14 JUMP JUMPDEST PUSH2 0x1493 JUMP JUMPDEST CALLVALUE DUP1 ISZERO PUSH2 0x5D3 JUMPI PUSH1 0x0 DUP1 REVERT JUMPDEST POP PUSH2 0x234 PUSH4 0x3B9ACA00 DUP2 JUMP JUMPDEST CALLVALUE DUP1 ISZERO PUSH2 0x5EB JUMPI PUSH1 0x0 DUP1 REVERT JUMPDEST POP PUSH2 0x352 PUSH2 0x5FA CALLDATASIZE PUSH1 0x4 PUSH2 0x1AD9 JUMP JUMPDEST PUSH2 0x1759 JUMP JUMPDEST CALLVALUE DUP1 ISZERO PUSH2 0x60B JUMPI PUSH1 0x0 DUP1 REVERT JUMPDEST POP PUSH2 0x2B5 PUSH32 0x0 DUP2 JUMP JUMPDEST PUSH2 0x647 PUSH8 0xDE0B6B3A7640000 PUSH2 0xC350 PUSH2 0x1B54 JUMP JUMPDEST DUP2 JUMP JUMPDEST PUSH1 0x0 DUP1 PUSH2 0x658 PUSH1 0x3 SLOAD PUSH2 0xC05 JUMP JUMPDEST SWAP1 POP PUSH1 0x0 PUSH8 0xDE0B6B3A7640000 DUP3 PUSH1 0x3 SLOAD PUSH2 0x673 SWAP2 SWAP1 PUSH2 0x1B54 JUMP JUMPDEST PUSH2 0x67D SWAP2 SWAP1 PUSH2 0x1B6B JUMP JUMPDEST SWAP1 POP PUSH2 0x694 PUSH8 0xDE0B6B3A7640000 PUSH3 0x186A0 PUSH2 0x1B54 JUMP JUMPDEST DUP2 LT ISZERO DUP1 ISZERO PUSH2 0x6B8 JUMPI POP PUSH2 0x6B2 PUSH8 0xDE0B6B3A7640000 PUSH2 0xC350 PUSH2 0x1B54 JUMP JUMPDEST PUSH1 0x2 SLOAD LT ISZERO JUMPDEST DUP1 ISZERO PUSH2 0x6C7 JUMPI POP PUSH1 0x64 PUSH1 0x9 SLOAD LT ISZERO JUMPDEST DUP1 ISZERO PUSH2 0x6E8 JUMPI POP PUSH2 0x6E2 PUSH8 0xDE0B6B3A7640000 PUSH2 0x61A8 PUSH2 0x1B54 JUMP JUMPDEST PUSH1 0x5 SLOAD LT ISZERO JUMPDEST SWAP3 POP POP POP SWAP1 JUMP JUMPDEST PUSH2 0x6F7 PUSH2 0x1794 JUMP JUMPDEST PUSH2 0x701 PUSH1 0x0 PUSH2 0x17C1 JUMP JUMPDEST JUMP JUMPDEST PUSH2 0x647 PUSH8 0xDE0B6B3A7640000 PUSH2 0x61A8 PUSH2 0x1B54 JUMP JUMPDEST PUSH1 0xA SLOAD PUSH1 0x0 SWAP1 PUSH1 0xFF AND ISZERO PUSH2 0x746 JUMPI PUSH1 0x40 MLOAD PUSH3 0x461BCD PUSH1 0xE5 SHL DUP2 MSTORE PUSH1 0x4 ADD PUSH2 0x73D SWAP1 PUSH2 0x1B8D JUMP JUMPDEST PUSH1 0x40 MLOAD DUP1 SWAP2 SUB SWAP1 REVERT JUMPDEST PUSH1 0x0 PUSH2 0x2710 PUSH2 0x756 PUSH1 0x64 DUP6 PUSH2 0x1B54 JUMP JUMPDEST PUSH2 0x760 SWAP2 SWAP1 PUSH2 0x1B6B JUMP JUMPDEST SWAP1 POP PUSH1 0x0 PUSH2 0x76E DUP3 DUP6 PUSH2 0x1BC4 JUMP JUMPDEST SWAP1 POP PUSH1 0x0 DUP1 PUSH32 0x0 PUSH1 0x1 PUSH1 0x1 PUSH1 0xA0 SHL SUB AND PUSH4 0x18160DDD PUSH1 0x40 MLOAD DUP2 PUSH4 0xFFFFFFFF AND PUSH1 0xE0 SHL DUP2 MSTORE PUSH1 0x4 ADD PUSH1 0x20 PUSH1 0x40 MLOAD DUP1 DUP4 SUB DUP2 DUP7 GAS STATICCALL ISZERO DUP1 ISZERO PUSH2 0x7D1 JUMPI RETURNDATASIZE PUSH1 0x0 DUP1 RETURNDATACOPY RETURNDATASIZE PUSH1 0x0 REVERT JUMPDEST POP POP POP POP PUSH1 0x40 MLOAD RETURNDATASIZE PUSH1 0x1F NOT PUSH1 0x1F DUP3 ADD AND DUP3 ADD DUP1 PUSH1 0x40 MSTORE POP DUP2 ADD SWAP1 PUSH2 0x7F5 SWAP2 SWAP1 PUSH2 0x1BD7 JUMP JUMPDEST SWAP1 POP PUSH1 0x0 JUMPDEST DUP2 DUP4 GT PUSH2 0x86C JUMPI PUSH1 0x0 PUSH1 0x2 PUSH2 0x80F DUP5 DUP7 PUSH2 0x1BF0 JUMP JUMPDEST PUSH2 0x819 SWAP2 SWAP1 PUSH2 0x1B6B JUMP JUMPDEST SWAP1 POP PUSH1 0x0 PUSH2 0x826 DUP3 PUSH2 0xB90 JUMP JUMPDEST SWAP1 POP DUP6 DUP2 GT PUSH2 0x846 JUMPI DUP2 SWAP3 POP DUP2 PUSH1 0x1 PUSH2 0x83F SWAP2 SWAP1 PUSH2 0x1BF0 JUMP JUMPDEST SWAP5 POP PUSH2 0x865 JUMP JUMPDEST DUP2 ISZERO PUSH2 0x85E JUMPI PUSH2 0x857 PUSH1 0x1 DUP4 PUSH2 0x1BC4 JUMP JUMPDEST SWAP4 POP PUSH2 0x865 JUMP JUMPDEST POP POP PUSH2 0x86C JUMP JUMPDEST POP POP PUSH2 0x7FA JUMP JUMPDEST SWAP7 SWAP6 POP POP POP POP POP POP JUMP JUMPDEST PUSH2 0x87E PUSH2 0x1813 JUMP JUMPDEST PUSH1 0xA SLOAD PUSH1 0xFF AND ISZERO PUSH2 0x8A1 JUMPI PUSH1 0x40 MLOAD PUSH3 0x461BCD PUSH1 0xE5 SHL DUP2 MSTORE PUSH1 0x4 ADD PUSH2 0x73D SWAP1 PUSH2 0x1B8D JUMP JUMPDEST PUSH1 0x0 CALLVALUE GT PUSH2 0x8DF JUMPI PUSH1 0x40 MLOAD PUSH3 0x461BCD PUSH1 0xE5 SHL DUP2 MSTORE PUSH1 0x20 PUSH1 0x4 DUP3 ADD MSTORE PUSH1 0xB PUSH1 0x24 DUP3 ADD MSTORE PUSH11 0x139BC8115512081CD95B9D PUSH1 0xAA SHL PUSH1 0x44 DUP3 ADD MSTORE PUSH1 0x64 ADD PUSH2 0x73D JUMP JUMPDEST PUSH1 0x0 PUSH2 0x8EA CALLVALUE PUSH2 0x717 JUMP JUMPDEST SWAP1 POP PUSH1 0x0 DUP2 GT PUSH2 0x94A JUMPI PUSH1 0x40 MLOAD PUSH3 0x461BCD PUSH1 0xE5 SHL DUP2 MSTORE PUSH1 0x20 PUSH1 0x4 DUP3 ADD MSTORE PUSH1 0x25 PUSH1 0x24 DUP3 ADD MSTORE PUSH32 0x496E73756666696369656E742045544820666F72206D696E696D756D20707572 PUSH1 0x44 DUP3 ADD MSTORE PUSH5 0x6368617365 PUSH1 0xD8 SHL PUSH1 0x64 DUP3 ADD MSTORE PUSH1 0x84 ADD PUSH2 0x73D JUMP JUMPDEST PUSH1 0x0 PUSH2 0x2710 PUSH2 0x95A PUSH1 0x64 CALLVALUE PUSH2 0x1B54 JUMP JUMPDEST PUSH2 0x964 SWAP2 SWAP1 PUSH2 0x1B6B JUMP JUMPDEST SWAP1 POP PUSH1 0x0 PUSH2 0x972 DUP3 CALLVALUE PUSH2 0x1BC4 JUMP JUMPDEST SWAP1 POP DUP3 PUSH1 0x3 PUSH1 0x0 DUP3 DUP3 SLOAD PUSH2 0x986 SWAP2 SWAP1 PUSH2 0x1BF0 JUMP JUMPDEST SWAP3 POP POP DUP2 SWAP1 SSTORE POP DUP1 PUSH1 0x2 PUSH1 0x0 DUP3 DUP3 SLOAD PUSH2 0x99F SWAP2 SWAP1 PUSH2 0x1BF0 JUMP JUMPDEST SWAP3 POP POP DUP2 SWAP1 SSTORE POP CALLVALUE PUSH1 0x4 PUSH1 0x0 DUP3 DUP3 SLOAD PUSH2 0x9B8 SWAP2 SWAP1 PUSH2 0x1BF0 JUMP JUMPDEST SWAP1 SWAP2 SSTORE POP PUSH2 0x9C7 SWAP1 POP CALLVALUE PUSH2 0x183D JUMP JUMPDEST CALLER PUSH1 0x0 SWAP1 DUP2 MSTORE PUSH1 0x7 PUSH1 0x20 MSTORE PUSH1 0x40 SWAP1 KECCAK256 SLOAD ISZERO DUP1 ISZERO PUSH2 0x9E4 JUMPI POP PUSH1 0x0 DUP4 GT JUMPDEST ISZERO PUSH2 0xA17 JUMPI CALLER PUSH1 0x0 SWAP1 DUP2 MSTORE PUSH1 0x8 PUSH1 0x20 MSTORE PUSH1 0x40 DUP2 KECCAK256 DUP1 SLOAD PUSH1 0xFF NOT AND PUSH1 0x1 OR SWAP1 SSTORE PUSH1 0x9 DUP1 SLOAD SWAP2 PUSH2 0xA11 DUP4 PUSH2 0x1C03 JUMP JUMPDEST SWAP2 SWAP1 POP SSTORE POP JUMPDEST CALLER PUSH1 0x0 SWAP1 DUP2 MSTORE PUSH1 0x7 PUSH1 0x20 MSTORE PUSH1 0x40 DUP2 KECCAK256 DUP1 SLOAD DUP6 SWAP3 SWAP1 PUSH2 0xA36 SWAP1 DUP5 SWAP1 PUSH2 0x1BF0 JUMP JUMPDEST SWAP1 SWAP2 SSTORE POP PUSH2 0xA70 SWAP1 POP PUSH1 0x1 PUSH1 0x1 PUSH1 0xA0 SHL SUB PUSH32 0x0 AND CALLER DUP6 PUSH2 0x1876 JUMP JUMPDEST DUP2 ISZERO PUSH2 0xB2D JUMPI PUSH1 0xB SLOAD PUSH1 0x40 MLOAD PUSH1 0x0 SWAP2 PUSH1 0x1 PUSH1 0x1 PUSH1 0xA0 SHL SUB AND SWAP1 DUP5 SWAP1 DUP4 DUP2 DUP2 DUP2 DUP6 DUP8 GAS CALL SWAP3 POP POP POP RETURNDATASIZE DUP1 PUSH1 0x0 DUP2 EQ PUSH2 0xAC3 JUMPI PUSH1 0x40 MLOAD SWAP2 POP PUSH1 0x1F NOT PUSH1 0x3F RETURNDATASIZE ADD AND DUP3 ADD PUSH1 0x40 MSTORE RETURNDATASIZE DUP3 MSTORE RETURNDATASIZE PUSH1 0x0 PUSH1 0x20 DUP5 ADD RETURNDATACOPY PUSH2 0xAC8 JUMP JUMPDEST PUSH1 0x60 SWAP2 POP JUMPDEST POP POP SWAP1 POP DUP1 PUSH2 0xAE9 JUMPI PUSH1 0x40 MLOAD PUSH3 0x461BCD PUSH1 0xE5 SHL DUP2 MSTORE PUSH1 0x4 ADD PUSH2 0x73D SWAP1 PUSH2 0x1C1C JUMP JUMPDEST PUSH1 0xB SLOAD PUSH1 0x40 MLOAD DUP5 DUP2 MSTORE PUSH1 0x1 PUSH1 0x1 PUSH1 0xA0 SHL SUB SWAP1 SWAP2 AND SWAP1 PUSH32 0x9DC46F23CFB5DDCAD0AE7EA2BE38D47FEC07BB9382EC7E564EFC69E036DD66CE SWAP1 PUSH1 0x20 ADD PUSH1 0x40 MLOAD DUP1 SWAP2 SUB SWAP1 LOG2 POP JUMPDEST CALLER PUSH1 0x1 PUSH1 0x1 PUSH1 0xA0 SHL SUB AND PUSH32 0xD1A0D5E3D583A0E92588799DD06E50FD78C07DAF05F0CC06D7B848B1CA445F1 CALLVALUE DUP6 PUSH2 0xB65 PUSH1 0x3 SLOAD PUSH2 0xC05 JUMP JUMPDEST PUSH1 0x40 DUP1 MLOAD SWAP4 DUP5 MSTORE PUSH1 0x20 DUP5 ADD SWAP3 SWAP1 SWAP3 MSTORE SWAP1 DUP3 ADD MSTORE PUSH1 0x60 ADD PUSH1 0x40 MLOAD DUP1 SWAP2 SUB SWAP1 LOG2 POP POP POP PUSH2 0x701 PUSH1 0x1 PUSH1 0x0 SSTORE JUMP JUMPDEST PUSH1 0xA SLOAD PUSH1 0x0 SWAP1 PUSH1 0xFF AND ISZERO PUSH2 0xBB6 JUMPI PUSH1 0x40 MLOAD PUSH3 0x461BCD PUSH1 0xE5 SHL DUP2 MSTORE PUSH1 0x4 ADD PUSH2 0x73D SWAP1 PUSH2 0x1B8D JUMP JUMPDEST PUSH1 0x3 SLOAD PUSH1 0x0 PUSH2 0xBC5 DUP5 DUP4 PUSH2 0x1BF0 JUMP JUMPDEST SWAP1 POP PUSH1 0x0 PUSH2 0xBD3 DUP4 DUP4 PUSH2 0x18DA JUMP JUMPDEST SWAP1 POP PUSH1 0x0 PUSH2 0xBE4 PUSH1 0x64 PUSH2 0x2710 PUSH2 0x1BC4 JUMP JUMPDEST PUSH2 0xBEF PUSH1 0x64 DUP5 PUSH2 0x1B54 JUMP JUMPDEST PUSH2 0xBF9 SWAP2 SWAP1 PUSH2 0x1B6B JUMP JUMPDEST SWAP1 POP PUSH2 0x86C DUP2 DUP4 PUSH2 0x1BF0 JUMP JUMPDEST PUSH1 0x0 DUP2 PUSH1 0x0 SUB PUSH2 0xC18 JUMPI POP PUSH2 0x2710 SWAP2 SWAP1 POP JUMP JUMPDEST PUSH1 0x0 PUSH2 0xC28 PUSH4 0x3B9ACA00 DUP5 PUSH2 0x1B6B JUMP JUMPDEST SWAP1 POP PUSH1 0x0 DUP2 PUSH2 0xC37 DUP2 DUP1 PUSH2 0x1B54 JUMP JUMPDEST PUSH2 0xC41 SWAP2 SWAP1 PUSH2 0x1B54 JUMP JUMPDEST SWAP1 POP PUSH1 0x0 PUSH2 0xC4E DUP3 PUSH2 0x19A3 JUMP JUMPDEST SWAP1 POP PUSH4 0x3B9ACA00 PUSH2 0xC61 DUP3 PUSH2 0x2710 PUSH2 0x1B54 JUMP JUMPDEST PUSH2 0xC6B SWAP2 SWAP1 PUSH2 0x1B6B JUMP JUMPDEST SWAP6 SWAP5 POP POP POP POP POP JUMP JUMPDEST PUSH1 0xA SLOAD PUSH1 0x0 SWAP1 PUSH1 0xFF AND ISZERO PUSH2 0xC9A JUMPI PUSH1 0x40 MLOAD PUSH3 0x461BCD PUSH1 0xE5 SHL DUP2 MSTORE PUSH1 0x4 ADD PUSH2 0x73D SWAP1 PUSH2 0x1B8D JUMP JUMPDEST PUSH1 0x3 SLOAD DUP3 GT ISZERO PUSH2 0xCE5 JUMPI PUSH1 0x40 MLOAD PUSH3 0x461BCD PUSH1 0xE5 SHL DUP2 MSTORE PUSH1 0x20 PUSH1 0x4 DUP3 ADD MSTORE PUSH1 0x16 PUSH1 0x24 DUP3 ADD MSTORE PUSH22 0x496E73756666696369656E74206C6971756964697479 PUSH1 0x50 SHL PUSH1 0x44 DUP3 ADD MSTORE PUSH1 0x64 ADD PUSH2 0x73D JUMP JUMPDEST PUSH1 0x0 DUP3 PUSH1 0x3 SLOAD PUSH2 0xCF5 SWAP2 SWAP1 PUSH2 0x1BC4 JUMP JUMPDEST PUSH1 0x3 SLOAD SWAP1 SWAP2 POP PUSH1 0x0 PUSH2 0xD07 DUP4 DUP4 PUSH2 0x18DA JUMP JUMPDEST SWAP1 POP PUSH1 0x0 PUSH2 0x2710 PUSH2 0xD19 PUSH1 0x64 DUP5 PUSH2 0x1B54 JUMP JUMPDEST PUSH2 0xD23 SWAP2 SWAP1 PUSH2 0x1B6B JUMP JUMPDEST SWAP1 POP PUSH2 0x86C DUP2 DUP4 PUSH2 0x1BC4 JUMP JUMPDEST PUSH1 0x0 DUP1 PUSH1 0x0 DUP1 PUSH1 0x0 PUSH2 0xD42 PUSH1 0x3 SLOAD PUSH2 0xC05 JUMP JUMPDEST SWAP1 POP PUSH1 0x0 PUSH8 0xDE0B6B3A7640000 DUP3 PUSH1 0x3 SLOAD PUSH2 0xD5D SWAP2 SWAP1 PUSH2 0x1B54 JUMP JUMPDEST PUSH2 0xD67 SWAP2 SWAP1 PUSH2 0x1B6B JUMP JUMPDEST SWAP1 POP PUSH2 0xD7E PUSH8 0xDE0B6B3A7640000 PUSH3 0x186A0 PUSH2 0x1B54 JUMP JUMPDEST PUSH2 0xD89 DUP3 PUSH1 0x64 PUSH2 0x1B54 JUMP JUMPDEST PUSH2 0xD93 SWAP2 SWAP1 PUSH2 0x1B6B JUMP JUMPDEST SWAP6 POP PUSH2 0xDA9 PUSH8 0xDE0B6B3A7640000 PUSH2 0xC350 PUSH2 0x1B54 JUMP JUMPDEST PUSH1 0x2 SLOAD PUSH2 0xDB7 SWAP1 PUSH1 0x64 PUSH2 0x1B54 JUMP JUMPDEST PUSH2 0xDC1 SWAP2 SWAP1 PUSH2 0x1B6B JUMP JUMPDEST SWAP5 POP PUSH1 0x64 PUSH1 0x9 SLOAD PUSH1 0x64 PUSH2 0xDD4 SWAP2 SWAP1 PUSH2 0x1B54 JUMP JUMPDEST PUSH2 0xDDE SWAP2 SWAP1 PUSH2 0x1B6B JUMP JUMPDEST SWAP4 POP PUSH2 0xDF4 PUSH8 0xDE0B6B3A7640000 PUSH2 0x61A8 PUSH2 0x1B54 JUMP JUMPDEST PUSH1 0x5 SLOAD PUSH2 0xE02 SWAP1 PUSH1 0x64 PUSH2 0x1B54 JUMP JUMPDEST PUSH2 0xE0C SWAP2 SWAP1 PUSH2 0x1B6B JUMP JUMPDEST SWAP3 POP POP POP SWAP1 SWAP2 SWAP3 SWAP4 JUMP JUMPDEST PUSH2 0xE1E PUSH2 0x1794 JUMP JUMPDEST PUSH1 0xA SLOAD PUSH1 0xFF AND PUSH2 0xE60 JUMPI PUSH1 0x40 MLOAD PUSH3 0x461BCD PUSH1 0xE5 SHL DUP2 MSTORE PUSH1 0x20 PUSH1 0x4 DUP3 ADD MSTORE PUSH1 0xD PUSH1 0x24 DUP3 ADD MSTORE PUSH13 0x139BDD0819DC98591D585D1959 PUSH1 0x9A SHL PUSH1 0x44 DUP3 ADD MSTORE PUSH1 0x64 ADD PUSH2 0x73D JUMP JUMPDEST SELFBALANCE DUP1 ISZERO PUSH2 0xF11 JUMPI PUSH1 0x0 PUSH2 0xE7B PUSH1 0x1 SLOAD PUSH1 0x1 PUSH1 0x1 PUSH1 0xA0 SHL SUB AND SWAP1 JUMP JUMPDEST PUSH1 0x1 PUSH1 0x1 PUSH1 0xA0 SHL SUB AND DUP3 PUSH1 0x40 MLOAD PUSH1 0x0 PUSH1 0x40 MLOAD DUP1 DUP4 SUB DUP2 DUP6 DUP8 GAS CALL SWAP3 POP POP POP RETURNDATASIZE DUP1 PUSH1 0x0 DUP2 EQ PUSH2 0xEC5 JUMPI PUSH1 0x40 MLOAD SWAP2 POP PUSH1 0x1F NOT PUSH1 0x3F RETURNDATASIZE ADD AND DUP3 ADD PUSH1 0x40 MSTORE RETURNDATASIZE DUP3 MSTORE RETURNDATASIZE PUSH1 0x0 PUSH1 0x20 DUP5 ADD RETURNDATACOPY PUSH2 0xECA JUMP JUMPDEST PUSH1 0x60 SWAP2 POP JUMPDEST POP POP SWAP1 POP DUP1 PUSH2 0xF0F JUMPI PUSH1 0x40 MLOAD PUSH3 0x461BCD PUSH1 0xE5 SHL DUP2 MSTORE PUSH1 0x20 PUSH1 0x4 DUP3 ADD MSTORE PUSH1 0x11 PUSH1 0x24 DUP3 ADD MSTORE PUSH17 0x15DA5D1A191C985DD85B0819985A5B1959 PUSH1 0x7A SHL PUSH1 0x44 DUP3 ADD MSTORE PUSH1 0x64 ADD PUSH2 0x73D JUMP JUMPDEST POP JUMPDEST PUSH1 0x40 MLOAD PUSH4 0x70A08231 PUSH1 0xE0 SHL DUP2 MSTORE ADDRESS PUSH1 0x4 DUP3 ADD MSTORE PUSH1 0x0 SWAP1 PUSH32 0x0 PUSH1 0x1 PUSH1 0x1 PUSH1 0xA0 SHL SUB AND SWAP1 PUSH4 0x70A08231 SWAP1 PUSH1 0x24 ADD PUSH1 0x20 PUSH1 0x40 MLOAD DUP1 DUP4 SUB DUP2 DUP7 GAS STATICCALL ISZERO DUP1 ISZERO PUSH2 0xF78 JUMPI RETURNDATASIZE PUSH1 0x0 DUP1 RETURNDATACOPY RETURNDATASIZE PUSH1 0x0 REVERT JUMPDEST POP POP POP POP PUSH1 0x40 MLOAD RETURNDATASIZE PUSH1 0x1F NOT PUSH1 0x1F DUP3 ADD AND DUP3 ADD DUP1 PUSH1 0x40 MSTORE POP DUP2 ADD SWAP1 PUSH2 0xF9C SWAP2 SWAP1 PUSH2 0x1BD7 JUMP JUMPDEST SWAP1 POP DUP1 ISZERO PUSH2 0xFEA JUMPI PUSH2 0xFEA PUSH2 0xFB9 PUSH1 0x1 SLOAD PUSH1 0x1 PUSH1 0x1 PUSH1 0xA0 SHL SUB AND SWAP1 JUMP JUMPDEST PUSH1 0x1 PUSH1 0x1 PUSH1 0xA0 SHL SUB PUSH32 0x0 AND SWAP1 DUP4 PUSH2 0x1876 JUMP JUMPDEST POP POP JUMP JUMPDEST PUSH2 0xFF6 PUSH2 0x1813 JUMP JUMPDEST PUSH1 0xA SLOAD PUSH1 0xFF AND ISZERO PUSH2 0x1019 JUMPI PUSH1 0x40 MLOAD PUSH3 0x461BCD PUSH1 0xE5 SHL DUP2 MSTORE PUSH1 0x4 ADD PUSH2 0x73D SWAP1 PUSH2 0x1B8D JUMP JUMPDEST PUSH1 0x0 DUP2 GT PUSH2 0x105A JUMPI PUSH1 0x40 MLOAD PUSH3 0x461BCD PUSH1 0xE5 SHL DUP2 MSTORE PUSH1 0x20 PUSH1 0x4 DUP3 ADD MSTORE PUSH1 0xE PUSH1 0x24 DUP3 ADD MSTORE PUSH14 0x125B9D985B1A5908185B5BDD5B9D PUSH1 0x92 SHL PUSH1 0x44 DUP3 ADD MSTORE PUSH1 0x64 ADD PUSH2 0x73D JUMP JUMPDEST CALLER PUSH1 0x0 SWAP1 DUP2 MSTORE PUSH1 0x7 PUSH1 0x20 MSTORE PUSH1 0x40 SWAP1 KECCAK256 SLOAD DUP2 GT ISZERO PUSH2 0x10B0 JUMPI PUSH1 0x40 MLOAD PUSH3 0x461BCD PUSH1 0xE5 SHL DUP2 MSTORE PUSH1 0x20 PUSH1 0x4 DUP3 ADD MSTORE PUSH1 0x14 PUSH1 0x24 DUP3 ADD MSTORE PUSH20 0x496E73756666696369656E742062616C616E6365 PUSH1 0x60 SHL PUSH1 0x44 DUP3 ADD MSTORE PUSH1 0x64 ADD PUSH2 0x73D JUMP JUMPDEST PUSH1 0x0 PUSH2 0x10BB DUP3 PUSH2 0xC74 JUMP JUMPDEST SWAP1 POP PUSH1 0x0 DUP2 GT PUSH2 0x10FD JUMPI PUSH1 0x40 MLOAD PUSH3 0x461BCD PUSH1 0xE5 SHL DUP2 MSTORE PUSH1 0x20 PUSH1 0x4 DUP3 ADD MSTORE PUSH1 0xD PUSH1 0x24 DUP3 ADD MSTORE PUSH13 0x27379022AA24103932BA3AB937 PUSH1 0x99 SHL PUSH1 0x44 DUP3 ADD MSTORE PUSH1 0x64 ADD PUSH2 0x73D JUMP JUMPDEST DUP1 PUSH1 0x2 SLOAD LT ISZERO PUSH2 0x1147 JUMPI PUSH1 0x40 MLOAD PUSH3 0x461BCD PUSH1 0xE5 SHL DUP2 MSTORE PUSH1 0x20 PUSH1 0x4 DUP3 ADD MSTORE PUSH1 0x15 PUSH1 0x24 DUP3 ADD MSTORE PUSH21 0x496E73756666696369656E74207265736572766573 PUSH1 0x58 SHL PUSH1 0x44 DUP3 ADD MSTORE PUSH1 0x64 ADD PUSH2 0x73D JUMP JUMPDEST DUP2 PUSH1 0x3 PUSH1 0x0 DUP3 DUP3 SLOAD PUSH2 0x1159 SWAP2 SWAP1 PUSH2 0x1BC4 JUMP JUMPDEST SWAP3 POP POP DUP2 SWAP1 SSTORE POP DUP1 PUSH1 0x2 PUSH1 0x0 DUP3 DUP3 SLOAD PUSH2 0x1172 SWAP2 SWAP1 PUSH2 0x1BC4 JUMP JUMPDEST SWAP3 POP POP DUP2 SWAP1 SSTORE POP DUP1 PUSH1 0x4 PUSH1 0x0 DUP3 DUP3 SLOAD PUSH2 0x118B SWAP2 SWAP1 PUSH2 0x1BF0 JUMP JUMPDEST SWAP1 SWAP2 SSTORE POP PUSH2 0x119A SWAP1 POP DUP2 PUSH2 0x183D JUMP JUMPDEST CALLER PUSH1 0x0 SWAP1 DUP2 MSTORE PUSH1 0x7 PUSH1 0x20 MSTORE PUSH1 0x40 DUP2 KECCAK256 DUP1 SLOAD DUP5 SWAP3 SWAP1 PUSH2 0x11B9 SWAP1 DUP5 SWAP1 PUSH2 0x1BC4 JUMP JUMPDEST SWAP1 SWAP2 SSTORE POP POP CALLER PUSH1 0x0 SWAP1 DUP2 MSTORE PUSH1 0x7 PUSH1 0x20 MSTORE PUSH1 0x40 DUP2 KECCAK256 SLOAD SWAP1 SUB PUSH2 0x11EA JUMPI PUSH1 0x9 DUP1 SLOAD SWAP1 PUSH1 0x0 PUSH2 0x11E4 DUP4 PUSH2 0x1C49 JUMP JUMPDEST SWAP2 SWAP1 POP SSTORE POP JUMPDEST PUSH2 0x121F PUSH1 0x1 PUSH1 0x1 PUSH1 0xA0 SHL SUB PUSH32 0x0 AND CALLER ADDRESS DUP6 PUSH2 0x1A0D JUMP JUMPDEST PUSH1 0x0 PUSH2 0x122E PUSH1 0x64 PUSH2 0x2710 PUSH2 0x1BC4 JUMP JUMPDEST PUSH2 0x1239 PUSH1 0x64 DUP5 PUSH2 0x1B54 JUMP JUMPDEST PUSH2 0x1243 SWAP2 SWAP1 PUSH2 0x1B6B JUMP JUMPDEST SWAP1 POP PUSH1 0x0 PUSH2 0x1251 DUP3 DUP5 PUSH2 0x1BC4 JUMP JUMPDEST PUSH1 0x40 MLOAD SWAP1 SWAP2 POP PUSH1 0x0 SWAP1 CALLER SWAP1 DUP4 SWAP1 DUP4 DUP2 DUP2 DUP2 DUP6 DUP8 GAS CALL SWAP3 POP POP POP RETURNDATASIZE DUP1 PUSH1 0x0 DUP2 EQ PUSH2 0x1296 JUMPI PUSH1 0x40 MLOAD SWAP2 POP PUSH1 0x1F NOT PUSH1 0x3F RETURNDATASIZE ADD AND DUP3 ADD PUSH1 0x40 MSTORE RETURNDATASIZE DUP3 MSTORE RETURNDATASIZE PUSH1 0x0 PUSH1 0x20 DUP5 ADD RETURNDATACOPY PUSH2 0x129B JUMP JUMPDEST PUSH1 0x60 SWAP2 POP JUMPDEST POP POP SWAP1 POP DUP1 PUSH2 0x12E2 JUMPI PUSH1 0x40 MLOAD PUSH3 0x461BCD PUSH1 0xE5 SHL DUP2 MSTORE PUSH1 0x20 PUSH1 0x4 DUP3 ADD MSTORE PUSH1 0x13 PUSH1 0x24 DUP3 ADD MSTORE PUSH19 0x115512081D1C985B9CD9995C8819985A5B1959 PUSH1 0x6A SHL PUSH1 0x44 DUP3 ADD MSTORE PUSH1 0x64 ADD PUSH2 0x73D JUMP JUMPDEST DUP3 ISZERO PUSH2 0x139F JUMPI PUSH1 0xB SLOAD PUSH1 0x40 MLOAD PUSH1 0x0 SWAP2 PUSH1 0x1 PUSH1 0x1 PUSH1 0xA0 SHL SUB AND SWAP1 DUP6 SWAP1 DUP4 DUP2 DUP2 DUP2 DUP6 DUP8 GAS CALL SWAP3 POP POP POP RETURNDATASIZE DUP1 PUSH1 0x0 DUP2 EQ PUSH2 0x1335 JUMPI PUSH1 0x40 MLOAD SWAP2 POP PUSH1 0x1F NOT PUSH1 0x3F RETURNDATASIZE ADD AND DUP3 ADD PUSH1 0x40 MSTORE RETURNDATASIZE DUP3 MSTORE RETURNDATASIZE PUSH1 0x0 PUSH1 0x20 DUP5 ADD RETURNDATACOPY PUSH2 0x133A JUMP JUMPDEST PUSH1 0x60 SWAP2 POP JUMPDEST POP POP SWAP1 POP DUP1 PUSH2 0x135B JUMPI PUSH1 0x40 MLOAD PUSH3 0x461BCD PUSH1 0xE5 SHL DUP2 MSTORE PUSH1 0x4 ADD PUSH2 0x73D SWAP1 PUSH2 0x1C1C JUMP JUMPDEST PUSH1 0xB SLOAD PUSH1 0x40 MLOAD DUP6 DUP2 MSTORE PUSH1 0x1 PUSH1 0x1 PUSH1 0xA0 SHL SUB SWAP1 SWAP2 AND SWAP1 PUSH32 0x9DC46F23CFB5DDCAD0AE7EA2BE38D47FEC07BB9382EC7E564EFC69E036DD66CE SWAP1 PUSH1 0x20 ADD PUSH1 0x40 MLOAD DUP1 SWAP2 SUB SWAP1 LOG2 POP JUMPDEST CALLER PUSH1 0x1 PUSH1 0x1 PUSH1 0xA0 SHL SUB AND PUSH32 0x6DB63BEBF1E6540277744DF32846EBDB98385B1A73F2D5DE49B28348ADD63F50 DUP7 DUP5 PUSH2 0x13D7 PUSH1 0x3 SLOAD PUSH2 0xC05 JUMP JUMPDEST PUSH1 0x40 DUP1 MLOAD SWAP4 DUP5 MSTORE PUSH1 0x20 DUP5 ADD SWAP3 SWAP1 SWAP3 MSTORE SWAP1 DUP3 ADD MSTORE PUSH1 0x60 ADD PUSH1 0x40 MLOAD DUP1 SWAP2 SUB SWAP1 LOG2 POP POP POP POP PUSH2 0x1403 PUSH1 0x1 PUSH1 0x0 SSTORE JUMP JUMPDEST POP JUMP JUMPDEST PUSH2 0x140E PUSH2 0x1794 JUMP JUMPDEST PUSH1 0x1 PUSH1 0x1 PUSH1 0xA0 SHL SUB DUP2 AND PUSH2 0x145C JUMPI PUSH1 0x40 MLOAD PUSH3 0x461BCD PUSH1 0xE5 SHL DUP2 MSTORE PUSH1 0x20 PUSH1 0x4 DUP3 ADD MSTORE PUSH1 0x15 PUSH1 0x24 DUP3 ADD MSTORE PUSH21 0x125B9D985B1A5908199959481C9958DA5C1A595B9D PUSH1 0x5A SHL PUSH1 0x44 DUP3 ADD MSTORE PUSH1 0x64 ADD PUSH2 0x73D JUMP JUMPDEST PUSH1 0xB DUP1 SLOAD PUSH1 0x1 PUSH1 0x1 PUSH1 0xA0 SHL SUB NOT AND PUSH1 0x1 PUSH1 0x1 PUSH1 0xA0 SHL SUB SWAP3 SWAP1 SWAP3 AND SWAP2 SWAP1 SWAP2 OR SWAP1 SSTORE JUMP JUMPDEST PUSH2 0x647 PUSH8 0xDE0B6B3A7640000 PUSH3 0x186A0 PUSH2 0x1B54 JUMP JUMPDEST PUSH2 0x149B PUSH2 0x1794 JUMP JUMPDEST PUSH1 0xA SLOAD PUSH1 0xFF AND ISZERO PUSH2 0x14E2 JUMPI PUSH1 0x40 MLOAD PUSH3 0x461BCD PUSH1 0xE5 SHL DUP2 MSTORE PUSH1 0x20 PUSH1 0x4 DUP3 ADD MSTORE PUSH1 0x11 PUSH1 0x24 DUP3 ADD MSTORE PUSH17 0x105B1C9958591E4819DC98591D585D1959 PUSH1 0x7A SHL PUSH1 0x44 DUP3 ADD MSTORE PUSH1 0x64 ADD PUSH2 0x73D JUMP JUMPDEST PUSH1 0x1 PUSH1 0x1 PUSH1 0xA0 SHL SUB DUP3 AND PUSH2 0x152B JUMPI PUSH1 0x40 MLOAD PUSH3 0x461BCD PUSH1 0xE5 SHL DUP2 MSTORE PUSH1 0x20 PUSH1 0x4 DUP3 ADD MSTORE PUSH1 0x10 PUSH1 0x24 DUP3 ADD MSTORE PUSH16 0x125B9D985B1A5908111156081C1BDBDB PUSH1 0x82 SHL PUSH1 0x44 DUP3 ADD MSTORE PUSH1 0x64 ADD PUSH2 0x73D JUMP JUMPDEST PUSH1 0x64 DUP2 GT ISZERO PUSH2 0x1571 JUMPI PUSH1 0x40 MLOAD PUSH3 0x461BCD PUSH1 0xE5 SHL DUP2 MSTORE PUSH1 0x20 PUSH1 0x4 DUP3 ADD MSTORE PUSH1 0x12 PUSH1 0x24 DUP3 ADD MSTORE PUSH18 0x496E76616C69642070657263656E74616765 PUSH1 0x70 SHL PUSH1 0x44 DUP3 ADD MSTORE PUSH1 0x64 ADD PUSH2 0x73D JUMP JUMPDEST PUSH2 0x1579 PUSH2 0x64A JUMP JUMPDEST PUSH2 0x15C5 JUMPI PUSH1 0x40 MLOAD PUSH3 0x461BCD PUSH1 0xE5 SHL DUP2 MSTORE PUSH1 0x20 PUSH1 0x4 DUP3 ADD MSTORE PUSH1 0x1B PUSH1 0x24 DUP3 ADD MSTORE PUSH32 0x4E6F7420656C696769626C6520666F722067726164756174696F6E0000000000 PUSH1 0x44 DUP3 ADD MSTORE PUSH1 0x64 ADD PUSH2 0x73D JUMP JUMPDEST PUSH1 0xA DUP1 SLOAD PUSH1 0x1 PUSH1 0x1 PUSH1 0xA0 SHL SUB DUP5 AND PUSH2 0x100 MUL PUSH1 0x1 PUSH1 0x1 PUSH1 0xA8 SHL SUB NOT SWAP1 SWAP2 AND OR PUSH1 0x1 OR SWAP1 SSTORE PUSH1 0x2 SLOAD PUSH1 0x0 SWAP1 PUSH1 0x64 SWAP1 PUSH2 0x15FD SWAP1 DUP5 SWAP1 PUSH2 0x1B54 JUMP JUMPDEST PUSH2 0x1607 SWAP2 SWAP1 PUSH2 0x1B6B JUMP JUMPDEST SWAP1 POP PUSH1 0x0 PUSH1 0x64 PUSH1 0x3 SLOAD PUSH1 0x1E PUSH2 0x161C SWAP2 SWAP1 PUSH2 0x1B54 JUMP JUMPDEST PUSH2 0x1626 SWAP2 SWAP1 PUSH2 0x1B6B JUMP JUMPDEST SWAP1 POP PUSH1 0x0 PUSH2 0x2710 PUSH2 0x1639 PUSH2 0x1F4 DUP6 PUSH2 0x1B54 JUMP JUMPDEST PUSH2 0x1643 SWAP2 SWAP1 PUSH2 0x1B6B JUMP JUMPDEST SWAP1 POP PUSH2 0x164F DUP2 DUP5 PUSH2 0x1BC4 JUMP JUMPDEST SWAP3 POP DUP1 ISZERO PUSH2 0x170E JUMPI PUSH1 0xB SLOAD PUSH1 0x40 MLOAD PUSH1 0x0 SWAP2 PUSH1 0x1 PUSH1 0x1 PUSH1 0xA0 SHL SUB AND SWAP1 DUP4 SWAP1 DUP4 DUP2 DUP2 DUP2 DUP6 DUP8 GAS CALL SWAP3 POP POP POP RETURNDATASIZE DUP1 PUSH1 0x0 DUP2 EQ PUSH2 0x16A4 JUMPI PUSH1 0x40 MLOAD SWAP2 POP PUSH1 0x1F NOT PUSH1 0x3F RETURNDATASIZE ADD AND DUP3 ADD PUSH1 0x40 MSTORE RETURNDATASIZE DUP3 MSTORE RETURNDATASIZE PUSH1 0x0 PUSH1 0x20 DUP5 ADD RETURNDATACOPY PUSH2 0x16A9 JUMP JUMPDEST PUSH1 0x60 SWAP2 POP JUMPDEST POP POP SWAP1 POP DUP1 PUSH2 0x16CA JUMPI PUSH1 0x40 MLOAD PUSH3 0x461BCD PUSH1 0xE5 SHL DUP2 MSTORE PUSH1 0x4 ADD PUSH2 0x73D SWAP1 PUSH2 0x1C1C JUMP JUMPDEST PUSH1 0xB SLOAD PUSH1 0x40 MLOAD DUP4 DUP2 MSTORE PUSH1 0x1 PUSH1 0x1 PUSH1 0xA0 SHL SUB SWAP1 SWAP2 AND SWAP1 PUSH32 0x9DC46F23CFB5DDCAD0AE7EA2BE38D47FEC07BB9382EC7E564EFC69E036DD66CE SWAP1 PUSH1 0x20 ADD PUSH1 0x40 MLOAD DUP1 SWAP2 SUB SWAP1 LOG2 POP JUMPDEST PUSH1 0x40 DUP1 MLOAD DUP5 DUP2 MSTORE PUSH1 0x20 DUP2 ADD DUP5 SWAP1 MSTORE PUSH1 0x1 PUSH1 0x1 PUSH1 0xA0 SHL SUB DUP8 AND SWAP2 PUSH32 0x1C858049E704460AB9455025BE4078F9E746E3FD426A56040D06389EDB8197DB SWAP2 ADD PUSH1 0x40 MLOAD DUP1 SWAP2 SUB SWAP1 LOG2 POP POP POP POP POP JUMP JUMPDEST PUSH2 0x1761 PUSH2 0x1794 JUMP JUMPDEST PUSH1 0x1 PUSH1 0x1 PUSH1 0xA0 SHL SUB DUP2 AND PUSH2 0x178B JUMPI PUSH1 0x40 MLOAD PUSH4 0x1E4FBDF7 PUSH1 0xE0 SHL DUP2 MSTORE PUSH1 0x0 PUSH1 0x4 DUP3 ADD MSTORE PUSH1 0x24 ADD PUSH2 0x73D JUMP JUMPDEST PUSH2 0x1403 DUP2 PUSH2 0x17C1 JUMP JUMPDEST PUSH1 0x1 SLOAD PUSH1 0x1 PUSH1 0x1 PUSH1 0xA0 SHL SUB AND CALLER EQ PUSH2 0x701 JUMPI PUSH1 0x40 MLOAD PUSH4 0x118CDAA7 PUSH1 0xE0 SHL DUP2 MSTORE CALLER PUSH1 0x4 DUP3 ADD MSTORE PUSH1 0x24 ADD PUSH2 0x73D JUMP JUMPDEST PUSH1 0x1 DUP1 SLOAD PUSH1 0x1 PUSH1 0x1 PUSH1 0xA0 SHL SUB DUP4 DUP2 AND PUSH1 0x1 PUSH1 0x1 PUSH1 0xA0 SHL SUB NOT DUP4 AND DUP2 OR SWAP1 SWAP4 SSTORE PUSH1 0x40 MLOAD SWAP2 AND SWAP2 SWAP1 DUP3 SWAP1 PUSH32 0x8BE0079C531659141344CD1FD0A4F28419497F9722A3DAAFE3B4186F6B6457E0 SWAP1 PUSH1 0x0 SWAP1 LOG3 POP POP JUMP JUMPDEST PUSH1 0x2 PUSH1 0x0 SLOAD SUB PUSH2 0x1836 JUMPI PUSH1 0x40 MLOAD PUSH4 0x3EE5AEB5 PUSH1 0xE0 SHL DUP2 MSTORE PUSH1 0x4 ADD PUSH1 0x40 MLOAD DUP1 SWAP2 SUB SWAP1 REVERT JUMPDEST PUSH1 0x2 PUSH1 0x0 SSTORE JUMP JUMPDEST PUSH1 0x6 SLOAD PUSH2 0x184D SWAP1 PUSH3 0x15180 PUSH2 0x1BF0 JUMP JUMPDEST TIMESTAMP LT PUSH2 0x185C JUMPI PUSH1 0x5 SSTORE TIMESTAMP PUSH1 0x6 SSTORE JUMP JUMPDEST DUP1 PUSH1 0x5 PUSH1 0x0 DUP3 DUP3 SLOAD PUSH2 0x186E SWAP2 SWAP1 PUSH2 0x1BF0 JUMP JUMPDEST SWAP1 SWAP2 SSTORE POP POP POP JUMP JUMPDEST PUSH1 0x40 MLOAD PUSH1 0x1 PUSH1 0x1 PUSH1 0xA0 SHL SUB DUP4 DUP2 AND PUSH1 0x24 DUP4 ADD MSTORE PUSH1 0x44 DUP3 ADD DUP4 SWAP1 MSTORE PUSH2 0x18D5 SWAP2 DUP6 SWAP2 DUP3 AND SWAP1 PUSH4 0xA9059CBB SWAP1 PUSH1 0x64 ADD JUMPDEST PUSH1 0x40 MLOAD PUSH1 0x20 DUP2 DUP4 SUB SUB DUP2 MSTORE SWAP1 PUSH1 0x40 MSTORE SWAP2 POP PUSH1 0xE0 SHL PUSH1 0x20 DUP3 ADD DUP1 MLOAD PUSH1 0x1 PUSH1 0x1 PUSH1 0xE0 SHL SUB DUP4 DUP2 DUP4 AND OR DUP4 MSTORE POP POP POP POP PUSH2 0x1A4C JUMP JUMPDEST POP POP POP JUMP JUMPDEST PUSH1 0x0 PUSH1 0x64 DUP2 DUP2 PUSH2 0x18EA DUP7 DUP7 PUSH2 0x1BC4 JUMP JUMPDEST PUSH2 0x18F4 SWAP2 SWAP1 PUSH2 0x1B6B JUMP JUMPDEST SWAP1 POP PUSH1 0x0 DUP1 JUMPDEST DUP4 DUP2 LT ISZERO PUSH2 0x1997 JUMPI PUSH1 0x0 PUSH2 0x190E DUP5 DUP4 PUSH2 0x1B54 JUMP JUMPDEST PUSH2 0x1918 SWAP1 DUP10 PUSH2 0x1BF0 JUMP JUMPDEST SWAP1 POP PUSH1 0x0 PUSH2 0x1926 DUP6 DUP4 PUSH2 0x1BF0 JUMP JUMPDEST SWAP1 POP PUSH1 0x0 PUSH2 0x1933 DUP4 PUSH2 0xC05 JUMP JUMPDEST SWAP1 POP PUSH1 0x0 PUSH2 0x1940 DUP4 PUSH2 0xC05 JUMP JUMPDEST SWAP1 POP PUSH2 0x1955 PUSH8 0xDE0B6B3A7640000 PUSH1 0x2 PUSH2 0x1B54 JUMP JUMPDEST DUP8 PUSH2 0x1960 DUP4 DUP6 PUSH2 0x1BF0 JUMP JUMPDEST PUSH2 0x196A SWAP2 SWAP1 PUSH2 0x1B54 JUMP JUMPDEST PUSH2 0x1974 SWAP2 SWAP1 PUSH2 0x1B6B JUMP JUMPDEST PUSH2 0x197E SWAP1 DUP8 PUSH2 0x1BF0 JUMP JUMPDEST SWAP6 POP POP POP POP POP DUP1 DUP1 PUSH2 0x198F SWAP1 PUSH2 0x1C03 JUMP JUMPDEST SWAP2 POP POP PUSH2 0x18FA JUMP JUMPDEST POP SWAP3 POP POP POP JUMPDEST SWAP3 SWAP2 POP POP JUMP JUMPDEST PUSH1 0x0 DUP2 PUSH1 0x0 SUB PUSH2 0x19B5 JUMPI POP PUSH1 0x0 SWAP2 SWAP1 POP JUMP JUMPDEST PUSH1 0x0 PUSH1 0x2 PUSH2 0x19C4 DUP5 PUSH1 0x1 PUSH2 0x1BF0 JUMP JUMPDEST PUSH2 0x19CE SWAP2 SWAP1 PUSH2 0x1B6B JUMP JUMPDEST SWAP1 POP DUP3 SWAP2 POP JUMPDEST DUP2 DUP2 LT ISZERO PUSH2 0x1A07 JUMPI SWAP1 POP DUP1 PUSH1 0x2 DUP2 PUSH2 0x19EC DUP2 DUP7 PUSH2 0x1B6B JUMP JUMPDEST PUSH2 0x19F6 SWAP2 SWAP1 PUSH2 0x1BF0 JUMP JUMPDEST PUSH2 0x1A00 SWAP2 SWAP1 PUSH2 0x1B6B JUMP JUMPDEST SWAP1 POP PUSH2 0x19D4 JUMP JUMPDEST POP SWAP2 SWAP1 POP JUMP JUMPDEST PUSH1 0x40 MLOAD PUSH1 0x1 PUSH1 0x1 PUSH1 0xA0 SHL SUB DUP5 DUP2 AND PUSH1 0x24 DUP4 ADD MSTORE DUP4 DUP2 AND PUSH1 0x44 DUP4 ADD MSTORE PUSH1 0x64 DUP3 ADD DUP4 SWAP1 MSTORE PUSH2 0x1A46 SWAP2 DUP7 SWAP2 DUP3 AND SWAP1 PUSH4 0x23B872DD SWAP1 PUSH1 0x84 ADD PUSH2 0x18A3 JUMP JUMPDEST POP POP POP POP JUMP JUMPDEST PUSH1 0x0 DUP1 PUSH1 0x20 PUSH1 0x0 DUP5 MLOAD PUSH1 0x20 DUP7 ADD PUSH1 0x0 DUP9 GAS CALL DUP1 PUSH2 0x1A6F JUMPI PUSH1 0x40 MLOAD RETURNDATASIZE PUSH1 0x0 DUP3 RETURNDATACOPY RETURNDATASIZE DUP2 REVERT JUMPDEST POP POP PUSH1 0x0 MLOAD RETURNDATASIZE SWAP2 POP DUP2 ISZERO PUSH2 0x1A87 JUMPI DUP1 PUSH1 0x1 EQ ISZERO PUSH2 0x1A94 JUMP JUMPDEST PUSH1 0x1 PUSH1 0x1 PUSH1 0xA0 SHL SUB DUP5 AND EXTCODESIZE ISZERO JUMPDEST ISZERO PUSH2 0x1A46 JUMPI PUSH1 0x40 MLOAD PUSH4 0x5274AFE7 PUSH1 0xE0 SHL DUP2 MSTORE PUSH1 0x1 PUSH1 0x1 PUSH1 0xA0 SHL SUB DUP6 AND PUSH1 0x4 DUP3 ADD MSTORE PUSH1 0x24 ADD PUSH2 0x73D JUMP JUMPDEST DUP1 CALLDATALOAD PUSH1 0x1 PUSH1 0x1 PUSH1 0xA0 SHL SUB DUP2 AND DUP2 EQ PUSH2 0x1AD4 JUMPI PUSH1 0x0 DUP1 REVERT JUMPDEST SWAP2 SWAP1 POP JUMP JUMPDEST PUSH1 0x0 PUSH1 0x20 DUP3 DUP5 SUB SLT ISZERO PUSH2 0x1AEB JUMPI PUSH1 0x0 DUP1 REVERT JUMPDEST PUSH2 0x1AF4 DUP3 PUSH2 0x1ABD JUMP JUMPDEST SWAP4 SWAP3 POP POP POP JUMP JUMPDEST PUSH1 0x0 PUSH1 0x20 DUP3 DUP5 SUB SLT ISZERO PUSH2 0x1B0D JUMPI PUSH1 0x0 DUP1 REVERT JUMPDEST POP CALLDATALOAD SWAP2 SWAP1 POP JUMP JUMPDEST PUSH1 0x0 DUP1 PUSH1 0x40 DUP4 DUP6 SUB SLT ISZERO PUSH2 0x1B27 JUMPI PUSH1 0x0 DUP1 REVERT JUMPDEST PUSH2 0x1B30 DUP4 PUSH2 0x1ABD JUMP JUMPDEST SWAP5 PUSH1 0x20 SWAP4 SWAP1 SWAP4 ADD CALLDATALOAD SWAP4 POP POP POP JUMP JUMPDEST PUSH4 0x4E487B71 PUSH1 0xE0 SHL PUSH1 0x0 MSTORE PUSH1 0x11 PUSH1 0x4 MSTORE PUSH1 0x24 PUSH1 0x0 REVERT JUMPDEST DUP1 DUP3 MUL DUP2 ISZERO DUP3 DUP3 DIV DUP5 EQ OR PUSH2 0x199D JUMPI PUSH2 0x199D PUSH2 0x1B3E JUMP JUMPDEST PUSH1 0x0 DUP3 PUSH2 0x1B88 JUMPI PUSH4 0x4E487B71 PUSH1 0xE0 SHL PUSH1 0x0 MSTORE PUSH1 0x12 PUSH1 0x4 MSTORE PUSH1 0x24 PUSH1 0x0 REVERT JUMPDEST POP DIV SWAP1 JUMP JUMPDEST PUSH1 0x20 DUP1 DUP3 MSTORE PUSH1 0x17 SWAP1 DUP3 ADD MSTORE PUSH32 0x426F6E64696E6720637572766520677261647561746564000000000000000000 PUSH1 0x40 DUP3 ADD MSTORE PUSH1 0x60 ADD SWAP1 JUMP JUMPDEST DUP2 DUP2 SUB DUP2 DUP2 GT ISZERO PUSH2 0x199D JUMPI PUSH2 0x199D PUSH2 0x1B3E JUMP JUMPDEST PUSH1 0x0 PUSH1 0x20 DUP3 DUP5 SUB SLT ISZERO PUSH2 0x1BE9 JUMPI PUSH1 0x0 DUP1 REVERT JUMPDEST POP MLOAD SWAP2 SWAP1 POP JUMP JUMPDEST DUP1 DUP3 ADD DUP1 DUP3 GT ISZERO PUSH2 0x199D JUMPI PUSH2 0x199D PUSH2 0x1B3E JUMP JUMPDEST PUSH1 0x0 PUSH1 0x1 DUP3 ADD PUSH2 0x1C15 JUMPI PUSH2 0x1C15 PUSH2 0x1B3E JUMP JUMPDEST POP PUSH1 0x1 ADD SWAP1 JUMP JUMPDEST PUSH1 0x20 DUP1 DUP3 MSTORE PUSH1 0x13 SWAP1 DUP3 ADD MSTORE PUSH19 0x119959481D1C985B9CD9995C8819985A5B1959 PUSH1 0x6A SHL PUSH1 0x40 DUP3 ADD MSTORE PUSH1 0x60 ADD SWAP1 JUMP JUMPDEST PUSH1 0x0 DUP2 PUSH2 0x1C58 JUMPI PUSH2 0x1C58 PUSH2 0x1B3E JUMP JUMPDEST POP PUSH1 0x0 NOT ADD SWAP1 JUMP INVALID LOG2 PUSH5 0x6970667358 0x22 SLT KECCAK256 DUP9 LOG0 PUSH21 0x147A717365B8FA845F6B5FC2E83D5B5BC1860EAFDF 0xC9 0xD 0xC3 CODECOPY PUSH12 0x1648E264736F6C6343000814 STOP CALLER "},"methodIdentifiers":{"BUY_FEE()":"27b9bb9c","DECIMALS()":"2e0f2625","GRADUATION_FEE()":"c9c5cacb","GRADUATION_HOLDERS()":"6777a1eb","GRADUATION_LIQUIDITY()":"53de6ddb","GRADUATION_MARKET_CAP()":"e973c557","GRADUATION_VOLUME()":"80ec4cc3","K()":"a932492f","N()":"c9e525df","PRICE_DECIMALS()":"f1a640f8","SELL_FEE()":"4773a6a9","balances(address)":"27e235e3","buy()":"a6f2ae3a","calculateBuyAmount(uint256)":"82639852","calculatePrice(uint256)":"ae104265","calculatePurchaseCost(uint256)":"acd27ef7","calculateSellReturn(uint256)":"bc3c39cb","dailyVolume()":"98c8877e","dexPool()":"3d2fa2d2","emergencyWithdraw()":"db2e21bc","feeRecipient()":"46904840","getGraduationProgress()":"c764263a","graduate(address,uint256)":"ec8dc754","graduated()":"e7c2b772","hasTraded(address)":"716fe304","isEligibleForGraduation()":"66d0c7b3","lastVolumeReset()":"e5bd9fa1","owner()":"8da5cb5b","renounceOwnership()":"715018a6","reserveBalance()":"a10954fe","sell(uint256)":"e4849b32","setFeeRecipient(address)":"e74b981b","token()":"fc0c546a","tokenSupply()":"7824407f","totalVolume()":"5f81a57c","transferOwnership(address)":"f2fde38b","uniqueHolders()":"caa9334f"}}}}}