{
  "_format": "hh-sol-artifact-1",
  "contractName": "MultiSigWallet",
  "sourceName": "contracts/MultiSigWallet.sol",
  "abi": [
    {
      "inputs": [
        {
          "internalType": "address[]",
          "name": "_owners",
          "type": "address[]"
        },
        {
          "internalType": "uint256",
          "name": "_numConfirmationsRequired",
          "type": "uint256"
        }
      ],
      "stateMutability": "nonpayable",
      "type": "constructor"
    },
    {
      "inputs": [],
      "name": "ReentrancyGuardReentrantCall",
      "type": "error"
    },
    {
      "anonymous": false,
      "inputs": [
        {
          "indexed": true,
          "internalType": "address",
          "name": "owner",
          "type": "address"
        },
        {
          "indexed": true,
          "internalType": "uint256",
          "name": "txIndex",
          "type": "uint256"
        }
      ],
      "name": "ConfirmTransaction",
      "type": "event"
    },
    {
      "anonymous": false,
      "inputs": [
        {
          "indexed": true,
          "internalType": "address",
          "name": "sender",
          "type": "address"
        },
        {
          "indexed": false,
          "internalType": "uint256",
          "name": "amount",
          "type": "uint256"
        },
        {
          "indexed": false,
          "internalType": "uint256",
          "name": "balance",
          "type": "uint256"
        }
      ],
      "name": "Deposit",
      "type": "event"
    },
    {
      "anonymous": false,
      "inputs": [
        {
          "indexed": true,
          "internalType": "address",
          "name": "owner",
          "type": "address"
        },
        {
          "indexed": true,
          "internalType": "uint256",
          "name": "txIndex",
          "type": "uint256"
        }
      ],
      "name": "ExecuteTransaction",
      "type": "event"
    },
    {
      "anonymous": false,
      "inputs": [
        {
          "indexed": true,
          "internalType": "address",
          "name": "owner",
          "type": "address"
        }
      ],
      "name": "OwnerAdded",
      "type": "event"
    },
    {
      "anonymous": false,
      "inputs": [
        {
          "indexed": true,
          "internalType": "address",
          "name": "owner",
          "type": "address"
        }
      ],
      "name": "OwnerRemoved",
      "type": "event"
    },
    {
      "anonymous": false,
      "inputs": [
        {
          "indexed": false,
          "internalType": "uint256",
          "name": "required",
          "type": "uint256"
        }
      ],
      "name": "RequiredConfirmationsChanged",
      "type": "event"
    },
    {
      "anonymous": false,
      "inputs": [
        {
          "indexed": true,
          "internalType": "address",
          "name": "owner",
          "type": "address"
        },
        {
          "indexed": true,
          "internalType": "uint256",
          "name": "txIndex",
          "type": "uint256"
        }
      ],
      "name": "RevokeConfirmation",
      "type": "event"
    },
    {
      "anonymous": false,
      "inputs": [
        {
          "indexed": true,
          "internalType": "address",
          "name": "owner",
          "type": "address"
        },
        {
          "indexed": true,
          "internalType": "uint256",
          "name": "txIndex",
          "type": "uint256"
        },
        {
          "indexed": true,
          "internalType": "address",
          "name": "to",
          "type": "address"
        },
        {
          "indexed": false,
          "internalType": "uint256",
          "name": "value",
          "type": "uint256"
        },
        {
          "indexed": false,
          "internalType": "bytes",
          "name": "data",
          "type": "bytes"
        }
      ],
      "name": "SubmitTransaction",
      "type": "event"
    },
    {
      "inputs": [
        {
          "internalType": "address",
          "name": "_owner",
          "type": "address"
        }
      ],
      "name": "addOwner",
      "outputs": [],
      "stateMutability": "nonpayable",
      "type": "function"
    },
    {
      "inputs": [
        {
          "internalType": "uint256",
          "name": "_numConfirmationsRequired",
          "type": "uint256"
        }
      ],
      "name": "changeRequirement",
      "outputs": [],
      "stateMutability": "nonpayable",
      "type": "function"
    },
    {
      "inputs": [
        {
          "internalType": "uint256",
          "name": "_txIndex",
          "type": "uint256"
        }
      ],
      "name": "confirmTransaction",
      "outputs": [],
      "stateMutability": "nonpayable",
      "type": "function"
    },
    {
      "inputs": [
        {
          "internalType": "uint256",
          "name": "_txIndex",
          "type": "uint256"
        }
      ],
      "name": "executeTransaction",
      "outputs": [],
      "stateMutability": "nonpayable",
      "type": "function"
    },
    {
      "inputs": [],
      "name": "getOwners",
      "outputs": [
        {
          "internalType": "address[]",
          "name": "",
          "type": "address[]"
        }
      ],
      "stateMutability": "view",
      "type": "function"
    },
    {
      "inputs": [],
      "name": "getPendingTransactions",
      "outputs": [
        {
          "internalType": "uint256[]",
          "name": "",
          "type": "uint256[]"
        }
      ],
      "stateMutability": "view",
      "type": "function"
    },
    {
      "inputs": [
        {
          "internalType": "uint256",
          "name": "_txIndex",
          "type": "uint256"
        }
      ],
      "name": "getTransaction",
      "outputs": [
        {
          "internalType": "address",
          "name": "to",
          "type": "address"
        },
        {
          "internalType": "uint256",
          "name": "value",
          "type": "uint256"
        },
        {
          "internalType": "bytes",
          "name": "data",
          "type": "bytes"
        },
        {
          "internalType": "bool",
          "name": "executed",
          "type": "bool"
        },
        {
          "internalType": "uint256",
          "name": "numConfirmations",
          "type": "uint256"
        },
        {
          "internalType": "uint256",
          "name": "timestamp",
          "type": "uint256"
        },
        {
          "internalType": "string",
          "name": "description",
          "type": "string"
        }
      ],
      "stateMutability": "view",
      "type": "function"
    },
    {
      "inputs": [],
      "name": "getTransactionCount",
      "outputs": [
        {
          "internalType": "uint256",
          "name": "",
          "type": "uint256"
        }
      ],
      "stateMutability": "view",
      "type": "function"
    },
    {
      "inputs": [
        {
          "internalType": "uint256",
          "name": "",
          "type": "uint256"
        },
        {
          "internalType": "address",
          "name": "",
          "type": "address"
        }
      ],
      "name": "isConfirmed",
      "outputs": [
        {
          "internalType": "bool",
          "name": "",
          "type": "bool"
        }
      ],
      "stateMutability": "view",
      "type": "function"
    },
    {
      "inputs": [
        {
          "internalType": "address",
          "name": "",
          "type": "address"
        }
      ],
      "name": "isOwner",
      "outputs": [
        {
          "internalType": "bool",
          "name": "",
          "type": "bool"
        }
      ],
      "stateMutability": "view",
      "type": "function"
    },
    {
      "inputs": [
        {
          "internalType": "uint256",
          "name": "_txIndex",
          "type": "uint256"
        },
        {
          "internalType": "address",
          "name": "_owner",
          "type": "address"
        }
      ],
      "name": "isTransactionConfirmed",
      "outputs": [
        {
          "internalType": "bool",
          "name": "",
          "type": "bool"
        }
      ],
      "stateMutability": "view",
      "type": "function"
    },
    {
      "inputs": [],
      "name": "numConfirmationsRequired",
      "outputs": [
        {
          "internalType": "uint256",
          "name": "",
          "type": "uint256"
        }
      ],
      "stateMutability": "view",
      "type": "function"
    },
    {
      "inputs": [
        {
          "internalType": "uint256",
          "name": "",
          "type": "uint256"
        }
      ],
      "name": "owners",
      "outputs": [
        {
          "internalType": "address",
          "name": "",
          "type": "address"
        }
      ],
      "stateMutability": "view",
      "type": "function"
    },
    {
      "inputs": [
        {
          "internalType": "address",
          "name": "_owner",
          "type": "address"
        }
      ],
      "name": "removeOwner",
      "outputs": [],
      "stateMutability": "nonpayable",
      "type": "function"
    },
    {
      "inputs": [
        {
          "internalType": "uint256",
          "name": "_txIndex",
          "type": "uint256"
        }
      ],
      "name": "revokeConfirmation",
      "outputs": [],
      "stateMutability": "nonpayable",
      "type": "function"
    },
    {
      "inputs": [
        {
          "internalType": "address",
          "name": "_to",
          "type": "address"
        },
        {
          "internalType": "uint256",
          "name": "_value",
          "type": "uint256"
        },
        {
          "internalType": "bytes",
          "name": "_data",
          "type": "bytes"
        },
        {
          "internalType": "string",
          "name": "_description",
          "type": "string"
        }
      ],
      "name": "submitTransaction",
      "outputs": [],
      "stateMutability": "nonpayable",
      "type": "function"
    },
    {
      "inputs": [
        {
          "internalType": "uint256",
          "name": "",
          "type": "uint256"
        }
      ],
      "name": "transactions",
      "outputs": [
        {
          "internalType": "address",
          "name": "to",
          "type": "address"
        },
        {
          "internalType": "uint256",
          "name": "value",
          "type": "uint256"
        },
        {
          "internalType": "bytes",
          "name": "data",
          "type": "bytes"
        },
        {
          "internalType": "bool",
          "name": "executed",
          "type": "bool"
        },
        {
          "internalType": "uint256",
          "name": "numConfirmations",
          "type": "uint256"
        },
        {
          "internalType": "uint256",
          "name": "timestamp",
          "type": "uint256"
        },
        {
          "internalType": "string",
          "name": "description",
          "type": "string"
        }
      ],
      "stateMutability": "view",
      "type": "function"
    },
    {
      "stateMutability": "payable",
      "type": "receive"
    }
  ],
  "bytecode": "0x60806040523480156200001157600080fd5b5060405162001dd538038062001dd5833981016040819052620000349162000284565b600160005581516200007f5760405162461bcd60e51b815260206004820152600f60248201526e13dddb995c9cc81c995c5d5a5c9959608a1b60448201526064015b60405180910390fd5b60008111801562000091575081518111155b620000f05760405162461bcd60e51b815260206004820152602860248201527f496e76616c6964206e756d626572206f6620726571756972656420636f6e6669604482015267726d6174696f6e7360c01b606482015260840162000076565b60005b8251811015620002465760008382815181106200011457620001146200035e565b6020026020010151905060006001600160a01b0316816001600160a01b031603620001725760405162461bcd60e51b815260206004820152600d60248201526c24b73b30b634b21037bbb732b960991b604482015260640162000076565b6001600160a01b03811660009081526002602052604090205460ff1615620001d05760405162461bcd60e51b815260206004820152601060248201526f4f776e6572206e6f7420756e6971756560801b604482015260640162000076565b6001600160a01b03166000818152600260205260408120805460ff191660019081179091558054808201825591527fb10e2d527612073b26eecdfd717e6a320cf44b4afac2b0732d9fcbe2b7fa0cf60180546001600160a01b0319169091179055806200023d8162000374565b915050620000f3565b50600355506200039c565b634e487b7160e01b600052604160045260246000fd5b80516001600160a01b03811681146200027f57600080fd5b919050565b600080604083850312156200029857600080fd5b82516001600160401b0380821115620002b057600080fd5b818501915085601f830112620002c557600080fd5b8151602082821115620002dc57620002dc62000251565b8160051b604051601f19603f8301168101818110868211171562000304576200030462000251565b6040529283528183019350848101820192898411156200032357600080fd5b948201945b838610156200034c576200033c8662000267565b8552948201949382019362000328565b97909101519698969750505050505050565b634e487b7160e01b600052603260045260246000fd5b6000600182016200039557634e487b7160e01b600052601160045260246000fd5b5060010190565b611a2980620003ac6000396000f3fe6080604052600436106101025760003560e01c806380f59a6511610095578063c01a8c8411610064578063c01a8c8414610336578063d0549b8514610356578063d11db83f1461036c578063e4d8e85c1461038e578063ee22610b146103ae57600080fd5b806380f59a65146102995780639ace38c2146102d4578063a0e67e2b146102f4578063ba51a6df1461031657600080fd5b80632f54bf6e116100d15780632f54bf6e146101e657806333ea3dc81461022657806346e24b08146102595780637065cb481461027957600080fd5b8063025e7c2714610148578063173825d91461018557806320ea8d86146101a75780632e7700f0146101c757600080fd5b36610143576040805134815247602082015233917f90890809c654f11d6e72a28fa60149770a0d11ec6c92319d6ceb2bb0a4ea1a15910160405180910390a2005b600080fd5b34801561015457600080fd5b506101686101633660046113e2565b6103ce565b6040516001600160a01b0390911681526020015b60405180910390f35b34801561019157600080fd5b506101a56101a0366004611417565b6103f8565b005b3480156101b357600080fd5b506101a56101c23660046113e2565b61060a565b3480156101d357600080fd5b506005545b60405190815260200161017c565b3480156101f257600080fd5b50610216610201366004611417565b60026020526000908152604090205460ff1681565b604051901515815260200161017c565b34801561023257600080fd5b506102466102413660046113e2565b61079a565b60405161017c979695949392919061147f565b34801561026557600080fd5b506101a5610274366004611566565b610935565b34801561028557600080fd5b506101a5610294366004611417565b610ae7565b3480156102a557600080fd5b506102166102b436600461160f565b600460209081526000928352604080842090915290825290205460ff1681565b3480156102e057600080fd5b506102466102ef3660046113e2565b610c2f565b34801561030057600080fd5b50610309610da1565b60405161017c919061163b565b34801561032257600080fd5b506101a56103313660046113e2565b610e03565b34801561034257600080fd5b506101a56103513660046113e2565b610eb1565b34801561036257600080fd5b506101d860035481565b34801561037857600080fd5b50610381611048565b60405161017c9190611688565b34801561039a57600080fd5b506102166103a936600461160f565b611171565b3480156103ba57600080fd5b506101a56103c93660046113e2565b61119e565b600181815481106103de57600080fd5b6000918252602090912001546001600160a01b0316905081565b3330146104205760405162461bcd60e51b8152600401610417906116c0565b60405180910390fd5b6001600160a01b03811660009081526002602052604090205460ff166104585760405162461bcd60e51b815260040161041790611702565b60035460018054610469919061173b565b10156104ad5760405162461bcd60e51b815260206004820152601360248201527221b0b73737ba103932b6b7bb329037bbb732b960691b6044820152606401610417565b6001600160a01b0381166000908152600260205260408120805460ff191690555b6001548110156105d257816001600160a01b0316600182815481106104f5576104f561174e565b6000918252602090912001546001600160a01b0316036105c0576001805461051e90829061173b565b8154811061052e5761052e61174e565b600091825260209091200154600180546001600160a01b03909216918390811061055a5761055a61174e565b9060005260206000200160006101000a8154816001600160a01b0302191690836001600160a01b03160217905550600180548061059957610599611764565b600082815260209020810160001990810180546001600160a01b03191690550190556105d2565b806105ca8161177a565b9150506104ce565b506040516001600160a01b038216907f58619076adf5bb0943d100ef88d52d7c3fd691b19d3a9071b555b651fbf418da90600090a250565b3360009081526002602052604090205460ff166106395760405162461bcd60e51b815260040161041790611702565b6005548190811061065c5760405162461bcd60e51b815260040161041790611793565b81600581815481106106705761067061174e565b600091825260209091206003600790920201015460ff16156106a45760405162461bcd60e51b8152600401610417906117ca565b600083815260046020908152604080832033845290915290205460ff1661070d5760405162461bcd60e51b815260206004820152601960248201527f5472616e73616374696f6e206e6f7420636f6e6669726d6564000000000000006044820152606401610417565b6000600584815481106107225761072261174e565b906000526020600020906007020190506001816004016000828254610747919061173b565b90915550506000848152600460209081526040808320338085529252808320805460ff191690555186927ff0dca620e2e81f7841d07bcc105e1704fb01475b278a9d4c236e1c62945edd5591a350505050565b6000806060600080600060606000600589815481106107bb576107bb61174e565b60009182526020909120600790910201805460018201546003830154600484015460058501546002860180549697506001600160a01b039095169593949360ff909316926006880190859061080f90611801565b80601f016020809104026020016040519081016040528092919081815260200182805461083b90611801565b80156108885780601f1061085d57610100808354040283529160200191610888565b820191906000526020600020905b81548152906001019060200180831161086b57829003601f168201915b5050505050945080805461089b90611801565b80601f01602080910402602001604051908101604052809291908181526020018280546108c790611801565b80156109145780601f106108e957610100808354040283529160200191610914565b820191906000526020600020905b8154815290600101906020018083116108f757829003601f168201915b50505050509050975097509750975097509750975050919395979092949650565b3360009081526002602052604090205460ff166109645760405162461bcd60e51b815260040161041790611702565b600580546040805160e0810182526001600160a01b03888116825260208201888152928201878152600060608401819052608084018190524260a085015260c084018890526001860187559590955281517f036b6384b5eca791c62761152d0c79bb0604c104a5fb6f4eb0703f3154bb3db06007860290810180546001600160a01b0319169290931691909117825592517f036b6384b5eca791c62761152d0c79bb0604c104a5fb6f4eb0703f3154bb3db184015593519293909290917f036b6384b5eca791c62761152d0c79bb0604c104a5fb6f4eb0703f3154bb3db20190610a4e9082611889565b50606082015160038201805460ff19169115159190911790556080820151600482015560a0820151600582015560c08201516006820190610a8f9082611889565b505050846001600160a01b031681336001600160a01b03167fd5a05bf70715ad82a09a756320284a1b54c9ff74cd0f8cce6219e79b563fe59d8787604051610ad8929190611949565b60405180910390a45050505050565b333014610b065760405162461bcd60e51b8152600401610417906116c0565b6001600160a01b038116610b4c5760405162461bcd60e51b815260206004820152600d60248201526c24b73b30b634b21037bbb732b960991b6044820152606401610417565b6001600160a01b03811660009081526002602052604090205460ff1615610ba45760405162461bcd60e51b815260206004820152600c60248201526b4f776e65722065786973747360a01b6044820152606401610417565b6001600160a01b038116600081815260026020526040808220805460ff19166001908117909155805480820182559083527fb10e2d527612073b26eecdfd717e6a320cf44b4afac2b0732d9fcbe2b7fa0cf60180546001600160a01b03191684179055517f994a936646fe87ffe4f1e469d3d6aa417d6b855598397f323de5b449f765f0c39190a250565b60058181548110610c3f57600080fd5b60009182526020909120600790910201805460018201546002830180546001600160a01b039093169450909291610c7590611801565b80601f0160208091040260200160405190810160405280929190818152602001828054610ca190611801565b8015610cee5780601f10610cc357610100808354040283529160200191610cee565b820191906000526020600020905b815481529060010190602001808311610cd157829003601f168201915b505050600384015460048501546005860154600687018054969760ff9094169692955090935090610d1e90611801565b80601f0160208091040260200160405190810160405280929190818152602001828054610d4a90611801565b8015610d975780601f10610d6c57610100808354040283529160200191610d97565b820191906000526020600020905b815481529060010190602001808311610d7a57829003601f168201915b5050505050905087565b60606001805480602002602001604051908101604052809291908181526020018280548015610df957602002820191906000526020600020905b81546001600160a01b03168152600190910190602001808311610ddb575b5050505050905090565b333014610e225760405162461bcd60e51b8152600401610417906116c0565b600081118015610e3457506001548111155b610e765760405162461bcd60e51b8152602060048201526013602482015272125b9d985b1a59081c995c5d5a5c995b595b9d606a1b6044820152606401610417565b60038190556040518181527f9d1f3334630bd26a53d2e3c360b09c02204844312bb0fc411686ab17fb2c1d6a9060200160405180910390a150565b3360009081526002602052604090205460ff16610ee05760405162461bcd60e51b815260040161041790611702565b60055481908110610f035760405162461bcd60e51b815260040161041790611793565b8160058181548110610f1757610f1761174e565b600091825260209091206003600790920201015460ff1615610f4b5760405162461bcd60e51b8152600401610417906117ca565b6000838152600460209081526040808320338452909152902054839060ff1615610fb75760405162461bcd60e51b815260206004820152601d60248201527f5472616e73616374696f6e20616c726561647920636f6e6669726d65640000006044820152606401610417565b600060058581548110610fcc57610fcc61174e565b906000526020600020906007020190506001816004016000828254610ff1919061196a565b90915550506000858152600460209081526040808320338085529252808320805460ff191660011790555187927f5cbe105e36805f7820e291f799d5794ff948af2a5f664e580382defb6339004191a35050505050565b60606000805b6005548110156110a6576005818154811061106b5761106b61174e565b600091825260209091206003600790920201015460ff1661109457816110908161177a565b9250505b8061109e8161177a565b91505061104e565b5060008167ffffffffffffffff8111156110c2576110c26114da565b6040519080825280602002602001820160405280156110eb578160200160208202803683370190505b5090506000805b600554811015611168576005818154811061110f5761110f61174e565b600091825260209091206003600790920201015460ff16611156578083838151811061113d5761113d61174e565b6020908102919091010152816111528161177a565b9250505b806111608161177a565b9150506110f2565b50909392505050565b60008281526004602090815260408083206001600160a01b038516845290915290205460ff165b92915050565b3360009081526002602052604090205460ff166111cd5760405162461bcd60e51b815260040161041790611702565b600554819081106111f05760405162461bcd60e51b815260040161041790611793565b81600581815481106112045761120461174e565b600091825260209091206003600790920201015460ff16156112385760405162461bcd60e51b8152600401610417906117ca565b6112406113b8565b6000600584815481106112555761125561174e565b90600052602060002090600702019050600354816004015410156112bb5760405162461bcd60e51b815260206004820152601a60248201527f43616e6e6f742065786563757465207472616e73616374696f6e0000000000006044820152606401610417565b60038101805460ff191660019081179091558154908201546040516000926001600160a01b031691906112f290600286019061197d565b60006040518083038185875af1925050503d806000811461132f576040519150601f19603f3d011682016040523d82523d6000602084013e611334565b606091505b505090508061137a5760405162461bcd60e51b8152602060048201526012602482015271151c985b9cd858dd1a5bdb8819985a5b195960721b6044820152606401610417565b604051859033907f5445f318f4f5fcfb66592e68e0cc5822aa15664039bd5f0ffde24c5a8142b1ac90600090a350506113b36001600055565b505050565b6002600054036113db57604051633ee5aeb560e01b815260040160405180910390fd5b6002600055565b6000602082840312156113f457600080fd5b5035919050565b80356001600160a01b038116811461141257600080fd5b919050565b60006020828403121561142957600080fd5b611432826113fb565b9392505050565b6000815180845260005b8181101561145f57602081850181015186830182015201611443565b506000602082860101526020601f19601f83011685010191505092915050565b60018060a01b038816815286602082015260e0604082015260006114a660e0830188611439565b86151560608401528560808401528460a084015282810360c08401526114cc8185611439565b9a9950505050505050505050565b634e487b7160e01b600052604160045260246000fd5b600067ffffffffffffffff8084111561150b5761150b6114da565b604051601f8501601f19908116603f01168101908282118183101715611533576115336114da565b8160405280935085815286868601111561154c57600080fd5b858560208301376000602087830101525050509392505050565b6000806000806080858703121561157c57600080fd5b611585856113fb565b935060208501359250604085013567ffffffffffffffff808211156115a957600080fd5b818701915087601f8301126115bd57600080fd5b6115cc888335602085016114f0565b935060608701359150808211156115e257600080fd5b508501601f810187136115f457600080fd5b611603878235602084016114f0565b91505092959194509250565b6000806040838503121561162257600080fd5b82359150611632602084016113fb565b90509250929050565b6020808252825182820181905260009190848201906040850190845b8181101561167c5783516001600160a01b031683529284019291840191600101611657565b50909695505050505050565b6020808252825182820181905260009190848201906040850190845b8181101561167c578351835292840192918401916001016116a4565b60208082526022908201527f4d757374206265206578656375746564207468726f756768206d756c74692d73604082015261696760f01b606082015260800190565b6020808252600990820152682737ba1037bbb732b960b91b604082015260600190565b634e487b7160e01b600052601160045260246000fd5b8181038181111561119857611198611725565b634e487b7160e01b600052603260045260246000fd5b634e487b7160e01b600052603160045260246000fd5b60006001820161178c5761178c611725565b5060010190565b6020808252601a908201527f5472616e73616374696f6e20646f6573206e6f74206578697374000000000000604082015260600190565b6020808252601c908201527f5472616e73616374696f6e20616c726561647920657865637574656400000000604082015260600190565b600181811c9082168061181557607f821691505b60208210810361183557634e487b7160e01b600052602260045260246000fd5b50919050565b601f8211156113b357600081815260208120601f850160051c810160208610156118625750805b601f850160051c820191505b818110156118815782815560010161186e565b505050505050565b815167ffffffffffffffff8111156118a3576118a36114da565b6118b7816118b18454611801565b8461183b565b602080601f8311600181146118ec57600084156118d45750858301515b600019600386901b1c1916600185901b178555611881565b600085815260208120601f198616915b8281101561191b578886015182559484019460019091019084016118fc565b50858210156119395787850151600019600388901b60f8161c191681555b5050505050600190811b01905550565b8281526040602082015260006119626040830184611439565b949350505050565b8082018082111561119857611198611725565b600080835461198b81611801565b600182811680156119a357600181146119b8576119e7565b60ff19841687528215158302870194506119e7565b8760005260208060002060005b858110156119de5781548a8201529084019082016119c5565b50505082870194505b5092969550505050505056fea2646970667358221220669a2a258e2670f1c761a721cf4e19d77c0fe1615804aae6b09a981f274a6fdf64736f6c63430008140033",
  "linkReferences": {},
  "deployedLinkReferences": {}
}