{
  "_format": "hh-sol-artifact-1",
  "contractName": "FairLaunchToken",
  "sourceName": "contracts/FairLaunchToken.sol",
  "abi": [
    {
      "inputs": [
        {
          "internalType": "string",
          "name": "name",
          "type": "string"
        },
        {
          "internalType": "string",
          "name": "symbol",
          "type": "string"
        },
        {
          "internalType": "uint256",
          "name": "initialSupply",
          "type": "uint256"
        },
        {
          "internalType": "address",
          "name": "initialOwner",
          "type": "address"
        }
      ],
      "stateMutability": "nonpayable",
      "type": "constructor"
    },
    {
      "inputs": [],
      "name": "ECDSAInvalidSignature",
      "type": "error"
    },
    {
      "inputs": [
        {
          "internalType": "uint256",
          "name": "length",
          "type": "uint256"
        }
      ],
      "name": "ECDSAInvalidSignatureLength",
      "type": "error"
    },
    {
      "inputs": [
        {
          "internalType": "bytes32",
          "name": "s",
          "type": "bytes32"
        }
      ],
      "name": "ECDSAInvalidSignatureS",
      "type": "error"
    },
    {
      "inputs": [
        {
          "internalType": "address",
          "name": "spender",
          "type": "address"
        },
        {
          "internalType": "uint256",
          "name": "allowance",
          "type": "uint256"
        },
        {
          "internalType": "uint256",
          "name": "needed",
          "type": "uint256"
        }
      ],
      "name": "ERC20InsufficientAllowance",
      "type": "error"
    },
    {
      "inputs": [
        {
          "internalType": "address",
          "name": "sender",
          "type": "address"
        },
        {
          "internalType": "uint256",
          "name": "balance",
          "type": "uint256"
        },
        {
          "internalType": "uint256",
          "name": "needed",
          "type": "uint256"
        }
      ],
      "name": "ERC20InsufficientBalance",
      "type": "error"
    },
    {
      "inputs": [
        {
          "internalType": "address",
          "name": "approver",
          "type": "address"
        }
      ],
      "name": "ERC20InvalidApprover",
      "type": "error"
    },
    {
      "inputs": [
        {
          "internalType": "address",
          "name": "receiver",
          "type": "address"
        }
      ],
      "name": "ERC20InvalidReceiver",
      "type": "error"
    },
    {
      "inputs": [
        {
          "internalType": "address",
          "name": "sender",
          "type": "address"
        }
      ],
      "name": "ERC20InvalidSender",
      "type": "error"
    },
    {
      "inputs": [
        {
          "internalType": "address",
          "name": "spender",
          "type": "address"
        }
      ],
      "name": "ERC20InvalidSpender",
      "type": "error"
    },
    {
      "inputs": [
        {
          "internalType": "uint256",
          "name": "deadline",
          "type": "uint256"
        }
      ],
      "name": "ERC2612ExpiredSignature",
      "type": "error"
    },
    {
      "inputs": [
        {
          "internalType": "address",
          "name": "signer",
          "type": "address"
        },
        {
          "internalType": "address",
          "name": "owner",
          "type": "address"
        }
      ],
      "name": "ERC2612InvalidSigner",
      "type": "error"
    },
    {
      "inputs": [
        {
          "internalType": "address",
          "name": "account",
          "type": "address"
        },
        {
          "internalType": "uint256",
          "name": "currentNonce",
          "type": "uint256"
        }
      ],
      "name": "InvalidAccountNonce",
      "type": "error"
    },
    {
      "inputs": [],
      "name": "InvalidShortString",
      "type": "error"
    },
    {
      "inputs": [
        {
          "internalType": "address",
          "name": "owner",
          "type": "address"
        }
      ],
      "name": "OwnableInvalidOwner",
      "type": "error"
    },
    {
      "inputs": [
        {
          "internalType": "address",
          "name": "account",
          "type": "address"
        }
      ],
      "name": "OwnableUnauthorizedAccount",
      "type": "error"
    },
    {
      "inputs": [],
      "name": "ReentrancyGuardReentrantCall",
      "type": "error"
    },
    {
      "inputs": [
        {
          "internalType": "string",
          "name": "str",
          "type": "string"
        }
      ],
      "name": "StringTooLong",
      "type": "error"
    },
    {
      "anonymous": false,
      "inputs": [
        {
          "indexed": true,
          "internalType": "address",
          "name": "owner",
          "type": "address"
        },
        {
          "indexed": true,
          "internalType": "address",
          "name": "spender",
          "type": "address"
        },
        {
          "indexed": false,
          "internalType": "uint256",
          "name": "value",
          "type": "uint256"
        }
      ],
      "name": "Approval",
      "type": "event"
    },
    {
      "anonymous": false,
      "inputs": [
        {
          "indexed": false,
          "internalType": "uint256",
          "name": "tokensSwapped",
          "type": "uint256"
        },
        {
          "indexed": false,
          "internalType": "uint256",
          "name": "ethReceived",
          "type": "uint256"
        }
      ],
      "name": "AutoLiquidityAdded",
      "type": "event"
    },
    {
      "anonymous": false,
      "inputs": [
        {
          "indexed": true,
          "internalType": "address",
          "name": "account",
          "type": "address"
        },
        {
          "indexed": false,
          "internalType": "bool",
          "name": "isBlacklisted",
          "type": "bool"
        }
      ],
      "name": "Blacklisted",
      "type": "event"
    },
    {
      "anonymous": false,
      "inputs": [],
      "name": "EIP712DomainChanged",
      "type": "event"
    },
    {
      "anonymous": false,
      "inputs": [
        {
          "indexed": false,
          "internalType": "uint256",
          "name": "maxBuyPerWallet",
          "type": "uint256"
        },
        {
          "indexed": false,
          "internalType": "uint256",
          "name": "maxBuyPerTx",
          "type": "uint256"
        },
        {
          "indexed": false,
          "internalType": "uint256",
          "name": "cooldownPeriod",
          "type": "uint256"
        },
        {
          "indexed": false,
          "internalType": "uint256",
          "name": "antiSnipeBlocks",
          "type": "uint256"
        }
      ],
      "name": "FairLaunchConfigured",
      "type": "event"
    },
    {
      "anonymous": false,
      "inputs": [
        {
          "indexed": true,
          "internalType": "address",
          "name": "previousOwner",
          "type": "address"
        },
        {
          "indexed": true,
          "internalType": "address",
          "name": "newOwner",
          "type": "address"
        }
      ],
      "name": "OwnershipTransferred",
      "type": "event"
    },
    {
      "anonymous": false,
      "inputs": [
        {
          "indexed": false,
          "internalType": "uint256",
          "name": "amount",
          "type": "uint256"
        }
      ],
      "name": "ReflectionsDistributed",
      "type": "event"
    },
    {
      "anonymous": false,
      "inputs": [
        {
          "indexed": false,
          "internalType": "uint256",
          "name": "blockNumber",
          "type": "uint256"
        }
      ],
      "name": "TradingEnabled",
      "type": "event"
    },
    {
      "anonymous": false,
      "inputs": [
        {
          "indexed": true,
          "internalType": "address",
          "name": "from",
          "type": "address"
        },
        {
          "indexed": true,
          "internalType": "address",
          "name": "to",
          "type": "address"
        },
        {
          "indexed": false,
          "internalType": "uint256",
          "name": "value",
          "type": "uint256"
        }
      ],
      "name": "Transfer",
      "type": "event"
    },
    {
      "inputs": [],
      "name": "DOMAIN_SEPARATOR",
      "outputs": [
        {
          "internalType": "bytes32",
          "name": "",
          "type": "bytes32"
        }
      ],
      "stateMutability": "view",
      "type": "function"
    },
    {
      "inputs": [
        {
          "internalType": "address",
          "name": "owner",
          "type": "address"
        },
        {
          "internalType": "address",
          "name": "spender",
          "type": "address"
        }
      ],
      "name": "allowance",
      "outputs": [
        {
          "internalType": "uint256",
          "name": "",
          "type": "uint256"
        }
      ],
      "stateMutability": "view",
      "type": "function"
    },
    {
      "inputs": [
        {
          "internalType": "address",
          "name": "spender",
          "type": "address"
        },
        {
          "internalType": "uint256",
          "name": "value",
          "type": "uint256"
        }
      ],
      "name": "approve",
      "outputs": [
        {
          "internalType": "bool",
          "name": "",
          "type": "bool"
        }
      ],
      "stateMutability": "nonpayable",
      "type": "function"
    },
    {
      "inputs": [],
      "name": "autoLiquidityConfig",
      "outputs": [
        {
          "internalType": "uint256",
          "name": "liquidityFeePercent",
          "type": "uint256"
        },
        {
          "internalType": "uint256",
          "name": "minTokensBeforeSwap",
          "type": "uint256"
        },
        {
          "internalType": "address",
          "name": "liquidityPair",
          "type": "address"
        },
        {
          "internalType": "bool",
          "name": "enabled",
          "type": "bool"
        }
      ],
      "stateMutability": "view",
      "type": "function"
    },
    {
      "inputs": [
        {
          "internalType": "address",
          "name": "account",
          "type": "address"
        }
      ],
      "name": "balanceOf",
      "outputs": [
        {
          "internalType": "uint256",
          "name": "",
          "type": "uint256"
        }
      ],
      "stateMutability": "view",
      "type": "function"
    },
    {
      "inputs": [
        {
          "internalType": "uint256",
          "name": "value",
          "type": "uint256"
        }
      ],
      "name": "burn",
      "outputs": [],
      "stateMutability": "nonpayable",
      "type": "function"
    },
    {
      "inputs": [],
      "name": "burnFeePercent",
      "outputs": [
        {
          "internalType": "uint256",
          "name": "",
          "type": "uint256"
        }
      ],
      "stateMutability": "view",
      "type": "function"
    },
    {
      "inputs": [
        {
          "internalType": "address",
          "name": "account",
          "type": "address"
        },
        {
          "internalType": "uint256",
          "name": "value",
          "type": "uint256"
        }
      ],
      "name": "burnFrom",
      "outputs": [],
      "stateMutability": "nonpayable",
      "type": "function"
    },
    {
      "inputs": [
        {
          "internalType": "uint256",
          "name": "_liquidityFeePercent",
          "type": "uint256"
        },
        {
          "internalType": "uint256",
          "name": "_minTokensBeforeSwap",
          "type": "uint256"
        },
        {
          "internalType": "address",
          "name": "_liquidityPair",
          "type": "address"
        }
      ],
      "name": "configureAutoLiquidity",
      "outputs": [],
      "stateMutability": "nonpayable",
      "type": "function"
    },
    {
      "inputs": [
        {
          "internalType": "uint256",
          "name": "_maxBuyPerWallet",
          "type": "uint256"
        },
        {
          "internalType": "uint256",
          "name": "_maxBuyPerTx",
          "type": "uint256"
        },
        {
          "internalType": "uint256",
          "name": "_cooldownPeriod",
          "type": "uint256"
        },
        {
          "internalType": "uint256",
          "name": "_antiSnipeBlocks",
          "type": "uint256"
        }
      ],
      "name": "configureFairLaunch",
      "outputs": [],
      "stateMutability": "nonpayable",
      "type": "function"
    },
    {
      "inputs": [],
      "name": "decimals",
      "outputs": [
        {
          "internalType": "uint8",
          "name": "",
          "type": "uint8"
        }
      ],
      "stateMutability": "view",
      "type": "function"
    },
    {
      "inputs": [
        {
          "internalType": "address",
          "name": "delegatee",
          "type": "address"
        }
      ],
      "name": "delegate",
      "outputs": [],
      "stateMutability": "nonpayable",
      "type": "function"
    },
    {
      "inputs": [],
      "name": "disableFairLaunch",
      "outputs": [],
      "stateMutability": "nonpayable",
      "type": "function"
    },
    {
      "inputs": [],
      "name": "eip712Domain",
      "outputs": [
        {
          "internalType": "bytes1",
          "name": "fields",
          "type": "bytes1"
        },
        {
          "internalType": "string",
          "name": "name",
          "type": "string"
        },
        {
          "internalType": "string",
          "name": "version",
          "type": "string"
        },
        {
          "internalType": "uint256",
          "name": "chainId",
          "type": "uint256"
        },
        {
          "internalType": "address",
          "name": "verifyingContract",
          "type": "address"
        },
        {
          "internalType": "bytes32",
          "name": "salt",
          "type": "bytes32"
        },
        {
          "internalType": "uint256[]",
          "name": "extensions",
          "type": "uint256[]"
        }
      ],
      "stateMutability": "view",
      "type": "function"
    },
    {
      "inputs": [],
      "name": "emergencyWithdraw",
      "outputs": [],
      "stateMutability": "nonpayable",
      "type": "function"
    },
    {
      "inputs": [
        {
          "internalType": "address",
          "name": "token",
          "type": "address"
        }
      ],
      "name": "emergencyWithdrawTokens",
      "outputs": [],
      "stateMutability": "nonpayable",
      "type": "function"
    },
    {
      "inputs": [
        {
          "internalType": "uint256",
          "name": "_reflectionFeePercent",
          "type": "uint256"
        }
      ],
      "name": "enableReflections",
      "outputs": [],
      "stateMutability": "nonpayable",
      "type": "function"
    },
    {
      "inputs": [],
      "name": "enableTrading",
      "outputs": [],
      "stateMutability": "nonpayable",
      "type": "function"
    },
    {
      "inputs": [
        {
          "internalType": "address",
          "name": "account",
          "type": "address"
        },
        {
          "internalType": "bool",
          "name": "excluded",
          "type": "bool"
        }
      ],
      "name": "excludeFromFees",
      "outputs": [],
      "stateMutability": "nonpayable",
      "type": "function"
    },
    {
      "inputs": [
        {
          "internalType": "address",
          "name": "account",
          "type": "address"
        }
      ],
      "name": "excludeFromReflections",
      "outputs": [],
      "stateMutability": "nonpayable",
      "type": "function"
    },
    {
      "inputs": [],
      "name": "fairLaunchConfig",
      "outputs": [
        {
          "internalType": "uint256",
          "name": "maxBuyPerWallet",
          "type": "uint256"
        },
        {
          "internalType": "uint256",
          "name": "maxBuyPerTx",
          "type": "uint256"
        },
        {
          "internalType": "uint256",
          "name": "cooldownPeriod",
          "type": "uint256"
        },
        {
          "internalType": "uint256",
          "name": "antiSnipeBlocks",
          "type": "uint256"
        },
        {
          "internalType": "bool",
          "name": "enabled",
          "type": "bool"
        }
      ],
      "stateMutability": "view",
      "type": "function"
    },
    {
      "inputs": [
        {
          "internalType": "address",
          "name": "account",
          "type": "address"
        }
      ],
      "name": "getReflectionBalance",
      "outputs": [
        {
          "internalType": "uint256",
          "name": "",
          "type": "uint256"
        }
      ],
      "stateMutability": "view",
      "type": "function"
    },
    {
      "inputs": [],
      "name": "getTotalReflections",
      "outputs": [
        {
          "internalType": "uint256",
          "name": "",
          "type": "uint256"
        }
      ],
      "stateMutability": "view",
      "type": "function"
    },
    {
      "inputs": [
        {
          "internalType": "uint256",
          "name": "",
          "type": "uint256"
        },
        {
          "internalType": "address",
          "name": "",
          "type": "address"
        }
      ],
      "name": "hasVoted",
      "outputs": [
        {
          "internalType": "bool",
          "name": "",
          "type": "bool"
        }
      ],
      "stateMutability": "view",
      "type": "function"
    },
    {
      "inputs": [
        {
          "internalType": "address",
          "name": "",
          "type": "address"
        }
      ],
      "name": "isBlacklisted",
      "outputs": [
        {
          "internalType": "bool",
          "name": "",
          "type": "bool"
        }
      ],
      "stateMutability": "view",
      "type": "function"
    },
    {
      "inputs": [
        {
          "internalType": "address",
          "name": "",
          "type": "address"
        }
      ],
      "name": "isExcludedFromFees",
      "outputs": [
        {
          "internalType": "bool",
          "name": "",
          "type": "bool"
        }
      ],
      "stateMutability": "view",
      "type": "function"
    },
    {
      "inputs": [
        {
          "internalType": "address",
          "name": "account",
          "type": "address"
        }
      ],
      "name": "isExcludedFromReflections",
      "outputs": [
        {
          "internalType": "bool",
          "name": "",
          "type": "bool"
        }
      ],
      "stateMutability": "view",
      "type": "function"
    },
    {
      "inputs": [
        {
          "internalType": "address",
          "name": "",
          "type": "address"
        }
      ],
      "name": "lastBuyTime",
      "outputs": [
        {
          "internalType": "uint256",
          "name": "",
          "type": "uint256"
        }
      ],
      "stateMutability": "view",
      "type": "function"
    },
    {
      "inputs": [],
      "name": "launchBlock",
      "outputs": [
        {
          "internalType": "uint256",
          "name": "",
          "type": "uint256"
        }
      ],
      "stateMutability": "view",
      "type": "function"
    },
    {
      "inputs": [],
      "name": "name",
      "outputs": [
        {
          "internalType": "string",
          "name": "",
          "type": "string"
        }
      ],
      "stateMutability": "view",
      "type": "function"
    },
    {
      "inputs": [
        {
          "internalType": "address",
          "name": "owner",
          "type": "address"
        }
      ],
      "name": "nonces",
      "outputs": [
        {
          "internalType": "uint256",
          "name": "",
          "type": "uint256"
        }
      ],
      "stateMutability": "view",
      "type": "function"
    },
    {
      "inputs": [],
      "name": "owner",
      "outputs": [
        {
          "internalType": "address",
          "name": "",
          "type": "address"
        }
      ],
      "stateMutability": "view",
      "type": "function"
    },
    {
      "inputs": [
        {
          "internalType": "address",
          "name": "owner",
          "type": "address"
        },
        {
          "internalType": "address",
          "name": "spender",
          "type": "address"
        },
        {
          "internalType": "uint256",
          "name": "value",
          "type": "uint256"
        },
        {
          "internalType": "uint256",
          "name": "deadline",
          "type": "uint256"
        },
        {
          "internalType": "uint8",
          "name": "v",
          "type": "uint8"
        },
        {
          "internalType": "bytes32",
          "name": "r",
          "type": "bytes32"
        },
        {
          "internalType": "bytes32",
          "name": "s",
          "type": "bytes32"
        }
      ],
      "name": "permit",
      "outputs": [],
      "stateMutability": "nonpayable",
      "type": "function"
    },
    {
      "inputs": [],
      "name": "reflectionConfig",
      "outputs": [
        {
          "internalType": "uint256",
          "name": "reflectionFeePercent",
          "type": "uint256"
        },
        {
          "internalType": "bool",
          "name": "enabled",
          "type": "bool"
        }
      ],
      "stateMutability": "view",
      "type": "function"
    },
    {
      "inputs": [],
      "name": "renounceOwnership",
      "outputs": [],
      "stateMutability": "nonpayable",
      "type": "function"
    },
    {
      "inputs": [
        {
          "internalType": "address",
          "name": "account",
          "type": "address"
        },
        {
          "internalType": "bool",
          "name": "blacklisted",
          "type": "bool"
        }
      ],
      "name": "setBlacklist",
      "outputs": [],
      "stateMutability": "nonpayable",
      "type": "function"
    },
    {
      "inputs": [
        {
          "internalType": "uint256",
          "name": "_burnFeePercent",
          "type": "uint256"
        }
      ],
      "name": "setBurnFee",
      "outputs": [],
      "stateMutability": "nonpayable",
      "type": "function"
    },
    {
      "inputs": [],
      "name": "symbol",
      "outputs": [
        {
          "internalType": "string",
          "name": "",
          "type": "string"
        }
      ],
      "stateMutability": "view",
      "type": "function"
    },
    {
      "inputs": [
        {
          "internalType": "address",
          "name": "",
          "type": "address"
        }
      ],
      "name": "totalBought",
      "outputs": [
        {
          "internalType": "uint256",
          "name": "",
          "type": "uint256"
        }
      ],
      "stateMutability": "view",
      "type": "function"
    },
    {
      "inputs": [],
      "name": "totalSupply",
      "outputs": [
        {
          "internalType": "uint256",
          "name": "",
          "type": "uint256"
        }
      ],
      "stateMutability": "view",
      "type": "function"
    },
    {
      "inputs": [],
      "name": "tradingEnabled",
      "outputs": [
        {
          "internalType": "bool",
          "name": "",
          "type": "bool"
        }
      ],
      "stateMutability": "view",
      "type": "function"
    },
    {
      "inputs": [
        {
          "internalType": "address",
          "name": "to",
          "type": "address"
        },
        {
          "internalType": "uint256",
          "name": "value",
          "type": "uint256"
        }
      ],
      "name": "transfer",
      "outputs": [
        {
          "internalType": "bool",
          "name": "",
          "type": "bool"
        }
      ],
      "stateMutability": "nonpayable",
      "type": "function"
    },
    {
      "inputs": [
        {
          "internalType": "address",
          "name": "from",
          "type": "address"
        },
        {
          "internalType": "address",
          "name": "to",
          "type": "address"
        },
        {
          "internalType": "uint256",
          "name": "value",
          "type": "uint256"
        }
      ],
      "name": "transferFrom",
      "outputs": [
        {
          "internalType": "bool",
          "name": "",
          "type": "bool"
        }
      ],
      "stateMutability": "nonpayable",
      "type": "function"
    },
    {
      "inputs": [
        {
          "internalType": "address",
          "name": "newOwner",
          "type": "address"
        }
      ],
      "name": "transferOwnership",
      "outputs": [],
      "stateMutability": "nonpayable",
      "type": "function"
    },
    {
      "inputs": [
        {
          "internalType": "address",
          "name": "",
          "type": "address"
        }
      ],
      "name": "votingPower",
      "outputs": [
        {
          "internalType": "uint256",
          "name": "",
          "type": "uint256"
        }
      ],
      "stateMutability": "view",
      "type": "function"
    }
  ],
  "bytecode": "0x61016060405260646015556016805460ff191690553480156200002157600080fd5b5060405162002f8638038062002f86833981016040819052620000449162000ac8565b808480604051806040016040528060018152602001603160f81b8152508787816003908162000074919062000bec565b50600462000083828262000bec565b50620000959150839050600562000263565b61012052620000a681600662000263565b61014052815160208084019190912060e052815190820120610100524660a0526200013460e05161010051604080517f8b73c3c69bb8fe3d512ecc4cf759cc79239f7b179b0ffacaa9a75d522b39400f60208201529081019290925260608201524660808201523060a082015260009060c00160405160208183030381529060405280519060200120905090565b60805250503060c052506001600160a01b0381166200016e57604051631e4fbdf760e01b8152600060048201526024015b60405180910390fd5b62000179816200029c565b5060016009556200018b8183620002ee565b6001600160a01b0381166000908152601960205260408082208054600160ff19918216811790925530845292829020805490931617909155805160a0810190915280612710620001dd85606462000cce565b620001e9919062000ce8565b8152602001612710620001fe85603262000cce565b6200020a919062000ce8565b815261012c602080830191909152600360408084019190915260016060938401528351600a5590830151600b55820151600c55810151600d5560800151600e805460ff19169115159190911790555062000d9192505050565b600060208351101562000283576200027b836200032c565b905062000296565b8162000290848262000bec565b5060ff90505b92915050565b600880546001600160a01b038381166001600160a01b0319831681179093556040519116919082907f8be0079c531659141344cd1fd0a4f28419497f9722a3daafe3b4186f6b6457e090600090a35050565b6001600160a01b0382166200031a5760405163ec442f0560e01b81526000600482015260240162000165565b62000328600083836200036f565b5050565b600080829050601f815111156200035a578260405163305a27a960e01b815260040162000165919062000d0b565b8051620003678262000d40565b179392505050565b60165460ff16806200038b57506008546001600160a01b031633145b620003d95760405162461bcd60e51b815260206004820152601360248201527f54726164696e67206e6f7420656e61626c656400000000000000000000000000604482015260640162000165565b6001600160a01b0383166000908152601a602052604090205460ff161580156200041c57506001600160a01b0382166000908152601a602052604090205460ff16155b620004585760405162461bcd60e51b815260206004820152600b60248201526a109b1858dadb1a5cdd195960aa1b604482015260640162000165565b600e5460ff1680156200047957506008546001600160a01b03848116911614155b80156200049457506008546001600160a01b03838116911614155b15620006fa576000601454118015620004be5750600d54601454620004ba919062000d65565b4311155b156200053c576008546001600160a01b0383811691161480620004ee57506008546001600160a01b038481169116145b6200053c5760405162461bcd60e51b815260206004820152601560248201527f416e74692d736e6970652070726f74656374696f6e0000000000000000000000604482015260640162000165565b6011546001600160a01b0384811691161480156200056357506001600160a01b0382163014155b15620006fa57600b54811115620005bd5760405162461bcd60e51b815260206004820152601660248201527f45786365656473206d6178206275792070657220747800000000000000000000604482015260640162000165565b600a546001600160a01b038316600090815260186020526040902054620005e690839062000d65565b1115620006365760405162461bcd60e51b815260206004820152601a60248201527f45786365656473206d617820627579207065722077616c6c6574000000000000604482015260640162000165565b600c546001600160a01b0383166000908152601760205260409020546200065e919062000d65565b421015620006af5760405162461bcd60e51b815260206004820152601660248201527f436f6f6c646f776e20706572696f642061637469766500000000000000000000604482015260640162000165565b6001600160a01b03821660009081526018602052604081208054839290620006d990849062000d65565b90915550506001600160a01b03821660009081526017602052604090204290555b6001600160a01b0383166000908152601960205260408120548190819060ff161580156200074157506001600160a01b03851660009081526019602052604090205460ff16155b15620007f1576015541562000772576127106015548562000763919062000cce565b6200076f919062000ce8565b92505b601154600160a01b900460ff1680156200078d5750600f5415155b15620007b557600f5461271090620007a6908662000cce565b620007b2919062000ce8565b91505b60135460ff168015620007c9575060125415155b15620007f15760125461271090620007e2908662000cce565b620007ee919062000ce8565b90505b6000818362000801868862000d7b565b6200080d919062000d7b565b62000819919062000d7b565b905083156200083057620008308760008662000879565b821562000844576200084487308562000879565b811562000863576200085682620009ac565b6200086387308462000879565b6200087087878362000879565b50505050505050565b6001600160a01b038316620008a85780600260008282546200089c919062000d65565b909155506200091c9050565b6001600160a01b03831660009081526020819052604090205481811015620008fd5760405163391434e360e21b81526001600160a01b0385166004820152602481018290526044810183905260640162000165565b6001600160a01b03841660009081526020819052604090209082900390555b6001600160a01b0382166200093a5760028054829003905562000959565b6001600160a01b03821660009081526020819052604090208054820190555b816001600160a01b0316836001600160a01b03167fddf252ad1be2c89b69c2b068fc378daa952ba7f163c4a11628f55a4df523b3ef836040516200099f91815260200190565b60405180910390a3505050565b80601b6000828254620009c0919062000d65565b90915550506040518181527f3eeb9763473a030c467b8f096a99e1825a88c6a821c131e1fbb007246a80359c9060200160405180910390a150565b634e487b7160e01b600052604160045260246000fd5b60005b8381101562000a2e57818101518382015260200162000a14565b50506000910152565b600082601f83011262000a4957600080fd5b81516001600160401b038082111562000a665762000a66620009fb565b604051601f8301601f19908116603f0116810190828211818310171562000a915762000a91620009fb565b8160405283815286602085880101111562000aab57600080fd5b62000abe84602083016020890162000a11565b9695505050505050565b6000806000806080858703121562000adf57600080fd5b84516001600160401b038082111562000af757600080fd5b62000b058883890162000a37565b9550602087015191508082111562000b1c57600080fd5b5062000b2b8782880162000a37565b60408701516060880151919550935090506001600160a01b038116811462000b5257600080fd5b939692955090935050565b600181811c9082168062000b7257607f821691505b60208210810362000b9357634e487b7160e01b600052602260045260246000fd5b50919050565b601f82111562000be757600081815260208120601f850160051c8101602086101562000bc25750805b601f850160051c820191505b8181101562000be35782815560010162000bce565b5050505b505050565b81516001600160401b0381111562000c085762000c08620009fb565b62000c208162000c19845462000b5d565b8462000b99565b602080601f83116001811462000c58576000841562000c3f5750858301515b600019600386901b1c1916600185901b17855562000be3565b600085815260208120601f198616915b8281101562000c895788860151825594840194600190910190840162000c68565b508582101562000ca85787850151600019600388901b60f8161c191681555b5050505050600190811b01905550565b634e487b7160e01b600052601160045260246000fd5b808202811582820484141762000296576200029662000cb8565b60008262000d0657634e487b7160e01b600052601260045260246000fd5b500490565b602081526000825180602084015262000d2c81604085016020870162000a11565b601f01601f19169190910160400192915050565b8051602080830151919081101562000b935760001960209190910360031b1b16919050565b8082018082111562000296576200029662000cb8565b8181038181111562000296576200029662000cb8565b60805160a05160c05160e05161010051610120516101405161219a62000dec6000396000611315015260006112e801526000611208015260006111e00152600061113b015260006111650152600061118f015261219a6000f3fe608060405234801561001057600080fd5b506004361061027f5760003560e01c80636d1d21591161015c578063a9277c0a116100ce578063d505accf11610087578063d505accf1461062b578063db2e21bc1461063e578063dd62ed3e14610646578063e6375d3e1461067f578063f2fde38b146106ab578063fe575a87146106be57600080fd5b8063a9277c0a146105cc578063ae267735146105d4578063b2af127c146105dc578063c0246668146105ef578063c07473f614610602578063d00efb2f1461062257600080fd5b806384b0196e1161012057806384b0196e1461051b5780638a8c523c146105365780638da5cb5b1461053e57806395d89b41146105595780639e7e42cd14610561578063a9059cbb146105b957600080fd5b80636d1d2159146104b157806370a08231146104c4578063715018a6146104ed57806379cc6790146104f55780637ecebe001461050857600080fd5b80633fecc2e2116101f55780634ada218b116101b95780634ada218b1461043f5780634bf2c7c91461044c5780634e0856a71461045f5780634fbee193146104685780635c19a95c1461048b5780636010ba341461049e57600080fd5b80633fecc2e21461037957806342966c681461039957806343859632146103ac5780634663b1b2146103d857806349a64d93146103f857600080fd5b8063180aa7c711610247578063180aa7c71461030e57806318160ddd1461033457806323b872dd1461033c57806325f25f4d1461034f578063313ce567146103625780633644e5151461037157600080fd5b806306fdde0314610284578063095ea7b3146102a25780630eda5f32146102c5578063153b0d1e146102da5780631682aa49146102ed575b600080fd5b61028c6106e1565b6040516102999190611d68565b60405180910390f35b6102b56102b0366004611d9e565b610773565b6040519015158152602001610299565b6102d86102d3366004611dc8565b61078d565b005b6102d86102e8366004611e0b565b6107f0565b6103006102fb366004611e42565b610857565b604051908152602001610299565b60125460135461031f919060ff1682565b60408051928352901515602083015201610299565b600254610300565b6102b561034a366004611e5d565b6108b2565b6102d861035d366004611e42565b6108d6565b60405160128152602001610299565b6103006109a0565b610300610387366004611e42565b60176020526000908152604090205481565b6102d86103a7366004611e99565b6109af565b6102b56103ba366004611eb2565b60208080526000928352604080842090915290825290205460ff1681565b6103006103e6366004611e42565b60186020526000908152604090205481565b600a54600b54600c54600d54600e54610415949392919060ff1685565b6040805195865260208601949094529284019190915260608301521515608082015260a001610299565b6016546102b59060ff1681565b6102d861045a366004611e99565b6109bc565b61030060155481565b6102b5610476366004611e42565b60196020526000908152604090205460ff1681565b6102d8610499366004611e42565b6109eb565b6102d86104ac366004611e99565b610a2b565b6102d86104bf366004611ede565b610a67565b6103006104d2366004611e42565b6001600160a01b031660009081526020819052604090205490565b6102d8610ad1565b6102d8610503366004611d9e565b610ae5565b610300610516366004611e42565b610afe565b610523610b1c565b6040516102999796959493929190611f10565b6102d8610b62565b6008546040516001600160a01b039091168152602001610299565b61028c610c0c565b600f546010546011546105889291906001600160a01b03811690600160a01b900460ff1684565b604051610299949392919093845260208401929092526001600160a01b031660408301521515606082015260800190565b6102b56105c7366004611d9e565b610c1b565b6102d8610c29565b601b54610300565b6102d86105ea366004611e42565b610c3d565b6102d86105fd366004611e0b565b610de9565b610300610610366004611e42565b601f6020526000908152604090205481565b61030060145481565b6102d8610639366004611fa6565b610e1c565b6102d8610f56565b610300610654366004612019565b6001600160a01b03918216600090815260016020908152604080832093909416825291909152205490565b6102b561068d366004611e42565b6001600160a01b03166000908152601d602052604090205460ff1690565b6102d86106b9366004611e42565b610fdb565b6102b56106cc366004611e42565b601a6020526000908152604090205460ff1681565b6060600380546106f090612043565b80601f016020809104026020016040519081016040528092919081815260200182805461071c90612043565b80156107695780601f1061073e57610100808354040283529160200191610769565b820191906000526020600020905b81548152906001019060200180831161074c57829003601f168201915b5050505050905090565b600033610781818585611016565b60019150505b92915050565b610795611023565b6101f48311156107c05760405162461bcd60e51b81526004016107b79061207d565b60405180910390fd5b600f92909255601055601180546001600160a81b0319166001600160a01b0390921691909117600160a01b179055565b6107f8611023565b6001600160a01b0382166000818152601a6020908152604091829020805460ff191685151590811790915591519182527fcf3473b85df1594d47b6958f29a32bea0abff9dd68296f7bf33443646793cfd8910160405180910390a25050565b6001600160a01b0381166000908152601d602052604081205460ff1615610896576001600160a01b038216600090815260208190526040902054610787565b506001600160a01b03166000908152601c602052604090205490565b6000336108c0858285611050565b6108cb8585856110cf565b506001949350505050565b6108de611023565b6001600160a01b0381166000908152601d602052604090205460ff161561093a5760405162461bcd60e51b815260206004820152601060248201526f105b1c9958591e48195e18db1d59195960821b60448201526064016107b7565b6001600160a01b03166000818152601d60205260408120805460ff19166001908117909155601e805491820181559091527f50bb669a95c7b50b7e8a6f09454034b2b14cf2b85c730dca9a539ca82cb6e3500180546001600160a01b0319169091179055565b60006109aa61112e565b905090565b6109b93382611259565b50565b6109c4611023565b6101f48111156109e65760405162461bcd60e51b81526004016107b79061207d565b601555565b336000908152602081905260409020546001600160a01b0382166000908152601f602052604081208054909190610a239084906120b9565b909155505050565b610a33611023565b6101f4811115610a555760405162461bcd60e51b81526004016107b79061207d565b6012556013805460ff19166001179055565b610a6f611023565b600a849055600b839055600c829055600d8190556040805185815260208101859052908101839052606081018290527f028a38ff37ea5c05388a99b81090ae2d9a9230d695258ae73bf5765411cb80b89060800160405180910390a150505050565b610ad9611023565b610ae3600061128f565b565b610af0823383611050565b610afa8282611259565b5050565b6001600160a01b038116600090815260076020526040812054610787565b600060608060008060006060610b306112e1565b610b3861130e565b60408051600080825260208201909252600f60f81b9b939a50919850469750309650945092509050565b610b6a611023565b60165460ff1615610bbd5760405162461bcd60e51b815260206004820152601760248201527f54726164696e6720616c726561647920656e61626c656400000000000000000060448201526064016107b7565b6016805460ff191660011790554360148190556040517fb3da2db3dfc3778f99852546c6e9ab39ec253f9de7b0847afec61bd27878e92391610c029190815260200190565b60405180910390a1565b6060600480546106f090612043565b6000336107818185856110cf565b610c31611023565b600e805460ff19169055565b610c45611023565b306001600160a01b03821603610c9d5760405162461bcd60e51b815260206004820152601a60248201527f43616e6e6f74207769746864726177206f776e20746f6b656e7300000000000060448201526064016107b7565b6040516370a0823160e01b81523060048201526000906001600160a01b038316906370a0823190602401602060405180830381865afa158015610ce4573d6000803e3d6000fd5b505050506040513d601f19601f82011682018060405250810190610d0891906120cc565b905060008111610d525760405162461bcd60e51b81526020600482015260156024820152744e6f20746f6b656e7320746f20776974686472617760581b60448201526064016107b7565b816001600160a01b031663a9059cbb610d736008546001600160a01b031690565b6040516001600160e01b031960e084901b1681526001600160a01b039091166004820152602481018490526044016020604051808303816000875af1158015610dc0573d6000803e3d6000fd5b505050506040513d601f19601f82011682018060405250810190610de491906120e5565b505050565b610df1611023565b6001600160a01b03919091166000908152601960205260409020805460ff1916911515919091179055565b83421115610e405760405163313c898160e11b8152600481018590526024016107b7565b60007f6e71edae12b1b97f4d1f60370fef10105fa2faae0126114a169c64845d6126c9888888610e8d8c6001600160a01b0316600090815260076020526040902080546001810190915590565b6040805160208101969096526001600160a01b0394851690860152929091166060840152608083015260a082015260c0810186905260e0016040516020818303038152906040528051906020012090506000610ee88261133b565b90506000610ef882878787611368565b9050896001600160a01b0316816001600160a01b031614610f3f576040516325c0072360e11b81526001600160a01b0380831660048301528b1660248201526044016107b7565b610f4a8a8a8a611016565b50505050505050505050565b610f5e611023565b4780610fa15760405162461bcd60e51b81526020600482015260126024820152714e6f2045544820746f20776974686472617760701b60448201526064016107b7565b6008546040516001600160a01b039091169082156108fc029083906000818181858888f19350505050158015610afa573d6000803e3d6000fd5b610fe3611023565b6001600160a01b03811661100d57604051631e4fbdf760e01b8152600060048201526024016107b7565b6109b98161128f565b610de48383836001611396565b6008546001600160a01b03163314610ae35760405163118cdaa760e01b81523360048201526024016107b7565b6001600160a01b038381166000908152600160209081526040808320938616835292905220546000198110156110c957818110156110ba57604051637dc7a0d960e11b81526001600160a01b038416600482015260248101829052604481018390526064016107b7565b6110c984848484036000611396565b50505050565b6001600160a01b0383166110f957604051634b637e8f60e11b8152600060048201526024016107b7565b6001600160a01b0382166111235760405163ec442f0560e01b8152600060048201526024016107b7565b610de483838361146b565b6000306001600160a01b037f00000000000000000000000000000000000000000000000000000000000000001614801561118757507f000000000000000000000000000000000000000000000000000000000000000046145b156111b157507f000000000000000000000000000000000000000000000000000000000000000090565b6109aa604080517f8b73c3c69bb8fe3d512ecc4cf759cc79239f7b179b0ffacaa9a75d522b39400f60208201527f0000000000000000000000000000000000000000000000000000000000000000918101919091527f000000000000000000000000000000000000000000000000000000000000000060608201524660808201523060a082015260009060c00160405160208183030381529060405280519060200120905090565b6001600160a01b03821661128357604051634b637e8f60e11b8152600060048201526024016107b7565b610afa8260008361146b565b600880546001600160a01b038381166001600160a01b0319831681179093556040519116919082907f8be0079c531659141344cd1fd0a4f28419497f9722a3daafe3b4186f6b6457e090600090a35050565b60606109aa7f00000000000000000000000000000000000000000000000000000000000000006005611911565b60606109aa7f00000000000000000000000000000000000000000000000000000000000000006006611911565b600061078761134861112e565b8360405161190160f01b8152600281019290925260228201526042902090565b60008060008061137a888888886119bc565b92509250925061138a8282611a8b565b50909695505050505050565b6001600160a01b0384166113c05760405163e602df0560e01b8152600060048201526024016107b7565b6001600160a01b0383166113ea57604051634a1406b160e11b8152600060048201526024016107b7565b6001600160a01b03808516600090815260016020908152604080832093871683529290522082905580156110c957826001600160a01b0316846001600160a01b03167f8c5be1e5ebec7d5bd14f71427d1e84f3dd0314c0f7b2291e5b200ac8c7c3b9258460405161145d91815260200190565b60405180910390a350505050565b60165460ff168061148657506008546001600160a01b031633145b6114c85760405162461bcd60e51b8152602060048201526013602482015272151c98591a5b99c81b9bdd08195b98589b1959606a1b60448201526064016107b7565b6001600160a01b0383166000908152601a602052604090205460ff1615801561150a57506001600160a01b0382166000908152601a602052604090205460ff16155b6115445760405162461bcd60e51b815260206004820152600b60248201526a109b1858dadb1a5cdd195960aa1b60448201526064016107b7565b600e5460ff16801561156457506008546001600160a01b03848116911614155b801561157e57506008546001600160a01b03838116911614155b156117b85760006014541180156115a45750600d546014546115a091906120b9565b4311155b15611616576008546001600160a01b03838116911614806115d257506008546001600160a01b038481169116145b6116165760405162461bcd60e51b815260206004820152601560248201527420b73a3496b9b734b83290383937ba32b1ba34b7b760591b60448201526064016107b7565b6011546001600160a01b03848116911614801561163c57506001600160a01b0382163014155b156117b857600b5481111561168c5760405162461bcd60e51b815260206004820152601660248201527508af0c6cacac8e640dac2f040c4eaf240e0cae440e8f60531b60448201526064016107b7565b600a546001600160a01b0383166000908152601860205260409020546116b39083906120b9565b11156117015760405162461bcd60e51b815260206004820152601a60248201527f45786365656473206d617820627579207065722077616c6c657400000000000060448201526064016107b7565b600c546001600160a01b03831660009081526017602052604090205461172791906120b9565b42101561176f5760405162461bcd60e51b8152602060048201526016602482015275436f6f6c646f776e20706572696f642061637469766560501b60448201526064016107b7565b6001600160a01b038216600090815260186020526040812080548392906117979084906120b9565b90915550506001600160a01b03821660009081526017602052604090204290555b6001600160a01b0383166000908152601960205260408120548190819060ff161580156117fe57506001600160a01b03851660009081526019602052604090205460ff16155b1561189c5760155415611829576127106015548561181c9190612102565b6118269190612119565b92505b601154600160a01b900460ff1680156118435750600f5415155b1561186657600f54612710906118599086612102565b6118639190612119565b91505b60135460ff168015611879575060125415155b1561189c576012546127109061188f9086612102565b6118999190612119565b90505b600081836118aa868861213b565b6118b4919061213b565b6118be919061213b565b905083156118d2576118d287600086611b44565b82156118e3576118e3873085611b44565b81156118fd576118f282611c6e565b6118fd873084611b44565b611908878783611b44565b50505050505050565b606060ff831461192b5761192483611cbb565b9050610787565b81805461193790612043565b80601f016020809104026020016040519081016040528092919081815260200182805461196390612043565b80156119b05780601f10611985576101008083540402835291602001916119b0565b820191906000526020600020905b81548152906001019060200180831161199357829003601f168201915b50505050509050610787565b600080807f7fffffffffffffffffffffffffffffff5d576e7357a4501ddfe92f46681b20a08411156119f75750600091506003905082611a81565b604080516000808252602082018084528a905260ff891692820192909252606081018790526080810186905260019060a0016020604051602081039080840390855afa158015611a4b573d6000803e3d6000fd5b5050604051601f1901519150506001600160a01b038116611a7757506000925060019150829050611a81565b9250600091508190505b9450945094915050565b6000826003811115611a9f57611a9f61214e565b03611aa8575050565b6001826003811115611abc57611abc61214e565b03611ada5760405163f645eedf60e01b815260040160405180910390fd5b6002826003811115611aee57611aee61214e565b03611b0f5760405163fce698f760e01b8152600481018290526024016107b7565b6003826003811115611b2357611b2361214e565b03610afa576040516335e2f38360e21b8152600481018290526024016107b7565b6001600160a01b038316611b6f578060026000828254611b6491906120b9565b90915550611be19050565b6001600160a01b03831660009081526020819052604090205481811015611bc25760405163391434e360e21b81526001600160a01b038516600482015260248101829052604481018390526064016107b7565b6001600160a01b03841660009081526020819052604090209082900390555b6001600160a01b038216611bfd57600280548290039055611c1c565b6001600160a01b03821660009081526020819052604090208054820190555b816001600160a01b0316836001600160a01b03167fddf252ad1be2c89b69c2b068fc378daa952ba7f163c4a11628f55a4df523b3ef83604051611c6191815260200190565b60405180910390a3505050565b80601b6000828254611c8091906120b9565b90915550506040518181527f3eeb9763473a030c467b8f096a99e1825a88c6a821c131e1fbb007246a80359c9060200160405180910390a150565b60606000611cc883611cfa565b604080516020808252818301909252919250600091906020820181803683375050509182525060208101929092525090565b600060ff8216601f81111561078757604051632cd44ac360e21b815260040160405180910390fd5b6000815180845260005b81811015611d4857602081850181015186830182015201611d2c565b506000602082860101526020601f19601f83011685010191505092915050565b602081526000611d7b6020830184611d22565b9392505050565b80356001600160a01b0381168114611d9957600080fd5b919050565b60008060408385031215611db157600080fd5b611dba83611d82565b946020939093013593505050565b600080600060608486031215611ddd57600080fd5b8335925060208401359150611df460408501611d82565b90509250925092565b80151581146109b957600080fd5b60008060408385031215611e1e57600080fd5b611e2783611d82565b91506020830135611e3781611dfd565b809150509250929050565b600060208284031215611e5457600080fd5b611d7b82611d82565b600080600060608486031215611e7257600080fd5b611e7b84611d82565b9250611e8960208501611d82565b9150604084013590509250925092565b600060208284031215611eab57600080fd5b5035919050565b60008060408385031215611ec557600080fd5b82359150611ed560208401611d82565b90509250929050565b60008060008060808587031215611ef457600080fd5b5050823594602084013594506040840135936060013592509050565b60ff60f81b881681526000602060e081840152611f3060e084018a611d22565b8381036040850152611f42818a611d22565b606085018990526001600160a01b038816608086015260a0850187905284810360c0860152855180825283870192509083019060005b81811015611f9457835183529284019291840191600101611f78565b50909c9b505050505050505050505050565b600080600080600080600060e0888a031215611fc157600080fd5b611fca88611d82565b9650611fd860208901611d82565b95506040880135945060608801359350608088013560ff81168114611ffc57600080fd5b9699959850939692959460a0840135945060c09093013592915050565b6000806040838503121561202c57600080fd5b61203583611d82565b9150611ed560208401611d82565b600181811c9082168061205757607f821691505b60208210810361207757634e487b7160e01b600052602260045260246000fd5b50919050565b6020808252600c908201526b08ccaca40e8dede40d0d2ced60a31b604082015260600190565b634e487b7160e01b600052601160045260246000fd5b80820180821115610787576107876120a3565b6000602082840312156120de57600080fd5b5051919050565b6000602082840312156120f757600080fd5b8151611d7b81611dfd565b8082028115828204841417610787576107876120a3565b60008261213657634e487b7160e01b600052601260045260246000fd5b500490565b81810381811115610787576107876120a3565b634e487b7160e01b600052602160045260246000fdfea2646970667358221220d342b553810e3093bbd250946e6d015330e6400f4be3ca3443af6ace45fb563e64736f6c63430008140033",
  "linkReferences": {},
  "deployedLinkReferences": {}
}