{
  "_format": "hh-sol-artifact-1",
  "contractName": "FeeCollector",
  "sourceName": "contracts/FeeCollector.sol",
  "abi": [
    {
      "inputs": [
        {
          "internalType": "address",
          "name": "_treasury",
          "type": "address"
        },
        {
          "internalType": "address",
          "name": "_emergencyAddress",
          "type": "address"
        }
      ],
      "stateMutability": "nonpayable",
      "type": "constructor"
    },
    {
      "inputs": [
        {
          "internalType": "address",
          "name": "owner",
          "type": "address"
        }
      ],
      "name": "OwnableInvalidOwner",
      "type": "error"
    },
    {
      "inputs": [
        {
          "internalType": "address",
          "name": "account",
          "type": "address"
        }
      ],
      "name": "OwnableUnauthorizedAccount",
      "type": "error"
    },
    {
      "inputs": [],
      "name": "ReentrancyGuardReentrantCall",
      "type": "error"
    },
    {
      "inputs": [
        {
          "internalType": "address",
          "name": "token",
          "type": "address"
        }
      ],
      "name": "SafeERC20FailedOperation",
      "type": "error"
    },
    {
      "anonymous": false,
      "inputs": [
        {
          "indexed": true,
          "internalType": "address",
          "name": "recipient",
          "type": "address"
        },
        {
          "indexed": false,
          "internalType": "uint256",
          "name": "amount",
          "type": "uint256"
        },
        {
          "indexed": false,
          "internalType": "address",
          "name": "token",
          "type": "address"
        }
      ],
      "name": "EmergencyWithdraw",
      "type": "event"
    },
    {
      "anonymous": false,
      "inputs": [
        {
          "indexed": true,
          "internalType": "address",
          "name": "payer",
          "type": "address"
        },
        {
          "indexed": true,
          "internalType": "enum FeeCollector.FeeType",
          "name": "feeType",
          "type": "uint8"
        },
        {
          "indexed": false,
          "internalType": "uint256",
          "name": "amount",
          "type": "uint256"
        },
        {
          "indexed": false,
          "internalType": "address",
          "name": "token",
          "type": "address"
        }
      ],
      "name": "FeeCollected",
      "type": "event"
    },
    {
      "anonymous": false,
      "inputs": [
        {
          "indexed": true,
          "internalType": "enum FeeCollector.FeeType",
          "name": "feeType",
          "type": "uint8"
        },
        {
          "indexed": false,
          "internalType": "uint256",
          "name": "amount",
          "type": "uint256"
        },
        {
          "indexed": false,
          "internalType": "bool",
          "name": "isEnabled",
          "type": "bool"
        }
      ],
      "name": "FeeConfigUpdated",
      "type": "event"
    },
    {
      "anonymous": false,
      "inputs": [
        {
          "indexed": true,
          "internalType": "address",
          "name": "previousOwner",
          "type": "address"
        },
        {
          "indexed": true,
          "internalType": "address",
          "name": "newOwner",
          "type": "address"
        }
      ],
      "name": "OwnershipTransferred",
      "type": "event"
    },
    {
      "anonymous": false,
      "inputs": [
        {
          "indexed": false,
          "internalType": "bool",
          "name": "isPaused",
          "type": "bool"
        }
      ],
      "name": "PausedStateChanged",
      "type": "event"
    },
    {
      "anonymous": false,
      "inputs": [
        {
          "indexed": true,
          "internalType": "address",
          "name": "recipient",
          "type": "address"
        },
        {
          "indexed": false,
          "internalType": "uint256",
          "name": "amount",
          "type": "uint256"
        },
        {
          "indexed": false,
          "internalType": "address",
          "name": "token",
          "type": "address"
        }
      ],
      "name": "RevenueDistributed",
      "type": "event"
    },
    {
      "anonymous": false,
      "inputs": [
        {
          "indexed": true,
          "internalType": "address",
          "name": "oldTreasury",
          "type": "address"
        },
        {
          "indexed": true,
          "internalType": "address",
          "name": "newTreasury",
          "type": "address"
        }
      ],
      "name": "TreasuryUpdated",
      "type": "event"
    },
    {
      "inputs": [],
      "name": "BASIS_POINTS",
      "outputs": [
        {
          "internalType": "uint256",
          "name": "",
          "type": "uint256"
        }
      ],
      "stateMutability": "view",
      "type": "function"
    },
    {
      "inputs": [],
      "name": "MAX_FEE_PERCENTAGE",
      "outputs": [
        {
          "internalType": "uint256",
          "name": "",
          "type": "uint256"
        }
      ],
      "stateMutability": "view",
      "type": "function"
    },
    {
      "inputs": [
        {
          "internalType": "address",
          "name": "recipient",
          "type": "address"
        },
        {
          "internalType": "uint256",
          "name": "share",
          "type": "uint256"
        },
        {
          "internalType": "string",
          "name": "description",
          "type": "string"
        }
      ],
      "name": "addRevenueShare",
      "outputs": [],
      "stateMutability": "nonpayable",
      "type": "function"
    },
    {
      "inputs": [
        {
          "internalType": "enum FeeCollector.FeeType",
          "name": "feeType",
          "type": "uint8"
        },
        {
          "internalType": "uint256",
          "name": "baseAmount",
          "type": "uint256"
        }
      ],
      "name": "calculateFee",
      "outputs": [
        {
          "internalType": "uint256",
          "name": "",
          "type": "uint256"
        }
      ],
      "stateMutability": "view",
      "type": "function"
    },
    {
      "inputs": [
        {
          "internalType": "enum FeeCollector.FeeType",
          "name": "feeType",
          "type": "uint8"
        }
      ],
      "name": "collectFeeETH",
      "outputs": [],
      "stateMutability": "payable",
      "type": "function"
    },
    {
      "inputs": [
        {
          "internalType": "enum FeeCollector.FeeType",
          "name": "feeType",
          "type": "uint8"
        },
        {
          "internalType": "address",
          "name": "token",
          "type": "address"
        },
        {
          "internalType": "uint256",
          "name": "amount",
          "type": "uint256"
        }
      ],
      "name": "collectFeeToken",
      "outputs": [],
      "stateMutability": "nonpayable",
      "type": "function"
    },
    {
      "inputs": [],
      "name": "distributeRevenue",
      "outputs": [],
      "stateMutability": "nonpayable",
      "type": "function"
    },
    {
      "inputs": [
        {
          "internalType": "address",
          "name": "token",
          "type": "address"
        }
      ],
      "name": "distributeTokenRevenue",
      "outputs": [],
      "stateMutability": "nonpayable",
      "type": "function"
    },
    {
      "inputs": [
        {
          "internalType": "address",
          "name": "token",
          "type": "address"
        },
        {
          "internalType": "uint256",
          "name": "amount",
          "type": "uint256"
        }
      ],
      "name": "emergencyWithdraw",
      "outputs": [],
      "stateMutability": "nonpayable",
      "type": "function"
    },
    {
      "inputs": [],
      "name": "emergencyWithdrawAddress",
      "outputs": [
        {
          "internalType": "address",
          "name": "",
          "type": "address"
        }
      ],
      "stateMutability": "view",
      "type": "function"
    },
    {
      "inputs": [
        {
          "internalType": "enum FeeCollector.FeeType",
          "name": "",
          "type": "uint8"
        }
      ],
      "name": "feeConfigs",
      "outputs": [
        {
          "internalType": "uint256",
          "name": "amount",
          "type": "uint256"
        },
        {
          "internalType": "uint256",
          "name": "minAmount",
          "type": "uint256"
        },
        {
          "internalType": "uint256",
          "name": "maxAmount",
          "type": "uint256"
        },
        {
          "internalType": "bool",
          "name": "isEnabled",
          "type": "bool"
        },
        {
          "internalType": "bool",
          "name": "isPercentage",
          "type": "bool"
        }
      ],
      "stateMutability": "view",
      "type": "function"
    },
    {
      "inputs": [],
      "name": "getRevenueShareCount",
      "outputs": [
        {
          "internalType": "uint256",
          "name": "",
          "type": "uint256"
        }
      ],
      "stateMutability": "view",
      "type": "function"
    },
    {
      "inputs": [
        {
          "internalType": "address",
          "name": "user",
          "type": "address"
        }
      ],
      "name": "getUserTotalFees",
      "outputs": [
        {
          "internalType": "uint256",
          "name": "total",
          "type": "uint256"
        }
      ],
      "stateMutability": "view",
      "type": "function"
    },
    {
      "inputs": [],
      "name": "owner",
      "outputs": [
        {
          "internalType": "address",
          "name": "",
          "type": "address"
        }
      ],
      "stateMutability": "view",
      "type": "function"
    },
    {
      "inputs": [],
      "name": "paused",
      "outputs": [
        {
          "internalType": "bool",
          "name": "",
          "type": "bool"
        }
      ],
      "stateMutability": "view",
      "type": "function"
    },
    {
      "inputs": [
        {
          "internalType": "uint256",
          "name": "index",
          "type": "uint256"
        }
      ],
      "name": "removeRevenueShare",
      "outputs": [],
      "stateMutability": "nonpayable",
      "type": "function"
    },
    {
      "inputs": [],
      "name": "renounceOwnership",
      "outputs": [],
      "stateMutability": "nonpayable",
      "type": "function"
    },
    {
      "inputs": [
        {
          "internalType": "uint256",
          "name": "",
          "type": "uint256"
        }
      ],
      "name": "revenueShares",
      "outputs": [
        {
          "internalType": "address",
          "name": "recipient",
          "type": "address"
        },
        {
          "internalType": "uint256",
          "name": "share",
          "type": "uint256"
        },
        {
          "internalType": "string",
          "name": "description",
          "type": "string"
        }
      ],
      "stateMutability": "view",
      "type": "function"
    },
    {
      "inputs": [
        {
          "internalType": "bool",
          "name": "_paused",
          "type": "bool"
        }
      ],
      "name": "setPaused",
      "outputs": [],
      "stateMutability": "nonpayable",
      "type": "function"
    },
    {
      "inputs": [],
      "name": "totalDistributed",
      "outputs": [
        {
          "internalType": "uint256",
          "name": "",
          "type": "uint256"
        }
      ],
      "stateMutability": "view",
      "type": "function"
    },
    {
      "inputs": [
        {
          "internalType": "enum FeeCollector.FeeType",
          "name": "",
          "type": "uint8"
        }
      ],
      "name": "totalFeesCollected",
      "outputs": [
        {
          "internalType": "uint256",
          "name": "",
          "type": "uint256"
        }
      ],
      "stateMutability": "view",
      "type": "function"
    },
    {
      "inputs": [],
      "name": "totalRevenue",
      "outputs": [
        {
          "internalType": "uint256",
          "name": "",
          "type": "uint256"
        }
      ],
      "stateMutability": "view",
      "type": "function"
    },
    {
      "inputs": [],
      "name": "totalShares",
      "outputs": [
        {
          "internalType": "uint256",
          "name": "",
          "type": "uint256"
        }
      ],
      "stateMutability": "view",
      "type": "function"
    },
    {
      "inputs": [
        {
          "internalType": "address",
          "name": "newOwner",
          "type": "address"
        }
      ],
      "name": "transferOwnership",
      "outputs": [],
      "stateMutability": "nonpayable",
      "type": "function"
    },
    {
      "inputs": [],
      "name": "treasury",
      "outputs": [
        {
          "internalType": "address",
          "name": "",
          "type": "address"
        }
      ],
      "stateMutability": "view",
      "type": "function"
    },
    {
      "inputs": [
        {
          "internalType": "enum FeeCollector.FeeType",
          "name": "feeType",
          "type": "uint8"
        },
        {
          "internalType": "uint256",
          "name": "amount",
          "type": "uint256"
        },
        {
          "internalType": "uint256",
          "name": "minAmount",
          "type": "uint256"
        },
        {
          "internalType": "uint256",
          "name": "maxAmount",
          "type": "uint256"
        },
        {
          "internalType": "bool",
          "name": "isEnabled",
          "type": "bool"
        },
        {
          "internalType": "bool",
          "name": "isPercentage",
          "type": "bool"
        }
      ],
      "name": "updateFeeConfig",
      "outputs": [],
      "stateMutability": "nonpayable",
      "type": "function"
    },
    {
      "inputs": [
        {
          "internalType": "address",
          "name": "newTreasury",
          "type": "address"
        }
      ],
      "name": "updateTreasury",
      "outputs": [],
      "stateMutability": "nonpayable",
      "type": "function"
    },
    {
      "inputs": [
        {
          "internalType": "address",
          "name": "",
          "type": "address"
        },
        {
          "internalType": "enum FeeCollector.FeeType",
          "name": "",
          "type": "uint8"
        }
      ],
      "name": "userFeesPaid",
      "outputs": [
        {
          "internalType": "uint256",
          "name": "",
          "type": "uint256"
        }
      ],
      "stateMutability": "view",
      "type": "function"
    },
    {
      "stateMutability": "payable",
      "type": "receive"
    }
  ],
  "bytecode": "0x60806040523480156200001157600080fd5b5060405162002b5438038062002b54833981016040819052620000349162000610565b33806200005c57604051631e4fbdf760e01b8152600060048201526024015b60405180910390fd5b6200006781620005a3565b50600180556001600160a01b038216620000b75760405162461bcd60e51b815260206004820152601060248201526f496e76616c696420747265617375727960801b604482015260640162000053565b6001600160a01b0381166200010f5760405162461bcd60e51b815260206004820152601960248201527f496e76616c696420656d657267656e6379206164647265737300000000000000604482015260640162000053565b600980546001600160a01b03199081166001600160a01b0385811691909117909255600a80549091169183169190911790556040805160a08082018352662386f26fc1000080835260208084018281528486018381526001606080880182815260006080808b018281528280526002808a529b517fac33ff75c19e70fe83507db0d683fd3465c996598dc972688b7ace676c89077b5596517fac33ff75c19e70fe83507db0d683fd3465c996598dc972688b7ace676c89077c5594517fac33ff75c19e70fe83507db0d683fd3465c996598dc972688b7ace676c89077d5590517fac33ff75c19e70fe83507db0d683fd3465c996598dc972688b7ace676c89077e80549651151561010090810261ff0019931515841661ffff19998a1617179091558b51808b018d5260648152655af3107a4000818a01908152670de0b6b3a7640000828f01908152828701888152838a018981528988528f8d5293517fe90b7bceb6e7df5418fb78d8ee546e97c83a08bbccc01a0644d599ccd2a7c2e05591517fe90b7bceb6e7df5418fb78d8ee546e97c83a08bbccc01a0644d599ccd2a7c2e155517fe90b7bceb6e7df5418fb78d8ee546e97c83a08bbccc01a0644d599ccd2a7c2e255517fe90b7bceb6e7df5418fb78d8ee546e97c83a08bbccc01a0644d599ccd2a7c2e380549251151584029115158516928a16929092171790558b51808b018d5260fa8152808901998a52678ac7230489e80000818e019081528186018781528289018881528e87528e8c5292517f679795a0195a1b76cdebb7c51d74e058aee92919b8c3389af86ef24535e8a28c559a517f679795a0195a1b76cdebb7c51d74e058aee92919b8c3389af86ef24535e8a28d55517f679795a0195a1b76cdebb7c51d74e058aee92919b8c3389af86ef24535e8a28e5598517f679795a0195a1b76cdebb7c51d74e058aee92919b8c3389af86ef24535e8a28f80549a511515830291151584169a89169a909a17179098558a51808a018c526032815266038d7ea4c68000818901908152818d01848152828601878152838901888152600387528e8c5293517f88601476d11616a71c5be67555bd1dff4b1cbf21533d2669b768b61518cfe1c35591517f88601476d11616a71c5be67555bd1dff4b1cbf21533d2669b768b61518cfe1c455517f88601476d11616a71c5be67555bd1dff4b1cbf21533d2669b768b61518cfe1c555517f88601476d11616a71c5be67555bd1dff4b1cbf21533d2669b768b61518cfe1c68054925115158b029115158416928916929092171790558a519889018b526611c37937e08000808a528988018181529b8a0190815292890193845293880181815260049091529790945294517fee60d0579bcffd98e668647d59fec1ff86a7fb340ce572e844f234ae73a6918f5595517fee60d0579bcffd98e668647d59fec1ff86a7fb340ce572e844f234ae73a691905590517fee60d0579bcffd98e668647d59fec1ff86a7fb340ce572e844f234ae73a691915591517fee60d0579bcffd98e668647d59fec1ff86a7fb340ce572e844f234ae73a691928054945115159092029015159094169290911691909117919091179055505062000648565b600080546001600160a01b038381166001600160a01b0319831681178455604051919092169283917f8be0079c531659141344cd1fd0a4f28419497f9722a3daafe3b4186f6b6457e09190a35050565b80516001600160a01b03811681146200060b57600080fd5b919050565b600080604083850312156200062457600080fd5b6200062f83620005f3565b91506200063f60208401620005f3565b90509250929050565b6124fc80620006586000396000f3fe6080604052600436106101bb5760003560e01c80637405fc4f116100ec578063b4a149ed1161008a578063e1f1c4a711610064578063e1f1c4a71461053a578063ee2a1a3614610550578063efca2eed1461057d578063f2fde38b1461059357600080fd5b8063b4a149ed146104f1578063bf2d9e0b14610504578063db090e881461051a57600080fd5b80638da5cb5b116100c65780638da5cb5b1461047357806395a13c5d1461049157806395ccea67146104b1578063af5711bd146104d157600080fd5b80637405fc4f1461041e5780637e968f40146104335780637f51bb1f1461045357600080fd5b8063558e44d31161015957806364037ae61161013357806364037ae61461033557806368cb8560146103555780636e7df031146103d1578063715018a61461040957600080fd5b8063558e44d3146102ce5780635c975abb146102e457806361d027b31461031557600080fd5b80632d07953a116101955780632d07953a146102295780632ee72e181461023e57806330a7afbc1461027b5780633a98ef39146102aa57600080fd5b8063027b73a2146101c757806303527937146101e957806316c38b3c1461020957600080fd5b366101c257005b600080fd5b3480156101d357600080fd5b506101e76101e2366004611e9a565b6105b3565b005b3480156101f557600080fd5b506101e7610204366004611ed7565b61071c565b34801561021557600080fd5b506101e7610224366004611f36565b6108b8565b34801561023557600080fd5b506101e7610918565b34801561024a57600080fd5b50600a5461025e906001600160a01b031681565b6040516001600160a01b0390911681526020015b60405180910390f35b34801561028757600080fd5b5061029b610296366004611e9a565b610d53565b60405161027293929190611f58565b3480156102b657600080fd5b506102c060045481565b604051908152602001610272565b3480156102da57600080fd5b506102c06103e881565b3480156102f057600080fd5b50600a5461030590600160a01b900460ff1681565b6040519015158152602001610272565b34801561032157600080fd5b5060095461025e906001600160a01b031681565b34801561034157600080fd5b506101e7610350366004611fd4565b610e1c565b34801561036157600080fd5b506103a5610370366004611fef565b600260208190526000918252604090912080546001820154928201546003909201549092919060ff8082169161010090041685565b60408051958652602086019490945292840191909152151560608301521515608082015260a001610272565b3480156103dd57600080fd5b506102c06103ec36600461200a565b600560209081526000928352604080842090915290825290205481565b34801561041557600080fd5b506101e7611251565b34801561042a57600080fd5b506003546102c0565b34801561043f57600080fd5b506101e761044e366004612053565b611263565b34801561045f57600080fd5b506101e761046e366004611fd4565b611448565b34801561047f57600080fd5b506000546001600160a01b031661025e565b34801561049d57600080fd5b506101e76104ac36600461211e565b6114eb565b3480156104bd57600080fd5b506101e76104cc36600461215a565b61170f565b3480156104dd57600080fd5b506102c06104ec366004612184565b611875565b6101e76104ff366004611fef565b611978565b34801561051057600080fd5b506102c060075481565b34801561052657600080fd5b506102c0610535366004611fd4565b611bcd565b34801561054657600080fd5b506102c061271081565b34801561055c57600080fd5b506102c061056b366004611fef565b60066020526000908152604090205481565b34801561058957600080fd5b506102c060085481565b34801561059f57600080fd5b506101e76105ae366004611fd4565b611c5b565b6105bb611c96565b60035481106106015760405162461bcd60e51b815260206004820152600d60248201526c092dcecc2d8d2c840d2dcc8caf609b1b60448201526064015b60405180910390fd5b60038181548110610614576106146121a0565b9060005260206000209060030201600101546004600082825461063791906121cc565b90915550506003805461064c906001906121cc565b8154811061065c5761065c6121a0565b90600052602060002090600302016003828154811061067d5761067d6121a0565b60009182526020909120825460039092020180546001600160a01b0319166001600160a01b03909216919091178155600180830154908201556002808201906106c890840182612261565b5090505060038054806106dd576106dd612342565b60008281526020812060036000199093019283020180546001600160a01b031916815560018101829055906107156002830182611e4c565b5050905550565b610724611c96565b80158061073357506103e88511155b61076e5760405162461bcd60e51b815260206004820152600c60248201526b08ccaca40e8dede40d0d2ced60a31b60448201526064016105f8565b828411158061077b575082155b6107b95760405162461bcd60e51b815260206004820152600f60248201526e092dcecc2d8d2c840dad2dc5edac2f608b1b60448201526064016105f8565b6040518060a001604052808681526020018581526020018481526020018315158152602001821515815250600260008860048111156107fa576107fa612358565b600481111561080b5761080b612358565b8152602080820192909252604090810160002083518155918301516001830155820151600282015560608201516003909101805460809093015115156101000261ff00199215159290921661ffff199093169290921717905585600481111561087657610876612358565b6040805187815284151560208201527f3109c2fea9452b71bba43a266bd6f4aa618c6dc491f5ce984ca126d4b3840d8f910160405180910390a2505050505050565b6108c0611c96565b600a8054821515600160a01b0260ff60a01b199091161790556040517f9e3a5e37224532dea67b89face185703738a228a6e8a23dee546960180d3be649061090d90831515815260200190565b60405180910390a150565b610920611cc3565b600a54600160a01b900460ff16156109705760405162461bcd60e51b8152602060048201526013602482015272111a5cdd1c9a589d5d1a5bdb881c185d5cd959606a1b60448201526064016105f8565b6000600454116109c25760405162461bcd60e51b815260206004820152601c60248201527f4e6f20726576656e75652073686172657320636f6e666967757265640000000060448201526064016105f8565b4780610a075760405162461bcd60e51b81526020600482015260146024820152734e6f2045544820746f206469737472696275746560601b60448201526064016105f8565b6000805b600354811015610c4a57600060038281548110610a2a57610a2a6121a0565b90600052602060002090600302016040518060600160405290816000820160009054906101000a90046001600160a01b03166001600160a01b03166001600160a01b0316815260200160018201548152602001600282018054610a8c906121df565b80601f0160208091040260200160405190810160405280929190818152602001828054610ab8906121df565b8015610b055780601f10610ada57610100808354040283529160200191610b05565b820191906000526020600020905b815481529060010190602001808311610ae857829003601f168201915b505050505081525050905060008160200151118015610b2d575080516001600160a01b031615155b15610c37576000600454826020015186610b47919061236e565b610b519190612385565b90508015610c355781516040516000916001600160a01b03169083908381818185875af1925050503d8060008114610ba5576040519150601f19603f3d011682016040523d82523d6000602084013e610baa565b606091505b5050905080610bf15760405162461bcd60e51b8152602060048201526013602482015272111a5cdd1c9a589d5d1a5bdb8819985a5b1959606a1b60448201526064016105f8565b610bfb82866123a7565b835160408051858152600060208201529297506001600160a01b03909116916000805160206124a7833981519152910160405180910390a2505b505b5080610c42816123ba565b915050610a0b565b508060086000828254610c5d91906123a7565b909155504790508015610d45576009546040516000916001600160a01b03169083908381818185875af1925050503d8060008114610cb7576040519150601f19603f3d011682016040523d82523d6000602084013e610cbc565b606091505b5050905080610d0d5760405162461bcd60e51b815260206004820152601860248201527f5472656173757279207472616e73666572206661696c6564000000000000000060448201526064016105f8565b60095460408051848152600060208201526001600160a01b03909216916000805160206124a7833981519152910160405180910390a2505b505050610d5160018055565b565b60038181548110610d6357600080fd5b60009182526020909120600390910201805460018201546002830180546001600160a01b039093169450909291610d99906121df565b80601f0160208091040260200160405190810160405280929190818152602001828054610dc5906121df565b8015610e125780601f10610de757610100808354040283529160200191610e12565b820191906000526020600020905b815481529060010190602001808311610df557829003601f168201915b5050505050905083565b610e24611cc3565b600a54600160a01b900460ff1615610e745760405162461bcd60e51b8152602060048201526013602482015272111a5cdd1c9a589d5d1a5bdb881c185d5cd959606a1b60448201526064016105f8565b6001600160a01b038116610eba5760405162461bcd60e51b815260206004820152600d60248201526c24b73b30b634b2103a37b5b2b760991b60448201526064016105f8565b600060045411610f0c5760405162461bcd60e51b815260206004820152601c60248201527f4e6f20726576656e75652073686172657320636f6e666967757265640000000060448201526064016105f8565b6040516370a0823160e01b81523060048201526000906001600160a01b038316906370a0823190602401602060405180830381865afa158015610f53573d6000803e3d6000fd5b505050506040513d601f19601f82011682018060405250810190610f7791906123d3565b905060008111610fc95760405162461bcd60e51b815260206004820152601760248201527f4e6f20746f6b656e7320746f206469737472696275746500000000000000000060448201526064016105f8565b60005b60035481101561117d57600060038281548110610feb57610feb6121a0565b90600052602060002090600302016040518060600160405290816000820160009054906101000a90046001600160a01b03166001600160a01b03166001600160a01b031681526020016001820154815260200160028201805461104d906121df565b80601f0160208091040260200160405190810160405280929190818152602001828054611079906121df565b80156110c65780601f1061109b576101008083540402835291602001916110c6565b820191906000526020600020905b8154815290600101906020018083116110a957829003601f168201915b5050505050815250509050600081602001511180156110ee575080516001600160a01b031615155b1561116a576000600454826020015185611108919061236e565b6111129190612385565b90508015611168578151611131906001600160a01b0387169083611ced565b8151604080518381526001600160a01b038881166020830152909216916000805160206124a7833981519152910160405180910390a25b505b5080611175816123ba565b915050610fcc565b506040516370a0823160e01b81523060048201526000906001600160a01b038416906370a0823190602401602060405180830381865afa1580156111c5573d6000803e3d6000fd5b505050506040513d601f19601f820116820180604052508101906111e991906123d3565b905080156112435760095461120b906001600160a01b03858116911683611ced565b600954604080518381526001600160a01b038681166020830152909216916000805160206124a7833981519152910160405180910390a25b505061124e60018055565b50565b611259611c96565b610d516000611d4c565b61126b611c96565b6001600160a01b0383166112b55760405162461bcd60e51b8152602060048201526011602482015270125b9d985b1a59081c9958da5c1a595b9d607a1b60448201526064016105f8565b600082116112fe5760405162461bcd60e51b81526020600482015260166024820152755368617265206d75737420626520706f73697469766560501b60448201526064016105f8565b6127108260045461130f91906123a7565b111561135d5760405162461bcd60e51b815260206004820152601860248201527f546f74616c20736861726573206578636565642031303025000000000000000060448201526064016105f8565b604080516060810182526001600160a01b03808616825260208201858152928201848152600380546001810182556000829052845191027fc2575a0e9e593c00f959f8c92f12db2869c3395a3b0502d05e2516446f71f85b81018054929094166001600160a01b031990921691909117835593517fc2575a0e9e593c00f959f8c92f12db2869c3395a3b0502d05e2516446f71f85c85015551919290917fc2575a0e9e593c00f959f8c92f12db2869c3395a3b0502d05e2516446f71f85d9091019061142990826123ec565b505050816004600082825461143e91906123a7565b9091555050505050565b611450611c96565b6001600160a01b0381166114995760405162461bcd60e51b815260206004820152601060248201526f496e76616c696420747265617375727960801b60448201526064016105f8565b600980546001600160a01b038381166001600160a01b0319831681179093556040519116919082907f4ab5be82436d353e61ca18726e984e561f5c1cc7c6d38b29d2553c790434705a90600090a35050565b6114f3611cc3565b600a54600160a01b900460ff16156115455760405162461bcd60e51b81526020600482015260156024820152741199594818dbdb1b1958dd1a5bdb881c185d5cd959605a1b60448201526064016105f8565b6001600160a01b03821661158b5760405162461bcd60e51b815260206004820152600d60248201526c24b73b30b634b2103a37b5b2b760991b60448201526064016105f8565b60006115978483611875565b9050600081116115db5760405162461bcd60e51b815260206004820152600f60248201526e139bc8199959481c995c5d5a5c9959608a1b60448201526064016105f8565b6115f06001600160a01b038416333084611d9c565b336000908152600560205260408120829186600481111561161357611613612358565b600481111561162457611624612358565b8152602001908152602001600020600082825461164191906123a7565b909155508190506006600086600481111561165e5761165e612358565b600481111561166f5761166f612358565b8152602001908152602001600020600082825461168c91906123a7565b9250508190555080600760008282546116a591906123a7565b9091555084905060048111156116bd576116bd612358565b604080518381526001600160a01b038616602082015233917fa91cd2aede26ac08d94962e3c1e816009c24733c7b248c712aa1eae4990d94b3910160405180910390a35061170a60018055565b505050565b600a546001600160a01b031633146117615760405162461bcd60e51b81526020600482015260156024820152744e6f7420656d657267656e6379206164647265737360581b60448201526064016105f8565b6001600160a01b03821661180e57600a546040516000916001600160a01b03169083908381818185875af1925050503d80600081146117bc576040519150601f19603f3d011682016040523d82523d6000602084013e6117c1565b606091505b50509050806118085760405162461bcd60e51b8152602060048201526013602482015272115512081d1c985b9cd9995c8819985a5b1959606a1b60448201526064016105f8565b50611828565b600a54611828906001600160a01b03848116911683611ced565b600a54604080518381526001600160a01b038581166020830152909216917faaeda929aa102e867049528ec7cd2499e3a2f8846e736ae7935f234dfbf500d9910160405180910390a25050565b6000806002600085600481111561188e5761188e612358565b600481111561189f5761189f612358565b81526020808201929092526040908101600020815160a081018352815481526001820154938101939093526002810154918301919091526003015460ff8082161515606084018190526101009092041615156080830152909150611907576000915050611972565b600081608001511561193457815161271090611923908661236e565b61192d9190612385565b9050611938565b5080515b816020015181101561194b575060208101515b600082604001511180156119625750816040015181115b1561196e575060408101515b9150505b92915050565b611980611cc3565b600a54600160a01b900460ff16156119d25760405162461bcd60e51b81526020600482015260156024820152741199594818dbdb1b1958dd1a5bdb881c185d5cd959605a1b60448201526064016105f8565b60006119de8234611875565b905080341015611a235760405162461bcd60e51b815260206004820152601060248201526f496e73756666696369656e742066656560801b60448201526064016105f8565b3360009081526005602052604081208291846004811115611a4657611a46612358565b6004811115611a5757611a57612358565b81526020019081526020016000206000828254611a7491906123a7565b9091555081905060066000846004811115611a9157611a91612358565b6004811115611aa257611aa2612358565b81526020019081526020016000206000828254611abf91906123a7565b925050819055508060076000828254611ad891906123a7565b909155505034811015611b7657600033611af283346121cc565b604051600081818185875af1925050503d8060008114611b2e576040519150601f19603f3d011682016040523d82523d6000602084013e611b33565b606091505b5050905080611b745760405162461bcd60e51b815260206004820152600d60248201526c1499599d5b990819985a5b1959609a1b60448201526064016105f8565b505b816004811115611b8857611b88612358565b604080518381526000602082015233917fa91cd2aede26ac08d94962e3c1e816009c24733c7b248c712aa1eae4990d94b3910160405180910390a35061124e60018055565b6000805b6005811015611c55576001600160a01b038316600090815260056020526040812090826004811115611c0557611c05612358565b6004811115611c1657611c16612358565b6004811115611c2757611c27612358565b81526020019081526020016000205482611c4191906123a7565b915080611c4d816123ba565b915050611bd1565b50919050565b611c63611c96565b6001600160a01b038116611c8d57604051631e4fbdf760e01b8152600060048201526024016105f8565b61124e81611d4c565b6000546001600160a01b03163314610d515760405163118cdaa760e01b81523360048201526024016105f8565b600260015403611ce657604051633ee5aeb560e01b815260040160405180910390fd5b6002600155565b6040516001600160a01b0383811660248301526044820183905261170a91859182169063a9059cbb906064015b604051602081830303815290604052915060e01b6020820180516001600160e01b038381831617835250505050611ddb565b600080546001600160a01b038381166001600160a01b0319831681178455604051919092169283917f8be0079c531659141344cd1fd0a4f28419497f9722a3daafe3b4186f6b6457e09190a35050565b6040516001600160a01b038481166024830152838116604483015260648201839052611dd59186918216906323b872dd90608401611d1a565b50505050565b600080602060008451602086016000885af180611dfe576040513d6000823e3d81fd5b50506000513d91508115611e16578060011415611e23565b6001600160a01b0384163b155b15611dd557604051635274afe760e01b81526001600160a01b03851660048201526024016105f8565b508054611e58906121df565b6000825580601f10611e68575050565b601f01602090049060005260206000209081019061124e91905b80821115611e965760008155600101611e82565b5090565b600060208284031215611eac57600080fd5b5035919050565b803560058110611ec257600080fd5b919050565b80358015158114611ec257600080fd5b60008060008060008060c08789031215611ef057600080fd5b611ef987611eb3565b9550602087013594506040870135935060608701359250611f1c60808801611ec7565b9150611f2a60a08801611ec7565b90509295509295509295565b600060208284031215611f4857600080fd5b611f5182611ec7565b9392505050565b60018060a01b038416815260006020848184015260606040840152835180606085015260005b81811015611f9a57858101830151858201608001528201611f7e565b506000608082860101526080601f19601f83011685010192505050949350505050565b80356001600160a01b0381168114611ec257600080fd5b600060208284031215611fe657600080fd5b611f5182611fbd565b60006020828403121561200157600080fd5b611f5182611eb3565b6000806040838503121561201d57600080fd5b61202683611fbd565b915061203460208401611eb3565b90509250929050565b634e487b7160e01b600052604160045260246000fd5b60008060006060848603121561206857600080fd5b61207184611fbd565b925060208401359150604084013567ffffffffffffffff8082111561209557600080fd5b818601915086601f8301126120a957600080fd5b8135818111156120bb576120bb61203d565b604051601f8201601f19908116603f011681019083821181831017156120e3576120e361203d565b816040528281528960208487010111156120fc57600080fd5b8260208601602083013760006020848301015280955050505050509250925092565b60008060006060848603121561213357600080fd5b61213c84611eb3565b925061214a60208501611fbd565b9150604084013590509250925092565b6000806040838503121561216d57600080fd5b61217683611fbd565b946020939093013593505050565b6000806040838503121561219757600080fd5b61217683611eb3565b634e487b7160e01b600052603260045260246000fd5b634e487b7160e01b600052601160045260246000fd5b81810381811115611972576119726121b6565b600181811c908216806121f357607f821691505b602082108103611c5557634e487b7160e01b600052602260045260246000fd5b601f82111561170a57600081815260208120601f850160051c8101602086101561223a5750805b601f850160051c820191505b8181101561225957828155600101612246565b505050505050565b81810361226c575050565b61227682546121df565b67ffffffffffffffff81111561228e5761228e61203d565b6122a28161229c84546121df565b84612213565b6000601f8211600181146122d657600083156122be5750848201545b600019600385901b1c1916600184901b17845561233b565b600085815260209020601f19841690600086815260209020845b8381101561231057828601548255600195860195909101906020016122f0565b508583101561232e5781850154600019600388901b60f8161c191681555b50505060018360011b0184555b5050505050565b634e487b7160e01b600052603160045260246000fd5b634e487b7160e01b600052602160045260246000fd5b8082028115828204841417611972576119726121b6565b6000826123a257634e487b7160e01b600052601260045260246000fd5b500490565b80820180821115611972576119726121b6565b6000600182016123cc576123cc6121b6565b5060010190565b6000602082840312156123e557600080fd5b5051919050565b815167ffffffffffffffff8111156124065761240661203d565b6124148161229c84546121df565b602080601f83116001811461244957600084156124315750858301515b600019600386901b1c1916600185901b178555612259565b600085815260208120601f198616915b8281101561247857888601518255948401946001909101908401612459565b50858210156124965787850151600019600388901b60f8161c191681555b5050505050600190811b0190555056fee062fe07fb9207904baa6f73590492a3d31aa391ba16c1261573c2fe635aa36ea2646970667358221220c1d7e5988c9b2202fc20bea8d888f9d9634d4bb3166ed751d84f7cb25fab19bb64736f6c63430008140033",
  "linkReferences": {},
  "deployedLinkReferences": {}
}