{
  "_format": "hh-sol-artifact-1",
  "contractName": "BondingCurve",
  "sourceName": "contracts/BondingCurve.sol",
  "abi": [
    {
      "inputs": [
        {
          "internalType": "address",
          "name": "_token",
          "type": "address"
        },
        {
          "internalType": "address",
          "name": "_feeRecipient",
          "type": "address"
        }
      ],
      "stateMutability": "nonpayable",
      "type": "constructor"
    },
    {
      "inputs": [
        {
          "internalType": "address",
          "name": "owner",
          "type": "address"
        }
      ],
      "name": "OwnableInvalidOwner",
      "type": "error"
    },
    {
      "inputs": [
        {
          "internalType": "address",
          "name": "account",
          "type": "address"
        }
      ],
      "name": "OwnableUnauthorizedAccount",
      "type": "error"
    },
    {
      "inputs": [],
      "name": "ReentrancyGuardReentrantCall",
      "type": "error"
    },
    {
      "inputs": [
        {
          "internalType": "address",
          "name": "token",
          "type": "address"
        }
      ],
      "name": "SafeERC20FailedOperation",
      "type": "error"
    },
    {
      "anonymous": false,
      "inputs": [
        {
          "indexed": true,
          "internalType": "address",
          "name": "recipient",
          "type": "address"
        },
        {
          "indexed": false,
          "internalType": "uint256",
          "name": "amount",
          "type": "uint256"
        }
      ],
      "name": "FeesCollected",
      "type": "event"
    },
    {
      "anonymous": false,
      "inputs": [
        {
          "indexed": true,
          "internalType": "address",
          "name": "dexPool",
          "type": "address"
        },
        {
          "indexed": false,
          "internalType": "uint256",
          "name": "liquidityETH",
          "type": "uint256"
        },
        {
          "indexed": false,
          "internalType": "uint256",
          "name": "liquidityTokens",
          "type": "uint256"
        }
      ],
      "name": "Graduated",
      "type": "event"
    },
    {
      "anonymous": false,
      "inputs": [
        {
          "indexed": true,
          "internalType": "address",
          "name": "previousOwner",
          "type": "address"
        },
        {
          "indexed": true,
          "internalType": "address",
          "name": "newOwner",
          "type": "address"
        }
      ],
      "name": "OwnershipTransferred",
      "type": "event"
    },
    {
      "anonymous": false,
      "inputs": [
        {
          "indexed": true,
          "internalType": "address",
          "name": "buyer",
          "type": "address"
        },
        {
          "indexed": false,
          "internalType": "uint256",
          "name": "ethAmount",
          "type": "uint256"
        },
        {
          "indexed": false,
          "internalType": "uint256",
          "name": "tokenAmount",
          "type": "uint256"
        },
        {
          "indexed": false,
          "internalType": "uint256",
          "name": "newPrice",
          "type": "uint256"
        }
      ],
      "name": "TokensPurchased",
      "type": "event"
    },
    {
      "anonymous": false,
      "inputs": [
        {
          "indexed": true,
          "internalType": "address",
          "name": "seller",
          "type": "address"
        },
        {
          "indexed": false,
          "internalType": "uint256",
          "name": "tokenAmount",
          "type": "uint256"
        },
        {
          "indexed": false,
          "internalType": "uint256",
          "name": "ethAmount",
          "type": "uint256"
        },
        {
          "indexed": false,
          "internalType": "uint256",
          "name": "newPrice",
          "type": "uint256"
        }
      ],
      "name": "TokensSold",
      "type": "event"
    },
    {
      "inputs": [],
      "name": "BUY_FEE",
      "outputs": [
        {
          "internalType": "uint256",
          "name": "",
          "type": "uint256"
        }
      ],
      "stateMutability": "view",
      "type": "function"
    },
    {
      "inputs": [],
      "name": "DECIMALS",
      "outputs": [
        {
          "internalType": "uint256",
          "name": "",
          "type": "uint256"
        }
      ],
      "stateMutability": "view",
      "type": "function"
    },
    {
      "inputs": [],
      "name": "GRADUATION_FEE",
      "outputs": [
        {
          "internalType": "uint256",
          "name": "",
          "type": "uint256"
        }
      ],
      "stateMutability": "view",
      "type": "function"
    },
    {
      "inputs": [],
      "name": "GRADUATION_HOLDERS",
      "outputs": [
        {
          "internalType": "uint256",
          "name": "",
          "type": "uint256"
        }
      ],
      "stateMutability": "view",
      "type": "function"
    },
    {
      "inputs": [],
      "name": "GRADUATION_LIQUIDITY",
      "outputs": [
        {
          "internalType": "uint256",
          "name": "",
          "type": "uint256"
        }
      ],
      "stateMutability": "view",
      "type": "function"
    },
    {
      "inputs": [],
      "name": "GRADUATION_MARKET_CAP",
      "outputs": [
        {
          "internalType": "uint256",
          "name": "",
          "type": "uint256"
        }
      ],
      "stateMutability": "view",
      "type": "function"
    },
    {
      "inputs": [],
      "name": "GRADUATION_VOLUME",
      "outputs": [
        {
          "internalType": "uint256",
          "name": "",
          "type": "uint256"
        }
      ],
      "stateMutability": "view",
      "type": "function"
    },
    {
      "inputs": [],
      "name": "K",
      "outputs": [
        {
          "internalType": "uint256",
          "name": "",
          "type": "uint256"
        }
      ],
      "stateMutability": "view",
      "type": "function"
    },
    {
      "inputs": [],
      "name": "N",
      "outputs": [
        {
          "internalType": "uint256",
          "name": "",
          "type": "uint256"
        }
      ],
      "stateMutability": "view",
      "type": "function"
    },
    {
      "inputs": [],
      "name": "PRICE_DECIMALS",
      "outputs": [
        {
          "internalType": "uint256",
          "name": "",
          "type": "uint256"
        }
      ],
      "stateMutability": "view",
      "type": "function"
    },
    {
      "inputs": [],
      "name": "SELL_FEE",
      "outputs": [
        {
          "internalType": "uint256",
          "name": "",
          "type": "uint256"
        }
      ],
      "stateMutability": "view",
      "type": "function"
    },
    {
      "inputs": [
        {
          "internalType": "address",
          "name": "",
          "type": "address"
        }
      ],
      "name": "balances",
      "outputs": [
        {
          "internalType": "uint256",
          "name": "",
          "type": "uint256"
        }
      ],
      "stateMutability": "view",
      "type": "function"
    },
    {
      "inputs": [],
      "name": "buy",
      "outputs": [],
      "stateMutability": "payable",
      "type": "function"
    },
    {
      "inputs": [
        {
          "internalType": "uint256",
          "name": "ethAmount",
          "type": "uint256"
        }
      ],
      "name": "calculateBuyAmount",
      "outputs": [
        {
          "internalType": "uint256",
          "name": "",
          "type": "uint256"
        }
      ],
      "stateMutability": "view",
      "type": "function"
    },
    {
      "inputs": [
        {
          "internalType": "uint256",
          "name": "supply",
          "type": "uint256"
        }
      ],
      "name": "calculatePrice",
      "outputs": [
        {
          "internalType": "uint256",
          "name": "",
          "type": "uint256"
        }
      ],
      "stateMutability": "pure",
      "type": "function"
    },
    {
      "inputs": [
        {
          "internalType": "uint256",
          "name": "tokenAmount",
          "type": "uint256"
        }
      ],
      "name": "calculatePurchaseCost",
      "outputs": [
        {
          "internalType": "uint256",
          "name": "",
          "type": "uint256"
        }
      ],
      "stateMutability": "view",
      "type": "function"
    },
    {
      "inputs": [
        {
          "internalType": "uint256",
          "name": "tokenAmount",
          "type": "uint256"
        }
      ],
      "name": "calculateSellReturn",
      "outputs": [
        {
          "internalType": "uint256",
          "name": "",
          "type": "uint256"
        }
      ],
      "stateMutability": "view",
      "type": "function"
    },
    {
      "inputs": [],
      "name": "dailyVolume",
      "outputs": [
        {
          "internalType": "uint256",
          "name": "",
          "type": "uint256"
        }
      ],
      "stateMutability": "view",
      "type": "function"
    },
    {
      "inputs": [],
      "name": "dexPool",
      "outputs": [
        {
          "internalType": "address",
          "name": "",
          "type": "address"
        }
      ],
      "stateMutability": "view",
      "type": "function"
    },
    {
      "inputs": [],
      "name": "emergencyWithdraw",
      "outputs": [],
      "stateMutability": "nonpayable",
      "type": "function"
    },
    {
      "inputs": [],
      "name": "feeRecipient",
      "outputs": [
        {
          "internalType": "address",
          "name": "",
          "type": "address"
        }
      ],
      "stateMutability": "view",
      "type": "function"
    },
    {
      "inputs": [],
      "name": "getGraduationProgress",
      "outputs": [
        {
          "internalType": "uint256",
          "name": "marketCapProgress",
          "type": "uint256"
        },
        {
          "internalType": "uint256",
          "name": "liquidityProgress",
          "type": "uint256"
        },
        {
          "internalType": "uint256",
          "name": "holdersProgress",
          "type": "uint256"
        },
        {
          "internalType": "uint256",
          "name": "volumeProgress",
          "type": "uint256"
        }
      ],
      "stateMutability": "view",
      "type": "function"
    },
    {
      "inputs": [
        {
          "internalType": "address",
          "name": "_dexPool",
          "type": "address"
        },
        {
          "internalType": "uint256",
          "name": "liquidityPercentage",
          "type": "uint256"
        }
      ],
      "name": "graduate",
      "outputs": [],
      "stateMutability": "nonpayable",
      "type": "function"
    },
    {
      "inputs": [],
      "name": "graduated",
      "outputs": [
        {
          "internalType": "bool",
          "name": "",
          "type": "bool"
        }
      ],
      "stateMutability": "view",
      "type": "function"
    },
    {
      "inputs": [
        {
          "internalType": "address",
          "name": "",
          "type": "address"
        }
      ],
      "name": "hasTraded",
      "outputs": [
        {
          "internalType": "bool",
          "name": "",
          "type": "bool"
        }
      ],
      "stateMutability": "view",
      "type": "function"
    },
    {
      "inputs": [],
      "name": "isEligibleForGraduation",
      "outputs": [
        {
          "internalType": "bool",
          "name": "",
          "type": "bool"
        }
      ],
      "stateMutability": "view",
      "type": "function"
    },
    {
      "inputs": [],
      "name": "lastVolumeReset",
      "outputs": [
        {
          "internalType": "uint256",
          "name": "",
          "type": "uint256"
        }
      ],
      "stateMutability": "view",
      "type": "function"
    },
    {
      "inputs": [],
      "name": "owner",
      "outputs": [
        {
          "internalType": "address",
          "name": "",
          "type": "address"
        }
      ],
      "stateMutability": "view",
      "type": "function"
    },
    {
      "inputs": [],
      "name": "renounceOwnership",
      "outputs": [],
      "stateMutability": "nonpayable",
      "type": "function"
    },
    {
      "inputs": [],
      "name": "reserveBalance",
      "outputs": [
        {
          "internalType": "uint256",
          "name": "",
          "type": "uint256"
        }
      ],
      "stateMutability": "view",
      "type": "function"
    },
    {
      "inputs": [
        {
          "internalType": "uint256",
          "name": "tokenAmount",
          "type": "uint256"
        }
      ],
      "name": "sell",
      "outputs": [],
      "stateMutability": "nonpayable",
      "type": "function"
    },
    {
      "inputs": [
        {
          "internalType": "address",
          "name": "_feeRecipient",
          "type": "address"
        }
      ],
      "name": "setFeeRecipient",
      "outputs": [],
      "stateMutability": "nonpayable",
      "type": "function"
    },
    {
      "inputs": [],
      "name": "token",
      "outputs": [
        {
          "internalType": "contract IERC20",
          "name": "",
          "type": "address"
        }
      ],
      "stateMutability": "view",
      "type": "function"
    },
    {
      "inputs": [],
      "name": "tokenSupply",
      "outputs": [
        {
          "internalType": "uint256",
          "name": "",
          "type": "uint256"
        }
      ],
      "stateMutability": "view",
      "type": "function"
    },
    {
      "inputs": [],
      "name": "totalVolume",
      "outputs": [
        {
          "internalType": "uint256",
          "name": "",
          "type": "uint256"
        }
      ],
      "stateMutability": "view",
      "type": "function"
    },
    {
      "inputs": [
        {
          "internalType": "address",
          "name": "newOwner",
          "type": "address"
        }
      ],
      "name": "transferOwnership",
      "outputs": [],
      "stateMutability": "nonpayable",
      "type": "function"
    },
    {
      "inputs": [],
      "name": "uniqueHolders",
      "outputs": [
        {
          "internalType": "uint256",
          "name": "",
          "type": "uint256"
        }
      ],
      "stateMutability": "view",
      "type": "function"
    }
  ],
  "bytecode": "0x60a06040523480156200001157600080fd5b5060405162001ec638038062001ec68339810160408190526200003491620001b9565b600160005533806200006157604051631e4fbdf760e01b8152600060048201526024015b60405180910390fd5b6200006c816200014a565b506001600160a01b038216620000c55760405162461bcd60e51b815260206004820152601560248201527f496e76616c696420746f6b656e20616464726573730000000000000000000000604482015260640162000058565b6001600160a01b0381166200011d5760405162461bcd60e51b815260206004820152601560248201527f496e76616c69642066656520726563697069656e740000000000000000000000604482015260640162000058565b6001600160a01b03918216608052600b80546001600160a01b0319169190921617905542600655620001f1565b600180546001600160a01b038381166001600160a01b0319831681179093556040519116919082907f8be0079c531659141344cd1fd0a4f28419497f9722a3daafe3b4186f6b6457e090600090a35050565b80516001600160a01b0381168114620001b457600080fd5b919050565b60008060408385031215620001cd57600080fd5b620001d8836200019c565b9150620001e8602084016200019c565b90509250929050565b608051611c9662000230600039600081816106110152818161077501528181610a4901528181610f2901528181610fc301526111f70152611c966000f3fe60806040526004361061021a5760003560e01c8063a6f2ae3a11610123578063db2e21bc116100ab578063e973c5571161006f578063e973c55714610592578063ec8dc754146105a7578063f1a640f8146105c7578063f2fde38b146105df578063fc0c546a146105ff57600080fd5b8063db2e21bc1461050d578063e4849b3214610522578063e5bd9fa114610542578063e74b981b14610558578063e7c2b7721461057857600080fd5b8063bc3c39cb116100f2578063bc3c39cb14610477578063c764263a14610497578063c9c5cacb146104cc578063c9e525df146104e2578063caa9334f146104f757600080fd5b8063a6f2ae3a14610419578063a932492f14610421578063acd27ef714610437578063ae1042651461045757600080fd5b80636777a1eb116101a657806380ec4cc31161017557806380ec4cc31461039a57806382639852146103af5780638da5cb5b146103cf57806398c8877e146103ed578063a10954fe1461040357600080fd5b80636777a1eb1461021f578063715018a61461033d578063716fe304146103545780637824407f1461038457600080fd5b806346904840116101ed57806346904840146102cd5780634773a6a91461021f57806353de6ddb146102ed5780635f81a57c1461030257806366d0c7b31461031857600080fd5b806327b9bb9c1461021f57806327e235e3146102475780632e0f2625146102745780633d2fa2d214610290575b600080fd5b34801561022b57600080fd5b50610234606481565b6040519081526020015b60405180910390f35b34801561025357600080fd5b50610234610262366004611ad9565b60076020526000908152604090205481565b34801561028057600080fd5b50610234670de0b6b3a764000081565b34801561029c57600080fd5b50600a546102b59061010090046001600160a01b031681565b6040516001600160a01b03909116815260200161023e565b3480156102d957600080fd5b50600b546102b5906001600160a01b031681565b3480156102f957600080fd5b50610234610633565b34801561030e57600080fd5b5061023460045481565b34801561032457600080fd5b5061032d61064a565b604051901515815260200161023e565b34801561034957600080fd5b506103526106ef565b005b34801561036057600080fd5b5061032d61036f366004611ad9565b60086020526000908152604090205460ff1681565b34801561039057600080fd5b5061023460035481565b3480156103a657600080fd5b50610234610703565b3480156103bb57600080fd5b506102346103ca366004611afb565b610717565b3480156103db57600080fd5b506001546001600160a01b03166102b5565b3480156103f957600080fd5b5061023460055481565b34801561040f57600080fd5b5061023460025481565b610352610876565b34801561042d57600080fd5b5061023461271081565b34801561044357600080fd5b50610234610452366004611afb565b610b90565b34801561046357600080fd5b50610234610472366004611afb565b610c05565b34801561048357600080fd5b50610234610492366004611afb565b610c74565b3480156104a357600080fd5b506104ac610d2f565b60408051948552602085019390935291830152606082015260800161023e565b3480156104d857600080fd5b506102346101f481565b3480156104ee57600080fd5b50610234600f81565b34801561050357600080fd5b5061023460095481565b34801561051957600080fd5b50610352610e16565b34801561052e57600080fd5b5061035261053d366004611afb565b610fee565b34801561054e57600080fd5b5061023460065481565b34801561056457600080fd5b50610352610573366004611ad9565b611406565b34801561058457600080fd5b50600a5461032d9060ff1681565b34801561059e57600080fd5b5061023461147e565b3480156105b357600080fd5b506103526105c2366004611b14565b611493565b3480156105d357600080fd5b50610234633b9aca0081565b3480156105eb57600080fd5b506103526105fa366004611ad9565b611759565b34801561060b57600080fd5b506102b57f000000000000000000000000000000000000000000000000000000000000000081565b610647670de0b6b3a764000061c350611b54565b81565b600080610658600354610c05565b90506000670de0b6b3a7640000826003546106739190611b54565b61067d9190611b6b565b9050610694670de0b6b3a7640000620186a0611b54565b81101580156106b857506106b2670de0b6b3a764000061c350611b54565b60025410155b80156106c75750606460095410155b80156106e857506106e2670de0b6b3a76400006161a8611b54565b60055410155b9250505090565b6106f7611794565b61070160006117c1565b565b610647670de0b6b3a76400006161a8611b54565b600a5460009060ff16156107465760405162461bcd60e51b815260040161073d90611b8d565b60405180910390fd5b6000612710610756606485611b54565b6107609190611b6b565b9050600061076e8285611bc4565b90506000807f00000000000000000000000000000000000000000000000000000000000000006001600160a01b03166318160ddd6040518163ffffffff1660e01b8152600401602060405180830381865afa1580156107d1573d6000803e3d6000fd5b505050506040513d601f19601f820116820180604052508101906107f59190611bd7565b905060005b81831161086c576000600261080f8486611bf0565b6108199190611b6b565b9050600061082682610b90565b90508581116108465781925081600161083f9190611bf0565b9450610865565b811561085e57610857600183611bc4565b9350610865565b505061086c565b50506107fa565b9695505050505050565b61087e611813565b600a5460ff16156108a15760405162461bcd60e51b815260040161073d90611b8d565b600034116108df5760405162461bcd60e51b815260206004820152600b60248201526a139bc8115512081cd95b9d60aa1b604482015260640161073d565b60006108ea34610717565b90506000811161094a5760405162461bcd60e51b815260206004820152602560248201527f496e73756666696369656e742045544820666f72206d696e696d756d20707572604482015264636861736560d81b606482015260840161073d565b600061271061095a606434611b54565b6109649190611b6b565b905060006109728234611bc4565b905082600360008282546109869190611bf0565b92505081905550806002600082825461099f9190611bf0565b9250508190555034600460008282546109b89190611bf0565b909155506109c790503461183d565b336000908152600760205260409020541580156109e45750600083115b15610a1757336000908152600860205260408120805460ff191660011790556009805491610a1183611c03565b91905055505b3360009081526007602052604081208054859290610a36908490611bf0565b90915550610a7090506001600160a01b037f0000000000000000000000000000000000000000000000000000000000000000163385611876565b8115610b2d57600b546040516000916001600160a01b03169084908381818185875af1925050503d8060008114610ac3576040519150601f19603f3d011682016040523d82523d6000602084013e610ac8565b606091505b5050905080610ae95760405162461bcd60e51b815260040161073d90611c1c565b600b546040518481526001600160a01b03909116907f9dc46f23cfb5ddcad0ae7ea2be38d47fec07bb9382ec7e564efc69e036dd66ce9060200160405180910390a2505b336001600160a01b03167f0d1a0d5e3d583a0e92588799dd06e50fd78c07daf05f0cc06d7b848b1ca445f13485610b65600354610c05565b6040805193845260208401929092529082015260600160405180910390a25050506107016001600055565b600a5460009060ff1615610bb65760405162461bcd60e51b815260040161073d90611b8d565b6003546000610bc58483611bf0565b90506000610bd383836118da565b90506000610be46064612710611bc4565b610bef606484611b54565b610bf99190611b6b565b905061086c8183611bf0565b600081600003610c185750612710919050565b6000610c28633b9aca0084611b6b565b9050600081610c378180611b54565b610c419190611b54565b90506000610c4e826119a3565b9050633b9aca00610c6182612710611b54565b610c6b9190611b6b565b95945050505050565b600a5460009060ff1615610c9a5760405162461bcd60e51b815260040161073d90611b8d565b600354821115610ce55760405162461bcd60e51b8152602060048201526016602482015275496e73756666696369656e74206c697175696469747960501b604482015260640161073d565b600082600354610cf59190611bc4565b6003549091506000610d0783836118da565b90506000612710610d19606484611b54565b610d239190611b6b565b905061086c8183611bc4565b6000806000806000610d42600354610c05565b90506000670de0b6b3a764000082600354610d5d9190611b54565b610d679190611b6b565b9050610d7e670de0b6b3a7640000620186a0611b54565b610d89826064611b54565b610d939190611b6b565b9550610da9670de0b6b3a764000061c350611b54565b600254610db7906064611b54565b610dc19190611b6b565b945060646009546064610dd49190611b54565b610dde9190611b6b565b9350610df4670de0b6b3a76400006161a8611b54565b600554610e02906064611b54565b610e0c9190611b6b565b9250505090919293565b610e1e611794565b600a5460ff16610e605760405162461bcd60e51b815260206004820152600d60248201526c139bdd0819dc98591d585d1959609a1b604482015260640161073d565b478015610f11576000610e7b6001546001600160a01b031690565b6001600160a01b03168260405160006040518083038185875af1925050503d8060008114610ec5576040519150601f19603f3d011682016040523d82523d6000602084013e610eca565b606091505b5050905080610f0f5760405162461bcd60e51b815260206004820152601160248201527015da5d1a191c985dd85b0819985a5b1959607a1b604482015260640161073d565b505b6040516370a0823160e01b81523060048201526000907f00000000000000000000000000000000000000000000000000000000000000006001600160a01b0316906370a0823190602401602060405180830381865afa158015610f78573d6000803e3d6000fd5b505050506040513d601f19601f82011682018060405250810190610f9c9190611bd7565b90508015610fea57610fea610fb96001546001600160a01b031690565b6001600160a01b037f0000000000000000000000000000000000000000000000000000000000000000169083611876565b5050565b610ff6611813565b600a5460ff16156110195760405162461bcd60e51b815260040161073d90611b8d565b6000811161105a5760405162461bcd60e51b815260206004820152600e60248201526d125b9d985b1a5908185b5bdd5b9d60921b604482015260640161073d565b336000908152600760205260409020548111156110b05760405162461bcd60e51b8152602060048201526014602482015273496e73756666696369656e742062616c616e636560601b604482015260640161073d565b60006110bb82610c74565b9050600081116110fd5760405162461bcd60e51b815260206004820152600d60248201526c27379022aa24103932ba3ab93760991b604482015260640161073d565b8060025410156111475760405162461bcd60e51b8152602060048201526015602482015274496e73756666696369656e7420726573657276657360581b604482015260640161073d565b81600360008282546111599190611bc4565b9250508190555080600260008282546111729190611bc4565b92505081905550806004600082825461118b9190611bf0565b9091555061119a90508161183d565b33600090815260076020526040812080548492906111b9908490611bc4565b90915550503360009081526007602052604081205490036111ea57600980549060006111e483611c49565b91905055505b61121f6001600160a01b037f000000000000000000000000000000000000000000000000000000000000000016333085611a0d565b600061122e6064612710611bc4565b611239606484611b54565b6112439190611b6b565b905060006112518284611bc4565b604051909150600090339083908381818185875af1925050503d8060008114611296576040519150601f19603f3d011682016040523d82523d6000602084013e61129b565b606091505b50509050806112e25760405162461bcd60e51b8152602060048201526013602482015272115512081d1c985b9cd9995c8819985a5b1959606a1b604482015260640161073d565b821561139f57600b546040516000916001600160a01b03169085908381818185875af1925050503d8060008114611335576040519150601f19603f3d011682016040523d82523d6000602084013e61133a565b606091505b505090508061135b5760405162461bcd60e51b815260040161073d90611c1c565b600b546040518581526001600160a01b03909116907f9dc46f23cfb5ddcad0ae7ea2be38d47fec07bb9382ec7e564efc69e036dd66ce9060200160405180910390a2505b336001600160a01b03167f6db63bebf1e6540277744df32846ebdb98385b1a73f2d5de49b28348add63f5086846113d7600354610c05565b6040805193845260208401929092529082015260600160405180910390a2505050506114036001600055565b50565b61140e611794565b6001600160a01b03811661145c5760405162461bcd60e51b8152602060048201526015602482015274125b9d985b1a5908199959481c9958da5c1a595b9d605a1b604482015260640161073d565b600b80546001600160a01b0319166001600160a01b0392909216919091179055565b610647670de0b6b3a7640000620186a0611b54565b61149b611794565b600a5460ff16156114e25760405162461bcd60e51b8152602060048201526011602482015270105b1c9958591e4819dc98591d585d1959607a1b604482015260640161073d565b6001600160a01b03821661152b5760405162461bcd60e51b815260206004820152601060248201526f125b9d985b1a5908111156081c1bdbdb60821b604482015260640161073d565b60648111156115715760405162461bcd60e51b8152602060048201526012602482015271496e76616c69642070657263656e7461676560701b604482015260640161073d565b61157961064a565b6115c55760405162461bcd60e51b815260206004820152601b60248201527f4e6f7420656c696769626c6520666f722067726164756174696f6e0000000000604482015260640161073d565b600a80546001600160a01b038416610100026001600160a81b03199091161760011790556002546000906064906115fd908490611b54565b6116079190611b6b565b905060006064600354601e61161c9190611b54565b6116269190611b6b565b905060006127106116396101f485611b54565b6116439190611b6b565b905061164f8184611bc4565b9250801561170e57600b546040516000916001600160a01b03169083908381818185875af1925050503d80600081146116a4576040519150601f19603f3d011682016040523d82523d6000602084013e6116a9565b606091505b50509050806116ca5760405162461bcd60e51b815260040161073d90611c1c565b600b546040518381526001600160a01b03909116907f9dc46f23cfb5ddcad0ae7ea2be38d47fec07bb9382ec7e564efc69e036dd66ce9060200160405180910390a2505b60408051848152602081018490526001600160a01b038716917f1c858049e704460ab9455025be4078f9e746e3fd426a56040d06389edb8197db910160405180910390a25050505050565b611761611794565b6001600160a01b03811661178b57604051631e4fbdf760e01b81526000600482015260240161073d565b611403816117c1565b6001546001600160a01b031633146107015760405163118cdaa760e01b815233600482015260240161073d565b600180546001600160a01b038381166001600160a01b0319831681179093556040519116919082907f8be0079c531659141344cd1fd0a4f28419497f9722a3daafe3b4186f6b6457e090600090a35050565b60026000540361183657604051633ee5aeb560e01b815260040160405180910390fd5b6002600055565b60065461184d9062015180611bf0565b421061185c5760055542600655565b806005600082825461186e9190611bf0565b909155505050565b6040516001600160a01b038381166024830152604482018390526118d591859182169063a9059cbb906064015b604051602081830303815290604052915060e01b6020820180516001600160e01b038381831617835250505050611a4c565b505050565b6000606481816118ea8686611bc4565b6118f49190611b6b565b90506000805b8381101561199757600061190e8483611b54565b6119189089611bf0565b905060006119268583611bf0565b9050600061193383610c05565b9050600061194083610c05565b9050611955670de0b6b3a76400006002611b54565b876119608385611bf0565b61196a9190611b54565b6119749190611b6b565b61197e9087611bf0565b955050505050808061198f90611c03565b9150506118fa565b50925050505b92915050565b6000816000036119b557506000919050565b600060026119c4846001611bf0565b6119ce9190611b6b565b90508291505b81811015611a07579050806002816119ec8186611b6b565b6119f69190611bf0565b611a009190611b6b565b90506119d4565b50919050565b6040516001600160a01b038481166024830152838116604483015260648201839052611a469186918216906323b872dd906084016118a3565b50505050565b600080602060008451602086016000885af180611a6f576040513d6000823e3d81fd5b50506000513d91508115611a87578060011415611a94565b6001600160a01b0384163b155b15611a4657604051635274afe760e01b81526001600160a01b038516600482015260240161073d565b80356001600160a01b0381168114611ad457600080fd5b919050565b600060208284031215611aeb57600080fd5b611af482611abd565b9392505050565b600060208284031215611b0d57600080fd5b5035919050565b60008060408385031215611b2757600080fd5b611b3083611abd565b946020939093013593505050565b634e487b7160e01b600052601160045260246000fd5b808202811582820484141761199d5761199d611b3e565b600082611b8857634e487b7160e01b600052601260045260246000fd5b500490565b60208082526017908201527f426f6e64696e6720637572766520677261647561746564000000000000000000604082015260600190565b8181038181111561199d5761199d611b3e565b600060208284031215611be957600080fd5b5051919050565b8082018082111561199d5761199d611b3e565b600060018201611c1557611c15611b3e565b5060010190565b602080825260139082015272119959481d1c985b9cd9995c8819985a5b1959606a1b604082015260600190565b600081611c5857611c58611b3e565b50600019019056fea264697066735822122088a074147a717365b8fa845f6b5fc2e83d5b5bc1860eafdfc90dc3396b1648e264736f6c63430008140033",
  "linkReferences": {},
  "deployedLinkReferences": {}
}